{
	"blockchain/EmployeeContractStorage.sol": {
		"EmployeeContractStorage": {
			"abi": [
				{
					"constant": true,
					"inputs": [
						{
							"name": "_employeeAddress",
							"type": "address"
						}
					],
					"name": "employeeExists",
					"outputs": [
						{
							"name": "",
							"type": "bool"
						}
					],
					"payable": false,
					"stateMutability": "view",
					"type": "function"
				},
				{
					"constant": false,
					"inputs": [
						{
							"name": "amount",
							"type": "uint256"
						}
					],
					"name": "withdrawFunds",
					"outputs": [],
					"payable": false,
					"stateMutability": "nonpayable",
					"type": "function"
				},
				{
					"constant": false,
					"inputs": [
						{
							"name": "_employeeAddress",
							"type": "address"
						},
						{
							"name": "_salaryPerSecond",
							"type": "uint256"
						}
					],
					"name": "updateSalaryPerSecond",
					"outputs": [],
					"payable": false,
					"stateMutability": "nonpayable",
					"type": "function"
				},
				{
					"constant": true,
					"inputs": [],
					"name": "getNumberOfEmployees",
					"outputs": [
						{
							"name": "",
							"type": "uint256"
						}
					],
					"payable": false,
					"stateMutability": "view",
					"type": "function"
				},
				{
					"constant": false,
					"inputs": [
						{
							"name": "_incomeAccount",
							"type": "address"
						},
						{
							"name": "_salaryPerSecond",
							"type": "uint256"
						},
						{
							"name": "_maximumSecondsPerSession",
							"type": "uint256"
						}
					],
					"name": "createEmployeeContract",
					"outputs": [
						{
							"name": "",
							"type": "uint256"
						}
					],
					"payable": false,
					"stateMutability": "nonpayable",
					"type": "function"
				},
				{
					"constant": true,
					"inputs": [
						{
							"name": "_index",
							"type": "uint256"
						}
					],
					"name": "getAddressByIndex",
					"outputs": [
						{
							"name": "",
							"type": "address"
						}
					],
					"payable": false,
					"stateMutability": "view",
					"type": "function"
				},
				{
					"constant": false,
					"inputs": [
						{
							"name": "_employeeAddress",
							"type": "address"
						},
						{
							"name": "_maximumSecondsPerSession",
							"type": "uint256"
						}
					],
					"name": "updateMaximumSecondsPerSession",
					"outputs": [],
					"payable": false,
					"stateMutability": "nonpayable",
					"type": "function"
				},
				{
					"constant": true,
					"inputs": [
						{
							"name": "_employeeAddress",
							"type": "address"
						}
					],
					"name": "readSalaryPerSecond",
					"outputs": [
						{
							"name": "",
							"type": "uint256"
						}
					],
					"payable": false,
					"stateMutability": "view",
					"type": "function"
				},
				{
					"constant": true,
					"inputs": [
						{
							"name": "_employeeAddress",
							"type": "address"
						}
					],
					"name": "readMaximumSecondsPerSession",
					"outputs": [
						{
							"name": "",
							"type": "uint256"
						}
					],
					"payable": false,
					"stateMutability": "view",
					"type": "function"
				},
				{
					"inputs": [],
					"payable": false,
					"stateMutability": "nonpayable",
					"type": "constructor"
				},
				{
					"anonymous": false,
					"inputs": [
						{
							"indexed": true,
							"name": "_from",
							"type": "address"
						},
						{
							"indexed": false,
							"name": "incomeAccount",
							"type": "address"
						},
						{
							"indexed": false,
							"name": "salaryPerSecond",
							"type": "uint256"
						},
						{
							"indexed": false,
							"name": "maximumSecondsPerSession",
							"type": "uint256"
						}
					],
					"name": "EmployeeContractCreation",
					"type": "event"
				}
			],
			"devdoc": {
				"methods": {}
			},
			"evm": {
				"assembly": "    /* \"blockchain/EmployeeContractStorage.sol\":28:3917  contract EmployeeContractStorage  {\r... */\n  mstore(0x40, 0x80)\n    /* \"blockchain/EmployeeContractStorage.sol\":1039:1099  constructor() public {\r... */\n  callvalue\n    /* \"--CODEGEN--\":8:17   */\n  dup1\n    /* \"--CODEGEN--\":5:7   */\n  iszero\n  tag_1\n  jumpi\n    /* \"--CODEGEN--\":30:31   */\n  0x0\n    /* \"--CODEGEN--\":27:28   */\n  dup1\n    /* \"--CODEGEN--\":20:32   */\n  revert\n    /* \"--CODEGEN--\":5:7   */\ntag_1:\n    /* \"blockchain/EmployeeContractStorage.sol\":1039:1099  constructor() public {\r... */\n  pop\n    /* \"blockchain/EmployeeContractStorage.sol\":1089:1090  0 */\n  0x0\n    /* \"blockchain/EmployeeContractStorage.sol\":1071:1086  employeeCounter */\n  dup1\n    /* \"blockchain/EmployeeContractStorage.sol\":1071:1090  employeeCounter = 0 */\n  dup2\n  swap1\n  sstore\n  pop\n    /* \"blockchain/EmployeeContractStorage.sol\":28:3917  contract EmployeeContractStorage  {\r... */\n  dataSize(sub_0)\n  dup1\n  dataOffset(sub_0)\n  0x0\n  codecopy\n  0x0\n  return\nstop\n\nsub_0: assembly {\n        /* \"blockchain/EmployeeContractStorage.sol\":28:3917  contract EmployeeContractStorage  {\r... */\n      mstore(0x40, 0x80)\n      jumpi(tag_1, lt(calldatasize, 0x4))\n      calldataload(0x0)\n      0x100000000000000000000000000000000000000000000000000000000\n      swap1\n      div\n      0xffffffff\n      and\n      dup1\n      0x1024f223\n      eq\n      tag_2\n      jumpi\n      dup1\n      0x155dd5ee\n      eq\n      tag_3\n      jumpi\n      dup1\n      0x5da74955\n      eq\n      tag_4\n      jumpi\n      dup1\n      0x888e1d05\n      eq\n      tag_5\n      jumpi\n      dup1\n      0x9e757f98\n      eq\n      tag_6\n      jumpi\n      dup1\n      0xce10cf88\n      eq\n      tag_7\n      jumpi\n      dup1\n      0xdbbf65b7\n      eq\n      tag_8\n      jumpi\n      dup1\n      0xf5e369e8\n      eq\n      tag_9\n      jumpi\n      dup1\n      0xfd2b8257\n      eq\n      tag_10\n      jumpi\n    tag_1:\n      0x0\n      dup1\n      revert\n        /* \"blockchain/EmployeeContractStorage.sol\":3710:3912  function employeeExists(address _employeeAddress) \r... */\n    tag_2:\n      callvalue\n        /* \"--CODEGEN--\":8:17   */\n      dup1\n        /* \"--CODEGEN--\":5:7   */\n      iszero\n      tag_11\n      jumpi\n        /* \"--CODEGEN--\":30:31   */\n      0x0\n        /* \"--CODEGEN--\":27:28   */\n      dup1\n        /* \"--CODEGEN--\":20:32   */\n      revert\n        /* \"--CODEGEN--\":5:7   */\n    tag_11:\n        /* \"blockchain/EmployeeContractStorage.sol\":3710:3912  function employeeExists(address _employeeAddress) \r... */\n      pop\n      tag_12\n      0x4\n      dup1\n      calldatasize\n      sub\n      dup2\n      add\n      swap1\n      dup1\n      dup1\n      calldataload\n      0xffffffffffffffffffffffffffffffffffffffff\n      and\n      swap1\n      0x20\n      add\n      swap1\n      swap3\n      swap2\n      swap1\n      pop\n      pop\n      pop\n      jump(tag_13)\n    tag_12:\n      mload(0x40)\n      dup1\n      dup3\n      iszero\n      iszero\n      iszero\n      iszero\n      dup2\n      mstore\n      0x20\n      add\n      swap2\n      pop\n      pop\n      mload(0x40)\n      dup1\n      swap2\n      sub\n      swap1\n      return\n        /* \"blockchain/EmployeeContractStorage.sol\":1128:1433  function withdrawFunds(uint amount) \r... */\n    tag_3:\n      callvalue\n        /* \"--CODEGEN--\":8:17   */\n      dup1\n        /* \"--CODEGEN--\":5:7   */\n      iszero\n      tag_14\n      jumpi\n        /* \"--CODEGEN--\":30:31   */\n      0x0\n        /* \"--CODEGEN--\":27:28   */\n      dup1\n        /* \"--CODEGEN--\":20:32   */\n      revert\n        /* \"--CODEGEN--\":5:7   */\n    tag_14:\n        /* \"blockchain/EmployeeContractStorage.sol\":1128:1433  function withdrawFunds(uint amount) \r... */\n      pop\n      tag_15\n      0x4\n      dup1\n      calldatasize\n      sub\n      dup2\n      add\n      swap1\n      dup1\n      dup1\n      calldataload\n      swap1\n      0x20\n      add\n      swap1\n      swap3\n      swap2\n      swap1\n      pop\n      pop\n      pop\n      jump(tag_16)\n    tag_15:\n      stop\n        /* \"blockchain/EmployeeContractStorage.sol\":2360:2585  function updateSalaryPerSecond(address _employeeAddress, uint _salaryPerSecond)\r... */\n    tag_4:\n      callvalue\n        /* \"--CODEGEN--\":8:17   */\n      dup1\n        /* \"--CODEGEN--\":5:7   */\n      iszero\n      tag_17\n      jumpi\n        /* \"--CODEGEN--\":30:31   */\n      0x0\n        /* \"--CODEGEN--\":27:28   */\n      dup1\n        /* \"--CODEGEN--\":20:32   */\n      revert\n        /* \"--CODEGEN--\":5:7   */\n    tag_17:\n        /* \"blockchain/EmployeeContractStorage.sol\":2360:2585  function updateSalaryPerSecond(address _employeeAddress, uint _salaryPerSecond)\r... */\n      pop\n      tag_18\n      0x4\n      dup1\n      calldatasize\n      sub\n      dup2\n      add\n      swap1\n      dup1\n      dup1\n      calldataload\n      0xffffffffffffffffffffffffffffffffffffffff\n      and\n      swap1\n      0x20\n      add\n      swap1\n      swap3\n      swap2\n      swap1\n      dup1\n      calldataload\n      swap1\n      0x20\n      add\n      swap1\n      swap3\n      swap2\n      swap1\n      pop\n      pop\n      pop\n      jump(tag_19)\n    tag_18:\n      stop\n        /* \"blockchain/EmployeeContractStorage.sol\":3590:3702  function getNumberOfEmployees() \r... */\n    tag_5:\n      callvalue\n        /* \"--CODEGEN--\":8:17   */\n      dup1\n        /* \"--CODEGEN--\":5:7   */\n      iszero\n      tag_20\n      jumpi\n        /* \"--CODEGEN--\":30:31   */\n      0x0\n        /* \"--CODEGEN--\":27:28   */\n      dup1\n        /* \"--CODEGEN--\":20:32   */\n      revert\n        /* \"--CODEGEN--\":5:7   */\n    tag_20:\n        /* \"blockchain/EmployeeContractStorage.sol\":3590:3702  function getNumberOfEmployees() \r... */\n      pop\n      tag_21\n      jump(tag_22)\n    tag_21:\n      mload(0x40)\n      dup1\n      dup3\n      dup2\n      mstore\n      0x20\n      add\n      swap2\n      pop\n      pop\n      mload(0x40)\n      dup1\n      swap2\n      sub\n      swap1\n      return\n        /* \"blockchain/EmployeeContractStorage.sol\":1441:2315  function createEmployeeContract(address _incomeAccount, uint _salaryPerSecond, uint _maximumSecondsPerSession) \r... */\n    tag_6:\n      callvalue\n        /* \"--CODEGEN--\":8:17   */\n      dup1\n        /* \"--CODEGEN--\":5:7   */\n      iszero\n      tag_23\n      jumpi\n        /* \"--CODEGEN--\":30:31   */\n      0x0\n        /* \"--CODEGEN--\":27:28   */\n      dup1\n        /* \"--CODEGEN--\":20:32   */\n      revert\n        /* \"--CODEGEN--\":5:7   */\n    tag_23:\n        /* \"blockchain/EmployeeContractStorage.sol\":1441:2315  function createEmployeeContract(address _incomeAccount, uint _salaryPerSecond, uint _maximumSecondsPerSession) \r... */\n      pop\n      tag_24\n      0x4\n      dup1\n      calldatasize\n      sub\n      dup2\n      add\n      swap1\n      dup1\n      dup1\n      calldataload\n      0xffffffffffffffffffffffffffffffffffffffff\n      and\n      swap1\n      0x20\n      add\n      swap1\n      swap3\n      swap2\n      swap1\n      dup1\n      calldataload\n      swap1\n      0x20\n      add\n      swap1\n      swap3\n      swap2\n      swap1\n      dup1\n      calldataload\n      swap1\n      0x20\n      add\n      swap1\n      swap3\n      swap2\n      swap1\n      pop\n      pop\n      pop\n      jump(tag_25)\n    tag_24:\n      mload(0x40)\n      dup1\n      dup3\n      dup2\n      mstore\n      0x20\n      add\n      swap2\n      pop\n      pop\n      mload(0x40)\n      dup1\n      swap2\n      sub\n      swap1\n      return\n        /* \"blockchain/EmployeeContractStorage.sol\":3463:3582  function getAddressByIndex(uint _index) \r... */\n    tag_7:\n      callvalue\n        /* \"--CODEGEN--\":8:17   */\n      dup1\n        /* \"--CODEGEN--\":5:7   */\n      iszero\n      tag_26\n      jumpi\n        /* \"--CODEGEN--\":30:31   */\n      0x0\n        /* \"--CODEGEN--\":27:28   */\n      dup1\n        /* \"--CODEGEN--\":20:32   */\n      revert\n        /* \"--CODEGEN--\":5:7   */\n    tag_26:\n        /* \"blockchain/EmployeeContractStorage.sol\":3463:3582  function getAddressByIndex(uint _index) \r... */\n      pop\n      tag_27\n      0x4\n      dup1\n      calldatasize\n      sub\n      dup2\n      add\n      swap1\n      dup1\n      dup1\n      calldataload\n      swap1\n      0x20\n      add\n      swap1\n      swap3\n      swap2\n      swap1\n      pop\n      pop\n      pop\n      jump(tag_28)\n    tag_27:\n      mload(0x40)\n      dup1\n      dup3\n      0xffffffffffffffffffffffffffffffffffffffff\n      and\n      0xffffffffffffffffffffffffffffffffffffffff\n      and\n      dup2\n      mstore\n      0x20\n      add\n      swap2\n      pop\n      pop\n      mload(0x40)\n      dup1\n      swap2\n      sub\n      swap1\n      return\n        /* \"blockchain/EmployeeContractStorage.sol\":2635:2903  function updateMaximumSecondsPerSession(address _employeeAddress, uint _maximumSecondsPerSession)\r... */\n    tag_8:\n      callvalue\n        /* \"--CODEGEN--\":8:17   */\n      dup1\n        /* \"--CODEGEN--\":5:7   */\n      iszero\n      tag_29\n      jumpi\n        /* \"--CODEGEN--\":30:31   */\n      0x0\n        /* \"--CODEGEN--\":27:28   */\n      dup1\n        /* \"--CODEGEN--\":20:32   */\n      revert\n        /* \"--CODEGEN--\":5:7   */\n    tag_29:\n        /* \"blockchain/EmployeeContractStorage.sol\":2635:2903  function updateMaximumSecondsPerSession(address _employeeAddress, uint _maximumSecondsPerSession)\r... */\n      pop\n      tag_30\n      0x4\n      dup1\n      calldatasize\n      sub\n      dup2\n      add\n      swap1\n      dup1\n      dup1\n      calldataload\n      0xffffffffffffffffffffffffffffffffffffffff\n      and\n      swap1\n      0x20\n      add\n      swap1\n      swap3\n      swap2\n      swap1\n      dup1\n      calldataload\n      swap1\n      0x20\n      add\n      swap1\n      swap3\n      swap2\n      swap1\n      pop\n      pop\n      pop\n      jump(tag_31)\n    tag_30:\n      stop\n        /* \"blockchain/EmployeeContractStorage.sol\":2948:3167  function readSalaryPerSecond(address _employeeAddress) \r... */\n    tag_9:\n      callvalue\n        /* \"--CODEGEN--\":8:17   */\n      dup1\n        /* \"--CODEGEN--\":5:7   */\n      iszero\n      tag_32\n      jumpi\n        /* \"--CODEGEN--\":30:31   */\n      0x0\n        /* \"--CODEGEN--\":27:28   */\n      dup1\n        /* \"--CODEGEN--\":20:32   */\n      revert\n        /* \"--CODEGEN--\":5:7   */\n    tag_32:\n        /* \"blockchain/EmployeeContractStorage.sol\":2948:3167  function readSalaryPerSecond(address _employeeAddress) \r... */\n      pop\n      tag_33\n      0x4\n      dup1\n      calldatasize\n      sub\n      dup2\n      add\n      swap1\n      dup1\n      dup1\n      calldataload\n      0xffffffffffffffffffffffffffffffffffffffff\n      and\n      swap1\n      0x20\n      add\n      swap1\n      swap3\n      swap2\n      swap1\n      pop\n      pop\n      pop\n      jump(tag_34)\n    tag_33:\n      mload(0x40)\n      dup1\n      dup3\n      dup2\n      mstore\n      0x20\n      add\n      swap2\n      pop\n      pop\n      mload(0x40)\n      dup1\n      swap2\n      sub\n      swap1\n      return\n        /* \"blockchain/EmployeeContractStorage.sol\":3218:3455  function readMaximumSecondsPerSession(address _employeeAddress) \r... */\n    tag_10:\n      callvalue\n        /* \"--CODEGEN--\":8:17   */\n      dup1\n        /* \"--CODEGEN--\":5:7   */\n      iszero\n      tag_35\n      jumpi\n        /* \"--CODEGEN--\":30:31   */\n      0x0\n        /* \"--CODEGEN--\":27:28   */\n      dup1\n        /* \"--CODEGEN--\":20:32   */\n      revert\n        /* \"--CODEGEN--\":5:7   */\n    tag_35:\n        /* \"blockchain/EmployeeContractStorage.sol\":3218:3455  function readMaximumSecondsPerSession(address _employeeAddress) \r... */\n      pop\n      tag_36\n      0x4\n      dup1\n      calldatasize\n      sub\n      dup2\n      add\n      swap1\n      dup1\n      dup1\n      calldataload\n      0xffffffffffffffffffffffffffffffffffffffff\n      and\n      swap1\n      0x20\n      add\n      swap1\n      swap3\n      swap2\n      swap1\n      pop\n      pop\n      pop\n      jump(tag_37)\n    tag_36:\n      mload(0x40)\n      dup1\n      dup3\n      dup2\n      mstore\n      0x20\n      add\n      swap2\n      pop\n      pop\n      mload(0x40)\n      dup1\n      swap2\n      sub\n      swap1\n      return\n        /* \"blockchain/EmployeeContractStorage.sol\":3710:3912  function employeeExists(address _employeeAddress) \r... */\n    tag_13:\n        /* \"blockchain/EmployeeContractStorage.sol\":3793:3797  bool */\n      0x0\n        /* \"blockchain/EmployeeContractStorage.sol\":3866:3870  true */\n      0x1\n        /* \"blockchain/EmployeeContractStorage.sol\":3817:3870  employeeContractsMap[_employeeAddress].exists == true */\n      iszero\n      iszero\n        /* \"blockchain/EmployeeContractStorage.sol\":3817:3837  employeeContractsMap */\n      0x1\n        /* \"blockchain/EmployeeContractStorage.sol\":3817:3855  employeeContractsMap[_employeeAddress] */\n      0x0\n        /* \"blockchain/EmployeeContractStorage.sol\":3838:3854  _employeeAddress */\n      dup5\n        /* \"blockchain/EmployeeContractStorage.sol\":3817:3855  employeeContractsMap[_employeeAddress] */\n      0xffffffffffffffffffffffffffffffffffffffff\n      and\n      0xffffffffffffffffffffffffffffffffffffffff\n      and\n      dup2\n      mstore\n      0x20\n      add\n      swap1\n      dup2\n      mstore\n      0x20\n      add\n      0x0\n      keccak256\n        /* \"blockchain/EmployeeContractStorage.sol\":3817:3862  employeeContractsMap[_employeeAddress].exists */\n      0x0\n      add\n      0x0\n      swap1\n      sload\n      swap1\n      0x100\n      exp\n      swap1\n      div\n      0xff\n      and\n        /* \"blockchain/EmployeeContractStorage.sol\":3817:3870  employeeContractsMap[_employeeAddress].exists == true */\n      iszero\n      iszero\n      eq\n        /* \"blockchain/EmployeeContractStorage.sol\":3810:3870  return employeeContractsMap[_employeeAddress].exists == true */\n      swap1\n      pop\n        /* \"blockchain/EmployeeContractStorage.sol\":3710:3912  function employeeExists(address _employeeAddress) \r... */\n      swap2\n      swap1\n      pop\n      jump\t// out\n        /* \"blockchain/EmployeeContractStorage.sol\":1128:1433  function withdrawFunds(uint amount) \r... */\n    tag_16:\n        /* \"blockchain/EmployeeContractStorage.sol\":1275:1279  this */\n      address\n        /* \"blockchain/EmployeeContractStorage.sol\":1267:1288  address(this).balance */\n      0xffffffffffffffffffffffffffffffffffffffff\n      and\n      balance\n        /* \"blockchain/EmployeeContractStorage.sol\":1257:1263  amount */\n      dup2\n        /* \"blockchain/EmployeeContractStorage.sol\":1257:1288  amount <= address(this).balance */\n      gt\n      iszero\n        /* \"blockchain/EmployeeContractStorage.sol\":1249:1320  require(amount <= address(this).balance, \"Not enough money in Payroll\") */\n      iszero\n      iszero\n      tag_40\n      jumpi\n      mload(0x40)\n      0x8c379a000000000000000000000000000000000000000000000000000000000\n      dup2\n      mstore\n      0x4\n      add\n      dup1\n      dup1\n      0x20\n      add\n      dup3\n      dup2\n      sub\n      dup3\n      mstore\n      0x1b\n      dup2\n      mstore\n      0x20\n      add\n      dup1\n      0x4e6f7420656e6f756768206d6f6e657920696e20506179726f6c6c0000000000\n      dup2\n      mstore\n      pop\n      0x20\n      add\n      swap2\n      pop\n      pop\n      mload(0x40)\n      dup1\n      swap2\n      sub\n      swap1\n      revert\n    tag_40:\n        /* \"blockchain/EmployeeContractStorage.sol\":1348:1349  0 */\n      0x0\n        /* \"blockchain/EmployeeContractStorage.sol\":1339:1345  amount */\n      dup2\n        /* \"blockchain/EmployeeContractStorage.sol\":1339:1349  amount > 0 */\n      gt\n        /* \"blockchain/EmployeeContractStorage.sol\":1331:1387  require(amount > 0, \"Withdrawing 0 will have no effect\") */\n      iszero\n      iszero\n      tag_41\n      jumpi\n      mload(0x40)\n      0x8c379a000000000000000000000000000000000000000000000000000000000\n      dup2\n      mstore\n      0x4\n      add\n      dup1\n      dup1\n      0x20\n      add\n      dup3\n      dup2\n      sub\n      dup3\n      mstore\n      0x21\n      dup2\n      mstore\n      0x20\n      add\n      dup1\n      0x5769746864726177696e6720302077696c6c2068617665206e6f206566666563\n      dup2\n      mstore\n      0x20\n      add\n      0x7400000000000000000000000000000000000000000000000000000000000000\n      dup2\n      mstore\n      pop\n      0x40\n      add\n      swap2\n      pop\n      pop\n      mload(0x40)\n      dup1\n      swap2\n      sub\n      swap1\n      revert\n    tag_41:\n        /* \"blockchain/EmployeeContractStorage.sol\":1398:1408  msg.sender */\n      caller\n        /* \"blockchain/EmployeeContractStorage.sol\":1398:1417  msg.sender.transfer */\n      0xffffffffffffffffffffffffffffffffffffffff\n      and\n        /* \"blockchain/EmployeeContractStorage.sol\":1398:1425  msg.sender.transfer(amount) */\n      0x8fc\n        /* \"blockchain/EmployeeContractStorage.sol\":1418:1424  amount */\n      dup3\n        /* \"blockchain/EmployeeContractStorage.sol\":1398:1425  msg.sender.transfer(amount) */\n      swap1\n      dup2\n      iszero\n      mul\n      swap1\n      mload(0x40)\n      0x0\n      mload(0x40)\n      dup1\n      dup4\n      sub\n      dup2\n      dup6\n      dup9\n      dup9\n      call\n      swap4\n      pop\n      pop\n      pop\n      pop\n      iszero\n        /* \"--CODEGEN--\":8:17   */\n      dup1\n        /* \"--CODEGEN--\":5:7   */\n      iszero\n      tag_42\n      jumpi\n        /* \"--CODEGEN--\":45:61   */\n      returndatasize\n        /* \"--CODEGEN--\":42:43   */\n      0x0\n        /* \"--CODEGEN--\":39:40   */\n      dup1\n        /* \"--CODEGEN--\":24:62   */\n      returndatacopy\n        /* \"--CODEGEN--\":77:93   */\n      returndatasize\n        /* \"--CODEGEN--\":74:75   */\n      0x0\n        /* \"--CODEGEN--\":67:94   */\n      revert\n        /* \"--CODEGEN--\":5:7   */\n    tag_42:\n        /* \"blockchain/EmployeeContractStorage.sol\":1398:1425  msg.sender.transfer(amount) */\n      pop\n        /* \"blockchain/EmployeeContractStorage.sol\":1128:1433  function withdrawFunds(uint amount) \r... */\n      pop\n      jump\t// out\n        /* \"blockchain/EmployeeContractStorage.sol\":2360:2585  function updateSalaryPerSecond(address _employeeAddress, uint _salaryPerSecond)\r... */\n    tag_19:\n        /* \"blockchain/EmployeeContractStorage.sol\":2475:2491  _employeeAddress */\n      dup2\n        /* \"blockchain/EmployeeContractStorage.sol\":571:575  true */\n      0x1\n        /* \"blockchain/EmployeeContractStorage.sol\":530:575  employeeContractsMap[_address].exists == true */\n      iszero\n      iszero\n        /* \"blockchain/EmployeeContractStorage.sol\":530:550  employeeContractsMap */\n      0x1\n        /* \"blockchain/EmployeeContractStorage.sol\":530:560  employeeContractsMap[_address] */\n      0x0\n        /* \"blockchain/EmployeeContractStorage.sol\":551:559  _address */\n      dup4\n        /* \"blockchain/EmployeeContractStorage.sol\":530:560  employeeContractsMap[_address] */\n      0xffffffffffffffffffffffffffffffffffffffff\n      and\n      0xffffffffffffffffffffffffffffffffffffffff\n      and\n      dup2\n      mstore\n      0x20\n      add\n      swap1\n      dup2\n      mstore\n      0x20\n      add\n      0x0\n      keccak256\n        /* \"blockchain/EmployeeContractStorage.sol\":530:567  employeeContractsMap[_address].exists */\n      0x0\n      add\n      0x0\n      swap1\n      sload\n      swap1\n      0x100\n      exp\n      swap1\n      div\n      0xff\n      and\n        /* \"blockchain/EmployeeContractStorage.sol\":530:575  employeeContractsMap[_address].exists == true */\n      iszero\n      iszero\n      eq\n        /* \"blockchain/EmployeeContractStorage.sol\":522:603  require(employeeContractsMap[_address].exists == true, \"Employee does not exist\") */\n      iszero\n      iszero\n      tag_44\n      jumpi\n      mload(0x40)\n      0x8c379a000000000000000000000000000000000000000000000000000000000\n      dup2\n      mstore\n      0x4\n      add\n      dup1\n      dup1\n      0x20\n      add\n      dup3\n      dup2\n      sub\n      dup3\n      mstore\n      0x17\n      dup2\n      mstore\n      0x20\n      add\n      dup1\n      0x456d706c6f79656520646f6573206e6f74206578697374000000000000000000\n      dup2\n      mstore\n      pop\n      0x20\n      add\n      swap2\n      pop\n      pop\n      mload(0x40)\n      dup1\n      swap2\n      sub\n      swap1\n      revert\n    tag_44:\n        /* \"blockchain/EmployeeContractStorage.sol\":2561:2577  _salaryPerSecond */\n      dup2\n        /* \"blockchain/EmployeeContractStorage.sol\":2504:2524  employeeContractsMap */\n      0x1\n        /* \"blockchain/EmployeeContractStorage.sol\":2504:2542  employeeContractsMap[_employeeAddress] */\n      0x0\n        /* \"blockchain/EmployeeContractStorage.sol\":2525:2541  _employeeAddress */\n      dup6\n        /* \"blockchain/EmployeeContractStorage.sol\":2504:2542  employeeContractsMap[_employeeAddress] */\n      0xffffffffffffffffffffffffffffffffffffffff\n      and\n      0xffffffffffffffffffffffffffffffffffffffff\n      and\n      dup2\n      mstore\n      0x20\n      add\n      swap1\n      dup2\n      mstore\n      0x20\n      add\n      0x0\n      keccak256\n        /* \"blockchain/EmployeeContractStorage.sol\":2504:2558  employeeContractsMap[_employeeAddress].salaryPerSecond */\n      0x1\n      add\n        /* \"blockchain/EmployeeContractStorage.sol\":2504:2577  employeeContractsMap[_employeeAddress].salaryPerSecond = _salaryPerSecond */\n      dup2\n      swap1\n      sstore\n      pop\n        /* \"blockchain/EmployeeContractStorage.sol\":2360:2585  function updateSalaryPerSecond(address _employeeAddress, uint _salaryPerSecond)\r... */\n      pop\n      pop\n      pop\n      jump\t// out\n        /* \"blockchain/EmployeeContractStorage.sol\":3590:3702  function getNumberOfEmployees() \r... */\n    tag_22:\n        /* \"blockchain/EmployeeContractStorage.sol\":3655:3659  uint */\n      0x0\n        /* \"blockchain/EmployeeContractStorage.sol\":3679:3694  employeeCounter */\n      dup1\n      sload\n        /* \"blockchain/EmployeeContractStorage.sol\":3672:3694  return employeeCounter */\n      swap1\n      pop\n        /* \"blockchain/EmployeeContractStorage.sol\":3590:3702  function getNumberOfEmployees() \r... */\n      swap1\n      jump\t// out\n        /* \"blockchain/EmployeeContractStorage.sol\":1441:2315  function createEmployeeContract(address _incomeAccount, uint _salaryPerSecond, uint _maximumSecondsPerSession) \r... */\n    tag_25:\n        /* \"blockchain/EmployeeContractStorage.sol\":1623:1627  uint */\n      0x0\n        /* \"blockchain/EmployeeContractStorage.sol\":1593:1607  _incomeAccount */\n      dup4\n        /* \"blockchain/EmployeeContractStorage.sol\":746:751  false */\n      0x0\n        /* \"blockchain/EmployeeContractStorage.sol\":705:751  employeeContractsMap[_address].exists == false */\n      iszero\n      iszero\n        /* \"blockchain/EmployeeContractStorage.sol\":705:725  employeeContractsMap */\n      0x1\n        /* \"blockchain/EmployeeContractStorage.sol\":705:735  employeeContractsMap[_address] */\n      0x0\n        /* \"blockchain/EmployeeContractStorage.sol\":726:734  _address */\n      dup4\n        /* \"blockchain/EmployeeContractStorage.sol\":705:735  employeeContractsMap[_address] */\n      0xffffffffffffffffffffffffffffffffffffffff\n      and\n      0xffffffffffffffffffffffffffffffffffffffff\n      and\n      dup2\n      mstore\n      0x20\n      add\n      swap1\n      dup2\n      mstore\n      0x20\n      add\n      0x0\n      keccak256\n        /* \"blockchain/EmployeeContractStorage.sol\":705:742  employeeContractsMap[_address].exists */\n      0x0\n      add\n      0x0\n      swap1\n      sload\n      swap1\n      0x100\n      exp\n      swap1\n      div\n      0xff\n      and\n        /* \"blockchain/EmployeeContractStorage.sol\":705:751  employeeContractsMap[_address].exists == false */\n      iszero\n      iszero\n      eq\n        /* \"blockchain/EmployeeContractStorage.sol\":697:779  require(employeeContractsMap[_address].exists == false, \"Employee already exists\") */\n      iszero\n      iszero\n      tag_48\n      jumpi\n      mload(0x40)\n      0x8c379a000000000000000000000000000000000000000000000000000000000\n      dup2\n      mstore\n      0x4\n      add\n      dup1\n      dup1\n      0x20\n      add\n      dup3\n      dup2\n      sub\n      dup3\n      mstore\n      0x17\n      dup2\n      mstore\n      0x20\n      add\n      dup1\n      0x456d706c6f79656520616c726561647920657869737473000000000000000000\n      dup2\n      mstore\n      pop\n      0x20\n      add\n      swap2\n      pop\n      pop\n      mload(0x40)\n      dup1\n      swap2\n      sub\n      swap1\n      revert\n    tag_48:\n        /* \"blockchain/EmployeeContractStorage.sol\":1742:1746  true */\n      0x1\n        /* \"blockchain/EmployeeContractStorage.sol\":1696:1716  employeeContractsMap */\n      dup1\n        /* \"blockchain/EmployeeContractStorage.sol\":1696:1732  employeeContractsMap[_incomeAccount] */\n      0x0\n        /* \"blockchain/EmployeeContractStorage.sol\":1717:1731  _incomeAccount */\n      dup8\n        /* \"blockchain/EmployeeContractStorage.sol\":1696:1732  employeeContractsMap[_incomeAccount] */\n      0xffffffffffffffffffffffffffffffffffffffff\n      and\n      0xffffffffffffffffffffffffffffffffffffffff\n      and\n      dup2\n      mstore\n      0x20\n      add\n      swap1\n      dup2\n      mstore\n      0x20\n      add\n      0x0\n      keccak256\n        /* \"blockchain/EmployeeContractStorage.sol\":1696:1739  employeeContractsMap[_incomeAccount].exists */\n      0x0\n      add\n      0x0\n        /* \"blockchain/EmployeeContractStorage.sol\":1696:1746  employeeContractsMap[_incomeAccount].exists = true */\n      0x100\n      exp\n      dup2\n      sload\n      dup2\n      0xff\n      mul\n      not\n      and\n      swap1\n      dup4\n      iszero\n      iszero\n      mul\n      or\n      swap1\n      sstore\n      pop\n        /* \"blockchain/EmployeeContractStorage.sol\":1812:1828  _salaryPerSecond */\n      dup4\n        /* \"blockchain/EmployeeContractStorage.sol\":1757:1777  employeeContractsMap */\n      0x1\n        /* \"blockchain/EmployeeContractStorage.sol\":1757:1793  employeeContractsMap[_incomeAccount] */\n      0x0\n        /* \"blockchain/EmployeeContractStorage.sol\":1778:1792  _incomeAccount */\n      dup8\n        /* \"blockchain/EmployeeContractStorage.sol\":1757:1793  employeeContractsMap[_incomeAccount] */\n      0xffffffffffffffffffffffffffffffffffffffff\n      and\n      0xffffffffffffffffffffffffffffffffffffffff\n      and\n      dup2\n      mstore\n      0x20\n      add\n      swap1\n      dup2\n      mstore\n      0x20\n      add\n      0x0\n      keccak256\n        /* \"blockchain/EmployeeContractStorage.sol\":1757:1809  employeeContractsMap[_incomeAccount].salaryPerSecond */\n      0x1\n      add\n        /* \"blockchain/EmployeeContractStorage.sol\":1757:1828  employeeContractsMap[_incomeAccount].salaryPerSecond = _salaryPerSecond */\n      dup2\n      swap1\n      sstore\n      pop\n        /* \"blockchain/EmployeeContractStorage.sol\":1903:1928  _maximumSecondsPerSession */\n      dup3\n        /* \"blockchain/EmployeeContractStorage.sol\":1839:1859  employeeContractsMap */\n      0x1\n        /* \"blockchain/EmployeeContractStorage.sol\":1839:1875  employeeContractsMap[_incomeAccount] */\n      0x0\n        /* \"blockchain/EmployeeContractStorage.sol\":1860:1874  _incomeAccount */\n      dup8\n        /* \"blockchain/EmployeeContractStorage.sol\":1839:1875  employeeContractsMap[_incomeAccount] */\n      0xffffffffffffffffffffffffffffffffffffffff\n      and\n      0xffffffffffffffffffffffffffffffffffffffff\n      and\n      dup2\n      mstore\n      0x20\n      add\n      swap1\n      dup2\n      mstore\n      0x20\n      add\n      0x0\n      keccak256\n        /* \"blockchain/EmployeeContractStorage.sol\":1839:1900  employeeContractsMap[_incomeAccount].maximumSecondsPerSession */\n      0x2\n      add\n        /* \"blockchain/EmployeeContractStorage.sol\":1839:1928  employeeContractsMap[_incomeAccount].maximumSecondsPerSession = _maximumSecondsPerSession */\n      dup2\n      swap1\n      sstore\n      pop\n        /* \"blockchain/EmployeeContractStorage.sol\":1964:1968  keys */\n      0x2\n        /* \"blockchain/EmployeeContractStorage.sol\":1974:1988  _incomeAccount */\n      dup6\n        /* \"blockchain/EmployeeContractStorage.sol\":1964:1989  keys.push(_incomeAccount) */\n      swap1\n      dup1\n        /* \"--CODEGEN--\":39:40   */\n      0x1\n        /* \"--CODEGEN--\":33:36   */\n      dup2\n        /* \"--CODEGEN--\":27:37   */\n      sload\n        /* \"--CODEGEN--\":23:41   */\n      add\n        /* \"--CODEGEN--\":57:67   */\n      dup1\n        /* \"--CODEGEN--\":52:55   */\n      dup3\n        /* \"--CODEGEN--\":45:68   */\n      sstore\n        /* \"--CODEGEN--\":79:89   */\n      dup1\n        /* \"--CODEGEN--\":72:89   */\n      swap2\n      pop\n        /* \"--CODEGEN--\":0:93   */\n      pop\n        /* \"blockchain/EmployeeContractStorage.sol\":1964:1989  keys.push(_incomeAccount) */\n      swap1\n      0x1\n      dup3\n      sub\n      swap1\n      0x0\n      mstore\n      keccak256(0x0, 0x20)\n      add\n      0x0\n      swap1\n      swap2\n      swap3\n      swap1\n      swap2\n      swap1\n      swap2\n      0x100\n      exp\n      dup2\n      sload\n      dup2\n      0xffffffffffffffffffffffffffffffffffffffff\n      mul\n      not\n      and\n      swap1\n      dup4\n      0xffffffffffffffffffffffffffffffffffffffff\n      and\n      mul\n      or\n      swap1\n      sstore\n      pop\n      pop\n        /* \"blockchain/EmployeeContractStorage.sol\":2055:2065  msg.sender */\n      caller\n        /* \"blockchain/EmployeeContractStorage.sol\":2030:2199  EmployeeContractCreation(msg.sender, _incomeAccount, employeeContractsMap[_incomeAccount].salaryPerSecond, employeeContractsMap[_incomeAccount].maximumSecondsPerSession) */\n      0xffffffffffffffffffffffffffffffffffffffff\n      and\n      0xe95b7c8271f4033de7fc533c968828c5efb3099164a73078a102939c9db7b9fd\n        /* \"blockchain/EmployeeContractStorage.sol\":2067:2081  _incomeAccount */\n      dup7\n        /* \"blockchain/EmployeeContractStorage.sol\":2083:2103  employeeContractsMap */\n      0x1\n        /* \"blockchain/EmployeeContractStorage.sol\":2083:2119  employeeContractsMap[_incomeAccount] */\n      0x0\n        /* \"blockchain/EmployeeContractStorage.sol\":2104:2118  _incomeAccount */\n      dup10\n        /* \"blockchain/EmployeeContractStorage.sol\":2083:2119  employeeContractsMap[_incomeAccount] */\n      0xffffffffffffffffffffffffffffffffffffffff\n      and\n      0xffffffffffffffffffffffffffffffffffffffff\n      and\n      dup2\n      mstore\n      0x20\n      add\n      swap1\n      dup2\n      mstore\n      0x20\n      add\n      0x0\n      keccak256\n        /* \"blockchain/EmployeeContractStorage.sol\":2083:2135  employeeContractsMap[_incomeAccount].salaryPerSecond */\n      0x1\n      add\n      sload\n        /* \"blockchain/EmployeeContractStorage.sol\":2137:2157  employeeContractsMap */\n      0x1\n        /* \"blockchain/EmployeeContractStorage.sol\":2137:2173  employeeContractsMap[_incomeAccount] */\n      0x0\n        /* \"blockchain/EmployeeContractStorage.sol\":2158:2172  _incomeAccount */\n      dup11\n        /* \"blockchain/EmployeeContractStorage.sol\":2137:2173  employeeContractsMap[_incomeAccount] */\n      0xffffffffffffffffffffffffffffffffffffffff\n      and\n      0xffffffffffffffffffffffffffffffffffffffff\n      and\n      dup2\n      mstore\n      0x20\n      add\n      swap1\n      dup2\n      mstore\n      0x20\n      add\n      0x0\n      keccak256\n        /* \"blockchain/EmployeeContractStorage.sol\":2137:2198  employeeContractsMap[_incomeAccount].maximumSecondsPerSession */\n      0x2\n      add\n      sload\n        /* \"blockchain/EmployeeContractStorage.sol\":2030:2199  EmployeeContractCreation(msg.sender, _incomeAccount, employeeContractsMap[_incomeAccount].salaryPerSecond, employeeContractsMap[_incomeAccount].maximumSecondsPerSession) */\n      mload(0x40)\n      dup1\n      dup5\n      0xffffffffffffffffffffffffffffffffffffffff\n      and\n      0xffffffffffffffffffffffffffffffffffffffff\n      and\n      dup2\n      mstore\n      0x20\n      add\n      dup4\n      dup2\n      mstore\n      0x20\n      add\n      dup3\n      dup2\n      mstore\n      0x20\n      add\n      swap4\n      pop\n      pop\n      pop\n      pop\n      mload(0x40)\n      dup1\n      swap2\n      sub\n      swap1\n      log2\n        /* \"blockchain/EmployeeContractStorage.sol\":2251:2266  employeeCounter */\n      0x0\n      dup1\n        /* \"blockchain/EmployeeContractStorage.sol\":2251:2268  employeeCounter++ */\n      dup2\n      sload\n      dup1\n      swap3\n      swap2\n      swap1\n      0x1\n      add\n      swap2\n      swap1\n      pop\n      sstore\n      pop\n        /* \"blockchain/EmployeeContractStorage.sol\":2306:2307  1 */\n      0x1\n        /* \"blockchain/EmployeeContractStorage.sol\":2288:2303  employeeCounter */\n      sload(0x0)\n        /* \"blockchain/EmployeeContractStorage.sol\":2288:2307  employeeCounter - 1 */\n      sub\n        /* \"blockchain/EmployeeContractStorage.sol\":2281:2307  return employeeCounter - 1 */\n      swap2\n      pop\n        /* \"blockchain/EmployeeContractStorage.sol\":1441:2315  function createEmployeeContract(address _incomeAccount, uint _salaryPerSecond, uint _maximumSecondsPerSession) \r... */\n      pop\n      swap4\n      swap3\n      pop\n      pop\n      pop\n      jump\t// out\n        /* \"blockchain/EmployeeContractStorage.sol\":3463:3582  function getAddressByIndex(uint _index) \r... */\n    tag_28:\n        /* \"blockchain/EmployeeContractStorage.sol\":3535:3542  address */\n      0x0\n        /* \"blockchain/EmployeeContractStorage.sol\":3562:3566  keys */\n      0x2\n        /* \"blockchain/EmployeeContractStorage.sol\":3567:3573  _index */\n      dup3\n        /* \"blockchain/EmployeeContractStorage.sol\":3562:3574  keys[_index] */\n      dup2\n      sload\n      dup2\n      lt\n      iszero\n      iszero\n      tag_52\n      jumpi\n      invalid\n    tag_52:\n      swap1\n      0x0\n      mstore\n      keccak256(0x0, 0x20)\n      add\n      0x0\n      swap1\n      sload\n      swap1\n      0x100\n      exp\n      swap1\n      div\n      0xffffffffffffffffffffffffffffffffffffffff\n      and\n        /* \"blockchain/EmployeeContractStorage.sol\":3555:3574  return keys[_index] */\n      swap1\n      pop\n        /* \"blockchain/EmployeeContractStorage.sol\":3463:3582  function getAddressByIndex(uint _index) \r... */\n      swap2\n      swap1\n      pop\n      jump\t// out\n        /* \"blockchain/EmployeeContractStorage.sol\":2635:2903  function updateMaximumSecondsPerSession(address _employeeAddress, uint _maximumSecondsPerSession)\r... */\n    tag_31:\n        /* \"blockchain/EmployeeContractStorage.sol\":2768:2784  _employeeAddress */\n      dup2\n        /* \"blockchain/EmployeeContractStorage.sol\":571:575  true */\n      0x1\n        /* \"blockchain/EmployeeContractStorage.sol\":530:575  employeeContractsMap[_address].exists == true */\n      iszero\n      iszero\n        /* \"blockchain/EmployeeContractStorage.sol\":530:550  employeeContractsMap */\n      0x1\n        /* \"blockchain/EmployeeContractStorage.sol\":530:560  employeeContractsMap[_address] */\n      0x0\n        /* \"blockchain/EmployeeContractStorage.sol\":551:559  _address */\n      dup4\n        /* \"blockchain/EmployeeContractStorage.sol\":530:560  employeeContractsMap[_address] */\n      0xffffffffffffffffffffffffffffffffffffffff\n      and\n      0xffffffffffffffffffffffffffffffffffffffff\n      and\n      dup2\n      mstore\n      0x20\n      add\n      swap1\n      dup2\n      mstore\n      0x20\n      add\n      0x0\n      keccak256\n        /* \"blockchain/EmployeeContractStorage.sol\":530:567  employeeContractsMap[_address].exists */\n      0x0\n      add\n      0x0\n      swap1\n      sload\n      swap1\n      0x100\n      exp\n      swap1\n      div\n      0xff\n      and\n        /* \"blockchain/EmployeeContractStorage.sol\":530:575  employeeContractsMap[_address].exists == true */\n      iszero\n      iszero\n      eq\n        /* \"blockchain/EmployeeContractStorage.sol\":522:603  require(employeeContractsMap[_address].exists == true, \"Employee does not exist\") */\n      iszero\n      iszero\n      tag_55\n      jumpi\n      mload(0x40)\n      0x8c379a000000000000000000000000000000000000000000000000000000000\n      dup2\n      mstore\n      0x4\n      add\n      dup1\n      dup1\n      0x20\n      add\n      dup3\n      dup2\n      sub\n      dup3\n      mstore\n      0x17\n      dup2\n      mstore\n      0x20\n      add\n      dup1\n      0x456d706c6f79656520646f6573206e6f74206578697374000000000000000000\n      dup2\n      mstore\n      pop\n      0x20\n      add\n      swap2\n      pop\n      pop\n      mload(0x40)\n      dup1\n      swap2\n      sub\n      swap1\n      revert\n    tag_55:\n        /* \"blockchain/EmployeeContractStorage.sol\":2863:2888  _maximumSecondsPerSession */\n      dup2\n        /* \"blockchain/EmployeeContractStorage.sol\":2797:2817  employeeContractsMap */\n      0x1\n        /* \"blockchain/EmployeeContractStorage.sol\":2797:2835  employeeContractsMap[_employeeAddress] */\n      0x0\n        /* \"blockchain/EmployeeContractStorage.sol\":2818:2834  _employeeAddress */\n      dup6\n        /* \"blockchain/EmployeeContractStorage.sol\":2797:2835  employeeContractsMap[_employeeAddress] */\n      0xffffffffffffffffffffffffffffffffffffffff\n      and\n      0xffffffffffffffffffffffffffffffffffffffff\n      and\n      dup2\n      mstore\n      0x20\n      add\n      swap1\n      dup2\n      mstore\n      0x20\n      add\n      0x0\n      keccak256\n        /* \"blockchain/EmployeeContractStorage.sol\":2797:2860  employeeContractsMap[_employeeAddress].maximumSecondsPerSession */\n      0x2\n      add\n        /* \"blockchain/EmployeeContractStorage.sol\":2797:2888  employeeContractsMap[_employeeAddress].maximumSecondsPerSession = _maximumSecondsPerSession */\n      dup2\n      swap1\n      sstore\n      pop\n        /* \"blockchain/EmployeeContractStorage.sol\":2635:2903  function updateMaximumSecondsPerSession(address _employeeAddress, uint _maximumSecondsPerSession)\r... */\n      pop\n      pop\n      pop\n      jump\t// out\n        /* \"blockchain/EmployeeContractStorage.sol\":2948:3167  function readSalaryPerSecond(address _employeeAddress) \r... */\n    tag_34:\n        /* \"blockchain/EmployeeContractStorage.sol\":3081:3085  uint */\n      0x0\n        /* \"blockchain/EmployeeContractStorage.sol\":3039:3055  _employeeAddress */\n      dup2\n        /* \"blockchain/EmployeeContractStorage.sol\":571:575  true */\n      0x1\n        /* \"blockchain/EmployeeContractStorage.sol\":530:575  employeeContractsMap[_address].exists == true */\n      iszero\n      iszero\n        /* \"blockchain/EmployeeContractStorage.sol\":530:550  employeeContractsMap */\n      0x1\n        /* \"blockchain/EmployeeContractStorage.sol\":530:560  employeeContractsMap[_address] */\n      0x0\n        /* \"blockchain/EmployeeContractStorage.sol\":551:559  _address */\n      dup4\n        /* \"blockchain/EmployeeContractStorage.sol\":530:560  employeeContractsMap[_address] */\n      0xffffffffffffffffffffffffffffffffffffffff\n      and\n      0xffffffffffffffffffffffffffffffffffffffff\n      and\n      dup2\n      mstore\n      0x20\n      add\n      swap1\n      dup2\n      mstore\n      0x20\n      add\n      0x0\n      keccak256\n        /* \"blockchain/EmployeeContractStorage.sol\":530:567  employeeContractsMap[_address].exists */\n      0x0\n      add\n      0x0\n      swap1\n      sload\n      swap1\n      0x100\n      exp\n      swap1\n      div\n      0xff\n      and\n        /* \"blockchain/EmployeeContractStorage.sol\":530:575  employeeContractsMap[_address].exists == true */\n      iszero\n      iszero\n      eq\n        /* \"blockchain/EmployeeContractStorage.sol\":522:603  require(employeeContractsMap[_address].exists == true, \"Employee does not exist\") */\n      iszero\n      iszero\n      tag_58\n      jumpi\n      mload(0x40)\n      0x8c379a000000000000000000000000000000000000000000000000000000000\n      dup2\n      mstore\n      0x4\n      add\n      dup1\n      dup1\n      0x20\n      add\n      dup3\n      dup2\n      sub\n      dup3\n      mstore\n      0x17\n      dup2\n      mstore\n      0x20\n      add\n      dup1\n      0x456d706c6f79656520646f6573206e6f74206578697374000000000000000000\n      dup2\n      mstore\n      pop\n      0x20\n      add\n      swap2\n      pop\n      pop\n      mload(0x40)\n      dup1\n      swap2\n      sub\n      swap1\n      revert\n    tag_58:\n        /* \"blockchain/EmployeeContractStorage.sol\":3105:3125  employeeContractsMap */\n      0x1\n        /* \"blockchain/EmployeeContractStorage.sol\":3105:3143  employeeContractsMap[_employeeAddress] */\n      0x0\n        /* \"blockchain/EmployeeContractStorage.sol\":3126:3142  _employeeAddress */\n      dup5\n        /* \"blockchain/EmployeeContractStorage.sol\":3105:3143  employeeContractsMap[_employeeAddress] */\n      0xffffffffffffffffffffffffffffffffffffffff\n      and\n      0xffffffffffffffffffffffffffffffffffffffff\n      and\n      dup2\n      mstore\n      0x20\n      add\n      swap1\n      dup2\n      mstore\n      0x20\n      add\n      0x0\n      keccak256\n        /* \"blockchain/EmployeeContractStorage.sol\":3105:3159  employeeContractsMap[_employeeAddress].salaryPerSecond */\n      0x1\n      add\n      sload\n        /* \"blockchain/EmployeeContractStorage.sol\":3098:3159  return employeeContractsMap[_employeeAddress].salaryPerSecond */\n      swap2\n      pop\n        /* \"blockchain/EmployeeContractStorage.sol\":2948:3167  function readSalaryPerSecond(address _employeeAddress) \r... */\n      pop\n      swap2\n      swap1\n      pop\n      jump\t// out\n        /* \"blockchain/EmployeeContractStorage.sol\":3218:3455  function readMaximumSecondsPerSession(address _employeeAddress) \r... */\n    tag_37:\n        /* \"blockchain/EmployeeContractStorage.sol\":3360:3364  uint */\n      0x0\n        /* \"blockchain/EmployeeContractStorage.sol\":3318:3334  _employeeAddress */\n      dup2\n        /* \"blockchain/EmployeeContractStorage.sol\":571:575  true */\n      0x1\n        /* \"blockchain/EmployeeContractStorage.sol\":530:575  employeeContractsMap[_address].exists == true */\n      iszero\n      iszero\n        /* \"blockchain/EmployeeContractStorage.sol\":530:550  employeeContractsMap */\n      0x1\n        /* \"blockchain/EmployeeContractStorage.sol\":530:560  employeeContractsMap[_address] */\n      0x0\n        /* \"blockchain/EmployeeContractStorage.sol\":551:559  _address */\n      dup4\n        /* \"blockchain/EmployeeContractStorage.sol\":530:560  employeeContractsMap[_address] */\n      0xffffffffffffffffffffffffffffffffffffffff\n      and\n      0xffffffffffffffffffffffffffffffffffffffff\n      and\n      dup2\n      mstore\n      0x20\n      add\n      swap1\n      dup2\n      mstore\n      0x20\n      add\n      0x0\n      keccak256\n        /* \"blockchain/EmployeeContractStorage.sol\":530:567  employeeContractsMap[_address].exists */\n      0x0\n      add\n      0x0\n      swap1\n      sload\n      swap1\n      0x100\n      exp\n      swap1\n      div\n      0xff\n      and\n        /* \"blockchain/EmployeeContractStorage.sol\":530:575  employeeContractsMap[_address].exists == true */\n      iszero\n      iszero\n      eq\n        /* \"blockchain/EmployeeContractStorage.sol\":522:603  require(employeeContractsMap[_address].exists == true, \"Employee does not exist\") */\n      iszero\n      iszero\n      tag_61\n      jumpi\n      mload(0x40)\n      0x8c379a000000000000000000000000000000000000000000000000000000000\n      dup2\n      mstore\n      0x4\n      add\n      dup1\n      dup1\n      0x20\n      add\n      dup3\n      dup2\n      sub\n      dup3\n      mstore\n      0x17\n      dup2\n      mstore\n      0x20\n      add\n      dup1\n      0x456d706c6f79656520646f6573206e6f74206578697374000000000000000000\n      dup2\n      mstore\n      pop\n      0x20\n      add\n      swap2\n      pop\n      pop\n      mload(0x40)\n      dup1\n      swap2\n      sub\n      swap1\n      revert\n    tag_61:\n        /* \"blockchain/EmployeeContractStorage.sol\":3384:3404  employeeContractsMap */\n      0x1\n        /* \"blockchain/EmployeeContractStorage.sol\":3384:3422  employeeContractsMap[_employeeAddress] */\n      0x0\n        /* \"blockchain/EmployeeContractStorage.sol\":3405:3421  _employeeAddress */\n      dup5\n        /* \"blockchain/EmployeeContractStorage.sol\":3384:3422  employeeContractsMap[_employeeAddress] */\n      0xffffffffffffffffffffffffffffffffffffffff\n      and\n      0xffffffffffffffffffffffffffffffffffffffff\n      and\n      dup2\n      mstore\n      0x20\n      add\n      swap1\n      dup2\n      mstore\n      0x20\n      add\n      0x0\n      keccak256\n        /* \"blockchain/EmployeeContractStorage.sol\":3384:3447  employeeContractsMap[_employeeAddress].maximumSecondsPerSession */\n      0x2\n      add\n      sload\n        /* \"blockchain/EmployeeContractStorage.sol\":3377:3447  return employeeContractsMap[_employeeAddress].maximumSecondsPerSession */\n      swap2\n      pop\n        /* \"blockchain/EmployeeContractStorage.sol\":3218:3455  function readMaximumSecondsPerSession(address _employeeAddress) \r... */\n      pop\n      swap2\n      swap1\n      pop\n      jump\t// out\n\n    auxdata: 0xa165627a7a723058201ea970b2b42917ec6b4525324ffd231dd26850c3da90f249793164c9e9ee00c90029\n}\n",
				"bytecode": {
					"linkReferences": {},
					"object": "608060405234801561001057600080fd5b5060008081905550610d6d806100276000396000f300608060405260043610610099576000357c0100000000000000000000000000000000000000000000000000000000900463ffffffff1680631024f2231461009e578063155dd5ee146100f95780635da7495514610126578063888e1d05146101735780639e757f981461019e578063ce10cf8814610209578063dbbf65b714610276578063f5e369e8146102c3578063fd2b82571461031a575b600080fd5b3480156100aa57600080fd5b506100df600480360381019080803573ffffffffffffffffffffffffffffffffffffffff169060200190929190505050610371565b604051808215151515815260200191505060405180910390f35b34801561010557600080fd5b50610124600480360381019080803590602001909291905050506103d1565b005b34801561013257600080fd5b50610171600480360381019080803573ffffffffffffffffffffffffffffffffffffffff16906020019092919080359060200190929190505050610548565b005b34801561017f57600080fd5b50610188610660565b6040518082815260200191505060405180910390f35b3480156101aa57600080fd5b506101f3600480360381019080803573ffffffffffffffffffffffffffffffffffffffff1690602001909291908035906020019092919080359060200190929190505050610669565b6040518082815260200191505060405180910390f35b34801561021557600080fd5b50610234600480360381019080803590602001909291905050506109b4565b604051808273ffffffffffffffffffffffffffffffffffffffff1673ffffffffffffffffffffffffffffffffffffffff16815260200191505060405180910390f35b34801561028257600080fd5b506102c1600480360381019080803573ffffffffffffffffffffffffffffffffffffffff169060200190929190803590602001909291905050506109f7565b005b3480156102cf57600080fd5b50610304600480360381019080803573ffffffffffffffffffffffffffffffffffffffff169060200190929190505050610b0f565b6040518082815260200191505060405180910390f35b34801561032657600080fd5b5061035b600480360381019080803573ffffffffffffffffffffffffffffffffffffffff169060200190929190505050610c28565b6040518082815260200191505060405180910390f35b600060011515600160008473ffffffffffffffffffffffffffffffffffffffff1673ffffffffffffffffffffffffffffffffffffffff16815260200190815260200160002060000160009054906101000a900460ff161515149050919050565b3073ffffffffffffffffffffffffffffffffffffffff16318111151515610460576040517f08c379a000000000000000000000000000000000000000000000000000000000815260040180806020018281038252601b8152602001807f4e6f7420656e6f756768206d6f6e657920696e20506179726f6c6c000000000081525060200191505060405180910390fd5b6000811115156104fe576040517f08c379a00000000000000000000000000000000000000000000000000000000081526004018080602001828103825260218152602001807f5769746864726177696e6720302077696c6c2068617665206e6f20656666656381526020017f740000000000000000000000000000000000000000000000000000000000000081525060400191505060405180910390fd5b3373ffffffffffffffffffffffffffffffffffffffff166108fc829081150290604051600060405180830381858888f19350505050158015610544573d6000803e3d6000fd5b5050565b8160011515600160008373ffffffffffffffffffffffffffffffffffffffff1673ffffffffffffffffffffffffffffffffffffffff16815260200190815260200160002060000160009054906101000a900460ff161515141515610614576040517f08c379a00000000000000000000000000000000000000000000000000000000081526004018080602001828103825260178152602001807f456d706c6f79656520646f6573206e6f7420657869737400000000000000000081525060200191505060405180910390fd5b81600160008573ffffffffffffffffffffffffffffffffffffffff1673ffffffffffffffffffffffffffffffffffffffff16815260200190815260200160002060010181905550505050565b60008054905090565b60008360001515600160008373ffffffffffffffffffffffffffffffffffffffff1673ffffffffffffffffffffffffffffffffffffffff16815260200190815260200160002060000160009054906101000a900460ff161515141515610737576040517f08c379a00000000000000000000000000000000000000000000000000000000081526004018080602001828103825260178152602001807f456d706c6f79656520616c72656164792065786973747300000000000000000081525060200191505060405180910390fd5b60018060008773ffffffffffffffffffffffffffffffffffffffff1673ffffffffffffffffffffffffffffffffffffffff16815260200190815260200160002060000160006101000a81548160ff02191690831515021790555083600160008773ffffffffffffffffffffffffffffffffffffffff1673ffffffffffffffffffffffffffffffffffffffff1681526020019081526020016000206001018190555082600160008773ffffffffffffffffffffffffffffffffffffffff1673ffffffffffffffffffffffffffffffffffffffff1681526020019081526020016000206002018190555060028590806001815401808255809150509060018203906000526020600020016000909192909190916101000a81548173ffffffffffffffffffffffffffffffffffffffff021916908373ffffffffffffffffffffffffffffffffffffffff160217905550503373ffffffffffffffffffffffffffffffffffffffff167fe95b7c8271f4033de7fc533c968828c5efb3099164a73078a102939c9db7b9fd86600160008973ffffffffffffffffffffffffffffffffffffffff1673ffffffffffffffffffffffffffffffffffffffff16815260200190815260200160002060010154600160008a73ffffffffffffffffffffffffffffffffffffffff1673ffffffffffffffffffffffffffffffffffffffff16815260200190815260200160002060020154604051808473ffffffffffffffffffffffffffffffffffffffff1673ffffffffffffffffffffffffffffffffffffffff168152602001838152602001828152602001935050505060405180910390a260008081548092919060010191905055506001600054039150509392505050565b60006002828154811015156109c557fe5b9060005260206000200160009054906101000a900473ffffffffffffffffffffffffffffffffffffffff169050919050565b8160011515600160008373ffffffffffffffffffffffffffffffffffffffff1673ffffffffffffffffffffffffffffffffffffffff16815260200190815260200160002060000160009054906101000a900460ff161515141515610ac3576040517f08c379a00000000000000000000000000000000000000000000000000000000081526004018080602001828103825260178152602001807f456d706c6f79656520646f6573206e6f7420657869737400000000000000000081525060200191505060405180910390fd5b81600160008573ffffffffffffffffffffffffffffffffffffffff1673ffffffffffffffffffffffffffffffffffffffff16815260200190815260200160002060020181905550505050565b60008160011515600160008373ffffffffffffffffffffffffffffffffffffffff1673ffffffffffffffffffffffffffffffffffffffff16815260200190815260200160002060000160009054906101000a900460ff161515141515610bdd576040517f08c379a00000000000000000000000000000000000000000000000000000000081526004018080602001828103825260178152602001807f456d706c6f79656520646f6573206e6f7420657869737400000000000000000081525060200191505060405180910390fd5b600160008473ffffffffffffffffffffffffffffffffffffffff1673ffffffffffffffffffffffffffffffffffffffff16815260200190815260200160002060010154915050919050565b60008160011515600160008373ffffffffffffffffffffffffffffffffffffffff1673ffffffffffffffffffffffffffffffffffffffff16815260200190815260200160002060000160009054906101000a900460ff161515141515610cf6576040517f08c379a00000000000000000000000000000000000000000000000000000000081526004018080602001828103825260178152602001807f456d706c6f79656520646f6573206e6f7420657869737400000000000000000081525060200191505060405180910390fd5b600160008473ffffffffffffffffffffffffffffffffffffffff1673ffffffffffffffffffffffffffffffffffffffff168152602001908152602001600020600201549150509190505600a165627a7a723058201ea970b2b42917ec6b4525324ffd231dd26850c3da90f249793164c9e9ee00c90029",
					"opcodes": "PUSH1 0x80 PUSH1 0x40 MSTORE CALLVALUE DUP1 ISZERO PUSH2 0x10 JUMPI PUSH1 0x0 DUP1 REVERT JUMPDEST POP PUSH1 0x0 DUP1 DUP2 SWAP1 SSTORE POP PUSH2 0xD6D DUP1 PUSH2 0x27 PUSH1 0x0 CODECOPY PUSH1 0x0 RETURN STOP PUSH1 0x80 PUSH1 0x40 MSTORE PUSH1 0x4 CALLDATASIZE LT PUSH2 0x99 JUMPI PUSH1 0x0 CALLDATALOAD PUSH29 0x100000000000000000000000000000000000000000000000000000000 SWAP1 DIV PUSH4 0xFFFFFFFF AND DUP1 PUSH4 0x1024F223 EQ PUSH2 0x9E JUMPI DUP1 PUSH4 0x155DD5EE EQ PUSH2 0xF9 JUMPI DUP1 PUSH4 0x5DA74955 EQ PUSH2 0x126 JUMPI DUP1 PUSH4 0x888E1D05 EQ PUSH2 0x173 JUMPI DUP1 PUSH4 0x9E757F98 EQ PUSH2 0x19E JUMPI DUP1 PUSH4 0xCE10CF88 EQ PUSH2 0x209 JUMPI DUP1 PUSH4 0xDBBF65B7 EQ PUSH2 0x276 JUMPI DUP1 PUSH4 0xF5E369E8 EQ PUSH2 0x2C3 JUMPI DUP1 PUSH4 0xFD2B8257 EQ PUSH2 0x31A JUMPI JUMPDEST PUSH1 0x0 DUP1 REVERT JUMPDEST CALLVALUE DUP1 ISZERO PUSH2 0xAA JUMPI PUSH1 0x0 DUP1 REVERT JUMPDEST POP PUSH2 0xDF PUSH1 0x4 DUP1 CALLDATASIZE SUB DUP2 ADD SWAP1 DUP1 DUP1 CALLDATALOAD PUSH20 0xFFFFFFFFFFFFFFFFFFFFFFFFFFFFFFFFFFFFFFFF AND SWAP1 PUSH1 0x20 ADD SWAP1 SWAP3 SWAP2 SWAP1 POP POP POP PUSH2 0x371 JUMP JUMPDEST PUSH1 0x40 MLOAD DUP1 DUP3 ISZERO ISZERO ISZERO ISZERO DUP2 MSTORE PUSH1 0x20 ADD SWAP2 POP POP PUSH1 0x40 MLOAD DUP1 SWAP2 SUB SWAP1 RETURN JUMPDEST CALLVALUE DUP1 ISZERO PUSH2 0x105 JUMPI PUSH1 0x0 DUP1 REVERT JUMPDEST POP PUSH2 0x124 PUSH1 0x4 DUP1 CALLDATASIZE SUB DUP2 ADD SWAP1 DUP1 DUP1 CALLDATALOAD SWAP1 PUSH1 0x20 ADD SWAP1 SWAP3 SWAP2 SWAP1 POP POP POP PUSH2 0x3D1 JUMP JUMPDEST STOP JUMPDEST CALLVALUE DUP1 ISZERO PUSH2 0x132 JUMPI PUSH1 0x0 DUP1 REVERT JUMPDEST POP PUSH2 0x171 PUSH1 0x4 DUP1 CALLDATASIZE SUB DUP2 ADD SWAP1 DUP1 DUP1 CALLDATALOAD PUSH20 0xFFFFFFFFFFFFFFFFFFFFFFFFFFFFFFFFFFFFFFFF AND SWAP1 PUSH1 0x20 ADD SWAP1 SWAP3 SWAP2 SWAP1 DUP1 CALLDATALOAD SWAP1 PUSH1 0x20 ADD SWAP1 SWAP3 SWAP2 SWAP1 POP POP POP PUSH2 0x548 JUMP JUMPDEST STOP JUMPDEST CALLVALUE DUP1 ISZERO PUSH2 0x17F JUMPI PUSH1 0x0 DUP1 REVERT JUMPDEST POP PUSH2 0x188 PUSH2 0x660 JUMP JUMPDEST PUSH1 0x40 MLOAD DUP1 DUP3 DUP2 MSTORE PUSH1 0x20 ADD SWAP2 POP POP PUSH1 0x40 MLOAD DUP1 SWAP2 SUB SWAP1 RETURN JUMPDEST CALLVALUE DUP1 ISZERO PUSH2 0x1AA JUMPI PUSH1 0x0 DUP1 REVERT JUMPDEST POP PUSH2 0x1F3 PUSH1 0x4 DUP1 CALLDATASIZE SUB DUP2 ADD SWAP1 DUP1 DUP1 CALLDATALOAD PUSH20 0xFFFFFFFFFFFFFFFFFFFFFFFFFFFFFFFFFFFFFFFF AND SWAP1 PUSH1 0x20 ADD SWAP1 SWAP3 SWAP2 SWAP1 DUP1 CALLDATALOAD SWAP1 PUSH1 0x20 ADD SWAP1 SWAP3 SWAP2 SWAP1 DUP1 CALLDATALOAD SWAP1 PUSH1 0x20 ADD SWAP1 SWAP3 SWAP2 SWAP1 POP POP POP PUSH2 0x669 JUMP JUMPDEST PUSH1 0x40 MLOAD DUP1 DUP3 DUP2 MSTORE PUSH1 0x20 ADD SWAP2 POP POP PUSH1 0x40 MLOAD DUP1 SWAP2 SUB SWAP1 RETURN JUMPDEST CALLVALUE DUP1 ISZERO PUSH2 0x215 JUMPI PUSH1 0x0 DUP1 REVERT JUMPDEST POP PUSH2 0x234 PUSH1 0x4 DUP1 CALLDATASIZE SUB DUP2 ADD SWAP1 DUP1 DUP1 CALLDATALOAD SWAP1 PUSH1 0x20 ADD SWAP1 SWAP3 SWAP2 SWAP1 POP POP POP PUSH2 0x9B4 JUMP JUMPDEST PUSH1 0x40 MLOAD DUP1 DUP3 PUSH20 0xFFFFFFFFFFFFFFFFFFFFFFFFFFFFFFFFFFFFFFFF AND PUSH20 0xFFFFFFFFFFFFFFFFFFFFFFFFFFFFFFFFFFFFFFFF AND DUP2 MSTORE PUSH1 0x20 ADD SWAP2 POP POP PUSH1 0x40 MLOAD DUP1 SWAP2 SUB SWAP1 RETURN JUMPDEST CALLVALUE DUP1 ISZERO PUSH2 0x282 JUMPI PUSH1 0x0 DUP1 REVERT JUMPDEST POP PUSH2 0x2C1 PUSH1 0x4 DUP1 CALLDATASIZE SUB DUP2 ADD SWAP1 DUP1 DUP1 CALLDATALOAD PUSH20 0xFFFFFFFFFFFFFFFFFFFFFFFFFFFFFFFFFFFFFFFF AND SWAP1 PUSH1 0x20 ADD SWAP1 SWAP3 SWAP2 SWAP1 DUP1 CALLDATALOAD SWAP1 PUSH1 0x20 ADD SWAP1 SWAP3 SWAP2 SWAP1 POP POP POP PUSH2 0x9F7 JUMP JUMPDEST STOP JUMPDEST CALLVALUE DUP1 ISZERO PUSH2 0x2CF JUMPI PUSH1 0x0 DUP1 REVERT JUMPDEST POP PUSH2 0x304 PUSH1 0x4 DUP1 CALLDATASIZE SUB DUP2 ADD SWAP1 DUP1 DUP1 CALLDATALOAD PUSH20 0xFFFFFFFFFFFFFFFFFFFFFFFFFFFFFFFFFFFFFFFF AND SWAP1 PUSH1 0x20 ADD SWAP1 SWAP3 SWAP2 SWAP1 POP POP POP PUSH2 0xB0F JUMP JUMPDEST PUSH1 0x40 MLOAD DUP1 DUP3 DUP2 MSTORE PUSH1 0x20 ADD SWAP2 POP POP PUSH1 0x40 MLOAD DUP1 SWAP2 SUB SWAP1 RETURN JUMPDEST CALLVALUE DUP1 ISZERO PUSH2 0x326 JUMPI PUSH1 0x0 DUP1 REVERT JUMPDEST POP PUSH2 0x35B PUSH1 0x4 DUP1 CALLDATASIZE SUB DUP2 ADD SWAP1 DUP1 DUP1 CALLDATALOAD PUSH20 0xFFFFFFFFFFFFFFFFFFFFFFFFFFFFFFFFFFFFFFFF AND SWAP1 PUSH1 0x20 ADD SWAP1 SWAP3 SWAP2 SWAP1 POP POP POP PUSH2 0xC28 JUMP JUMPDEST PUSH1 0x40 MLOAD DUP1 DUP3 DUP2 MSTORE PUSH1 0x20 ADD SWAP2 POP POP PUSH1 0x40 MLOAD DUP1 SWAP2 SUB SWAP1 RETURN JUMPDEST PUSH1 0x0 PUSH1 0x1 ISZERO ISZERO PUSH1 0x1 PUSH1 0x0 DUP5 PUSH20 0xFFFFFFFFFFFFFFFFFFFFFFFFFFFFFFFFFFFFFFFF AND PUSH20 0xFFFFFFFFFFFFFFFFFFFFFFFFFFFFFFFFFFFFFFFF AND DUP2 MSTORE PUSH1 0x20 ADD SWAP1 DUP2 MSTORE PUSH1 0x20 ADD PUSH1 0x0 KECCAK256 PUSH1 0x0 ADD PUSH1 0x0 SWAP1 SLOAD SWAP1 PUSH2 0x100 EXP SWAP1 DIV PUSH1 0xFF AND ISZERO ISZERO EQ SWAP1 POP SWAP2 SWAP1 POP JUMP JUMPDEST ADDRESS PUSH20 0xFFFFFFFFFFFFFFFFFFFFFFFFFFFFFFFFFFFFFFFF AND BALANCE DUP2 GT ISZERO ISZERO ISZERO PUSH2 0x460 JUMPI PUSH1 0x40 MLOAD PUSH32 0x8C379A000000000000000000000000000000000000000000000000000000000 DUP2 MSTORE PUSH1 0x4 ADD DUP1 DUP1 PUSH1 0x20 ADD DUP3 DUP2 SUB DUP3 MSTORE PUSH1 0x1B DUP2 MSTORE PUSH1 0x20 ADD DUP1 PUSH32 0x4E6F7420656E6F756768206D6F6E657920696E20506179726F6C6C0000000000 DUP2 MSTORE POP PUSH1 0x20 ADD SWAP2 POP POP PUSH1 0x40 MLOAD DUP1 SWAP2 SUB SWAP1 REVERT JUMPDEST PUSH1 0x0 DUP2 GT ISZERO ISZERO PUSH2 0x4FE JUMPI PUSH1 0x40 MLOAD PUSH32 0x8C379A000000000000000000000000000000000000000000000000000000000 DUP2 MSTORE PUSH1 0x4 ADD DUP1 DUP1 PUSH1 0x20 ADD DUP3 DUP2 SUB DUP3 MSTORE PUSH1 0x21 DUP2 MSTORE PUSH1 0x20 ADD DUP1 PUSH32 0x5769746864726177696E6720302077696C6C2068617665206E6F206566666563 DUP2 MSTORE PUSH1 0x20 ADD PUSH32 0x7400000000000000000000000000000000000000000000000000000000000000 DUP2 MSTORE POP PUSH1 0x40 ADD SWAP2 POP POP PUSH1 0x40 MLOAD DUP1 SWAP2 SUB SWAP1 REVERT JUMPDEST CALLER PUSH20 0xFFFFFFFFFFFFFFFFFFFFFFFFFFFFFFFFFFFFFFFF AND PUSH2 0x8FC DUP3 SWAP1 DUP2 ISZERO MUL SWAP1 PUSH1 0x40 MLOAD PUSH1 0x0 PUSH1 0x40 MLOAD DUP1 DUP4 SUB DUP2 DUP6 DUP9 DUP9 CALL SWAP4 POP POP POP POP ISZERO DUP1 ISZERO PUSH2 0x544 JUMPI RETURNDATASIZE PUSH1 0x0 DUP1 RETURNDATACOPY RETURNDATASIZE PUSH1 0x0 REVERT JUMPDEST POP POP JUMP JUMPDEST DUP2 PUSH1 0x1 ISZERO ISZERO PUSH1 0x1 PUSH1 0x0 DUP4 PUSH20 0xFFFFFFFFFFFFFFFFFFFFFFFFFFFFFFFFFFFFFFFF AND PUSH20 0xFFFFFFFFFFFFFFFFFFFFFFFFFFFFFFFFFFFFFFFF AND DUP2 MSTORE PUSH1 0x20 ADD SWAP1 DUP2 MSTORE PUSH1 0x20 ADD PUSH1 0x0 KECCAK256 PUSH1 0x0 ADD PUSH1 0x0 SWAP1 SLOAD SWAP1 PUSH2 0x100 EXP SWAP1 DIV PUSH1 0xFF AND ISZERO ISZERO EQ ISZERO ISZERO PUSH2 0x614 JUMPI PUSH1 0x40 MLOAD PUSH32 0x8C379A000000000000000000000000000000000000000000000000000000000 DUP2 MSTORE PUSH1 0x4 ADD DUP1 DUP1 PUSH1 0x20 ADD DUP3 DUP2 SUB DUP3 MSTORE PUSH1 0x17 DUP2 MSTORE PUSH1 0x20 ADD DUP1 PUSH32 0x456D706C6F79656520646F6573206E6F74206578697374000000000000000000 DUP2 MSTORE POP PUSH1 0x20 ADD SWAP2 POP POP PUSH1 0x40 MLOAD DUP1 SWAP2 SUB SWAP1 REVERT JUMPDEST DUP2 PUSH1 0x1 PUSH1 0x0 DUP6 PUSH20 0xFFFFFFFFFFFFFFFFFFFFFFFFFFFFFFFFFFFFFFFF AND PUSH20 0xFFFFFFFFFFFFFFFFFFFFFFFFFFFFFFFFFFFFFFFF AND DUP2 MSTORE PUSH1 0x20 ADD SWAP1 DUP2 MSTORE PUSH1 0x20 ADD PUSH1 0x0 KECCAK256 PUSH1 0x1 ADD DUP2 SWAP1 SSTORE POP POP POP POP JUMP JUMPDEST PUSH1 0x0 DUP1 SLOAD SWAP1 POP SWAP1 JUMP JUMPDEST PUSH1 0x0 DUP4 PUSH1 0x0 ISZERO ISZERO PUSH1 0x1 PUSH1 0x0 DUP4 PUSH20 0xFFFFFFFFFFFFFFFFFFFFFFFFFFFFFFFFFFFFFFFF AND PUSH20 0xFFFFFFFFFFFFFFFFFFFFFFFFFFFFFFFFFFFFFFFF AND DUP2 MSTORE PUSH1 0x20 ADD SWAP1 DUP2 MSTORE PUSH1 0x20 ADD PUSH1 0x0 KECCAK256 PUSH1 0x0 ADD PUSH1 0x0 SWAP1 SLOAD SWAP1 PUSH2 0x100 EXP SWAP1 DIV PUSH1 0xFF AND ISZERO ISZERO EQ ISZERO ISZERO PUSH2 0x737 JUMPI PUSH1 0x40 MLOAD PUSH32 0x8C379A000000000000000000000000000000000000000000000000000000000 DUP2 MSTORE PUSH1 0x4 ADD DUP1 DUP1 PUSH1 0x20 ADD DUP3 DUP2 SUB DUP3 MSTORE PUSH1 0x17 DUP2 MSTORE PUSH1 0x20 ADD DUP1 PUSH32 0x456D706C6F79656520616C726561647920657869737473000000000000000000 DUP2 MSTORE POP PUSH1 0x20 ADD SWAP2 POP POP PUSH1 0x40 MLOAD DUP1 SWAP2 SUB SWAP1 REVERT JUMPDEST PUSH1 0x1 DUP1 PUSH1 0x0 DUP8 PUSH20 0xFFFFFFFFFFFFFFFFFFFFFFFFFFFFFFFFFFFFFFFF AND PUSH20 0xFFFFFFFFFFFFFFFFFFFFFFFFFFFFFFFFFFFFFFFF AND DUP2 MSTORE PUSH1 0x20 ADD SWAP1 DUP2 MSTORE PUSH1 0x20 ADD PUSH1 0x0 KECCAK256 PUSH1 0x0 ADD PUSH1 0x0 PUSH2 0x100 EXP DUP2 SLOAD DUP2 PUSH1 0xFF MUL NOT AND SWAP1 DUP4 ISZERO ISZERO MUL OR SWAP1 SSTORE POP DUP4 PUSH1 0x1 PUSH1 0x0 DUP8 PUSH20 0xFFFFFFFFFFFFFFFFFFFFFFFFFFFFFFFFFFFFFFFF AND PUSH20 0xFFFFFFFFFFFFFFFFFFFFFFFFFFFFFFFFFFFFFFFF AND DUP2 MSTORE PUSH1 0x20 ADD SWAP1 DUP2 MSTORE PUSH1 0x20 ADD PUSH1 0x0 KECCAK256 PUSH1 0x1 ADD DUP2 SWAP1 SSTORE POP DUP3 PUSH1 0x1 PUSH1 0x0 DUP8 PUSH20 0xFFFFFFFFFFFFFFFFFFFFFFFFFFFFFFFFFFFFFFFF AND PUSH20 0xFFFFFFFFFFFFFFFFFFFFFFFFFFFFFFFFFFFFFFFF AND DUP2 MSTORE PUSH1 0x20 ADD SWAP1 DUP2 MSTORE PUSH1 0x20 ADD PUSH1 0x0 KECCAK256 PUSH1 0x2 ADD DUP2 SWAP1 SSTORE POP PUSH1 0x2 DUP6 SWAP1 DUP1 PUSH1 0x1 DUP2 SLOAD ADD DUP1 DUP3 SSTORE DUP1 SWAP2 POP POP SWAP1 PUSH1 0x1 DUP3 SUB SWAP1 PUSH1 0x0 MSTORE PUSH1 0x20 PUSH1 0x0 KECCAK256 ADD PUSH1 0x0 SWAP1 SWAP2 SWAP3 SWAP1 SWAP2 SWAP1 SWAP2 PUSH2 0x100 EXP DUP2 SLOAD DUP2 PUSH20 0xFFFFFFFFFFFFFFFFFFFFFFFFFFFFFFFFFFFFFFFF MUL NOT AND SWAP1 DUP4 PUSH20 0xFFFFFFFFFFFFFFFFFFFFFFFFFFFFFFFFFFFFFFFF AND MUL OR SWAP1 SSTORE POP POP CALLER PUSH20 0xFFFFFFFFFFFFFFFFFFFFFFFFFFFFFFFFFFFFFFFF AND PUSH32 0xE95B7C8271F4033DE7FC533C968828C5EFB3099164A73078A102939C9DB7B9FD DUP7 PUSH1 0x1 PUSH1 0x0 DUP10 PUSH20 0xFFFFFFFFFFFFFFFFFFFFFFFFFFFFFFFFFFFFFFFF AND PUSH20 0xFFFFFFFFFFFFFFFFFFFFFFFFFFFFFFFFFFFFFFFF AND DUP2 MSTORE PUSH1 0x20 ADD SWAP1 DUP2 MSTORE PUSH1 0x20 ADD PUSH1 0x0 KECCAK256 PUSH1 0x1 ADD SLOAD PUSH1 0x1 PUSH1 0x0 DUP11 PUSH20 0xFFFFFFFFFFFFFFFFFFFFFFFFFFFFFFFFFFFFFFFF AND PUSH20 0xFFFFFFFFFFFFFFFFFFFFFFFFFFFFFFFFFFFFFFFF AND DUP2 MSTORE PUSH1 0x20 ADD SWAP1 DUP2 MSTORE PUSH1 0x20 ADD PUSH1 0x0 KECCAK256 PUSH1 0x2 ADD SLOAD PUSH1 0x40 MLOAD DUP1 DUP5 PUSH20 0xFFFFFFFFFFFFFFFFFFFFFFFFFFFFFFFFFFFFFFFF AND PUSH20 0xFFFFFFFFFFFFFFFFFFFFFFFFFFFFFFFFFFFFFFFF AND DUP2 MSTORE PUSH1 0x20 ADD DUP4 DUP2 MSTORE PUSH1 0x20 ADD DUP3 DUP2 MSTORE PUSH1 0x20 ADD SWAP4 POP POP POP POP PUSH1 0x40 MLOAD DUP1 SWAP2 SUB SWAP1 LOG2 PUSH1 0x0 DUP1 DUP2 SLOAD DUP1 SWAP3 SWAP2 SWAP1 PUSH1 0x1 ADD SWAP2 SWAP1 POP SSTORE POP PUSH1 0x1 PUSH1 0x0 SLOAD SUB SWAP2 POP POP SWAP4 SWAP3 POP POP POP JUMP JUMPDEST PUSH1 0x0 PUSH1 0x2 DUP3 DUP2 SLOAD DUP2 LT ISZERO ISZERO PUSH2 0x9C5 JUMPI INVALID JUMPDEST SWAP1 PUSH1 0x0 MSTORE PUSH1 0x20 PUSH1 0x0 KECCAK256 ADD PUSH1 0x0 SWAP1 SLOAD SWAP1 PUSH2 0x100 EXP SWAP1 DIV PUSH20 0xFFFFFFFFFFFFFFFFFFFFFFFFFFFFFFFFFFFFFFFF AND SWAP1 POP SWAP2 SWAP1 POP JUMP JUMPDEST DUP2 PUSH1 0x1 ISZERO ISZERO PUSH1 0x1 PUSH1 0x0 DUP4 PUSH20 0xFFFFFFFFFFFFFFFFFFFFFFFFFFFFFFFFFFFFFFFF AND PUSH20 0xFFFFFFFFFFFFFFFFFFFFFFFFFFFFFFFFFFFFFFFF AND DUP2 MSTORE PUSH1 0x20 ADD SWAP1 DUP2 MSTORE PUSH1 0x20 ADD PUSH1 0x0 KECCAK256 PUSH1 0x0 ADD PUSH1 0x0 SWAP1 SLOAD SWAP1 PUSH2 0x100 EXP SWAP1 DIV PUSH1 0xFF AND ISZERO ISZERO EQ ISZERO ISZERO PUSH2 0xAC3 JUMPI PUSH1 0x40 MLOAD PUSH32 0x8C379A000000000000000000000000000000000000000000000000000000000 DUP2 MSTORE PUSH1 0x4 ADD DUP1 DUP1 PUSH1 0x20 ADD DUP3 DUP2 SUB DUP3 MSTORE PUSH1 0x17 DUP2 MSTORE PUSH1 0x20 ADD DUP1 PUSH32 0x456D706C6F79656520646F6573206E6F74206578697374000000000000000000 DUP2 MSTORE POP PUSH1 0x20 ADD SWAP2 POP POP PUSH1 0x40 MLOAD DUP1 SWAP2 SUB SWAP1 REVERT JUMPDEST DUP2 PUSH1 0x1 PUSH1 0x0 DUP6 PUSH20 0xFFFFFFFFFFFFFFFFFFFFFFFFFFFFFFFFFFFFFFFF AND PUSH20 0xFFFFFFFFFFFFFFFFFFFFFFFFFFFFFFFFFFFFFFFF AND DUP2 MSTORE PUSH1 0x20 ADD SWAP1 DUP2 MSTORE PUSH1 0x20 ADD PUSH1 0x0 KECCAK256 PUSH1 0x2 ADD DUP2 SWAP1 SSTORE POP POP POP POP JUMP JUMPDEST PUSH1 0x0 DUP2 PUSH1 0x1 ISZERO ISZERO PUSH1 0x1 PUSH1 0x0 DUP4 PUSH20 0xFFFFFFFFFFFFFFFFFFFFFFFFFFFFFFFFFFFFFFFF AND PUSH20 0xFFFFFFFFFFFFFFFFFFFFFFFFFFFFFFFFFFFFFFFF AND DUP2 MSTORE PUSH1 0x20 ADD SWAP1 DUP2 MSTORE PUSH1 0x20 ADD PUSH1 0x0 KECCAK256 PUSH1 0x0 ADD PUSH1 0x0 SWAP1 SLOAD SWAP1 PUSH2 0x100 EXP SWAP1 DIV PUSH1 0xFF AND ISZERO ISZERO EQ ISZERO ISZERO PUSH2 0xBDD JUMPI PUSH1 0x40 MLOAD PUSH32 0x8C379A000000000000000000000000000000000000000000000000000000000 DUP2 MSTORE PUSH1 0x4 ADD DUP1 DUP1 PUSH1 0x20 ADD DUP3 DUP2 SUB DUP3 MSTORE PUSH1 0x17 DUP2 MSTORE PUSH1 0x20 ADD DUP1 PUSH32 0x456D706C6F79656520646F6573206E6F74206578697374000000000000000000 DUP2 MSTORE POP PUSH1 0x20 ADD SWAP2 POP POP PUSH1 0x40 MLOAD DUP1 SWAP2 SUB SWAP1 REVERT JUMPDEST PUSH1 0x1 PUSH1 0x0 DUP5 PUSH20 0xFFFFFFFFFFFFFFFFFFFFFFFFFFFFFFFFFFFFFFFF AND PUSH20 0xFFFFFFFFFFFFFFFFFFFFFFFFFFFFFFFFFFFFFFFF AND DUP2 MSTORE PUSH1 0x20 ADD SWAP1 DUP2 MSTORE PUSH1 0x20 ADD PUSH1 0x0 KECCAK256 PUSH1 0x1 ADD SLOAD SWAP2 POP POP SWAP2 SWAP1 POP JUMP JUMPDEST PUSH1 0x0 DUP2 PUSH1 0x1 ISZERO ISZERO PUSH1 0x1 PUSH1 0x0 DUP4 PUSH20 0xFFFFFFFFFFFFFFFFFFFFFFFFFFFFFFFFFFFFFFFF AND PUSH20 0xFFFFFFFFFFFFFFFFFFFFFFFFFFFFFFFFFFFFFFFF AND DUP2 MSTORE PUSH1 0x20 ADD SWAP1 DUP2 MSTORE PUSH1 0x20 ADD PUSH1 0x0 KECCAK256 PUSH1 0x0 ADD PUSH1 0x0 SWAP1 SLOAD SWAP1 PUSH2 0x100 EXP SWAP1 DIV PUSH1 0xFF AND ISZERO ISZERO EQ ISZERO ISZERO PUSH2 0xCF6 JUMPI PUSH1 0x40 MLOAD PUSH32 0x8C379A000000000000000000000000000000000000000000000000000000000 DUP2 MSTORE PUSH1 0x4 ADD DUP1 DUP1 PUSH1 0x20 ADD DUP3 DUP2 SUB DUP3 MSTORE PUSH1 0x17 DUP2 MSTORE PUSH1 0x20 ADD DUP1 PUSH32 0x456D706C6F79656520646F6573206E6F74206578697374000000000000000000 DUP2 MSTORE POP PUSH1 0x20 ADD SWAP2 POP POP PUSH1 0x40 MLOAD DUP1 SWAP2 SUB SWAP1 REVERT JUMPDEST PUSH1 0x1 PUSH1 0x0 DUP5 PUSH20 0xFFFFFFFFFFFFFFFFFFFFFFFFFFFFFFFFFFFFFFFF AND PUSH20 0xFFFFFFFFFFFFFFFFFFFFFFFFFFFFFFFFFFFFFFFF AND DUP2 MSTORE PUSH1 0x20 ADD SWAP1 DUP2 MSTORE PUSH1 0x20 ADD PUSH1 0x0 KECCAK256 PUSH1 0x2 ADD SLOAD SWAP2 POP POP SWAP2 SWAP1 POP JUMP STOP LOG1 PUSH6 0x627A7A723058 KECCAK256 0x1e 0xa9 PUSH17 0xB2B42917EC6B4525324FFD231DD26850C3 0xda SWAP1 CALLCODE 0x49 PUSH26 0x3164C9E9EE00C900290000000000000000000000000000000000 "
				},
				"gasEstimates": {
					"creation": {
						"codeDepositCost": "687400",
						"executionCost": "5735",
						"totalCost": "693135"
					},
					"external": {
						"createEmployeeContract(address,uint256,uint256)": "125012",
						"employeeExists(address)": "631",
						"getAddressByIndex(uint256)": "907",
						"getNumberOfEmployees()": "468",
						"readMaximumSecondsPerSession(address)": "1119",
						"readSalaryPerSecond(address)": "1097",
						"updateMaximumSecondsPerSession(address,uint256)": "20846",
						"updateSalaryPerSecond(address,uint256)": "20758",
						"withdrawFunds(uint256)": "infinite"
					}
				},
				"methodIdentifiers": {
					"createEmployeeContract(address,uint256,uint256)": "9e757f98",
					"employeeExists(address)": "1024f223",
					"getAddressByIndex(uint256)": "ce10cf88",
					"getNumberOfEmployees()": "888e1d05",
					"readMaximumSecondsPerSession(address)": "fd2b8257",
					"readSalaryPerSecond(address)": "f5e369e8",
					"updateMaximumSecondsPerSession(address,uint256)": "dbbf65b7",
					"updateSalaryPerSecond(address,uint256)": "5da74955",
					"withdrawFunds(uint256)": "155dd5ee"
				}
			},
			"userdoc": {
				"methods": {}
			}
		}
	}
}