{
	"blockchain/EmployeeContractStorage.sol": {
		"EmployeeContractStorage": {
			"abi": [
				{
					"constant": true,
					"inputs": [
						{
							"name": "_employeeAddress",
							"type": "address"
						}
					],
					"name": "employeeExists",
					"outputs": [
						{
							"name": "",
							"type": "bool"
						}
					],
					"payable": false,
					"stateMutability": "view",
					"type": "function"
				},
				{
					"constant": false,
					"inputs": [
						{
							"name": "_employeeAddress",
							"type": "address"
						},
						{
							"name": "_salaryPerSecond",
							"type": "uint256"
						}
					],
					"name": "updateSalaryPerSecond",
					"outputs": [],
					"payable": false,
					"stateMutability": "nonpayable",
					"type": "function"
				},
				{
					"constant": true,
					"inputs": [],
					"name": "getNumberOfEmployees",
					"outputs": [
						{
							"name": "",
							"type": "uint256"
						}
					],
					"payable": false,
					"stateMutability": "view",
					"type": "function"
				},
				{
					"constant": false,
					"inputs": [
						{
							"name": "_incomeAccount",
							"type": "address"
						},
						{
							"name": "_salaryPerSecond",
							"type": "uint256"
						},
						{
							"name": "_maximumSecondsPerSession",
							"type": "uint256"
						}
					],
					"name": "createEmployeeContract",
					"outputs": [
						{
							"name": "",
							"type": "uint256"
						}
					],
					"payable": false,
					"stateMutability": "nonpayable",
					"type": "function"
				},
				{
					"constant": true,
					"inputs": [
						{
							"name": "_index",
							"type": "uint256"
						}
					],
					"name": "getAddressByIndex",
					"outputs": [
						{
							"name": "",
							"type": "address"
						}
					],
					"payable": false,
					"stateMutability": "view",
					"type": "function"
				},
				{
					"constant": false,
					"inputs": [
						{
							"name": "_employeeAddress",
							"type": "address"
						},
						{
							"name": "_maximumSecondsPerSession",
							"type": "uint256"
						}
					],
					"name": "updateMaximumSecondsPerSession",
					"outputs": [],
					"payable": false,
					"stateMutability": "nonpayable",
					"type": "function"
				},
				{
					"constant": true,
					"inputs": [
						{
							"name": "_employeeAddress",
							"type": "address"
						}
					],
					"name": "readSalaryPerSecond",
					"outputs": [
						{
							"name": "",
							"type": "uint256"
						}
					],
					"payable": false,
					"stateMutability": "view",
					"type": "function"
				},
				{
					"constant": true,
					"inputs": [
						{
							"name": "_employeeAddress",
							"type": "address"
						}
					],
					"name": "readMaximumSecondsPerSession",
					"outputs": [
						{
							"name": "",
							"type": "uint256"
						}
					],
					"payable": false,
					"stateMutability": "view",
					"type": "function"
				},
				{
					"inputs": [],
					"payable": false,
					"stateMutability": "nonpayable",
					"type": "constructor"
				},
				{
					"anonymous": false,
					"inputs": [
						{
							"indexed": true,
							"name": "_from",
							"type": "address"
						},
						{
							"indexed": false,
							"name": "incomeAccount",
							"type": "address"
						},
						{
							"indexed": false,
							"name": "salaryPerSecond",
							"type": "uint256"
						},
						{
							"indexed": false,
							"name": "maximumSecondsPerSession",
							"type": "uint256"
						}
					],
					"name": "EmployeeContractCreation",
					"type": "event"
				}
			],
			"devdoc": {
				"methods": {}
			},
			"evm": {
				"assembly": "    /* \"blockchain/EmployeeContractStorage.sol\":30:3542  contract EmployeeContractStorage {\r... */\n  mstore(0x40, 0x80)\n    /* \"blockchain/EmployeeContractStorage.sol\":972:1032  constructor() public {\r... */\n  callvalue\n    /* \"--CODEGEN--\":8:17   */\n  dup1\n    /* \"--CODEGEN--\":5:7   */\n  iszero\n  tag_1\n  jumpi\n    /* \"--CODEGEN--\":30:31   */\n  0x0\n    /* \"--CODEGEN--\":27:28   */\n  dup1\n    /* \"--CODEGEN--\":20:32   */\n  revert\n    /* \"--CODEGEN--\":5:7   */\ntag_1:\n    /* \"blockchain/EmployeeContractStorage.sol\":972:1032  constructor() public {\r... */\n  pop\n    /* \"blockchain/EmployeeContractStorage.sol\":1022:1023  0 */\n  0x0\n    /* \"blockchain/EmployeeContractStorage.sol\":1004:1019  employeeCounter */\n  dup1\n    /* \"blockchain/EmployeeContractStorage.sol\":1004:1023  employeeCounter = 0 */\n  dup2\n  swap1\n  sstore\n  pop\n    /* \"blockchain/EmployeeContractStorage.sol\":30:3542  contract EmployeeContractStorage {\r... */\n  dataSize(sub_0)\n  dup1\n  dataOffset(sub_0)\n  0x0\n  codecopy\n  0x0\n  return\nstop\n\nsub_0: assembly {\n        /* \"blockchain/EmployeeContractStorage.sol\":30:3542  contract EmployeeContractStorage {\r... */\n      mstore(0x40, 0x80)\n      jumpi(tag_1, lt(calldatasize, 0x4))\n      calldataload(0x0)\n      0x100000000000000000000000000000000000000000000000000000000\n      swap1\n      div\n      0xffffffff\n      and\n      dup1\n      0x1024f223\n      eq\n      tag_2\n      jumpi\n      dup1\n      0x5da74955\n      eq\n      tag_3\n      jumpi\n      dup1\n      0x888e1d05\n      eq\n      tag_4\n      jumpi\n      dup1\n      0x9e757f98\n      eq\n      tag_5\n      jumpi\n      dup1\n      0xce10cf88\n      eq\n      tag_6\n      jumpi\n      dup1\n      0xdbbf65b7\n      eq\n      tag_7\n      jumpi\n      dup1\n      0xf5e369e8\n      eq\n      tag_8\n      jumpi\n      dup1\n      0xfd2b8257\n      eq\n      tag_9\n      jumpi\n    tag_1:\n      0x0\n      dup1\n      revert\n        /* \"blockchain/EmployeeContractStorage.sol\":3335:3537  function employeeExists(address _employeeAddress) \r... */\n    tag_2:\n      callvalue\n        /* \"--CODEGEN--\":8:17   */\n      dup1\n        /* \"--CODEGEN--\":5:7   */\n      iszero\n      tag_10\n      jumpi\n        /* \"--CODEGEN--\":30:31   */\n      0x0\n        /* \"--CODEGEN--\":27:28   */\n      dup1\n        /* \"--CODEGEN--\":20:32   */\n      revert\n        /* \"--CODEGEN--\":5:7   */\n    tag_10:\n        /* \"blockchain/EmployeeContractStorage.sol\":3335:3537  function employeeExists(address _employeeAddress) \r... */\n      pop\n      tag_11\n      0x4\n      dup1\n      calldatasize\n      sub\n      dup2\n      add\n      swap1\n      dup1\n      dup1\n      calldataload\n      0xffffffffffffffffffffffffffffffffffffffff\n      and\n      swap1\n      0x20\n      add\n      swap1\n      swap3\n      swap2\n      swap1\n      pop\n      pop\n      pop\n      jump(tag_12)\n    tag_11:\n      mload(0x40)\n      dup1\n      dup3\n      iszero\n      iszero\n      iszero\n      iszero\n      dup2\n      mstore\n      0x20\n      add\n      swap2\n      pop\n      pop\n      mload(0x40)\n      dup1\n      swap2\n      sub\n      swap1\n      return\n        /* \"blockchain/EmployeeContractStorage.sol\":1983:2209  function updateSalaryPerSecond(address _employeeAddress, uint _salaryPerSecond)\r... */\n    tag_3:\n      callvalue\n        /* \"--CODEGEN--\":8:17   */\n      dup1\n        /* \"--CODEGEN--\":5:7   */\n      iszero\n      tag_13\n      jumpi\n        /* \"--CODEGEN--\":30:31   */\n      0x0\n        /* \"--CODEGEN--\":27:28   */\n      dup1\n        /* \"--CODEGEN--\":20:32   */\n      revert\n        /* \"--CODEGEN--\":5:7   */\n    tag_13:\n        /* \"blockchain/EmployeeContractStorage.sol\":1983:2209  function updateSalaryPerSecond(address _employeeAddress, uint _salaryPerSecond)\r... */\n      pop\n      tag_14\n      0x4\n      dup1\n      calldatasize\n      sub\n      dup2\n      add\n      swap1\n      dup1\n      dup1\n      calldataload\n      0xffffffffffffffffffffffffffffffffffffffff\n      and\n      swap1\n      0x20\n      add\n      swap1\n      swap3\n      swap2\n      swap1\n      dup1\n      calldataload\n      swap1\n      0x20\n      add\n      swap1\n      swap3\n      swap2\n      swap1\n      pop\n      pop\n      pop\n      jump(tag_15)\n    tag_14:\n      stop\n        /* \"blockchain/EmployeeContractStorage.sol\":3215:3327  function getNumberOfEmployees() \r... */\n    tag_4:\n      callvalue\n        /* \"--CODEGEN--\":8:17   */\n      dup1\n        /* \"--CODEGEN--\":5:7   */\n      iszero\n      tag_16\n      jumpi\n        /* \"--CODEGEN--\":30:31   */\n      0x0\n        /* \"--CODEGEN--\":27:28   */\n      dup1\n        /* \"--CODEGEN--\":20:32   */\n      revert\n        /* \"--CODEGEN--\":5:7   */\n    tag_16:\n        /* \"blockchain/EmployeeContractStorage.sol\":3215:3327  function getNumberOfEmployees() \r... */\n      pop\n      tag_17\n      jump(tag_18)\n    tag_17:\n      mload(0x40)\n      dup1\n      dup3\n      dup2\n      mstore\n      0x20\n      add\n      swap2\n      pop\n      pop\n      mload(0x40)\n      dup1\n      swap2\n      sub\n      swap1\n      return\n        /* \"blockchain/EmployeeContractStorage.sol\":1063:1938  function createEmployeeContract(address _incomeAccount, uint _salaryPerSecond, uint _maximumSecondsPerSession) \r... */\n    tag_5:\n      callvalue\n        /* \"--CODEGEN--\":8:17   */\n      dup1\n        /* \"--CODEGEN--\":5:7   */\n      iszero\n      tag_19\n      jumpi\n        /* \"--CODEGEN--\":30:31   */\n      0x0\n        /* \"--CODEGEN--\":27:28   */\n      dup1\n        /* \"--CODEGEN--\":20:32   */\n      revert\n        /* \"--CODEGEN--\":5:7   */\n    tag_19:\n        /* \"blockchain/EmployeeContractStorage.sol\":1063:1938  function createEmployeeContract(address _incomeAccount, uint _salaryPerSecond, uint _maximumSecondsPerSession) \r... */\n      pop\n      tag_20\n      0x4\n      dup1\n      calldatasize\n      sub\n      dup2\n      add\n      swap1\n      dup1\n      dup1\n      calldataload\n      0xffffffffffffffffffffffffffffffffffffffff\n      and\n      swap1\n      0x20\n      add\n      swap1\n      swap3\n      swap2\n      swap1\n      dup1\n      calldataload\n      swap1\n      0x20\n      add\n      swap1\n      swap3\n      swap2\n      swap1\n      dup1\n      calldataload\n      swap1\n      0x20\n      add\n      swap1\n      swap3\n      swap2\n      swap1\n      pop\n      pop\n      pop\n      jump(tag_21)\n    tag_20:\n      mload(0x40)\n      dup1\n      dup3\n      dup2\n      mstore\n      0x20\n      add\n      swap2\n      pop\n      pop\n      mload(0x40)\n      dup1\n      swap2\n      sub\n      swap1\n      return\n        /* \"blockchain/EmployeeContractStorage.sol\":3088:3207  function getAddressByIndex(uint _index) \r... */\n    tag_6:\n      callvalue\n        /* \"--CODEGEN--\":8:17   */\n      dup1\n        /* \"--CODEGEN--\":5:7   */\n      iszero\n      tag_22\n      jumpi\n        /* \"--CODEGEN--\":30:31   */\n      0x0\n        /* \"--CODEGEN--\":27:28   */\n      dup1\n        /* \"--CODEGEN--\":20:32   */\n      revert\n        /* \"--CODEGEN--\":5:7   */\n    tag_22:\n        /* \"blockchain/EmployeeContractStorage.sol\":3088:3207  function getAddressByIndex(uint _index) \r... */\n      pop\n      tag_23\n      0x4\n      dup1\n      calldatasize\n      sub\n      dup2\n      add\n      swap1\n      dup1\n      dup1\n      calldataload\n      swap1\n      0x20\n      add\n      swap1\n      swap3\n      swap2\n      swap1\n      pop\n      pop\n      pop\n      jump(tag_24)\n    tag_23:\n      mload(0x40)\n      dup1\n      dup3\n      0xffffffffffffffffffffffffffffffffffffffff\n      and\n      0xffffffffffffffffffffffffffffffffffffffff\n      and\n      dup2\n      mstore\n      0x20\n      add\n      swap2\n      pop\n      pop\n      mload(0x40)\n      dup1\n      swap2\n      sub\n      swap1\n      return\n        /* \"blockchain/EmployeeContractStorage.sol\":2259:2528  function updateMaximumSecondsPerSession(address _employeeAddress, uint _maximumSecondsPerSession)\r... */\n    tag_7:\n      callvalue\n        /* \"--CODEGEN--\":8:17   */\n      dup1\n        /* \"--CODEGEN--\":5:7   */\n      iszero\n      tag_25\n      jumpi\n        /* \"--CODEGEN--\":30:31   */\n      0x0\n        /* \"--CODEGEN--\":27:28   */\n      dup1\n        /* \"--CODEGEN--\":20:32   */\n      revert\n        /* \"--CODEGEN--\":5:7   */\n    tag_25:\n        /* \"blockchain/EmployeeContractStorage.sol\":2259:2528  function updateMaximumSecondsPerSession(address _employeeAddress, uint _maximumSecondsPerSession)\r... */\n      pop\n      tag_26\n      0x4\n      dup1\n      calldatasize\n      sub\n      dup2\n      add\n      swap1\n      dup1\n      dup1\n      calldataload\n      0xffffffffffffffffffffffffffffffffffffffff\n      and\n      swap1\n      0x20\n      add\n      swap1\n      swap3\n      swap2\n      swap1\n      dup1\n      calldataload\n      swap1\n      0x20\n      add\n      swap1\n      swap3\n      swap2\n      swap1\n      pop\n      pop\n      pop\n      jump(tag_27)\n    tag_26:\n      stop\n        /* \"blockchain/EmployeeContractStorage.sol\":2573:2792  function readSalaryPerSecond(address _employeeAddress) \r... */\n    tag_8:\n      callvalue\n        /* \"--CODEGEN--\":8:17   */\n      dup1\n        /* \"--CODEGEN--\":5:7   */\n      iszero\n      tag_28\n      jumpi\n        /* \"--CODEGEN--\":30:31   */\n      0x0\n        /* \"--CODEGEN--\":27:28   */\n      dup1\n        /* \"--CODEGEN--\":20:32   */\n      revert\n        /* \"--CODEGEN--\":5:7   */\n    tag_28:\n        /* \"blockchain/EmployeeContractStorage.sol\":2573:2792  function readSalaryPerSecond(address _employeeAddress) \r... */\n      pop\n      tag_29\n      0x4\n      dup1\n      calldatasize\n      sub\n      dup2\n      add\n      swap1\n      dup1\n      dup1\n      calldataload\n      0xffffffffffffffffffffffffffffffffffffffff\n      and\n      swap1\n      0x20\n      add\n      swap1\n      swap3\n      swap2\n      swap1\n      pop\n      pop\n      pop\n      jump(tag_30)\n    tag_29:\n      mload(0x40)\n      dup1\n      dup3\n      dup2\n      mstore\n      0x20\n      add\n      swap2\n      pop\n      pop\n      mload(0x40)\n      dup1\n      swap2\n      sub\n      swap1\n      return\n        /* \"blockchain/EmployeeContractStorage.sol\":2843:3080  function readMaximumSecondsPerSession(address _employeeAddress) \r... */\n    tag_9:\n      callvalue\n        /* \"--CODEGEN--\":8:17   */\n      dup1\n        /* \"--CODEGEN--\":5:7   */\n      iszero\n      tag_31\n      jumpi\n        /* \"--CODEGEN--\":30:31   */\n      0x0\n        /* \"--CODEGEN--\":27:28   */\n      dup1\n        /* \"--CODEGEN--\":20:32   */\n      revert\n        /* \"--CODEGEN--\":5:7   */\n    tag_31:\n        /* \"blockchain/EmployeeContractStorage.sol\":2843:3080  function readMaximumSecondsPerSession(address _employeeAddress) \r... */\n      pop\n      tag_32\n      0x4\n      dup1\n      calldatasize\n      sub\n      dup2\n      add\n      swap1\n      dup1\n      dup1\n      calldataload\n      0xffffffffffffffffffffffffffffffffffffffff\n      and\n      swap1\n      0x20\n      add\n      swap1\n      swap3\n      swap2\n      swap1\n      pop\n      pop\n      pop\n      jump(tag_33)\n    tag_32:\n      mload(0x40)\n      dup1\n      dup3\n      dup2\n      mstore\n      0x20\n      add\n      swap2\n      pop\n      pop\n      mload(0x40)\n      dup1\n      swap2\n      sub\n      swap1\n      return\n        /* \"blockchain/EmployeeContractStorage.sol\":3335:3537  function employeeExists(address _employeeAddress) \r... */\n    tag_12:\n        /* \"blockchain/EmployeeContractStorage.sol\":3418:3422  bool */\n      0x0\n        /* \"blockchain/EmployeeContractStorage.sol\":3491:3495  true */\n      0x1\n        /* \"blockchain/EmployeeContractStorage.sol\":3442:3495  employeeContractsMap[_employeeAddress].exists == true */\n      iszero\n      iszero\n        /* \"blockchain/EmployeeContractStorage.sol\":3442:3462  employeeContractsMap */\n      0x1\n        /* \"blockchain/EmployeeContractStorage.sol\":3442:3480  employeeContractsMap[_employeeAddress] */\n      0x0\n        /* \"blockchain/EmployeeContractStorage.sol\":3463:3479  _employeeAddress */\n      dup5\n        /* \"blockchain/EmployeeContractStorage.sol\":3442:3480  employeeContractsMap[_employeeAddress] */\n      0xffffffffffffffffffffffffffffffffffffffff\n      and\n      0xffffffffffffffffffffffffffffffffffffffff\n      and\n      dup2\n      mstore\n      0x20\n      add\n      swap1\n      dup2\n      mstore\n      0x20\n      add\n      0x0\n      keccak256\n        /* \"blockchain/EmployeeContractStorage.sol\":3442:3487  employeeContractsMap[_employeeAddress].exists */\n      0x0\n      add\n      0x0\n      swap1\n      sload\n      swap1\n      0x100\n      exp\n      swap1\n      div\n      0xff\n      and\n        /* \"blockchain/EmployeeContractStorage.sol\":3442:3495  employeeContractsMap[_employeeAddress].exists == true */\n      iszero\n      iszero\n      eq\n        /* \"blockchain/EmployeeContractStorage.sol\":3435:3495  return employeeContractsMap[_employeeAddress].exists == true */\n      swap1\n      pop\n        /* \"blockchain/EmployeeContractStorage.sol\":3335:3537  function employeeExists(address _employeeAddress) \r... */\n      swap2\n      swap1\n      pop\n      jump\t// out\n        /* \"blockchain/EmployeeContractStorage.sol\":1983:2209  function updateSalaryPerSecond(address _employeeAddress, uint _salaryPerSecond)\r... */\n    tag_15:\n        /* \"blockchain/EmployeeContractStorage.sol\":2099:2115  _employeeAddress */\n      dup2\n        /* \"blockchain/EmployeeContractStorage.sol\":504:508  true */\n      0x1\n        /* \"blockchain/EmployeeContractStorage.sol\":463:508  employeeContractsMap[_address].exists == true */\n      iszero\n      iszero\n        /* \"blockchain/EmployeeContractStorage.sol\":463:483  employeeContractsMap */\n      0x1\n        /* \"blockchain/EmployeeContractStorage.sol\":463:493  employeeContractsMap[_address] */\n      0x0\n        /* \"blockchain/EmployeeContractStorage.sol\":484:492  _address */\n      dup4\n        /* \"blockchain/EmployeeContractStorage.sol\":463:493  employeeContractsMap[_address] */\n      0xffffffffffffffffffffffffffffffffffffffff\n      and\n      0xffffffffffffffffffffffffffffffffffffffff\n      and\n      dup2\n      mstore\n      0x20\n      add\n      swap1\n      dup2\n      mstore\n      0x20\n      add\n      0x0\n      keccak256\n        /* \"blockchain/EmployeeContractStorage.sol\":463:500  employeeContractsMap[_address].exists */\n      0x0\n      add\n      0x0\n      swap1\n      sload\n      swap1\n      0x100\n      exp\n      swap1\n      div\n      0xff\n      and\n        /* \"blockchain/EmployeeContractStorage.sol\":463:508  employeeContractsMap[_address].exists == true */\n      iszero\n      iszero\n      eq\n        /* \"blockchain/EmployeeContractStorage.sol\":455:536  require(employeeContractsMap[_address].exists == true, \"Employee does not exist\") */\n      iszero\n      iszero\n      tag_36\n      jumpi\n      mload(0x40)\n      0x8c379a000000000000000000000000000000000000000000000000000000000\n      dup2\n      mstore\n      0x4\n      add\n      dup1\n      dup1\n      0x20\n      add\n      dup3\n      dup2\n      sub\n      dup3\n      mstore\n      0x17\n      dup2\n      mstore\n      0x20\n      add\n      dup1\n      0x456d706c6f79656520646f6573206e6f74206578697374000000000000000000\n      dup2\n      mstore\n      pop\n      0x20\n      add\n      swap2\n      pop\n      pop\n      mload(0x40)\n      dup1\n      swap2\n      sub\n      swap1\n      revert\n    tag_36:\n        /* \"blockchain/EmployeeContractStorage.sol\":2185:2201  _salaryPerSecond */\n      dup2\n        /* \"blockchain/EmployeeContractStorage.sol\":2128:2148  employeeContractsMap */\n      0x1\n        /* \"blockchain/EmployeeContractStorage.sol\":2128:2166  employeeContractsMap[_employeeAddress] */\n      0x0\n        /* \"blockchain/EmployeeContractStorage.sol\":2149:2165  _employeeAddress */\n      dup6\n        /* \"blockchain/EmployeeContractStorage.sol\":2128:2166  employeeContractsMap[_employeeAddress] */\n      0xffffffffffffffffffffffffffffffffffffffff\n      and\n      0xffffffffffffffffffffffffffffffffffffffff\n      and\n      dup2\n      mstore\n      0x20\n      add\n      swap1\n      dup2\n      mstore\n      0x20\n      add\n      0x0\n      keccak256\n        /* \"blockchain/EmployeeContractStorage.sol\":2128:2182  employeeContractsMap[_employeeAddress].salaryPerSecond */\n      0x1\n      add\n        /* \"blockchain/EmployeeContractStorage.sol\":2128:2201  employeeContractsMap[_employeeAddress].salaryPerSecond = _salaryPerSecond */\n      dup2\n      swap1\n      sstore\n      pop\n        /* \"blockchain/EmployeeContractStorage.sol\":1983:2209  function updateSalaryPerSecond(address _employeeAddress, uint _salaryPerSecond)\r... */\n      pop\n      pop\n      pop\n      jump\t// out\n        /* \"blockchain/EmployeeContractStorage.sol\":3215:3327  function getNumberOfEmployees() \r... */\n    tag_18:\n        /* \"blockchain/EmployeeContractStorage.sol\":3280:3284  uint */\n      0x0\n        /* \"blockchain/EmployeeContractStorage.sol\":3304:3319  employeeCounter */\n      dup1\n      sload\n        /* \"blockchain/EmployeeContractStorage.sol\":3297:3319  return employeeCounter */\n      swap1\n      pop\n        /* \"blockchain/EmployeeContractStorage.sol\":3215:3327  function getNumberOfEmployees() \r... */\n      swap1\n      jump\t// out\n        /* \"blockchain/EmployeeContractStorage.sol\":1063:1938  function createEmployeeContract(address _incomeAccount, uint _salaryPerSecond, uint _maximumSecondsPerSession) \r... */\n    tag_21:\n        /* \"blockchain/EmployeeContractStorage.sol\":1246:1250  uint */\n      0x0\n        /* \"blockchain/EmployeeContractStorage.sol\":1216:1230  _incomeAccount */\n      dup4\n        /* \"blockchain/EmployeeContractStorage.sol\":679:684  false */\n      0x0\n        /* \"blockchain/EmployeeContractStorage.sol\":638:684  employeeContractsMap[_address].exists == false */\n      iszero\n      iszero\n        /* \"blockchain/EmployeeContractStorage.sol\":638:658  employeeContractsMap */\n      0x1\n        /* \"blockchain/EmployeeContractStorage.sol\":638:668  employeeContractsMap[_address] */\n      0x0\n        /* \"blockchain/EmployeeContractStorage.sol\":659:667  _address */\n      dup4\n        /* \"blockchain/EmployeeContractStorage.sol\":638:668  employeeContractsMap[_address] */\n      0xffffffffffffffffffffffffffffffffffffffff\n      and\n      0xffffffffffffffffffffffffffffffffffffffff\n      and\n      dup2\n      mstore\n      0x20\n      add\n      swap1\n      dup2\n      mstore\n      0x20\n      add\n      0x0\n      keccak256\n        /* \"blockchain/EmployeeContractStorage.sol\":638:675  employeeContractsMap[_address].exists */\n      0x0\n      add\n      0x0\n      swap1\n      sload\n      swap1\n      0x100\n      exp\n      swap1\n      div\n      0xff\n      and\n        /* \"blockchain/EmployeeContractStorage.sol\":638:684  employeeContractsMap[_address].exists == false */\n      iszero\n      iszero\n      eq\n        /* \"blockchain/EmployeeContractStorage.sol\":630:712  require(employeeContractsMap[_address].exists == false, \"Employee already exists\") */\n      iszero\n      iszero\n      tag_40\n      jumpi\n      mload(0x40)\n      0x8c379a000000000000000000000000000000000000000000000000000000000\n      dup2\n      mstore\n      0x4\n      add\n      dup1\n      dup1\n      0x20\n      add\n      dup3\n      dup2\n      sub\n      dup3\n      mstore\n      0x17\n      dup2\n      mstore\n      0x20\n      add\n      dup1\n      0x456d706c6f79656520616c726561647920657869737473000000000000000000\n      dup2\n      mstore\n      pop\n      0x20\n      add\n      swap2\n      pop\n      pop\n      mload(0x40)\n      dup1\n      swap2\n      sub\n      swap1\n      revert\n    tag_40:\n        /* \"blockchain/EmployeeContractStorage.sol\":1365:1369  true */\n      0x1\n        /* \"blockchain/EmployeeContractStorage.sol\":1319:1339  employeeContractsMap */\n      dup1\n        /* \"blockchain/EmployeeContractStorage.sol\":1319:1355  employeeContractsMap[_incomeAccount] */\n      0x0\n        /* \"blockchain/EmployeeContractStorage.sol\":1340:1354  _incomeAccount */\n      dup8\n        /* \"blockchain/EmployeeContractStorage.sol\":1319:1355  employeeContractsMap[_incomeAccount] */\n      0xffffffffffffffffffffffffffffffffffffffff\n      and\n      0xffffffffffffffffffffffffffffffffffffffff\n      and\n      dup2\n      mstore\n      0x20\n      add\n      swap1\n      dup2\n      mstore\n      0x20\n      add\n      0x0\n      keccak256\n        /* \"blockchain/EmployeeContractStorage.sol\":1319:1362  employeeContractsMap[_incomeAccount].exists */\n      0x0\n      add\n      0x0\n        /* \"blockchain/EmployeeContractStorage.sol\":1319:1369  employeeContractsMap[_incomeAccount].exists = true */\n      0x100\n      exp\n      dup2\n      sload\n      dup2\n      0xff\n      mul\n      not\n      and\n      swap1\n      dup4\n      iszero\n      iszero\n      mul\n      or\n      swap1\n      sstore\n      pop\n        /* \"blockchain/EmployeeContractStorage.sol\":1435:1451  _salaryPerSecond */\n      dup4\n        /* \"blockchain/EmployeeContractStorage.sol\":1380:1400  employeeContractsMap */\n      0x1\n        /* \"blockchain/EmployeeContractStorage.sol\":1380:1416  employeeContractsMap[_incomeAccount] */\n      0x0\n        /* \"blockchain/EmployeeContractStorage.sol\":1401:1415  _incomeAccount */\n      dup8\n        /* \"blockchain/EmployeeContractStorage.sol\":1380:1416  employeeContractsMap[_incomeAccount] */\n      0xffffffffffffffffffffffffffffffffffffffff\n      and\n      0xffffffffffffffffffffffffffffffffffffffff\n      and\n      dup2\n      mstore\n      0x20\n      add\n      swap1\n      dup2\n      mstore\n      0x20\n      add\n      0x0\n      keccak256\n        /* \"blockchain/EmployeeContractStorage.sol\":1380:1432  employeeContractsMap[_incomeAccount].salaryPerSecond */\n      0x1\n      add\n        /* \"blockchain/EmployeeContractStorage.sol\":1380:1451  employeeContractsMap[_incomeAccount].salaryPerSecond = _salaryPerSecond */\n      dup2\n      swap1\n      sstore\n      pop\n        /* \"blockchain/EmployeeContractStorage.sol\":1526:1551  _maximumSecondsPerSession */\n      dup3\n        /* \"blockchain/EmployeeContractStorage.sol\":1462:1482  employeeContractsMap */\n      0x1\n        /* \"blockchain/EmployeeContractStorage.sol\":1462:1498  employeeContractsMap[_incomeAccount] */\n      0x0\n        /* \"blockchain/EmployeeContractStorage.sol\":1483:1497  _incomeAccount */\n      dup8\n        /* \"blockchain/EmployeeContractStorage.sol\":1462:1498  employeeContractsMap[_incomeAccount] */\n      0xffffffffffffffffffffffffffffffffffffffff\n      and\n      0xffffffffffffffffffffffffffffffffffffffff\n      and\n      dup2\n      mstore\n      0x20\n      add\n      swap1\n      dup2\n      mstore\n      0x20\n      add\n      0x0\n      keccak256\n        /* \"blockchain/EmployeeContractStorage.sol\":1462:1523  employeeContractsMap[_incomeAccount].maximumSecondsPerSession */\n      0x2\n      add\n        /* \"blockchain/EmployeeContractStorage.sol\":1462:1551  employeeContractsMap[_incomeAccount].maximumSecondsPerSession = _maximumSecondsPerSession */\n      dup2\n      swap1\n      sstore\n      pop\n        /* \"blockchain/EmployeeContractStorage.sol\":1587:1591  keys */\n      0x2\n        /* \"blockchain/EmployeeContractStorage.sol\":1597:1611  _incomeAccount */\n      dup6\n        /* \"blockchain/EmployeeContractStorage.sol\":1587:1612  keys.push(_incomeAccount) */\n      swap1\n      dup1\n        /* \"--CODEGEN--\":39:40   */\n      0x1\n        /* \"--CODEGEN--\":33:36   */\n      dup2\n        /* \"--CODEGEN--\":27:37   */\n      sload\n        /* \"--CODEGEN--\":23:41   */\n      add\n        /* \"--CODEGEN--\":57:67   */\n      dup1\n        /* \"--CODEGEN--\":52:55   */\n      dup3\n        /* \"--CODEGEN--\":45:68   */\n      sstore\n        /* \"--CODEGEN--\":79:89   */\n      dup1\n        /* \"--CODEGEN--\":72:89   */\n      swap2\n      pop\n        /* \"--CODEGEN--\":0:93   */\n      pop\n        /* \"blockchain/EmployeeContractStorage.sol\":1587:1612  keys.push(_incomeAccount) */\n      swap1\n      0x1\n      dup3\n      sub\n      swap1\n      0x0\n      mstore\n      keccak256(0x0, 0x20)\n      add\n      0x0\n      swap1\n      swap2\n      swap3\n      swap1\n      swap2\n      swap1\n      swap2\n      0x100\n      exp\n      dup2\n      sload\n      dup2\n      0xffffffffffffffffffffffffffffffffffffffff\n      mul\n      not\n      and\n      swap1\n      dup4\n      0xffffffffffffffffffffffffffffffffffffffff\n      and\n      mul\n      or\n      swap1\n      sstore\n      pop\n      pop\n        /* \"blockchain/EmployeeContractStorage.sol\":1678:1688  msg.sender */\n      caller\n        /* \"blockchain/EmployeeContractStorage.sol\":1653:1822  EmployeeContractCreation(msg.sender, _incomeAccount, employeeContractsMap[_incomeAccount].salaryPerSecond, employeeContractsMap[_incomeAccount].maximumSecondsPerSession) */\n      0xffffffffffffffffffffffffffffffffffffffff\n      and\n      0xe95b7c8271f4033de7fc533c968828c5efb3099164a73078a102939c9db7b9fd\n        /* \"blockchain/EmployeeContractStorage.sol\":1690:1704  _incomeAccount */\n      dup7\n        /* \"blockchain/EmployeeContractStorage.sol\":1706:1726  employeeContractsMap */\n      0x1\n        /* \"blockchain/EmployeeContractStorage.sol\":1706:1742  employeeContractsMap[_incomeAccount] */\n      0x0\n        /* \"blockchain/EmployeeContractStorage.sol\":1727:1741  _incomeAccount */\n      dup10\n        /* \"blockchain/EmployeeContractStorage.sol\":1706:1742  employeeContractsMap[_incomeAccount] */\n      0xffffffffffffffffffffffffffffffffffffffff\n      and\n      0xffffffffffffffffffffffffffffffffffffffff\n      and\n      dup2\n      mstore\n      0x20\n      add\n      swap1\n      dup2\n      mstore\n      0x20\n      add\n      0x0\n      keccak256\n        /* \"blockchain/EmployeeContractStorage.sol\":1706:1758  employeeContractsMap[_incomeAccount].salaryPerSecond */\n      0x1\n      add\n      sload\n        /* \"blockchain/EmployeeContractStorage.sol\":1760:1780  employeeContractsMap */\n      0x1\n        /* \"blockchain/EmployeeContractStorage.sol\":1760:1796  employeeContractsMap[_incomeAccount] */\n      0x0\n        /* \"blockchain/EmployeeContractStorage.sol\":1781:1795  _incomeAccount */\n      dup11\n        /* \"blockchain/EmployeeContractStorage.sol\":1760:1796  employeeContractsMap[_incomeAccount] */\n      0xffffffffffffffffffffffffffffffffffffffff\n      and\n      0xffffffffffffffffffffffffffffffffffffffff\n      and\n      dup2\n      mstore\n      0x20\n      add\n      swap1\n      dup2\n      mstore\n      0x20\n      add\n      0x0\n      keccak256\n        /* \"blockchain/EmployeeContractStorage.sol\":1760:1821  employeeContractsMap[_incomeAccount].maximumSecondsPerSession */\n      0x2\n      add\n      sload\n        /* \"blockchain/EmployeeContractStorage.sol\":1653:1822  EmployeeContractCreation(msg.sender, _incomeAccount, employeeContractsMap[_incomeAccount].salaryPerSecond, employeeContractsMap[_incomeAccount].maximumSecondsPerSession) */\n      mload(0x40)\n      dup1\n      dup5\n      0xffffffffffffffffffffffffffffffffffffffff\n      and\n      0xffffffffffffffffffffffffffffffffffffffff\n      and\n      dup2\n      mstore\n      0x20\n      add\n      dup4\n      dup2\n      mstore\n      0x20\n      add\n      dup3\n      dup2\n      mstore\n      0x20\n      add\n      swap4\n      pop\n      pop\n      pop\n      pop\n      mload(0x40)\n      dup1\n      swap2\n      sub\n      swap1\n      log2\n        /* \"blockchain/EmployeeContractStorage.sol\":1874:1889  employeeCounter */\n      0x0\n      dup1\n        /* \"blockchain/EmployeeContractStorage.sol\":1874:1891  employeeCounter++ */\n      dup2\n      sload\n      dup1\n      swap3\n      swap2\n      swap1\n      0x1\n      add\n      swap2\n      swap1\n      pop\n      sstore\n      pop\n        /* \"blockchain/EmployeeContractStorage.sol\":1929:1930  1 */\n      0x1\n        /* \"blockchain/EmployeeContractStorage.sol\":1911:1926  employeeCounter */\n      sload(0x0)\n        /* \"blockchain/EmployeeContractStorage.sol\":1911:1930  employeeCounter - 1 */\n      sub\n        /* \"blockchain/EmployeeContractStorage.sol\":1904:1930  return employeeCounter - 1 */\n      swap2\n      pop\n        /* \"blockchain/EmployeeContractStorage.sol\":1063:1938  function createEmployeeContract(address _incomeAccount, uint _salaryPerSecond, uint _maximumSecondsPerSession) \r... */\n      pop\n      swap4\n      swap3\n      pop\n      pop\n      pop\n      jump\t// out\n        /* \"blockchain/EmployeeContractStorage.sol\":3088:3207  function getAddressByIndex(uint _index) \r... */\n    tag_24:\n        /* \"blockchain/EmployeeContractStorage.sol\":3160:3167  address */\n      0x0\n        /* \"blockchain/EmployeeContractStorage.sol\":3187:3191  keys */\n      0x2\n        /* \"blockchain/EmployeeContractStorage.sol\":3192:3198  _index */\n      dup3\n        /* \"blockchain/EmployeeContractStorage.sol\":3187:3199  keys[_index] */\n      dup2\n      sload\n      dup2\n      lt\n      iszero\n      iszero\n      tag_44\n      jumpi\n      invalid\n    tag_44:\n      swap1\n      0x0\n      mstore\n      keccak256(0x0, 0x20)\n      add\n      0x0\n      swap1\n      sload\n      swap1\n      0x100\n      exp\n      swap1\n      div\n      0xffffffffffffffffffffffffffffffffffffffff\n      and\n        /* \"blockchain/EmployeeContractStorage.sol\":3180:3199  return keys[_index] */\n      swap1\n      pop\n        /* \"blockchain/EmployeeContractStorage.sol\":3088:3207  function getAddressByIndex(uint _index) \r... */\n      swap2\n      swap1\n      pop\n      jump\t// out\n        /* \"blockchain/EmployeeContractStorage.sol\":2259:2528  function updateMaximumSecondsPerSession(address _employeeAddress, uint _maximumSecondsPerSession)\r... */\n    tag_27:\n        /* \"blockchain/EmployeeContractStorage.sol\":2393:2409  _employeeAddress */\n      dup2\n        /* \"blockchain/EmployeeContractStorage.sol\":504:508  true */\n      0x1\n        /* \"blockchain/EmployeeContractStorage.sol\":463:508  employeeContractsMap[_address].exists == true */\n      iszero\n      iszero\n        /* \"blockchain/EmployeeContractStorage.sol\":463:483  employeeContractsMap */\n      0x1\n        /* \"blockchain/EmployeeContractStorage.sol\":463:493  employeeContractsMap[_address] */\n      0x0\n        /* \"blockchain/EmployeeContractStorage.sol\":484:492  _address */\n      dup4\n        /* \"blockchain/EmployeeContractStorage.sol\":463:493  employeeContractsMap[_address] */\n      0xffffffffffffffffffffffffffffffffffffffff\n      and\n      0xffffffffffffffffffffffffffffffffffffffff\n      and\n      dup2\n      mstore\n      0x20\n      add\n      swap1\n      dup2\n      mstore\n      0x20\n      add\n      0x0\n      keccak256\n        /* \"blockchain/EmployeeContractStorage.sol\":463:500  employeeContractsMap[_address].exists */\n      0x0\n      add\n      0x0\n      swap1\n      sload\n      swap1\n      0x100\n      exp\n      swap1\n      div\n      0xff\n      and\n        /* \"blockchain/EmployeeContractStorage.sol\":463:508  employeeContractsMap[_address].exists == true */\n      iszero\n      iszero\n      eq\n        /* \"blockchain/EmployeeContractStorage.sol\":455:536  require(employeeContractsMap[_address].exists == true, \"Employee does not exist\") */\n      iszero\n      iszero\n      tag_47\n      jumpi\n      mload(0x40)\n      0x8c379a000000000000000000000000000000000000000000000000000000000\n      dup2\n      mstore\n      0x4\n      add\n      dup1\n      dup1\n      0x20\n      add\n      dup3\n      dup2\n      sub\n      dup3\n      mstore\n      0x17\n      dup2\n      mstore\n      0x20\n      add\n      dup1\n      0x456d706c6f79656520646f6573206e6f74206578697374000000000000000000\n      dup2\n      mstore\n      pop\n      0x20\n      add\n      swap2\n      pop\n      pop\n      mload(0x40)\n      dup1\n      swap2\n      sub\n      swap1\n      revert\n    tag_47:\n        /* \"blockchain/EmployeeContractStorage.sol\":2488:2513  _maximumSecondsPerSession */\n      dup2\n        /* \"blockchain/EmployeeContractStorage.sol\":2422:2442  employeeContractsMap */\n      0x1\n        /* \"blockchain/EmployeeContractStorage.sol\":2422:2460  employeeContractsMap[_employeeAddress] */\n      0x0\n        /* \"blockchain/EmployeeContractStorage.sol\":2443:2459  _employeeAddress */\n      dup6\n        /* \"blockchain/EmployeeContractStorage.sol\":2422:2460  employeeContractsMap[_employeeAddress] */\n      0xffffffffffffffffffffffffffffffffffffffff\n      and\n      0xffffffffffffffffffffffffffffffffffffffff\n      and\n      dup2\n      mstore\n      0x20\n      add\n      swap1\n      dup2\n      mstore\n      0x20\n      add\n      0x0\n      keccak256\n        /* \"blockchain/EmployeeContractStorage.sol\":2422:2485  employeeContractsMap[_employeeAddress].maximumSecondsPerSession */\n      0x2\n      add\n        /* \"blockchain/EmployeeContractStorage.sol\":2422:2513  employeeContractsMap[_employeeAddress].maximumSecondsPerSession = _maximumSecondsPerSession */\n      dup2\n      swap1\n      sstore\n      pop\n        /* \"blockchain/EmployeeContractStorage.sol\":2259:2528  function updateMaximumSecondsPerSession(address _employeeAddress, uint _maximumSecondsPerSession)\r... */\n      pop\n      pop\n      pop\n      jump\t// out\n        /* \"blockchain/EmployeeContractStorage.sol\":2573:2792  function readSalaryPerSecond(address _employeeAddress) \r... */\n    tag_30:\n        /* \"blockchain/EmployeeContractStorage.sol\":2706:2710  uint */\n      0x0\n        /* \"blockchain/EmployeeContractStorage.sol\":2664:2680  _employeeAddress */\n      dup2\n        /* \"blockchain/EmployeeContractStorage.sol\":504:508  true */\n      0x1\n        /* \"blockchain/EmployeeContractStorage.sol\":463:508  employeeContractsMap[_address].exists == true */\n      iszero\n      iszero\n        /* \"blockchain/EmployeeContractStorage.sol\":463:483  employeeContractsMap */\n      0x1\n        /* \"blockchain/EmployeeContractStorage.sol\":463:493  employeeContractsMap[_address] */\n      0x0\n        /* \"blockchain/EmployeeContractStorage.sol\":484:492  _address */\n      dup4\n        /* \"blockchain/EmployeeContractStorage.sol\":463:493  employeeContractsMap[_address] */\n      0xffffffffffffffffffffffffffffffffffffffff\n      and\n      0xffffffffffffffffffffffffffffffffffffffff\n      and\n      dup2\n      mstore\n      0x20\n      add\n      swap1\n      dup2\n      mstore\n      0x20\n      add\n      0x0\n      keccak256\n        /* \"blockchain/EmployeeContractStorage.sol\":463:500  employeeContractsMap[_address].exists */\n      0x0\n      add\n      0x0\n      swap1\n      sload\n      swap1\n      0x100\n      exp\n      swap1\n      div\n      0xff\n      and\n        /* \"blockchain/EmployeeContractStorage.sol\":463:508  employeeContractsMap[_address].exists == true */\n      iszero\n      iszero\n      eq\n        /* \"blockchain/EmployeeContractStorage.sol\":455:536  require(employeeContractsMap[_address].exists == true, \"Employee does not exist\") */\n      iszero\n      iszero\n      tag_50\n      jumpi\n      mload(0x40)\n      0x8c379a000000000000000000000000000000000000000000000000000000000\n      dup2\n      mstore\n      0x4\n      add\n      dup1\n      dup1\n      0x20\n      add\n      dup3\n      dup2\n      sub\n      dup3\n      mstore\n      0x17\n      dup2\n      mstore\n      0x20\n      add\n      dup1\n      0x456d706c6f79656520646f6573206e6f74206578697374000000000000000000\n      dup2\n      mstore\n      pop\n      0x20\n      add\n      swap2\n      pop\n      pop\n      mload(0x40)\n      dup1\n      swap2\n      sub\n      swap1\n      revert\n    tag_50:\n        /* \"blockchain/EmployeeContractStorage.sol\":2730:2750  employeeContractsMap */\n      0x1\n        /* \"blockchain/EmployeeContractStorage.sol\":2730:2768  employeeContractsMap[_employeeAddress] */\n      0x0\n        /* \"blockchain/EmployeeContractStorage.sol\":2751:2767  _employeeAddress */\n      dup5\n        /* \"blockchain/EmployeeContractStorage.sol\":2730:2768  employeeContractsMap[_employeeAddress] */\n      0xffffffffffffffffffffffffffffffffffffffff\n      and\n      0xffffffffffffffffffffffffffffffffffffffff\n      and\n      dup2\n      mstore\n      0x20\n      add\n      swap1\n      dup2\n      mstore\n      0x20\n      add\n      0x0\n      keccak256\n        /* \"blockchain/EmployeeContractStorage.sol\":2730:2784  employeeContractsMap[_employeeAddress].salaryPerSecond */\n      0x1\n      add\n      sload\n        /* \"blockchain/EmployeeContractStorage.sol\":2723:2784  return employeeContractsMap[_employeeAddress].salaryPerSecond */\n      swap2\n      pop\n        /* \"blockchain/EmployeeContractStorage.sol\":2573:2792  function readSalaryPerSecond(address _employeeAddress) \r... */\n      pop\n      swap2\n      swap1\n      pop\n      jump\t// out\n        /* \"blockchain/EmployeeContractStorage.sol\":2843:3080  function readMaximumSecondsPerSession(address _employeeAddress) \r... */\n    tag_33:\n        /* \"blockchain/EmployeeContractStorage.sol\":2985:2989  uint */\n      0x0\n        /* \"blockchain/EmployeeContractStorage.sol\":2943:2959  _employeeAddress */\n      dup2\n        /* \"blockchain/EmployeeContractStorage.sol\":504:508  true */\n      0x1\n        /* \"blockchain/EmployeeContractStorage.sol\":463:508  employeeContractsMap[_address].exists == true */\n      iszero\n      iszero\n        /* \"blockchain/EmployeeContractStorage.sol\":463:483  employeeContractsMap */\n      0x1\n        /* \"blockchain/EmployeeContractStorage.sol\":463:493  employeeContractsMap[_address] */\n      0x0\n        /* \"blockchain/EmployeeContractStorage.sol\":484:492  _address */\n      dup4\n        /* \"blockchain/EmployeeContractStorage.sol\":463:493  employeeContractsMap[_address] */\n      0xffffffffffffffffffffffffffffffffffffffff\n      and\n      0xffffffffffffffffffffffffffffffffffffffff\n      and\n      dup2\n      mstore\n      0x20\n      add\n      swap1\n      dup2\n      mstore\n      0x20\n      add\n      0x0\n      keccak256\n        /* \"blockchain/EmployeeContractStorage.sol\":463:500  employeeContractsMap[_address].exists */\n      0x0\n      add\n      0x0\n      swap1\n      sload\n      swap1\n      0x100\n      exp\n      swap1\n      div\n      0xff\n      and\n        /* \"blockchain/EmployeeContractStorage.sol\":463:508  employeeContractsMap[_address].exists == true */\n      iszero\n      iszero\n      eq\n        /* \"blockchain/EmployeeContractStorage.sol\":455:536  require(employeeContractsMap[_address].exists == true, \"Employee does not exist\") */\n      iszero\n      iszero\n      tag_53\n      jumpi\n      mload(0x40)\n      0x8c379a000000000000000000000000000000000000000000000000000000000\n      dup2\n      mstore\n      0x4\n      add\n      dup1\n      dup1\n      0x20\n      add\n      dup3\n      dup2\n      sub\n      dup3\n      mstore\n      0x17\n      dup2\n      mstore\n      0x20\n      add\n      dup1\n      0x456d706c6f79656520646f6573206e6f74206578697374000000000000000000\n      dup2\n      mstore\n      pop\n      0x20\n      add\n      swap2\n      pop\n      pop\n      mload(0x40)\n      dup1\n      swap2\n      sub\n      swap1\n      revert\n    tag_53:\n        /* \"blockchain/EmployeeContractStorage.sol\":3009:3029  employeeContractsMap */\n      0x1\n        /* \"blockchain/EmployeeContractStorage.sol\":3009:3047  employeeContractsMap[_employeeAddress] */\n      0x0\n        /* \"blockchain/EmployeeContractStorage.sol\":3030:3046  _employeeAddress */\n      dup5\n        /* \"blockchain/EmployeeContractStorage.sol\":3009:3047  employeeContractsMap[_employeeAddress] */\n      0xffffffffffffffffffffffffffffffffffffffff\n      and\n      0xffffffffffffffffffffffffffffffffffffffff\n      and\n      dup2\n      mstore\n      0x20\n      add\n      swap1\n      dup2\n      mstore\n      0x20\n      add\n      0x0\n      keccak256\n        /* \"blockchain/EmployeeContractStorage.sol\":3009:3072  employeeContractsMap[_employeeAddress].maximumSecondsPerSession */\n      0x2\n      add\n      sload\n        /* \"blockchain/EmployeeContractStorage.sol\":3002:3072  return employeeContractsMap[_employeeAddress].maximumSecondsPerSession */\n      swap2\n      pop\n        /* \"blockchain/EmployeeContractStorage.sol\":2843:3080  function readMaximumSecondsPerSession(address _employeeAddress) \r... */\n      pop\n      swap2\n      swap1\n      pop\n      jump\t// out\n\n    auxdata: 0xa165627a7a7230582067470be4a7e04ffa38bdc7f07835bc4a1fbb256e08ef27d6595a92b31d90be330029\n}\n",
				"bytecode": {
					"linkReferences": {},
					"object": "608060405234801561001057600080fd5b5060008081905550610bbe806100276000396000f30060806040526004361061008e576000357c0100000000000000000000000000000000000000000000000000000000900463ffffffff1680631024f223146100935780635da74955146100ee578063888e1d051461013b5780639e757f9814610166578063ce10cf88146101d1578063dbbf65b71461023e578063f5e369e81461028b578063fd2b8257146102e2575b600080fd5b34801561009f57600080fd5b506100d4600480360381019080803573ffffffffffffffffffffffffffffffffffffffff169060200190929190505050610339565b604051808215151515815260200191505060405180910390f35b3480156100fa57600080fd5b50610139600480360381019080803573ffffffffffffffffffffffffffffffffffffffff16906020019092919080359060200190929190505050610399565b005b34801561014757600080fd5b506101506104b1565b6040518082815260200191505060405180910390f35b34801561017257600080fd5b506101bb600480360381019080803573ffffffffffffffffffffffffffffffffffffffff16906020019092919080359060200190929190803590602001909291905050506104ba565b6040518082815260200191505060405180910390f35b3480156101dd57600080fd5b506101fc60048036038101908080359060200190929190505050610805565b604051808273ffffffffffffffffffffffffffffffffffffffff1673ffffffffffffffffffffffffffffffffffffffff16815260200191505060405180910390f35b34801561024a57600080fd5b50610289600480360381019080803573ffffffffffffffffffffffffffffffffffffffff16906020019092919080359060200190929190505050610848565b005b34801561029757600080fd5b506102cc600480360381019080803573ffffffffffffffffffffffffffffffffffffffff169060200190929190505050610960565b6040518082815260200191505060405180910390f35b3480156102ee57600080fd5b50610323600480360381019080803573ffffffffffffffffffffffffffffffffffffffff169060200190929190505050610a79565b6040518082815260200191505060405180910390f35b600060011515600160008473ffffffffffffffffffffffffffffffffffffffff1673ffffffffffffffffffffffffffffffffffffffff16815260200190815260200160002060000160009054906101000a900460ff161515149050919050565b8160011515600160008373ffffffffffffffffffffffffffffffffffffffff1673ffffffffffffffffffffffffffffffffffffffff16815260200190815260200160002060000160009054906101000a900460ff161515141515610465576040517f08c379a00000000000000000000000000000000000000000000000000000000081526004018080602001828103825260178152602001807f456d706c6f79656520646f6573206e6f7420657869737400000000000000000081525060200191505060405180910390fd5b81600160008573ffffffffffffffffffffffffffffffffffffffff1673ffffffffffffffffffffffffffffffffffffffff16815260200190815260200160002060010181905550505050565b60008054905090565b60008360001515600160008373ffffffffffffffffffffffffffffffffffffffff1673ffffffffffffffffffffffffffffffffffffffff16815260200190815260200160002060000160009054906101000a900460ff161515141515610588576040517f08c379a00000000000000000000000000000000000000000000000000000000081526004018080602001828103825260178152602001807f456d706c6f79656520616c72656164792065786973747300000000000000000081525060200191505060405180910390fd5b60018060008773ffffffffffffffffffffffffffffffffffffffff1673ffffffffffffffffffffffffffffffffffffffff16815260200190815260200160002060000160006101000a81548160ff02191690831515021790555083600160008773ffffffffffffffffffffffffffffffffffffffff1673ffffffffffffffffffffffffffffffffffffffff1681526020019081526020016000206001018190555082600160008773ffffffffffffffffffffffffffffffffffffffff1673ffffffffffffffffffffffffffffffffffffffff1681526020019081526020016000206002018190555060028590806001815401808255809150509060018203906000526020600020016000909192909190916101000a81548173ffffffffffffffffffffffffffffffffffffffff021916908373ffffffffffffffffffffffffffffffffffffffff160217905550503373ffffffffffffffffffffffffffffffffffffffff167fe95b7c8271f4033de7fc533c968828c5efb3099164a73078a102939c9db7b9fd86600160008973ffffffffffffffffffffffffffffffffffffffff1673ffffffffffffffffffffffffffffffffffffffff16815260200190815260200160002060010154600160008a73ffffffffffffffffffffffffffffffffffffffff1673ffffffffffffffffffffffffffffffffffffffff16815260200190815260200160002060020154604051808473ffffffffffffffffffffffffffffffffffffffff1673ffffffffffffffffffffffffffffffffffffffff168152602001838152602001828152602001935050505060405180910390a260008081548092919060010191905055506001600054039150509392505050565b600060028281548110151561081657fe5b9060005260206000200160009054906101000a900473ffffffffffffffffffffffffffffffffffffffff169050919050565b8160011515600160008373ffffffffffffffffffffffffffffffffffffffff1673ffffffffffffffffffffffffffffffffffffffff16815260200190815260200160002060000160009054906101000a900460ff161515141515610914576040517f08c379a00000000000000000000000000000000000000000000000000000000081526004018080602001828103825260178152602001807f456d706c6f79656520646f6573206e6f7420657869737400000000000000000081525060200191505060405180910390fd5b81600160008573ffffffffffffffffffffffffffffffffffffffff1673ffffffffffffffffffffffffffffffffffffffff16815260200190815260200160002060020181905550505050565b60008160011515600160008373ffffffffffffffffffffffffffffffffffffffff1673ffffffffffffffffffffffffffffffffffffffff16815260200190815260200160002060000160009054906101000a900460ff161515141515610a2e576040517f08c379a00000000000000000000000000000000000000000000000000000000081526004018080602001828103825260178152602001807f456d706c6f79656520646f6573206e6f7420657869737400000000000000000081525060200191505060405180910390fd5b600160008473ffffffffffffffffffffffffffffffffffffffff1673ffffffffffffffffffffffffffffffffffffffff16815260200190815260200160002060010154915050919050565b60008160011515600160008373ffffffffffffffffffffffffffffffffffffffff1673ffffffffffffffffffffffffffffffffffffffff16815260200190815260200160002060000160009054906101000a900460ff161515141515610b47576040517f08c379a00000000000000000000000000000000000000000000000000000000081526004018080602001828103825260178152602001807f456d706c6f79656520646f6573206e6f7420657869737400000000000000000081525060200191505060405180910390fd5b600160008473ffffffffffffffffffffffffffffffffffffffff1673ffffffffffffffffffffffffffffffffffffffff168152602001908152602001600020600201549150509190505600a165627a7a7230582067470be4a7e04ffa38bdc7f07835bc4a1fbb256e08ef27d6595a92b31d90be330029",
					"opcodes": "PUSH1 0x80 PUSH1 0x40 MSTORE CALLVALUE DUP1 ISZERO PUSH2 0x10 JUMPI PUSH1 0x0 DUP1 REVERT JUMPDEST POP PUSH1 0x0 DUP1 DUP2 SWAP1 SSTORE POP PUSH2 0xBBE DUP1 PUSH2 0x27 PUSH1 0x0 CODECOPY PUSH1 0x0 RETURN STOP PUSH1 0x80 PUSH1 0x40 MSTORE PUSH1 0x4 CALLDATASIZE LT PUSH2 0x8E JUMPI PUSH1 0x0 CALLDATALOAD PUSH29 0x100000000000000000000000000000000000000000000000000000000 SWAP1 DIV PUSH4 0xFFFFFFFF AND DUP1 PUSH4 0x1024F223 EQ PUSH2 0x93 JUMPI DUP1 PUSH4 0x5DA74955 EQ PUSH2 0xEE JUMPI DUP1 PUSH4 0x888E1D05 EQ PUSH2 0x13B JUMPI DUP1 PUSH4 0x9E757F98 EQ PUSH2 0x166 JUMPI DUP1 PUSH4 0xCE10CF88 EQ PUSH2 0x1D1 JUMPI DUP1 PUSH4 0xDBBF65B7 EQ PUSH2 0x23E JUMPI DUP1 PUSH4 0xF5E369E8 EQ PUSH2 0x28B JUMPI DUP1 PUSH4 0xFD2B8257 EQ PUSH2 0x2E2 JUMPI JUMPDEST PUSH1 0x0 DUP1 REVERT JUMPDEST CALLVALUE DUP1 ISZERO PUSH2 0x9F JUMPI PUSH1 0x0 DUP1 REVERT JUMPDEST POP PUSH2 0xD4 PUSH1 0x4 DUP1 CALLDATASIZE SUB DUP2 ADD SWAP1 DUP1 DUP1 CALLDATALOAD PUSH20 0xFFFFFFFFFFFFFFFFFFFFFFFFFFFFFFFFFFFFFFFF AND SWAP1 PUSH1 0x20 ADD SWAP1 SWAP3 SWAP2 SWAP1 POP POP POP PUSH2 0x339 JUMP JUMPDEST PUSH1 0x40 MLOAD DUP1 DUP3 ISZERO ISZERO ISZERO ISZERO DUP2 MSTORE PUSH1 0x20 ADD SWAP2 POP POP PUSH1 0x40 MLOAD DUP1 SWAP2 SUB SWAP1 RETURN JUMPDEST CALLVALUE DUP1 ISZERO PUSH2 0xFA JUMPI PUSH1 0x0 DUP1 REVERT JUMPDEST POP PUSH2 0x139 PUSH1 0x4 DUP1 CALLDATASIZE SUB DUP2 ADD SWAP1 DUP1 DUP1 CALLDATALOAD PUSH20 0xFFFFFFFFFFFFFFFFFFFFFFFFFFFFFFFFFFFFFFFF AND SWAP1 PUSH1 0x20 ADD SWAP1 SWAP3 SWAP2 SWAP1 DUP1 CALLDATALOAD SWAP1 PUSH1 0x20 ADD SWAP1 SWAP3 SWAP2 SWAP1 POP POP POP PUSH2 0x399 JUMP JUMPDEST STOP JUMPDEST CALLVALUE DUP1 ISZERO PUSH2 0x147 JUMPI PUSH1 0x0 DUP1 REVERT JUMPDEST POP PUSH2 0x150 PUSH2 0x4B1 JUMP JUMPDEST PUSH1 0x40 MLOAD DUP1 DUP3 DUP2 MSTORE PUSH1 0x20 ADD SWAP2 POP POP PUSH1 0x40 MLOAD DUP1 SWAP2 SUB SWAP1 RETURN JUMPDEST CALLVALUE DUP1 ISZERO PUSH2 0x172 JUMPI PUSH1 0x0 DUP1 REVERT JUMPDEST POP PUSH2 0x1BB PUSH1 0x4 DUP1 CALLDATASIZE SUB DUP2 ADD SWAP1 DUP1 DUP1 CALLDATALOAD PUSH20 0xFFFFFFFFFFFFFFFFFFFFFFFFFFFFFFFFFFFFFFFF AND SWAP1 PUSH1 0x20 ADD SWAP1 SWAP3 SWAP2 SWAP1 DUP1 CALLDATALOAD SWAP1 PUSH1 0x20 ADD SWAP1 SWAP3 SWAP2 SWAP1 DUP1 CALLDATALOAD SWAP1 PUSH1 0x20 ADD SWAP1 SWAP3 SWAP2 SWAP1 POP POP POP PUSH2 0x4BA JUMP JUMPDEST PUSH1 0x40 MLOAD DUP1 DUP3 DUP2 MSTORE PUSH1 0x20 ADD SWAP2 POP POP PUSH1 0x40 MLOAD DUP1 SWAP2 SUB SWAP1 RETURN JUMPDEST CALLVALUE DUP1 ISZERO PUSH2 0x1DD JUMPI PUSH1 0x0 DUP1 REVERT JUMPDEST POP PUSH2 0x1FC PUSH1 0x4 DUP1 CALLDATASIZE SUB DUP2 ADD SWAP1 DUP1 DUP1 CALLDATALOAD SWAP1 PUSH1 0x20 ADD SWAP1 SWAP3 SWAP2 SWAP1 POP POP POP PUSH2 0x805 JUMP JUMPDEST PUSH1 0x40 MLOAD DUP1 DUP3 PUSH20 0xFFFFFFFFFFFFFFFFFFFFFFFFFFFFFFFFFFFFFFFF AND PUSH20 0xFFFFFFFFFFFFFFFFFFFFFFFFFFFFFFFFFFFFFFFF AND DUP2 MSTORE PUSH1 0x20 ADD SWAP2 POP POP PUSH1 0x40 MLOAD DUP1 SWAP2 SUB SWAP1 RETURN JUMPDEST CALLVALUE DUP1 ISZERO PUSH2 0x24A JUMPI PUSH1 0x0 DUP1 REVERT JUMPDEST POP PUSH2 0x289 PUSH1 0x4 DUP1 CALLDATASIZE SUB DUP2 ADD SWAP1 DUP1 DUP1 CALLDATALOAD PUSH20 0xFFFFFFFFFFFFFFFFFFFFFFFFFFFFFFFFFFFFFFFF AND SWAP1 PUSH1 0x20 ADD SWAP1 SWAP3 SWAP2 SWAP1 DUP1 CALLDATALOAD SWAP1 PUSH1 0x20 ADD SWAP1 SWAP3 SWAP2 SWAP1 POP POP POP PUSH2 0x848 JUMP JUMPDEST STOP JUMPDEST CALLVALUE DUP1 ISZERO PUSH2 0x297 JUMPI PUSH1 0x0 DUP1 REVERT JUMPDEST POP PUSH2 0x2CC PUSH1 0x4 DUP1 CALLDATASIZE SUB DUP2 ADD SWAP1 DUP1 DUP1 CALLDATALOAD PUSH20 0xFFFFFFFFFFFFFFFFFFFFFFFFFFFFFFFFFFFFFFFF AND SWAP1 PUSH1 0x20 ADD SWAP1 SWAP3 SWAP2 SWAP1 POP POP POP PUSH2 0x960 JUMP JUMPDEST PUSH1 0x40 MLOAD DUP1 DUP3 DUP2 MSTORE PUSH1 0x20 ADD SWAP2 POP POP PUSH1 0x40 MLOAD DUP1 SWAP2 SUB SWAP1 RETURN JUMPDEST CALLVALUE DUP1 ISZERO PUSH2 0x2EE JUMPI PUSH1 0x0 DUP1 REVERT JUMPDEST POP PUSH2 0x323 PUSH1 0x4 DUP1 CALLDATASIZE SUB DUP2 ADD SWAP1 DUP1 DUP1 CALLDATALOAD PUSH20 0xFFFFFFFFFFFFFFFFFFFFFFFFFFFFFFFFFFFFFFFF AND SWAP1 PUSH1 0x20 ADD SWAP1 SWAP3 SWAP2 SWAP1 POP POP POP PUSH2 0xA79 JUMP JUMPDEST PUSH1 0x40 MLOAD DUP1 DUP3 DUP2 MSTORE PUSH1 0x20 ADD SWAP2 POP POP PUSH1 0x40 MLOAD DUP1 SWAP2 SUB SWAP1 RETURN JUMPDEST PUSH1 0x0 PUSH1 0x1 ISZERO ISZERO PUSH1 0x1 PUSH1 0x0 DUP5 PUSH20 0xFFFFFFFFFFFFFFFFFFFFFFFFFFFFFFFFFFFFFFFF AND PUSH20 0xFFFFFFFFFFFFFFFFFFFFFFFFFFFFFFFFFFFFFFFF AND DUP2 MSTORE PUSH1 0x20 ADD SWAP1 DUP2 MSTORE PUSH1 0x20 ADD PUSH1 0x0 KECCAK256 PUSH1 0x0 ADD PUSH1 0x0 SWAP1 SLOAD SWAP1 PUSH2 0x100 EXP SWAP1 DIV PUSH1 0xFF AND ISZERO ISZERO EQ SWAP1 POP SWAP2 SWAP1 POP JUMP JUMPDEST DUP2 PUSH1 0x1 ISZERO ISZERO PUSH1 0x1 PUSH1 0x0 DUP4 PUSH20 0xFFFFFFFFFFFFFFFFFFFFFFFFFFFFFFFFFFFFFFFF AND PUSH20 0xFFFFFFFFFFFFFFFFFFFFFFFFFFFFFFFFFFFFFFFF AND DUP2 MSTORE PUSH1 0x20 ADD SWAP1 DUP2 MSTORE PUSH1 0x20 ADD PUSH1 0x0 KECCAK256 PUSH1 0x0 ADD PUSH1 0x0 SWAP1 SLOAD SWAP1 PUSH2 0x100 EXP SWAP1 DIV PUSH1 0xFF AND ISZERO ISZERO EQ ISZERO ISZERO PUSH2 0x465 JUMPI PUSH1 0x40 MLOAD PUSH32 0x8C379A000000000000000000000000000000000000000000000000000000000 DUP2 MSTORE PUSH1 0x4 ADD DUP1 DUP1 PUSH1 0x20 ADD DUP3 DUP2 SUB DUP3 MSTORE PUSH1 0x17 DUP2 MSTORE PUSH1 0x20 ADD DUP1 PUSH32 0x456D706C6F79656520646F6573206E6F74206578697374000000000000000000 DUP2 MSTORE POP PUSH1 0x20 ADD SWAP2 POP POP PUSH1 0x40 MLOAD DUP1 SWAP2 SUB SWAP1 REVERT JUMPDEST DUP2 PUSH1 0x1 PUSH1 0x0 DUP6 PUSH20 0xFFFFFFFFFFFFFFFFFFFFFFFFFFFFFFFFFFFFFFFF AND PUSH20 0xFFFFFFFFFFFFFFFFFFFFFFFFFFFFFFFFFFFFFFFF AND DUP2 MSTORE PUSH1 0x20 ADD SWAP1 DUP2 MSTORE PUSH1 0x20 ADD PUSH1 0x0 KECCAK256 PUSH1 0x1 ADD DUP2 SWAP1 SSTORE POP POP POP POP JUMP JUMPDEST PUSH1 0x0 DUP1 SLOAD SWAP1 POP SWAP1 JUMP JUMPDEST PUSH1 0x0 DUP4 PUSH1 0x0 ISZERO ISZERO PUSH1 0x1 PUSH1 0x0 DUP4 PUSH20 0xFFFFFFFFFFFFFFFFFFFFFFFFFFFFFFFFFFFFFFFF AND PUSH20 0xFFFFFFFFFFFFFFFFFFFFFFFFFFFFFFFFFFFFFFFF AND DUP2 MSTORE PUSH1 0x20 ADD SWAP1 DUP2 MSTORE PUSH1 0x20 ADD PUSH1 0x0 KECCAK256 PUSH1 0x0 ADD PUSH1 0x0 SWAP1 SLOAD SWAP1 PUSH2 0x100 EXP SWAP1 DIV PUSH1 0xFF AND ISZERO ISZERO EQ ISZERO ISZERO PUSH2 0x588 JUMPI PUSH1 0x40 MLOAD PUSH32 0x8C379A000000000000000000000000000000000000000000000000000000000 DUP2 MSTORE PUSH1 0x4 ADD DUP1 DUP1 PUSH1 0x20 ADD DUP3 DUP2 SUB DUP3 MSTORE PUSH1 0x17 DUP2 MSTORE PUSH1 0x20 ADD DUP1 PUSH32 0x456D706C6F79656520616C726561647920657869737473000000000000000000 DUP2 MSTORE POP PUSH1 0x20 ADD SWAP2 POP POP PUSH1 0x40 MLOAD DUP1 SWAP2 SUB SWAP1 REVERT JUMPDEST PUSH1 0x1 DUP1 PUSH1 0x0 DUP8 PUSH20 0xFFFFFFFFFFFFFFFFFFFFFFFFFFFFFFFFFFFFFFFF AND PUSH20 0xFFFFFFFFFFFFFFFFFFFFFFFFFFFFFFFFFFFFFFFF AND DUP2 MSTORE PUSH1 0x20 ADD SWAP1 DUP2 MSTORE PUSH1 0x20 ADD PUSH1 0x0 KECCAK256 PUSH1 0x0 ADD PUSH1 0x0 PUSH2 0x100 EXP DUP2 SLOAD DUP2 PUSH1 0xFF MUL NOT AND SWAP1 DUP4 ISZERO ISZERO MUL OR SWAP1 SSTORE POP DUP4 PUSH1 0x1 PUSH1 0x0 DUP8 PUSH20 0xFFFFFFFFFFFFFFFFFFFFFFFFFFFFFFFFFFFFFFFF AND PUSH20 0xFFFFFFFFFFFFFFFFFFFFFFFFFFFFFFFFFFFFFFFF AND DUP2 MSTORE PUSH1 0x20 ADD SWAP1 DUP2 MSTORE PUSH1 0x20 ADD PUSH1 0x0 KECCAK256 PUSH1 0x1 ADD DUP2 SWAP1 SSTORE POP DUP3 PUSH1 0x1 PUSH1 0x0 DUP8 PUSH20 0xFFFFFFFFFFFFFFFFFFFFFFFFFFFFFFFFFFFFFFFF AND PUSH20 0xFFFFFFFFFFFFFFFFFFFFFFFFFFFFFFFFFFFFFFFF AND DUP2 MSTORE PUSH1 0x20 ADD SWAP1 DUP2 MSTORE PUSH1 0x20 ADD PUSH1 0x0 KECCAK256 PUSH1 0x2 ADD DUP2 SWAP1 SSTORE POP PUSH1 0x2 DUP6 SWAP1 DUP1 PUSH1 0x1 DUP2 SLOAD ADD DUP1 DUP3 SSTORE DUP1 SWAP2 POP POP SWAP1 PUSH1 0x1 DUP3 SUB SWAP1 PUSH1 0x0 MSTORE PUSH1 0x20 PUSH1 0x0 KECCAK256 ADD PUSH1 0x0 SWAP1 SWAP2 SWAP3 SWAP1 SWAP2 SWAP1 SWAP2 PUSH2 0x100 EXP DUP2 SLOAD DUP2 PUSH20 0xFFFFFFFFFFFFFFFFFFFFFFFFFFFFFFFFFFFFFFFF MUL NOT AND SWAP1 DUP4 PUSH20 0xFFFFFFFFFFFFFFFFFFFFFFFFFFFFFFFFFFFFFFFF AND MUL OR SWAP1 SSTORE POP POP CALLER PUSH20 0xFFFFFFFFFFFFFFFFFFFFFFFFFFFFFFFFFFFFFFFF AND PUSH32 0xE95B7C8271F4033DE7FC533C968828C5EFB3099164A73078A102939C9DB7B9FD DUP7 PUSH1 0x1 PUSH1 0x0 DUP10 PUSH20 0xFFFFFFFFFFFFFFFFFFFFFFFFFFFFFFFFFFFFFFFF AND PUSH20 0xFFFFFFFFFFFFFFFFFFFFFFFFFFFFFFFFFFFFFFFF AND DUP2 MSTORE PUSH1 0x20 ADD SWAP1 DUP2 MSTORE PUSH1 0x20 ADD PUSH1 0x0 KECCAK256 PUSH1 0x1 ADD SLOAD PUSH1 0x1 PUSH1 0x0 DUP11 PUSH20 0xFFFFFFFFFFFFFFFFFFFFFFFFFFFFFFFFFFFFFFFF AND PUSH20 0xFFFFFFFFFFFFFFFFFFFFFFFFFFFFFFFFFFFFFFFF AND DUP2 MSTORE PUSH1 0x20 ADD SWAP1 DUP2 MSTORE PUSH1 0x20 ADD PUSH1 0x0 KECCAK256 PUSH1 0x2 ADD SLOAD PUSH1 0x40 MLOAD DUP1 DUP5 PUSH20 0xFFFFFFFFFFFFFFFFFFFFFFFFFFFFFFFFFFFFFFFF AND PUSH20 0xFFFFFFFFFFFFFFFFFFFFFFFFFFFFFFFFFFFFFFFF AND DUP2 MSTORE PUSH1 0x20 ADD DUP4 DUP2 MSTORE PUSH1 0x20 ADD DUP3 DUP2 MSTORE PUSH1 0x20 ADD SWAP4 POP POP POP POP PUSH1 0x40 MLOAD DUP1 SWAP2 SUB SWAP1 LOG2 PUSH1 0x0 DUP1 DUP2 SLOAD DUP1 SWAP3 SWAP2 SWAP1 PUSH1 0x1 ADD SWAP2 SWAP1 POP SSTORE POP PUSH1 0x1 PUSH1 0x0 SLOAD SUB SWAP2 POP POP SWAP4 SWAP3 POP POP POP JUMP JUMPDEST PUSH1 0x0 PUSH1 0x2 DUP3 DUP2 SLOAD DUP2 LT ISZERO ISZERO PUSH2 0x816 JUMPI INVALID JUMPDEST SWAP1 PUSH1 0x0 MSTORE PUSH1 0x20 PUSH1 0x0 KECCAK256 ADD PUSH1 0x0 SWAP1 SLOAD SWAP1 PUSH2 0x100 EXP SWAP1 DIV PUSH20 0xFFFFFFFFFFFFFFFFFFFFFFFFFFFFFFFFFFFFFFFF AND SWAP1 POP SWAP2 SWAP1 POP JUMP JUMPDEST DUP2 PUSH1 0x1 ISZERO ISZERO PUSH1 0x1 PUSH1 0x0 DUP4 PUSH20 0xFFFFFFFFFFFFFFFFFFFFFFFFFFFFFFFFFFFFFFFF AND PUSH20 0xFFFFFFFFFFFFFFFFFFFFFFFFFFFFFFFFFFFFFFFF AND DUP2 MSTORE PUSH1 0x20 ADD SWAP1 DUP2 MSTORE PUSH1 0x20 ADD PUSH1 0x0 KECCAK256 PUSH1 0x0 ADD PUSH1 0x0 SWAP1 SLOAD SWAP1 PUSH2 0x100 EXP SWAP1 DIV PUSH1 0xFF AND ISZERO ISZERO EQ ISZERO ISZERO PUSH2 0x914 JUMPI PUSH1 0x40 MLOAD PUSH32 0x8C379A000000000000000000000000000000000000000000000000000000000 DUP2 MSTORE PUSH1 0x4 ADD DUP1 DUP1 PUSH1 0x20 ADD DUP3 DUP2 SUB DUP3 MSTORE PUSH1 0x17 DUP2 MSTORE PUSH1 0x20 ADD DUP1 PUSH32 0x456D706C6F79656520646F6573206E6F74206578697374000000000000000000 DUP2 MSTORE POP PUSH1 0x20 ADD SWAP2 POP POP PUSH1 0x40 MLOAD DUP1 SWAP2 SUB SWAP1 REVERT JUMPDEST DUP2 PUSH1 0x1 PUSH1 0x0 DUP6 PUSH20 0xFFFFFFFFFFFFFFFFFFFFFFFFFFFFFFFFFFFFFFFF AND PUSH20 0xFFFFFFFFFFFFFFFFFFFFFFFFFFFFFFFFFFFFFFFF AND DUP2 MSTORE PUSH1 0x20 ADD SWAP1 DUP2 MSTORE PUSH1 0x20 ADD PUSH1 0x0 KECCAK256 PUSH1 0x2 ADD DUP2 SWAP1 SSTORE POP POP POP POP JUMP JUMPDEST PUSH1 0x0 DUP2 PUSH1 0x1 ISZERO ISZERO PUSH1 0x1 PUSH1 0x0 DUP4 PUSH20 0xFFFFFFFFFFFFFFFFFFFFFFFFFFFFFFFFFFFFFFFF AND PUSH20 0xFFFFFFFFFFFFFFFFFFFFFFFFFFFFFFFFFFFFFFFF AND DUP2 MSTORE PUSH1 0x20 ADD SWAP1 DUP2 MSTORE PUSH1 0x20 ADD PUSH1 0x0 KECCAK256 PUSH1 0x0 ADD PUSH1 0x0 SWAP1 SLOAD SWAP1 PUSH2 0x100 EXP SWAP1 DIV PUSH1 0xFF AND ISZERO ISZERO EQ ISZERO ISZERO PUSH2 0xA2E JUMPI PUSH1 0x40 MLOAD PUSH32 0x8C379A000000000000000000000000000000000000000000000000000000000 DUP2 MSTORE PUSH1 0x4 ADD DUP1 DUP1 PUSH1 0x20 ADD DUP3 DUP2 SUB DUP3 MSTORE PUSH1 0x17 DUP2 MSTORE PUSH1 0x20 ADD DUP1 PUSH32 0x456D706C6F79656520646F6573206E6F74206578697374000000000000000000 DUP2 MSTORE POP PUSH1 0x20 ADD SWAP2 POP POP PUSH1 0x40 MLOAD DUP1 SWAP2 SUB SWAP1 REVERT JUMPDEST PUSH1 0x1 PUSH1 0x0 DUP5 PUSH20 0xFFFFFFFFFFFFFFFFFFFFFFFFFFFFFFFFFFFFFFFF AND PUSH20 0xFFFFFFFFFFFFFFFFFFFFFFFFFFFFFFFFFFFFFFFF AND DUP2 MSTORE PUSH1 0x20 ADD SWAP1 DUP2 MSTORE PUSH1 0x20 ADD PUSH1 0x0 KECCAK256 PUSH1 0x1 ADD SLOAD SWAP2 POP POP SWAP2 SWAP1 POP JUMP JUMPDEST PUSH1 0x0 DUP2 PUSH1 0x1 ISZERO ISZERO PUSH1 0x1 PUSH1 0x0 DUP4 PUSH20 0xFFFFFFFFFFFFFFFFFFFFFFFFFFFFFFFFFFFFFFFF AND PUSH20 0xFFFFFFFFFFFFFFFFFFFFFFFFFFFFFFFFFFFFFFFF AND DUP2 MSTORE PUSH1 0x20 ADD SWAP1 DUP2 MSTORE PUSH1 0x20 ADD PUSH1 0x0 KECCAK256 PUSH1 0x0 ADD PUSH1 0x0 SWAP1 SLOAD SWAP1 PUSH2 0x100 EXP SWAP1 DIV PUSH1 0xFF AND ISZERO ISZERO EQ ISZERO ISZERO PUSH2 0xB47 JUMPI PUSH1 0x40 MLOAD PUSH32 0x8C379A000000000000000000000000000000000000000000000000000000000 DUP2 MSTORE PUSH1 0x4 ADD DUP1 DUP1 PUSH1 0x20 ADD DUP3 DUP2 SUB DUP3 MSTORE PUSH1 0x17 DUP2 MSTORE PUSH1 0x20 ADD DUP1 PUSH32 0x456D706C6F79656520646F6573206E6F74206578697374000000000000000000 DUP2 MSTORE POP PUSH1 0x20 ADD SWAP2 POP POP PUSH1 0x40 MLOAD DUP1 SWAP2 SUB SWAP1 REVERT JUMPDEST PUSH1 0x1 PUSH1 0x0 DUP5 PUSH20 0xFFFFFFFFFFFFFFFFFFFFFFFFFFFFFFFFFFFFFFFF AND PUSH20 0xFFFFFFFFFFFFFFFFFFFFFFFFFFFFFFFFFFFFFFFF AND DUP2 MSTORE PUSH1 0x20 ADD SWAP1 DUP2 MSTORE PUSH1 0x20 ADD PUSH1 0x0 KECCAK256 PUSH1 0x2 ADD SLOAD SWAP2 POP POP SWAP2 SWAP1 POP JUMP STOP LOG1 PUSH6 0x627A7A723058 KECCAK256 PUSH8 0x470BE4A7E04FFA38 0xbd 0xc7 CREATE PUSH25 0x35BC4A1FBB256E08EF27D6595A92B31D90BE33002900000000 "
				},
				"gasEstimates": {
					"creation": {
						"codeDepositCost": "601200",
						"executionCost": "5646",
						"totalCost": "606846"
					},
					"external": {
						"createEmployeeContract(address,uint256,uint256)": "124990",
						"employeeExists(address)": "631",
						"getAddressByIndex(uint256)": "885",
						"getNumberOfEmployees()": "446",
						"readMaximumSecondsPerSession(address)": "1097",
						"readSalaryPerSecond(address)": "1075",
						"updateMaximumSecondsPerSession(address,uint256)": "20824",
						"updateSalaryPerSecond(address,uint256)": "20736"
					}
				},
				"methodIdentifiers": {
					"createEmployeeContract(address,uint256,uint256)": "9e757f98",
					"employeeExists(address)": "1024f223",
					"getAddressByIndex(uint256)": "ce10cf88",
					"getNumberOfEmployees()": "888e1d05",
					"readMaximumSecondsPerSession(address)": "fd2b8257",
					"readSalaryPerSecond(address)": "f5e369e8",
					"updateMaximumSecondsPerSession(address,uint256)": "dbbf65b7",
					"updateSalaryPerSecond(address,uint256)": "5da74955"
				}
			},
			"userdoc": {
				"methods": {}
			}
		}
	}
}