{
	"blockchain/EmployeeContractStorage.sol": {
		"EmployeeContractStorage": {
			"abi": [
				{
					"constant": true,
					"inputs": [
						{
							"name": "_employeeAddress",
							"type": "address"
						}
					],
					"name": "employeeExists",
					"outputs": [
						{
							"name": "",
							"type": "bool"
						}
					],
					"payable": false,
					"stateMutability": "view",
					"type": "function"
				},
				{
					"constant": true,
					"inputs": [],
					"name": "getBalance",
					"outputs": [
						{
							"name": "",
							"type": "uint256"
						}
					],
					"payable": false,
					"stateMutability": "view",
					"type": "function"
				},
				{
					"constant": false,
					"inputs": [
						{
							"name": "amount",
							"type": "uint256"
						}
					],
					"name": "withdrawFunds",
					"outputs": [],
					"payable": false,
					"stateMutability": "nonpayable",
					"type": "function"
				},
				{
					"constant": false,
					"inputs": [
						{
							"name": "_employeeAddress",
							"type": "address"
						},
						{
							"name": "_salaryPerSecond",
							"type": "uint256"
						}
					],
					"name": "updateSalaryPerSecond",
					"outputs": [],
					"payable": false,
					"stateMutability": "nonpayable",
					"type": "function"
				},
				{
					"constant": true,
					"inputs": [],
					"name": "getNumberOfEmployees",
					"outputs": [
						{
							"name": "",
							"type": "uint256"
						}
					],
					"payable": false,
					"stateMutability": "view",
					"type": "function"
				},
				{
					"constant": false,
					"inputs": [
						{
							"name": "_incomeAccount",
							"type": "address"
						},
						{
							"name": "_salaryPerSecond",
							"type": "uint256"
						},
						{
							"name": "_maximumSecondsPerSession",
							"type": "uint256"
						}
					],
					"name": "createEmployeeContract",
					"outputs": [
						{
							"name": "",
							"type": "uint256"
						}
					],
					"payable": false,
					"stateMutability": "nonpayable",
					"type": "function"
				},
				{
					"constant": true,
					"inputs": [
						{
							"name": "_index",
							"type": "uint256"
						}
					],
					"name": "getAddressByIndex",
					"outputs": [
						{
							"name": "",
							"type": "address"
						}
					],
					"payable": false,
					"stateMutability": "view",
					"type": "function"
				},
				{
					"constant": false,
					"inputs": [
						{
							"name": "_employeeAddress",
							"type": "address"
						},
						{
							"name": "_maximumSecondsPerSession",
							"type": "uint256"
						}
					],
					"name": "updateMaximumSecondsPerSession",
					"outputs": [],
					"payable": false,
					"stateMutability": "nonpayable",
					"type": "function"
				},
				{
					"constant": true,
					"inputs": [
						{
							"name": "_employeeAddress",
							"type": "address"
						}
					],
					"name": "readSalaryPerSecond",
					"outputs": [
						{
							"name": "",
							"type": "uint256"
						}
					],
					"payable": false,
					"stateMutability": "view",
					"type": "function"
				},
				{
					"constant": true,
					"inputs": [
						{
							"name": "_employeeAddress",
							"type": "address"
						}
					],
					"name": "readMaximumSecondsPerSession",
					"outputs": [
						{
							"name": "",
							"type": "uint256"
						}
					],
					"payable": false,
					"stateMutability": "view",
					"type": "function"
				},
				{
					"inputs": [],
					"payable": false,
					"stateMutability": "nonpayable",
					"type": "constructor"
				},
				{
					"anonymous": false,
					"inputs": [
						{
							"indexed": true,
							"name": "_from",
							"type": "address"
						},
						{
							"indexed": false,
							"name": "incomeAccount",
							"type": "address"
						},
						{
							"indexed": false,
							"name": "salaryPerSecond",
							"type": "uint256"
						},
						{
							"indexed": false,
							"name": "maximumSecondsPerSession",
							"type": "uint256"
						}
					],
					"name": "EmployeeContractCreation",
					"type": "event"
				}
			],
			"devdoc": {
				"methods": {}
			},
			"evm": {
				"assembly": "    /* \"blockchain/EmployeeContractStorage.sol\":28:4039  contract EmployeeContractStorage  {\r... */\n  mstore(0x40, 0x80)\n    /* \"blockchain/EmployeeContractStorage.sol\":1039:1099  constructor() public {\r... */\n  callvalue\n    /* \"--CODEGEN--\":8:17   */\n  dup1\n    /* \"--CODEGEN--\":5:7   */\n  iszero\n  tag_1\n  jumpi\n    /* \"--CODEGEN--\":30:31   */\n  0x0\n    /* \"--CODEGEN--\":27:28   */\n  dup1\n    /* \"--CODEGEN--\":20:32   */\n  revert\n    /* \"--CODEGEN--\":5:7   */\ntag_1:\n    /* \"blockchain/EmployeeContractStorage.sol\":1039:1099  constructor() public {\r... */\n  pop\n    /* \"blockchain/EmployeeContractStorage.sol\":1089:1090  0 */\n  0x0\n    /* \"blockchain/EmployeeContractStorage.sol\":1071:1086  employeeCounter */\n  dup1\n    /* \"blockchain/EmployeeContractStorage.sol\":1071:1090  employeeCounter = 0 */\n  dup2\n  swap1\n  sstore\n  pop\n    /* \"blockchain/EmployeeContractStorage.sol\":28:4039  contract EmployeeContractStorage  {\r... */\n  dataSize(sub_0)\n  dup1\n  dataOffset(sub_0)\n  0x0\n  codecopy\n  0x0\n  return\nstop\n\nsub_0: assembly {\n        /* \"blockchain/EmployeeContractStorage.sol\":28:4039  contract EmployeeContractStorage  {\r... */\n      mstore(0x40, 0x80)\n      jumpi(tag_1, lt(calldatasize, 0x4))\n      calldataload(0x0)\n      0x100000000000000000000000000000000000000000000000000000000\n      swap1\n      div\n      0xffffffff\n      and\n      dup1\n      0x1024f223\n      eq\n      tag_2\n      jumpi\n      dup1\n      0x12065fe0\n      eq\n      tag_3\n      jumpi\n      dup1\n      0x155dd5ee\n      eq\n      tag_4\n      jumpi\n      dup1\n      0x5da74955\n      eq\n      tag_5\n      jumpi\n      dup1\n      0x888e1d05\n      eq\n      tag_6\n      jumpi\n      dup1\n      0x9e757f98\n      eq\n      tag_7\n      jumpi\n      dup1\n      0xce10cf88\n      eq\n      tag_8\n      jumpi\n      dup1\n      0xdbbf65b7\n      eq\n      tag_9\n      jumpi\n      dup1\n      0xf5e369e8\n      eq\n      tag_10\n      jumpi\n      dup1\n      0xfd2b8257\n      eq\n      tag_11\n      jumpi\n    tag_1:\n      0x0\n      dup1\n      revert\n        /* \"blockchain/EmployeeContractStorage.sol\":3832:4034  function employeeExists(address _employeeAddress) \r... */\n    tag_2:\n      callvalue\n        /* \"--CODEGEN--\":8:17   */\n      dup1\n        /* \"--CODEGEN--\":5:7   */\n      iszero\n      tag_12\n      jumpi\n        /* \"--CODEGEN--\":30:31   */\n      0x0\n        /* \"--CODEGEN--\":27:28   */\n      dup1\n        /* \"--CODEGEN--\":20:32   */\n      revert\n        /* \"--CODEGEN--\":5:7   */\n    tag_12:\n        /* \"blockchain/EmployeeContractStorage.sol\":3832:4034  function employeeExists(address _employeeAddress) \r... */\n      pop\n      tag_13\n      0x4\n      dup1\n      calldatasize\n      sub\n      dup2\n      add\n      swap1\n      dup1\n      dup1\n      calldataload\n      0xffffffffffffffffffffffffffffffffffffffff\n      and\n      swap1\n      0x20\n      add\n      swap1\n      swap3\n      swap2\n      swap1\n      pop\n      pop\n      pop\n      jump(tag_14)\n    tag_13:\n      mload(0x40)\n      dup1\n      dup3\n      iszero\n      iszero\n      iszero\n      iszero\n      dup2\n      mstore\n      0x20\n      add\n      swap2\n      pop\n      pop\n      mload(0x40)\n      dup1\n      swap2\n      sub\n      swap1\n      return\n        /* \"blockchain/EmployeeContractStorage.sol\":1439:1547  function getBalance() \r... */\n    tag_3:\n      callvalue\n        /* \"--CODEGEN--\":8:17   */\n      dup1\n        /* \"--CODEGEN--\":5:7   */\n      iszero\n      tag_15\n      jumpi\n        /* \"--CODEGEN--\":30:31   */\n      0x0\n        /* \"--CODEGEN--\":27:28   */\n      dup1\n        /* \"--CODEGEN--\":20:32   */\n      revert\n        /* \"--CODEGEN--\":5:7   */\n    tag_15:\n        /* \"blockchain/EmployeeContractStorage.sol\":1439:1547  function getBalance() \r... */\n      pop\n      tag_16\n      jump(tag_17)\n    tag_16:\n      mload(0x40)\n      dup1\n      dup3\n      dup2\n      mstore\n      0x20\n      add\n      swap2\n      pop\n      pop\n      mload(0x40)\n      dup1\n      swap2\n      sub\n      swap1\n      return\n        /* \"blockchain/EmployeeContractStorage.sol\":1128:1433  function withdrawFunds(uint amount) \r... */\n    tag_4:\n      callvalue\n        /* \"--CODEGEN--\":8:17   */\n      dup1\n        /* \"--CODEGEN--\":5:7   */\n      iszero\n      tag_18\n      jumpi\n        /* \"--CODEGEN--\":30:31   */\n      0x0\n        /* \"--CODEGEN--\":27:28   */\n      dup1\n        /* \"--CODEGEN--\":20:32   */\n      revert\n        /* \"--CODEGEN--\":5:7   */\n    tag_18:\n        /* \"blockchain/EmployeeContractStorage.sol\":1128:1433  function withdrawFunds(uint amount) \r... */\n      pop\n      tag_19\n      0x4\n      dup1\n      calldatasize\n      sub\n      dup2\n      add\n      swap1\n      dup1\n      dup1\n      calldataload\n      swap1\n      0x20\n      add\n      swap1\n      swap3\n      swap2\n      swap1\n      pop\n      pop\n      pop\n      jump(tag_20)\n    tag_19:\n      stop\n        /* \"blockchain/EmployeeContractStorage.sol\":2482:2707  function updateSalaryPerSecond(address _employeeAddress, uint _salaryPerSecond)\r... */\n    tag_5:\n      callvalue\n        /* \"--CODEGEN--\":8:17   */\n      dup1\n        /* \"--CODEGEN--\":5:7   */\n      iszero\n      tag_21\n      jumpi\n        /* \"--CODEGEN--\":30:31   */\n      0x0\n        /* \"--CODEGEN--\":27:28   */\n      dup1\n        /* \"--CODEGEN--\":20:32   */\n      revert\n        /* \"--CODEGEN--\":5:7   */\n    tag_21:\n        /* \"blockchain/EmployeeContractStorage.sol\":2482:2707  function updateSalaryPerSecond(address _employeeAddress, uint _salaryPerSecond)\r... */\n      pop\n      tag_22\n      0x4\n      dup1\n      calldatasize\n      sub\n      dup2\n      add\n      swap1\n      dup1\n      dup1\n      calldataload\n      0xffffffffffffffffffffffffffffffffffffffff\n      and\n      swap1\n      0x20\n      add\n      swap1\n      swap3\n      swap2\n      swap1\n      dup1\n      calldataload\n      swap1\n      0x20\n      add\n      swap1\n      swap3\n      swap2\n      swap1\n      pop\n      pop\n      pop\n      jump(tag_23)\n    tag_22:\n      stop\n        /* \"blockchain/EmployeeContractStorage.sol\":3712:3824  function getNumberOfEmployees() \r... */\n    tag_6:\n      callvalue\n        /* \"--CODEGEN--\":8:17   */\n      dup1\n        /* \"--CODEGEN--\":5:7   */\n      iszero\n      tag_24\n      jumpi\n        /* \"--CODEGEN--\":30:31   */\n      0x0\n        /* \"--CODEGEN--\":27:28   */\n      dup1\n        /* \"--CODEGEN--\":20:32   */\n      revert\n        /* \"--CODEGEN--\":5:7   */\n    tag_24:\n        /* \"blockchain/EmployeeContractStorage.sol\":3712:3824  function getNumberOfEmployees() \r... */\n      pop\n      tag_25\n      jump(tag_26)\n    tag_25:\n      mload(0x40)\n      dup1\n      dup3\n      dup2\n      mstore\n      0x20\n      add\n      swap2\n      pop\n      pop\n      mload(0x40)\n      dup1\n      swap2\n      sub\n      swap1\n      return\n        /* \"blockchain/EmployeeContractStorage.sol\":1563:2437  function createEmployeeContract(address _incomeAccount, uint _salaryPerSecond, uint _maximumSecondsPerSession) \r... */\n    tag_7:\n      callvalue\n        /* \"--CODEGEN--\":8:17   */\n      dup1\n        /* \"--CODEGEN--\":5:7   */\n      iszero\n      tag_27\n      jumpi\n        /* \"--CODEGEN--\":30:31   */\n      0x0\n        /* \"--CODEGEN--\":27:28   */\n      dup1\n        /* \"--CODEGEN--\":20:32   */\n      revert\n        /* \"--CODEGEN--\":5:7   */\n    tag_27:\n        /* \"blockchain/EmployeeContractStorage.sol\":1563:2437  function createEmployeeContract(address _incomeAccount, uint _salaryPerSecond, uint _maximumSecondsPerSession) \r... */\n      pop\n      tag_28\n      0x4\n      dup1\n      calldatasize\n      sub\n      dup2\n      add\n      swap1\n      dup1\n      dup1\n      calldataload\n      0xffffffffffffffffffffffffffffffffffffffff\n      and\n      swap1\n      0x20\n      add\n      swap1\n      swap3\n      swap2\n      swap1\n      dup1\n      calldataload\n      swap1\n      0x20\n      add\n      swap1\n      swap3\n      swap2\n      swap1\n      dup1\n      calldataload\n      swap1\n      0x20\n      add\n      swap1\n      swap3\n      swap2\n      swap1\n      pop\n      pop\n      pop\n      jump(tag_29)\n    tag_28:\n      mload(0x40)\n      dup1\n      dup3\n      dup2\n      mstore\n      0x20\n      add\n      swap2\n      pop\n      pop\n      mload(0x40)\n      dup1\n      swap2\n      sub\n      swap1\n      return\n        /* \"blockchain/EmployeeContractStorage.sol\":3585:3704  function getAddressByIndex(uint _index) \r... */\n    tag_8:\n      callvalue\n        /* \"--CODEGEN--\":8:17   */\n      dup1\n        /* \"--CODEGEN--\":5:7   */\n      iszero\n      tag_30\n      jumpi\n        /* \"--CODEGEN--\":30:31   */\n      0x0\n        /* \"--CODEGEN--\":27:28   */\n      dup1\n        /* \"--CODEGEN--\":20:32   */\n      revert\n        /* \"--CODEGEN--\":5:7   */\n    tag_30:\n        /* \"blockchain/EmployeeContractStorage.sol\":3585:3704  function getAddressByIndex(uint _index) \r... */\n      pop\n      tag_31\n      0x4\n      dup1\n      calldatasize\n      sub\n      dup2\n      add\n      swap1\n      dup1\n      dup1\n      calldataload\n      swap1\n      0x20\n      add\n      swap1\n      swap3\n      swap2\n      swap1\n      pop\n      pop\n      pop\n      jump(tag_32)\n    tag_31:\n      mload(0x40)\n      dup1\n      dup3\n      0xffffffffffffffffffffffffffffffffffffffff\n      and\n      0xffffffffffffffffffffffffffffffffffffffff\n      and\n      dup2\n      mstore\n      0x20\n      add\n      swap2\n      pop\n      pop\n      mload(0x40)\n      dup1\n      swap2\n      sub\n      swap1\n      return\n        /* \"blockchain/EmployeeContractStorage.sol\":2757:3025  function updateMaximumSecondsPerSession(address _employeeAddress, uint _maximumSecondsPerSession)\r... */\n    tag_9:\n      callvalue\n        /* \"--CODEGEN--\":8:17   */\n      dup1\n        /* \"--CODEGEN--\":5:7   */\n      iszero\n      tag_33\n      jumpi\n        /* \"--CODEGEN--\":30:31   */\n      0x0\n        /* \"--CODEGEN--\":27:28   */\n      dup1\n        /* \"--CODEGEN--\":20:32   */\n      revert\n        /* \"--CODEGEN--\":5:7   */\n    tag_33:\n        /* \"blockchain/EmployeeContractStorage.sol\":2757:3025  function updateMaximumSecondsPerSession(address _employeeAddress, uint _maximumSecondsPerSession)\r... */\n      pop\n      tag_34\n      0x4\n      dup1\n      calldatasize\n      sub\n      dup2\n      add\n      swap1\n      dup1\n      dup1\n      calldataload\n      0xffffffffffffffffffffffffffffffffffffffff\n      and\n      swap1\n      0x20\n      add\n      swap1\n      swap3\n      swap2\n      swap1\n      dup1\n      calldataload\n      swap1\n      0x20\n      add\n      swap1\n      swap3\n      swap2\n      swap1\n      pop\n      pop\n      pop\n      jump(tag_35)\n    tag_34:\n      stop\n        /* \"blockchain/EmployeeContractStorage.sol\":3070:3289  function readSalaryPerSecond(address _employeeAddress) \r... */\n    tag_10:\n      callvalue\n        /* \"--CODEGEN--\":8:17   */\n      dup1\n        /* \"--CODEGEN--\":5:7   */\n      iszero\n      tag_36\n      jumpi\n        /* \"--CODEGEN--\":30:31   */\n      0x0\n        /* \"--CODEGEN--\":27:28   */\n      dup1\n        /* \"--CODEGEN--\":20:32   */\n      revert\n        /* \"--CODEGEN--\":5:7   */\n    tag_36:\n        /* \"blockchain/EmployeeContractStorage.sol\":3070:3289  function readSalaryPerSecond(address _employeeAddress) \r... */\n      pop\n      tag_37\n      0x4\n      dup1\n      calldatasize\n      sub\n      dup2\n      add\n      swap1\n      dup1\n      dup1\n      calldataload\n      0xffffffffffffffffffffffffffffffffffffffff\n      and\n      swap1\n      0x20\n      add\n      swap1\n      swap3\n      swap2\n      swap1\n      pop\n      pop\n      pop\n      jump(tag_38)\n    tag_37:\n      mload(0x40)\n      dup1\n      dup3\n      dup2\n      mstore\n      0x20\n      add\n      swap2\n      pop\n      pop\n      mload(0x40)\n      dup1\n      swap2\n      sub\n      swap1\n      return\n        /* \"blockchain/EmployeeContractStorage.sol\":3340:3577  function readMaximumSecondsPerSession(address _employeeAddress) \r... */\n    tag_11:\n      callvalue\n        /* \"--CODEGEN--\":8:17   */\n      dup1\n        /* \"--CODEGEN--\":5:7   */\n      iszero\n      tag_39\n      jumpi\n        /* \"--CODEGEN--\":30:31   */\n      0x0\n        /* \"--CODEGEN--\":27:28   */\n      dup1\n        /* \"--CODEGEN--\":20:32   */\n      revert\n        /* \"--CODEGEN--\":5:7   */\n    tag_39:\n        /* \"blockchain/EmployeeContractStorage.sol\":3340:3577  function readMaximumSecondsPerSession(address _employeeAddress) \r... */\n      pop\n      tag_40\n      0x4\n      dup1\n      calldatasize\n      sub\n      dup2\n      add\n      swap1\n      dup1\n      dup1\n      calldataload\n      0xffffffffffffffffffffffffffffffffffffffff\n      and\n      swap1\n      0x20\n      add\n      swap1\n      swap3\n      swap2\n      swap1\n      pop\n      pop\n      pop\n      jump(tag_41)\n    tag_40:\n      mload(0x40)\n      dup1\n      dup3\n      dup2\n      mstore\n      0x20\n      add\n      swap2\n      pop\n      pop\n      mload(0x40)\n      dup1\n      swap2\n      sub\n      swap1\n      return\n        /* \"blockchain/EmployeeContractStorage.sol\":3832:4034  function employeeExists(address _employeeAddress) \r... */\n    tag_14:\n        /* \"blockchain/EmployeeContractStorage.sol\":3915:3919  bool */\n      0x0\n        /* \"blockchain/EmployeeContractStorage.sol\":3988:3992  true */\n      0x1\n        /* \"blockchain/EmployeeContractStorage.sol\":3939:3992  employeeContractsMap[_employeeAddress].exists == true */\n      iszero\n      iszero\n        /* \"blockchain/EmployeeContractStorage.sol\":3939:3959  employeeContractsMap */\n      0x1\n        /* \"blockchain/EmployeeContractStorage.sol\":3939:3977  employeeContractsMap[_employeeAddress] */\n      0x0\n        /* \"blockchain/EmployeeContractStorage.sol\":3960:3976  _employeeAddress */\n      dup5\n        /* \"blockchain/EmployeeContractStorage.sol\":3939:3977  employeeContractsMap[_employeeAddress] */\n      0xffffffffffffffffffffffffffffffffffffffff\n      and\n      0xffffffffffffffffffffffffffffffffffffffff\n      and\n      dup2\n      mstore\n      0x20\n      add\n      swap1\n      dup2\n      mstore\n      0x20\n      add\n      0x0\n      keccak256\n        /* \"blockchain/EmployeeContractStorage.sol\":3939:3984  employeeContractsMap[_employeeAddress].exists */\n      0x0\n      add\n      0x0\n      swap1\n      sload\n      swap1\n      0x100\n      exp\n      swap1\n      div\n      0xff\n      and\n        /* \"blockchain/EmployeeContractStorage.sol\":3939:3992  employeeContractsMap[_employeeAddress].exists == true */\n      iszero\n      iszero\n      eq\n        /* \"blockchain/EmployeeContractStorage.sol\":3932:3992  return employeeContractsMap[_employeeAddress].exists == true */\n      swap1\n      pop\n        /* \"blockchain/EmployeeContractStorage.sol\":3832:4034  function employeeExists(address _employeeAddress) \r... */\n      swap2\n      swap1\n      pop\n      jump\t// out\n        /* \"blockchain/EmployeeContractStorage.sol\":1439:1547  function getBalance() \r... */\n    tag_17:\n        /* \"blockchain/EmployeeContractStorage.sol\":1494:1498  uint */\n      0x0\n        /* \"blockchain/EmployeeContractStorage.sol\":1526:1530  this */\n      address\n        /* \"blockchain/EmployeeContractStorage.sol\":1518:1539  address(this).balance */\n      0xffffffffffffffffffffffffffffffffffffffff\n      and\n      balance\n        /* \"blockchain/EmployeeContractStorage.sol\":1511:1539  return address(this).balance */\n      swap1\n      pop\n        /* \"blockchain/EmployeeContractStorage.sol\":1439:1547  function getBalance() \r... */\n      swap1\n      jump\t// out\n        /* \"blockchain/EmployeeContractStorage.sol\":1128:1433  function withdrawFunds(uint amount) \r... */\n    tag_20:\n        /* \"blockchain/EmployeeContractStorage.sol\":1275:1279  this */\n      address\n        /* \"blockchain/EmployeeContractStorage.sol\":1267:1288  address(this).balance */\n      0xffffffffffffffffffffffffffffffffffffffff\n      and\n      balance\n        /* \"blockchain/EmployeeContractStorage.sol\":1257:1263  amount */\n      dup2\n        /* \"blockchain/EmployeeContractStorage.sol\":1257:1288  amount <= address(this).balance */\n      gt\n      iszero\n        /* \"blockchain/EmployeeContractStorage.sol\":1249:1320  require(amount <= address(this).balance, \"Not enough money in Payroll\") */\n      iszero\n      iszero\n      tag_45\n      jumpi\n      mload(0x40)\n      0x8c379a000000000000000000000000000000000000000000000000000000000\n      dup2\n      mstore\n      0x4\n      add\n      dup1\n      dup1\n      0x20\n      add\n      dup3\n      dup2\n      sub\n      dup3\n      mstore\n      0x1b\n      dup2\n      mstore\n      0x20\n      add\n      dup1\n      0x4e6f7420656e6f756768206d6f6e657920696e20506179726f6c6c0000000000\n      dup2\n      mstore\n      pop\n      0x20\n      add\n      swap2\n      pop\n      pop\n      mload(0x40)\n      dup1\n      swap2\n      sub\n      swap1\n      revert\n    tag_45:\n        /* \"blockchain/EmployeeContractStorage.sol\":1348:1349  0 */\n      0x0\n        /* \"blockchain/EmployeeContractStorage.sol\":1339:1345  amount */\n      dup2\n        /* \"blockchain/EmployeeContractStorage.sol\":1339:1349  amount > 0 */\n      gt\n        /* \"blockchain/EmployeeContractStorage.sol\":1331:1387  require(amount > 0, \"Withdrawing 0 will have no effect\") */\n      iszero\n      iszero\n      tag_46\n      jumpi\n      mload(0x40)\n      0x8c379a000000000000000000000000000000000000000000000000000000000\n      dup2\n      mstore\n      0x4\n      add\n      dup1\n      dup1\n      0x20\n      add\n      dup3\n      dup2\n      sub\n      dup3\n      mstore\n      0x21\n      dup2\n      mstore\n      0x20\n      add\n      dup1\n      0x5769746864726177696e6720302077696c6c2068617665206e6f206566666563\n      dup2\n      mstore\n      0x20\n      add\n      0x7400000000000000000000000000000000000000000000000000000000000000\n      dup2\n      mstore\n      pop\n      0x40\n      add\n      swap2\n      pop\n      pop\n      mload(0x40)\n      dup1\n      swap2\n      sub\n      swap1\n      revert\n    tag_46:\n        /* \"blockchain/EmployeeContractStorage.sol\":1398:1408  msg.sender */\n      caller\n        /* \"blockchain/EmployeeContractStorage.sol\":1398:1417  msg.sender.transfer */\n      0xffffffffffffffffffffffffffffffffffffffff\n      and\n        /* \"blockchain/EmployeeContractStorage.sol\":1398:1425  msg.sender.transfer(amount) */\n      0x8fc\n        /* \"blockchain/EmployeeContractStorage.sol\":1418:1424  amount */\n      dup3\n        /* \"blockchain/EmployeeContractStorage.sol\":1398:1425  msg.sender.transfer(amount) */\n      swap1\n      dup2\n      iszero\n      mul\n      swap1\n      mload(0x40)\n      0x0\n      mload(0x40)\n      dup1\n      dup4\n      sub\n      dup2\n      dup6\n      dup9\n      dup9\n      call\n      swap4\n      pop\n      pop\n      pop\n      pop\n      iszero\n        /* \"--CODEGEN--\":8:17   */\n      dup1\n        /* \"--CODEGEN--\":5:7   */\n      iszero\n      tag_47\n      jumpi\n        /* \"--CODEGEN--\":45:61   */\n      returndatasize\n        /* \"--CODEGEN--\":42:43   */\n      0x0\n        /* \"--CODEGEN--\":39:40   */\n      dup1\n        /* \"--CODEGEN--\":24:62   */\n      returndatacopy\n        /* \"--CODEGEN--\":77:93   */\n      returndatasize\n        /* \"--CODEGEN--\":74:75   */\n      0x0\n        /* \"--CODEGEN--\":67:94   */\n      revert\n        /* \"--CODEGEN--\":5:7   */\n    tag_47:\n        /* \"blockchain/EmployeeContractStorage.sol\":1398:1425  msg.sender.transfer(amount) */\n      pop\n        /* \"blockchain/EmployeeContractStorage.sol\":1128:1433  function withdrawFunds(uint amount) \r... */\n      pop\n      jump\t// out\n        /* \"blockchain/EmployeeContractStorage.sol\":2482:2707  function updateSalaryPerSecond(address _employeeAddress, uint _salaryPerSecond)\r... */\n    tag_23:\n        /* \"blockchain/EmployeeContractStorage.sol\":2597:2613  _employeeAddress */\n      dup2\n        /* \"blockchain/EmployeeContractStorage.sol\":571:575  true */\n      0x1\n        /* \"blockchain/EmployeeContractStorage.sol\":530:575  employeeContractsMap[_address].exists == true */\n      iszero\n      iszero\n        /* \"blockchain/EmployeeContractStorage.sol\":530:550  employeeContractsMap */\n      0x1\n        /* \"blockchain/EmployeeContractStorage.sol\":530:560  employeeContractsMap[_address] */\n      0x0\n        /* \"blockchain/EmployeeContractStorage.sol\":551:559  _address */\n      dup4\n        /* \"blockchain/EmployeeContractStorage.sol\":530:560  employeeContractsMap[_address] */\n      0xffffffffffffffffffffffffffffffffffffffff\n      and\n      0xffffffffffffffffffffffffffffffffffffffff\n      and\n      dup2\n      mstore\n      0x20\n      add\n      swap1\n      dup2\n      mstore\n      0x20\n      add\n      0x0\n      keccak256\n        /* \"blockchain/EmployeeContractStorage.sol\":530:567  employeeContractsMap[_address].exists */\n      0x0\n      add\n      0x0\n      swap1\n      sload\n      swap1\n      0x100\n      exp\n      swap1\n      div\n      0xff\n      and\n        /* \"blockchain/EmployeeContractStorage.sol\":530:575  employeeContractsMap[_address].exists == true */\n      iszero\n      iszero\n      eq\n        /* \"blockchain/EmployeeContractStorage.sol\":522:603  require(employeeContractsMap[_address].exists == true, \"Employee does not exist\") */\n      iszero\n      iszero\n      tag_49\n      jumpi\n      mload(0x40)\n      0x8c379a000000000000000000000000000000000000000000000000000000000\n      dup2\n      mstore\n      0x4\n      add\n      dup1\n      dup1\n      0x20\n      add\n      dup3\n      dup2\n      sub\n      dup3\n      mstore\n      0x17\n      dup2\n      mstore\n      0x20\n      add\n      dup1\n      0x456d706c6f79656520646f6573206e6f74206578697374000000000000000000\n      dup2\n      mstore\n      pop\n      0x20\n      add\n      swap2\n      pop\n      pop\n      mload(0x40)\n      dup1\n      swap2\n      sub\n      swap1\n      revert\n    tag_49:\n        /* \"blockchain/EmployeeContractStorage.sol\":2683:2699  _salaryPerSecond */\n      dup2\n        /* \"blockchain/EmployeeContractStorage.sol\":2626:2646  employeeContractsMap */\n      0x1\n        /* \"blockchain/EmployeeContractStorage.sol\":2626:2664  employeeContractsMap[_employeeAddress] */\n      0x0\n        /* \"blockchain/EmployeeContractStorage.sol\":2647:2663  _employeeAddress */\n      dup6\n        /* \"blockchain/EmployeeContractStorage.sol\":2626:2664  employeeContractsMap[_employeeAddress] */\n      0xffffffffffffffffffffffffffffffffffffffff\n      and\n      0xffffffffffffffffffffffffffffffffffffffff\n      and\n      dup2\n      mstore\n      0x20\n      add\n      swap1\n      dup2\n      mstore\n      0x20\n      add\n      0x0\n      keccak256\n        /* \"blockchain/EmployeeContractStorage.sol\":2626:2680  employeeContractsMap[_employeeAddress].salaryPerSecond */\n      0x1\n      add\n        /* \"blockchain/EmployeeContractStorage.sol\":2626:2699  employeeContractsMap[_employeeAddress].salaryPerSecond = _salaryPerSecond */\n      dup2\n      swap1\n      sstore\n      pop\n        /* \"blockchain/EmployeeContractStorage.sol\":2482:2707  function updateSalaryPerSecond(address _employeeAddress, uint _salaryPerSecond)\r... */\n      pop\n      pop\n      pop\n      jump\t// out\n        /* \"blockchain/EmployeeContractStorage.sol\":3712:3824  function getNumberOfEmployees() \r... */\n    tag_26:\n        /* \"blockchain/EmployeeContractStorage.sol\":3777:3781  uint */\n      0x0\n        /* \"blockchain/EmployeeContractStorage.sol\":3801:3816  employeeCounter */\n      dup1\n      sload\n        /* \"blockchain/EmployeeContractStorage.sol\":3794:3816  return employeeCounter */\n      swap1\n      pop\n        /* \"blockchain/EmployeeContractStorage.sol\":3712:3824  function getNumberOfEmployees() \r... */\n      swap1\n      jump\t// out\n        /* \"blockchain/EmployeeContractStorage.sol\":1563:2437  function createEmployeeContract(address _incomeAccount, uint _salaryPerSecond, uint _maximumSecondsPerSession) \r... */\n    tag_29:\n        /* \"blockchain/EmployeeContractStorage.sol\":1745:1749  uint */\n      0x0\n        /* \"blockchain/EmployeeContractStorage.sol\":1715:1729  _incomeAccount */\n      dup4\n        /* \"blockchain/EmployeeContractStorage.sol\":746:751  false */\n      0x0\n        /* \"blockchain/EmployeeContractStorage.sol\":705:751  employeeContractsMap[_address].exists == false */\n      iszero\n      iszero\n        /* \"blockchain/EmployeeContractStorage.sol\":705:725  employeeContractsMap */\n      0x1\n        /* \"blockchain/EmployeeContractStorage.sol\":705:735  employeeContractsMap[_address] */\n      0x0\n        /* \"blockchain/EmployeeContractStorage.sol\":726:734  _address */\n      dup4\n        /* \"blockchain/EmployeeContractStorage.sol\":705:735  employeeContractsMap[_address] */\n      0xffffffffffffffffffffffffffffffffffffffff\n      and\n      0xffffffffffffffffffffffffffffffffffffffff\n      and\n      dup2\n      mstore\n      0x20\n      add\n      swap1\n      dup2\n      mstore\n      0x20\n      add\n      0x0\n      keccak256\n        /* \"blockchain/EmployeeContractStorage.sol\":705:742  employeeContractsMap[_address].exists */\n      0x0\n      add\n      0x0\n      swap1\n      sload\n      swap1\n      0x100\n      exp\n      swap1\n      div\n      0xff\n      and\n        /* \"blockchain/EmployeeContractStorage.sol\":705:751  employeeContractsMap[_address].exists == false */\n      iszero\n      iszero\n      eq\n        /* \"blockchain/EmployeeContractStorage.sol\":697:779  require(employeeContractsMap[_address].exists == false, \"Employee already exists\") */\n      iszero\n      iszero\n      tag_53\n      jumpi\n      mload(0x40)\n      0x8c379a000000000000000000000000000000000000000000000000000000000\n      dup2\n      mstore\n      0x4\n      add\n      dup1\n      dup1\n      0x20\n      add\n      dup3\n      dup2\n      sub\n      dup3\n      mstore\n      0x17\n      dup2\n      mstore\n      0x20\n      add\n      dup1\n      0x456d706c6f79656520616c726561647920657869737473000000000000000000\n      dup2\n      mstore\n      pop\n      0x20\n      add\n      swap2\n      pop\n      pop\n      mload(0x40)\n      dup1\n      swap2\n      sub\n      swap1\n      revert\n    tag_53:\n        /* \"blockchain/EmployeeContractStorage.sol\":1864:1868  true */\n      0x1\n        /* \"blockchain/EmployeeContractStorage.sol\":1818:1838  employeeContractsMap */\n      dup1\n        /* \"blockchain/EmployeeContractStorage.sol\":1818:1854  employeeContractsMap[_incomeAccount] */\n      0x0\n        /* \"blockchain/EmployeeContractStorage.sol\":1839:1853  _incomeAccount */\n      dup8\n        /* \"blockchain/EmployeeContractStorage.sol\":1818:1854  employeeContractsMap[_incomeAccount] */\n      0xffffffffffffffffffffffffffffffffffffffff\n      and\n      0xffffffffffffffffffffffffffffffffffffffff\n      and\n      dup2\n      mstore\n      0x20\n      add\n      swap1\n      dup2\n      mstore\n      0x20\n      add\n      0x0\n      keccak256\n        /* \"blockchain/EmployeeContractStorage.sol\":1818:1861  employeeContractsMap[_incomeAccount].exists */\n      0x0\n      add\n      0x0\n        /* \"blockchain/EmployeeContractStorage.sol\":1818:1868  employeeContractsMap[_incomeAccount].exists = true */\n      0x100\n      exp\n      dup2\n      sload\n      dup2\n      0xff\n      mul\n      not\n      and\n      swap1\n      dup4\n      iszero\n      iszero\n      mul\n      or\n      swap1\n      sstore\n      pop\n        /* \"blockchain/EmployeeContractStorage.sol\":1934:1950  _salaryPerSecond */\n      dup4\n        /* \"blockchain/EmployeeContractStorage.sol\":1879:1899  employeeContractsMap */\n      0x1\n        /* \"blockchain/EmployeeContractStorage.sol\":1879:1915  employeeContractsMap[_incomeAccount] */\n      0x0\n        /* \"blockchain/EmployeeContractStorage.sol\":1900:1914  _incomeAccount */\n      dup8\n        /* \"blockchain/EmployeeContractStorage.sol\":1879:1915  employeeContractsMap[_incomeAccount] */\n      0xffffffffffffffffffffffffffffffffffffffff\n      and\n      0xffffffffffffffffffffffffffffffffffffffff\n      and\n      dup2\n      mstore\n      0x20\n      add\n      swap1\n      dup2\n      mstore\n      0x20\n      add\n      0x0\n      keccak256\n        /* \"blockchain/EmployeeContractStorage.sol\":1879:1931  employeeContractsMap[_incomeAccount].salaryPerSecond */\n      0x1\n      add\n        /* \"blockchain/EmployeeContractStorage.sol\":1879:1950  employeeContractsMap[_incomeAccount].salaryPerSecond = _salaryPerSecond */\n      dup2\n      swap1\n      sstore\n      pop\n        /* \"blockchain/EmployeeContractStorage.sol\":2025:2050  _maximumSecondsPerSession */\n      dup3\n        /* \"blockchain/EmployeeContractStorage.sol\":1961:1981  employeeContractsMap */\n      0x1\n        /* \"blockchain/EmployeeContractStorage.sol\":1961:1997  employeeContractsMap[_incomeAccount] */\n      0x0\n        /* \"blockchain/EmployeeContractStorage.sol\":1982:1996  _incomeAccount */\n      dup8\n        /* \"blockchain/EmployeeContractStorage.sol\":1961:1997  employeeContractsMap[_incomeAccount] */\n      0xffffffffffffffffffffffffffffffffffffffff\n      and\n      0xffffffffffffffffffffffffffffffffffffffff\n      and\n      dup2\n      mstore\n      0x20\n      add\n      swap1\n      dup2\n      mstore\n      0x20\n      add\n      0x0\n      keccak256\n        /* \"blockchain/EmployeeContractStorage.sol\":1961:2022  employeeContractsMap[_incomeAccount].maximumSecondsPerSession */\n      0x2\n      add\n        /* \"blockchain/EmployeeContractStorage.sol\":1961:2050  employeeContractsMap[_incomeAccount].maximumSecondsPerSession = _maximumSecondsPerSession */\n      dup2\n      swap1\n      sstore\n      pop\n        /* \"blockchain/EmployeeContractStorage.sol\":2086:2090  keys */\n      0x2\n        /* \"blockchain/EmployeeContractStorage.sol\":2096:2110  _incomeAccount */\n      dup6\n        /* \"blockchain/EmployeeContractStorage.sol\":2086:2111  keys.push(_incomeAccount) */\n      swap1\n      dup1\n        /* \"--CODEGEN--\":39:40   */\n      0x1\n        /* \"--CODEGEN--\":33:36   */\n      dup2\n        /* \"--CODEGEN--\":27:37   */\n      sload\n        /* \"--CODEGEN--\":23:41   */\n      add\n        /* \"--CODEGEN--\":57:67   */\n      dup1\n        /* \"--CODEGEN--\":52:55   */\n      dup3\n        /* \"--CODEGEN--\":45:68   */\n      sstore\n        /* \"--CODEGEN--\":79:89   */\n      dup1\n        /* \"--CODEGEN--\":72:89   */\n      swap2\n      pop\n        /* \"--CODEGEN--\":0:93   */\n      pop\n        /* \"blockchain/EmployeeContractStorage.sol\":2086:2111  keys.push(_incomeAccount) */\n      swap1\n      0x1\n      dup3\n      sub\n      swap1\n      0x0\n      mstore\n      keccak256(0x0, 0x20)\n      add\n      0x0\n      swap1\n      swap2\n      swap3\n      swap1\n      swap2\n      swap1\n      swap2\n      0x100\n      exp\n      dup2\n      sload\n      dup2\n      0xffffffffffffffffffffffffffffffffffffffff\n      mul\n      not\n      and\n      swap1\n      dup4\n      0xffffffffffffffffffffffffffffffffffffffff\n      and\n      mul\n      or\n      swap1\n      sstore\n      pop\n      pop\n        /* \"blockchain/EmployeeContractStorage.sol\":2177:2187  msg.sender */\n      caller\n        /* \"blockchain/EmployeeContractStorage.sol\":2152:2321  EmployeeContractCreation(msg.sender, _incomeAccount, employeeContractsMap[_incomeAccount].salaryPerSecond, employeeContractsMap[_incomeAccount].maximumSecondsPerSession) */\n      0xffffffffffffffffffffffffffffffffffffffff\n      and\n      0xe95b7c8271f4033de7fc533c968828c5efb3099164a73078a102939c9db7b9fd\n        /* \"blockchain/EmployeeContractStorage.sol\":2189:2203  _incomeAccount */\n      dup7\n        /* \"blockchain/EmployeeContractStorage.sol\":2205:2225  employeeContractsMap */\n      0x1\n        /* \"blockchain/EmployeeContractStorage.sol\":2205:2241  employeeContractsMap[_incomeAccount] */\n      0x0\n        /* \"blockchain/EmployeeContractStorage.sol\":2226:2240  _incomeAccount */\n      dup10\n        /* \"blockchain/EmployeeContractStorage.sol\":2205:2241  employeeContractsMap[_incomeAccount] */\n      0xffffffffffffffffffffffffffffffffffffffff\n      and\n      0xffffffffffffffffffffffffffffffffffffffff\n      and\n      dup2\n      mstore\n      0x20\n      add\n      swap1\n      dup2\n      mstore\n      0x20\n      add\n      0x0\n      keccak256\n        /* \"blockchain/EmployeeContractStorage.sol\":2205:2257  employeeContractsMap[_incomeAccount].salaryPerSecond */\n      0x1\n      add\n      sload\n        /* \"blockchain/EmployeeContractStorage.sol\":2259:2279  employeeContractsMap */\n      0x1\n        /* \"blockchain/EmployeeContractStorage.sol\":2259:2295  employeeContractsMap[_incomeAccount] */\n      0x0\n        /* \"blockchain/EmployeeContractStorage.sol\":2280:2294  _incomeAccount */\n      dup11\n        /* \"blockchain/EmployeeContractStorage.sol\":2259:2295  employeeContractsMap[_incomeAccount] */\n      0xffffffffffffffffffffffffffffffffffffffff\n      and\n      0xffffffffffffffffffffffffffffffffffffffff\n      and\n      dup2\n      mstore\n      0x20\n      add\n      swap1\n      dup2\n      mstore\n      0x20\n      add\n      0x0\n      keccak256\n        /* \"blockchain/EmployeeContractStorage.sol\":2259:2320  employeeContractsMap[_incomeAccount].maximumSecondsPerSession */\n      0x2\n      add\n      sload\n        /* \"blockchain/EmployeeContractStorage.sol\":2152:2321  EmployeeContractCreation(msg.sender, _incomeAccount, employeeContractsMap[_incomeAccount].salaryPerSecond, employeeContractsMap[_incomeAccount].maximumSecondsPerSession) */\n      mload(0x40)\n      dup1\n      dup5\n      0xffffffffffffffffffffffffffffffffffffffff\n      and\n      0xffffffffffffffffffffffffffffffffffffffff\n      and\n      dup2\n      mstore\n      0x20\n      add\n      dup4\n      dup2\n      mstore\n      0x20\n      add\n      dup3\n      dup2\n      mstore\n      0x20\n      add\n      swap4\n      pop\n      pop\n      pop\n      pop\n      mload(0x40)\n      dup1\n      swap2\n      sub\n      swap1\n      log2\n        /* \"blockchain/EmployeeContractStorage.sol\":2373:2388  employeeCounter */\n      0x0\n      dup1\n        /* \"blockchain/EmployeeContractStorage.sol\":2373:2390  employeeCounter++ */\n      dup2\n      sload\n      dup1\n      swap3\n      swap2\n      swap1\n      0x1\n      add\n      swap2\n      swap1\n      pop\n      sstore\n      pop\n        /* \"blockchain/EmployeeContractStorage.sol\":2428:2429  1 */\n      0x1\n        /* \"blockchain/EmployeeContractStorage.sol\":2410:2425  employeeCounter */\n      sload(0x0)\n        /* \"blockchain/EmployeeContractStorage.sol\":2410:2429  employeeCounter - 1 */\n      sub\n        /* \"blockchain/EmployeeContractStorage.sol\":2403:2429  return employeeCounter - 1 */\n      swap2\n      pop\n        /* \"blockchain/EmployeeContractStorage.sol\":1563:2437  function createEmployeeContract(address _incomeAccount, uint _salaryPerSecond, uint _maximumSecondsPerSession) \r... */\n      pop\n      swap4\n      swap3\n      pop\n      pop\n      pop\n      jump\t// out\n        /* \"blockchain/EmployeeContractStorage.sol\":3585:3704  function getAddressByIndex(uint _index) \r... */\n    tag_32:\n        /* \"blockchain/EmployeeContractStorage.sol\":3657:3664  address */\n      0x0\n        /* \"blockchain/EmployeeContractStorage.sol\":3684:3688  keys */\n      0x2\n        /* \"blockchain/EmployeeContractStorage.sol\":3689:3695  _index */\n      dup3\n        /* \"blockchain/EmployeeContractStorage.sol\":3684:3696  keys[_index] */\n      dup2\n      sload\n      dup2\n      lt\n      iszero\n      iszero\n      tag_57\n      jumpi\n      invalid\n    tag_57:\n      swap1\n      0x0\n      mstore\n      keccak256(0x0, 0x20)\n      add\n      0x0\n      swap1\n      sload\n      swap1\n      0x100\n      exp\n      swap1\n      div\n      0xffffffffffffffffffffffffffffffffffffffff\n      and\n        /* \"blockchain/EmployeeContractStorage.sol\":3677:3696  return keys[_index] */\n      swap1\n      pop\n        /* \"blockchain/EmployeeContractStorage.sol\":3585:3704  function getAddressByIndex(uint _index) \r... */\n      swap2\n      swap1\n      pop\n      jump\t// out\n        /* \"blockchain/EmployeeContractStorage.sol\":2757:3025  function updateMaximumSecondsPerSession(address _employeeAddress, uint _maximumSecondsPerSession)\r... */\n    tag_35:\n        /* \"blockchain/EmployeeContractStorage.sol\":2890:2906  _employeeAddress */\n      dup2\n        /* \"blockchain/EmployeeContractStorage.sol\":571:575  true */\n      0x1\n        /* \"blockchain/EmployeeContractStorage.sol\":530:575  employeeContractsMap[_address].exists == true */\n      iszero\n      iszero\n        /* \"blockchain/EmployeeContractStorage.sol\":530:550  employeeContractsMap */\n      0x1\n        /* \"blockchain/EmployeeContractStorage.sol\":530:560  employeeContractsMap[_address] */\n      0x0\n        /* \"blockchain/EmployeeContractStorage.sol\":551:559  _address */\n      dup4\n        /* \"blockchain/EmployeeContractStorage.sol\":530:560  employeeContractsMap[_address] */\n      0xffffffffffffffffffffffffffffffffffffffff\n      and\n      0xffffffffffffffffffffffffffffffffffffffff\n      and\n      dup2\n      mstore\n      0x20\n      add\n      swap1\n      dup2\n      mstore\n      0x20\n      add\n      0x0\n      keccak256\n        /* \"blockchain/EmployeeContractStorage.sol\":530:567  employeeContractsMap[_address].exists */\n      0x0\n      add\n      0x0\n      swap1\n      sload\n      swap1\n      0x100\n      exp\n      swap1\n      div\n      0xff\n      and\n        /* \"blockchain/EmployeeContractStorage.sol\":530:575  employeeContractsMap[_address].exists == true */\n      iszero\n      iszero\n      eq\n        /* \"blockchain/EmployeeContractStorage.sol\":522:603  require(employeeContractsMap[_address].exists == true, \"Employee does not exist\") */\n      iszero\n      iszero\n      tag_60\n      jumpi\n      mload(0x40)\n      0x8c379a000000000000000000000000000000000000000000000000000000000\n      dup2\n      mstore\n      0x4\n      add\n      dup1\n      dup1\n      0x20\n      add\n      dup3\n      dup2\n      sub\n      dup3\n      mstore\n      0x17\n      dup2\n      mstore\n      0x20\n      add\n      dup1\n      0x456d706c6f79656520646f6573206e6f74206578697374000000000000000000\n      dup2\n      mstore\n      pop\n      0x20\n      add\n      swap2\n      pop\n      pop\n      mload(0x40)\n      dup1\n      swap2\n      sub\n      swap1\n      revert\n    tag_60:\n        /* \"blockchain/EmployeeContractStorage.sol\":2985:3010  _maximumSecondsPerSession */\n      dup2\n        /* \"blockchain/EmployeeContractStorage.sol\":2919:2939  employeeContractsMap */\n      0x1\n        /* \"blockchain/EmployeeContractStorage.sol\":2919:2957  employeeContractsMap[_employeeAddress] */\n      0x0\n        /* \"blockchain/EmployeeContractStorage.sol\":2940:2956  _employeeAddress */\n      dup6\n        /* \"blockchain/EmployeeContractStorage.sol\":2919:2957  employeeContractsMap[_employeeAddress] */\n      0xffffffffffffffffffffffffffffffffffffffff\n      and\n      0xffffffffffffffffffffffffffffffffffffffff\n      and\n      dup2\n      mstore\n      0x20\n      add\n      swap1\n      dup2\n      mstore\n      0x20\n      add\n      0x0\n      keccak256\n        /* \"blockchain/EmployeeContractStorage.sol\":2919:2982  employeeContractsMap[_employeeAddress].maximumSecondsPerSession */\n      0x2\n      add\n        /* \"blockchain/EmployeeContractStorage.sol\":2919:3010  employeeContractsMap[_employeeAddress].maximumSecondsPerSession = _maximumSecondsPerSession */\n      dup2\n      swap1\n      sstore\n      pop\n        /* \"blockchain/EmployeeContractStorage.sol\":2757:3025  function updateMaximumSecondsPerSession(address _employeeAddress, uint _maximumSecondsPerSession)\r... */\n      pop\n      pop\n      pop\n      jump\t// out\n        /* \"blockchain/EmployeeContractStorage.sol\":3070:3289  function readSalaryPerSecond(address _employeeAddress) \r... */\n    tag_38:\n        /* \"blockchain/EmployeeContractStorage.sol\":3203:3207  uint */\n      0x0\n        /* \"blockchain/EmployeeContractStorage.sol\":3161:3177  _employeeAddress */\n      dup2\n        /* \"blockchain/EmployeeContractStorage.sol\":571:575  true */\n      0x1\n        /* \"blockchain/EmployeeContractStorage.sol\":530:575  employeeContractsMap[_address].exists == true */\n      iszero\n      iszero\n        /* \"blockchain/EmployeeContractStorage.sol\":530:550  employeeContractsMap */\n      0x1\n        /* \"blockchain/EmployeeContractStorage.sol\":530:560  employeeContractsMap[_address] */\n      0x0\n        /* \"blockchain/EmployeeContractStorage.sol\":551:559  _address */\n      dup4\n        /* \"blockchain/EmployeeContractStorage.sol\":530:560  employeeContractsMap[_address] */\n      0xffffffffffffffffffffffffffffffffffffffff\n      and\n      0xffffffffffffffffffffffffffffffffffffffff\n      and\n      dup2\n      mstore\n      0x20\n      add\n      swap1\n      dup2\n      mstore\n      0x20\n      add\n      0x0\n      keccak256\n        /* \"blockchain/EmployeeContractStorage.sol\":530:567  employeeContractsMap[_address].exists */\n      0x0\n      add\n      0x0\n      swap1\n      sload\n      swap1\n      0x100\n      exp\n      swap1\n      div\n      0xff\n      and\n        /* \"blockchain/EmployeeContractStorage.sol\":530:575  employeeContractsMap[_address].exists == true */\n      iszero\n      iszero\n      eq\n        /* \"blockchain/EmployeeContractStorage.sol\":522:603  require(employeeContractsMap[_address].exists == true, \"Employee does not exist\") */\n      iszero\n      iszero\n      tag_63\n      jumpi\n      mload(0x40)\n      0x8c379a000000000000000000000000000000000000000000000000000000000\n      dup2\n      mstore\n      0x4\n      add\n      dup1\n      dup1\n      0x20\n      add\n      dup3\n      dup2\n      sub\n      dup3\n      mstore\n      0x17\n      dup2\n      mstore\n      0x20\n      add\n      dup1\n      0x456d706c6f79656520646f6573206e6f74206578697374000000000000000000\n      dup2\n      mstore\n      pop\n      0x20\n      add\n      swap2\n      pop\n      pop\n      mload(0x40)\n      dup1\n      swap2\n      sub\n      swap1\n      revert\n    tag_63:\n        /* \"blockchain/EmployeeContractStorage.sol\":3227:3247  employeeContractsMap */\n      0x1\n        /* \"blockchain/EmployeeContractStorage.sol\":3227:3265  employeeContractsMap[_employeeAddress] */\n      0x0\n        /* \"blockchain/EmployeeContractStorage.sol\":3248:3264  _employeeAddress */\n      dup5\n        /* \"blockchain/EmployeeContractStorage.sol\":3227:3265  employeeContractsMap[_employeeAddress] */\n      0xffffffffffffffffffffffffffffffffffffffff\n      and\n      0xffffffffffffffffffffffffffffffffffffffff\n      and\n      dup2\n      mstore\n      0x20\n      add\n      swap1\n      dup2\n      mstore\n      0x20\n      add\n      0x0\n      keccak256\n        /* \"blockchain/EmployeeContractStorage.sol\":3227:3281  employeeContractsMap[_employeeAddress].salaryPerSecond */\n      0x1\n      add\n      sload\n        /* \"blockchain/EmployeeContractStorage.sol\":3220:3281  return employeeContractsMap[_employeeAddress].salaryPerSecond */\n      swap2\n      pop\n        /* \"blockchain/EmployeeContractStorage.sol\":3070:3289  function readSalaryPerSecond(address _employeeAddress) \r... */\n      pop\n      swap2\n      swap1\n      pop\n      jump\t// out\n        /* \"blockchain/EmployeeContractStorage.sol\":3340:3577  function readMaximumSecondsPerSession(address _employeeAddress) \r... */\n    tag_41:\n        /* \"blockchain/EmployeeContractStorage.sol\":3482:3486  uint */\n      0x0\n        /* \"blockchain/EmployeeContractStorage.sol\":3440:3456  _employeeAddress */\n      dup2\n        /* \"blockchain/EmployeeContractStorage.sol\":571:575  true */\n      0x1\n        /* \"blockchain/EmployeeContractStorage.sol\":530:575  employeeContractsMap[_address].exists == true */\n      iszero\n      iszero\n        /* \"blockchain/EmployeeContractStorage.sol\":530:550  employeeContractsMap */\n      0x1\n        /* \"blockchain/EmployeeContractStorage.sol\":530:560  employeeContractsMap[_address] */\n      0x0\n        /* \"blockchain/EmployeeContractStorage.sol\":551:559  _address */\n      dup4\n        /* \"blockchain/EmployeeContractStorage.sol\":530:560  employeeContractsMap[_address] */\n      0xffffffffffffffffffffffffffffffffffffffff\n      and\n      0xffffffffffffffffffffffffffffffffffffffff\n      and\n      dup2\n      mstore\n      0x20\n      add\n      swap1\n      dup2\n      mstore\n      0x20\n      add\n      0x0\n      keccak256\n        /* \"blockchain/EmployeeContractStorage.sol\":530:567  employeeContractsMap[_address].exists */\n      0x0\n      add\n      0x0\n      swap1\n      sload\n      swap1\n      0x100\n      exp\n      swap1\n      div\n      0xff\n      and\n        /* \"blockchain/EmployeeContractStorage.sol\":530:575  employeeContractsMap[_address].exists == true */\n      iszero\n      iszero\n      eq\n        /* \"blockchain/EmployeeContractStorage.sol\":522:603  require(employeeContractsMap[_address].exists == true, \"Employee does not exist\") */\n      iszero\n      iszero\n      tag_66\n      jumpi\n      mload(0x40)\n      0x8c379a000000000000000000000000000000000000000000000000000000000\n      dup2\n      mstore\n      0x4\n      add\n      dup1\n      dup1\n      0x20\n      add\n      dup3\n      dup2\n      sub\n      dup3\n      mstore\n      0x17\n      dup2\n      mstore\n      0x20\n      add\n      dup1\n      0x456d706c6f79656520646f6573206e6f74206578697374000000000000000000\n      dup2\n      mstore\n      pop\n      0x20\n      add\n      swap2\n      pop\n      pop\n      mload(0x40)\n      dup1\n      swap2\n      sub\n      swap1\n      revert\n    tag_66:\n        /* \"blockchain/EmployeeContractStorage.sol\":3506:3526  employeeContractsMap */\n      0x1\n        /* \"blockchain/EmployeeContractStorage.sol\":3506:3544  employeeContractsMap[_employeeAddress] */\n      0x0\n        /* \"blockchain/EmployeeContractStorage.sol\":3527:3543  _employeeAddress */\n      dup5\n        /* \"blockchain/EmployeeContractStorage.sol\":3506:3544  employeeContractsMap[_employeeAddress] */\n      0xffffffffffffffffffffffffffffffffffffffff\n      and\n      0xffffffffffffffffffffffffffffffffffffffff\n      and\n      dup2\n      mstore\n      0x20\n      add\n      swap1\n      dup2\n      mstore\n      0x20\n      add\n      0x0\n      keccak256\n        /* \"blockchain/EmployeeContractStorage.sol\":3506:3569  employeeContractsMap[_employeeAddress].maximumSecondsPerSession */\n      0x2\n      add\n      sload\n        /* \"blockchain/EmployeeContractStorage.sol\":3499:3569  return employeeContractsMap[_employeeAddress].maximumSecondsPerSession */\n      swap2\n      pop\n        /* \"blockchain/EmployeeContractStorage.sol\":3340:3577  function readMaximumSecondsPerSession(address _employeeAddress) \r... */\n      pop\n      swap2\n      swap1\n      pop\n      jump\t// out\n\n    auxdata: 0xa165627a7a72305820964db689bdd2c75fd337dc6b35de3ca06f6984a4376876a8f499601a9806aaf10029\n}\n",
				"bytecode": {
					"linkReferences": {},
					"object": "608060405234801561001057600080fd5b5060008081905550610dc2806100276000396000f3006080604052600436106100a4576000357c0100000000000000000000000000000000000000000000000000000000900463ffffffff1680631024f223146100a957806312065fe014610104578063155dd5ee1461012f5780635da749551461015c578063888e1d05146101a95780639e757f98146101d4578063ce10cf881461023f578063dbbf65b7146102ac578063f5e369e8146102f9578063fd2b825714610350575b600080fd5b3480156100b557600080fd5b506100ea600480360381019080803573ffffffffffffffffffffffffffffffffffffffff1690602001909291905050506103a7565b604051808215151515815260200191505060405180910390f35b34801561011057600080fd5b50610119610407565b6040518082815260200191505060405180910390f35b34801561013b57600080fd5b5061015a60048036038101908080359060200190929190505050610426565b005b34801561016857600080fd5b506101a7600480360381019080803573ffffffffffffffffffffffffffffffffffffffff1690602001909291908035906020019092919050505061059d565b005b3480156101b557600080fd5b506101be6106b5565b6040518082815260200191505060405180910390f35b3480156101e057600080fd5b50610229600480360381019080803573ffffffffffffffffffffffffffffffffffffffff16906020019092919080359060200190929190803590602001909291905050506106be565b6040518082815260200191505060405180910390f35b34801561024b57600080fd5b5061026a60048036038101908080359060200190929190505050610a09565b604051808273ffffffffffffffffffffffffffffffffffffffff1673ffffffffffffffffffffffffffffffffffffffff16815260200191505060405180910390f35b3480156102b857600080fd5b506102f7600480360381019080803573ffffffffffffffffffffffffffffffffffffffff16906020019092919080359060200190929190505050610a4c565b005b34801561030557600080fd5b5061033a600480360381019080803573ffffffffffffffffffffffffffffffffffffffff169060200190929190505050610b64565b6040518082815260200191505060405180910390f35b34801561035c57600080fd5b50610391600480360381019080803573ffffffffffffffffffffffffffffffffffffffff169060200190929190505050610c7d565b6040518082815260200191505060405180910390f35b600060011515600160008473ffffffffffffffffffffffffffffffffffffffff1673ffffffffffffffffffffffffffffffffffffffff16815260200190815260200160002060000160009054906101000a900460ff161515149050919050565b60003073ffffffffffffffffffffffffffffffffffffffff1631905090565b3073ffffffffffffffffffffffffffffffffffffffff163181111515156104b5576040517f08c379a000000000000000000000000000000000000000000000000000000000815260040180806020018281038252601b8152602001807f4e6f7420656e6f756768206d6f6e657920696e20506179726f6c6c000000000081525060200191505060405180910390fd5b600081111515610553576040517f08c379a00000000000000000000000000000000000000000000000000000000081526004018080602001828103825260218152602001807f5769746864726177696e6720302077696c6c2068617665206e6f20656666656381526020017f740000000000000000000000000000000000000000000000000000000000000081525060400191505060405180910390fd5b3373ffffffffffffffffffffffffffffffffffffffff166108fc829081150290604051600060405180830381858888f19350505050158015610599573d6000803e3d6000fd5b5050565b8160011515600160008373ffffffffffffffffffffffffffffffffffffffff1673ffffffffffffffffffffffffffffffffffffffff16815260200190815260200160002060000160009054906101000a900460ff161515141515610669576040517f08c379a00000000000000000000000000000000000000000000000000000000081526004018080602001828103825260178152602001807f456d706c6f79656520646f6573206e6f7420657869737400000000000000000081525060200191505060405180910390fd5b81600160008573ffffffffffffffffffffffffffffffffffffffff1673ffffffffffffffffffffffffffffffffffffffff16815260200190815260200160002060010181905550505050565b60008054905090565b60008360001515600160008373ffffffffffffffffffffffffffffffffffffffff1673ffffffffffffffffffffffffffffffffffffffff16815260200190815260200160002060000160009054906101000a900460ff16151514151561078c576040517f08c379a00000000000000000000000000000000000000000000000000000000081526004018080602001828103825260178152602001807f456d706c6f79656520616c72656164792065786973747300000000000000000081525060200191505060405180910390fd5b60018060008773ffffffffffffffffffffffffffffffffffffffff1673ffffffffffffffffffffffffffffffffffffffff16815260200190815260200160002060000160006101000a81548160ff02191690831515021790555083600160008773ffffffffffffffffffffffffffffffffffffffff1673ffffffffffffffffffffffffffffffffffffffff1681526020019081526020016000206001018190555082600160008773ffffffffffffffffffffffffffffffffffffffff1673ffffffffffffffffffffffffffffffffffffffff1681526020019081526020016000206002018190555060028590806001815401808255809150509060018203906000526020600020016000909192909190916101000a81548173ffffffffffffffffffffffffffffffffffffffff021916908373ffffffffffffffffffffffffffffffffffffffff160217905550503373ffffffffffffffffffffffffffffffffffffffff167fe95b7c8271f4033de7fc533c968828c5efb3099164a73078a102939c9db7b9fd86600160008973ffffffffffffffffffffffffffffffffffffffff1673ffffffffffffffffffffffffffffffffffffffff16815260200190815260200160002060010154600160008a73ffffffffffffffffffffffffffffffffffffffff1673ffffffffffffffffffffffffffffffffffffffff16815260200190815260200160002060020154604051808473ffffffffffffffffffffffffffffffffffffffff1673ffffffffffffffffffffffffffffffffffffffff168152602001838152602001828152602001935050505060405180910390a260008081548092919060010191905055506001600054039150509392505050565b6000600282815481101515610a1a57fe5b9060005260206000200160009054906101000a900473ffffffffffffffffffffffffffffffffffffffff169050919050565b8160011515600160008373ffffffffffffffffffffffffffffffffffffffff1673ffffffffffffffffffffffffffffffffffffffff16815260200190815260200160002060000160009054906101000a900460ff161515141515610b18576040517f08c379a00000000000000000000000000000000000000000000000000000000081526004018080602001828103825260178152602001807f456d706c6f79656520646f6573206e6f7420657869737400000000000000000081525060200191505060405180910390fd5b81600160008573ffffffffffffffffffffffffffffffffffffffff1673ffffffffffffffffffffffffffffffffffffffff16815260200190815260200160002060020181905550505050565b60008160011515600160008373ffffffffffffffffffffffffffffffffffffffff1673ffffffffffffffffffffffffffffffffffffffff16815260200190815260200160002060000160009054906101000a900460ff161515141515610c32576040517f08c379a00000000000000000000000000000000000000000000000000000000081526004018080602001828103825260178152602001807f456d706c6f79656520646f6573206e6f7420657869737400000000000000000081525060200191505060405180910390fd5b600160008473ffffffffffffffffffffffffffffffffffffffff1673ffffffffffffffffffffffffffffffffffffffff16815260200190815260200160002060010154915050919050565b60008160011515600160008373ffffffffffffffffffffffffffffffffffffffff1673ffffffffffffffffffffffffffffffffffffffff16815260200190815260200160002060000160009054906101000a900460ff161515141515610d4b576040517f08c379a00000000000000000000000000000000000000000000000000000000081526004018080602001828103825260178152602001807f456d706c6f79656520646f6573206e6f7420657869737400000000000000000081525060200191505060405180910390fd5b600160008473ffffffffffffffffffffffffffffffffffffffff1673ffffffffffffffffffffffffffffffffffffffff168152602001908152602001600020600201549150509190505600a165627a7a72305820964db689bdd2c75fd337dc6b35de3ca06f6984a4376876a8f499601a9806aaf10029",
					"opcodes": "PUSH1 0x80 PUSH1 0x40 MSTORE CALLVALUE DUP1 ISZERO PUSH2 0x10 JUMPI PUSH1 0x0 DUP1 REVERT JUMPDEST POP PUSH1 0x0 DUP1 DUP2 SWAP1 SSTORE POP PUSH2 0xDC2 DUP1 PUSH2 0x27 PUSH1 0x0 CODECOPY PUSH1 0x0 RETURN STOP PUSH1 0x80 PUSH1 0x40 MSTORE PUSH1 0x4 CALLDATASIZE LT PUSH2 0xA4 JUMPI PUSH1 0x0 CALLDATALOAD PUSH29 0x100000000000000000000000000000000000000000000000000000000 SWAP1 DIV PUSH4 0xFFFFFFFF AND DUP1 PUSH4 0x1024F223 EQ PUSH2 0xA9 JUMPI DUP1 PUSH4 0x12065FE0 EQ PUSH2 0x104 JUMPI DUP1 PUSH4 0x155DD5EE EQ PUSH2 0x12F JUMPI DUP1 PUSH4 0x5DA74955 EQ PUSH2 0x15C JUMPI DUP1 PUSH4 0x888E1D05 EQ PUSH2 0x1A9 JUMPI DUP1 PUSH4 0x9E757F98 EQ PUSH2 0x1D4 JUMPI DUP1 PUSH4 0xCE10CF88 EQ PUSH2 0x23F JUMPI DUP1 PUSH4 0xDBBF65B7 EQ PUSH2 0x2AC JUMPI DUP1 PUSH4 0xF5E369E8 EQ PUSH2 0x2F9 JUMPI DUP1 PUSH4 0xFD2B8257 EQ PUSH2 0x350 JUMPI JUMPDEST PUSH1 0x0 DUP1 REVERT JUMPDEST CALLVALUE DUP1 ISZERO PUSH2 0xB5 JUMPI PUSH1 0x0 DUP1 REVERT JUMPDEST POP PUSH2 0xEA PUSH1 0x4 DUP1 CALLDATASIZE SUB DUP2 ADD SWAP1 DUP1 DUP1 CALLDATALOAD PUSH20 0xFFFFFFFFFFFFFFFFFFFFFFFFFFFFFFFFFFFFFFFF AND SWAP1 PUSH1 0x20 ADD SWAP1 SWAP3 SWAP2 SWAP1 POP POP POP PUSH2 0x3A7 JUMP JUMPDEST PUSH1 0x40 MLOAD DUP1 DUP3 ISZERO ISZERO ISZERO ISZERO DUP2 MSTORE PUSH1 0x20 ADD SWAP2 POP POP PUSH1 0x40 MLOAD DUP1 SWAP2 SUB SWAP1 RETURN JUMPDEST CALLVALUE DUP1 ISZERO PUSH2 0x110 JUMPI PUSH1 0x0 DUP1 REVERT JUMPDEST POP PUSH2 0x119 PUSH2 0x407 JUMP JUMPDEST PUSH1 0x40 MLOAD DUP1 DUP3 DUP2 MSTORE PUSH1 0x20 ADD SWAP2 POP POP PUSH1 0x40 MLOAD DUP1 SWAP2 SUB SWAP1 RETURN JUMPDEST CALLVALUE DUP1 ISZERO PUSH2 0x13B JUMPI PUSH1 0x0 DUP1 REVERT JUMPDEST POP PUSH2 0x15A PUSH1 0x4 DUP1 CALLDATASIZE SUB DUP2 ADD SWAP1 DUP1 DUP1 CALLDATALOAD SWAP1 PUSH1 0x20 ADD SWAP1 SWAP3 SWAP2 SWAP1 POP POP POP PUSH2 0x426 JUMP JUMPDEST STOP JUMPDEST CALLVALUE DUP1 ISZERO PUSH2 0x168 JUMPI PUSH1 0x0 DUP1 REVERT JUMPDEST POP PUSH2 0x1A7 PUSH1 0x4 DUP1 CALLDATASIZE SUB DUP2 ADD SWAP1 DUP1 DUP1 CALLDATALOAD PUSH20 0xFFFFFFFFFFFFFFFFFFFFFFFFFFFFFFFFFFFFFFFF AND SWAP1 PUSH1 0x20 ADD SWAP1 SWAP3 SWAP2 SWAP1 DUP1 CALLDATALOAD SWAP1 PUSH1 0x20 ADD SWAP1 SWAP3 SWAP2 SWAP1 POP POP POP PUSH2 0x59D JUMP JUMPDEST STOP JUMPDEST CALLVALUE DUP1 ISZERO PUSH2 0x1B5 JUMPI PUSH1 0x0 DUP1 REVERT JUMPDEST POP PUSH2 0x1BE PUSH2 0x6B5 JUMP JUMPDEST PUSH1 0x40 MLOAD DUP1 DUP3 DUP2 MSTORE PUSH1 0x20 ADD SWAP2 POP POP PUSH1 0x40 MLOAD DUP1 SWAP2 SUB SWAP1 RETURN JUMPDEST CALLVALUE DUP1 ISZERO PUSH2 0x1E0 JUMPI PUSH1 0x0 DUP1 REVERT JUMPDEST POP PUSH2 0x229 PUSH1 0x4 DUP1 CALLDATASIZE SUB DUP2 ADD SWAP1 DUP1 DUP1 CALLDATALOAD PUSH20 0xFFFFFFFFFFFFFFFFFFFFFFFFFFFFFFFFFFFFFFFF AND SWAP1 PUSH1 0x20 ADD SWAP1 SWAP3 SWAP2 SWAP1 DUP1 CALLDATALOAD SWAP1 PUSH1 0x20 ADD SWAP1 SWAP3 SWAP2 SWAP1 DUP1 CALLDATALOAD SWAP1 PUSH1 0x20 ADD SWAP1 SWAP3 SWAP2 SWAP1 POP POP POP PUSH2 0x6BE JUMP JUMPDEST PUSH1 0x40 MLOAD DUP1 DUP3 DUP2 MSTORE PUSH1 0x20 ADD SWAP2 POP POP PUSH1 0x40 MLOAD DUP1 SWAP2 SUB SWAP1 RETURN JUMPDEST CALLVALUE DUP1 ISZERO PUSH2 0x24B JUMPI PUSH1 0x0 DUP1 REVERT JUMPDEST POP PUSH2 0x26A PUSH1 0x4 DUP1 CALLDATASIZE SUB DUP2 ADD SWAP1 DUP1 DUP1 CALLDATALOAD SWAP1 PUSH1 0x20 ADD SWAP1 SWAP3 SWAP2 SWAP1 POP POP POP PUSH2 0xA09 JUMP JUMPDEST PUSH1 0x40 MLOAD DUP1 DUP3 PUSH20 0xFFFFFFFFFFFFFFFFFFFFFFFFFFFFFFFFFFFFFFFF AND PUSH20 0xFFFFFFFFFFFFFFFFFFFFFFFFFFFFFFFFFFFFFFFF AND DUP2 MSTORE PUSH1 0x20 ADD SWAP2 POP POP PUSH1 0x40 MLOAD DUP1 SWAP2 SUB SWAP1 RETURN JUMPDEST CALLVALUE DUP1 ISZERO PUSH2 0x2B8 JUMPI PUSH1 0x0 DUP1 REVERT JUMPDEST POP PUSH2 0x2F7 PUSH1 0x4 DUP1 CALLDATASIZE SUB DUP2 ADD SWAP1 DUP1 DUP1 CALLDATALOAD PUSH20 0xFFFFFFFFFFFFFFFFFFFFFFFFFFFFFFFFFFFFFFFF AND SWAP1 PUSH1 0x20 ADD SWAP1 SWAP3 SWAP2 SWAP1 DUP1 CALLDATALOAD SWAP1 PUSH1 0x20 ADD SWAP1 SWAP3 SWAP2 SWAP1 POP POP POP PUSH2 0xA4C JUMP JUMPDEST STOP JUMPDEST CALLVALUE DUP1 ISZERO PUSH2 0x305 JUMPI PUSH1 0x0 DUP1 REVERT JUMPDEST POP PUSH2 0x33A PUSH1 0x4 DUP1 CALLDATASIZE SUB DUP2 ADD SWAP1 DUP1 DUP1 CALLDATALOAD PUSH20 0xFFFFFFFFFFFFFFFFFFFFFFFFFFFFFFFFFFFFFFFF AND SWAP1 PUSH1 0x20 ADD SWAP1 SWAP3 SWAP2 SWAP1 POP POP POP PUSH2 0xB64 JUMP JUMPDEST PUSH1 0x40 MLOAD DUP1 DUP3 DUP2 MSTORE PUSH1 0x20 ADD SWAP2 POP POP PUSH1 0x40 MLOAD DUP1 SWAP2 SUB SWAP1 RETURN JUMPDEST CALLVALUE DUP1 ISZERO PUSH2 0x35C JUMPI PUSH1 0x0 DUP1 REVERT JUMPDEST POP PUSH2 0x391 PUSH1 0x4 DUP1 CALLDATASIZE SUB DUP2 ADD SWAP1 DUP1 DUP1 CALLDATALOAD PUSH20 0xFFFFFFFFFFFFFFFFFFFFFFFFFFFFFFFFFFFFFFFF AND SWAP1 PUSH1 0x20 ADD SWAP1 SWAP3 SWAP2 SWAP1 POP POP POP PUSH2 0xC7D JUMP JUMPDEST PUSH1 0x40 MLOAD DUP1 DUP3 DUP2 MSTORE PUSH1 0x20 ADD SWAP2 POP POP PUSH1 0x40 MLOAD DUP1 SWAP2 SUB SWAP1 RETURN JUMPDEST PUSH1 0x0 PUSH1 0x1 ISZERO ISZERO PUSH1 0x1 PUSH1 0x0 DUP5 PUSH20 0xFFFFFFFFFFFFFFFFFFFFFFFFFFFFFFFFFFFFFFFF AND PUSH20 0xFFFFFFFFFFFFFFFFFFFFFFFFFFFFFFFFFFFFFFFF AND DUP2 MSTORE PUSH1 0x20 ADD SWAP1 DUP2 MSTORE PUSH1 0x20 ADD PUSH1 0x0 KECCAK256 PUSH1 0x0 ADD PUSH1 0x0 SWAP1 SLOAD SWAP1 PUSH2 0x100 EXP SWAP1 DIV PUSH1 0xFF AND ISZERO ISZERO EQ SWAP1 POP SWAP2 SWAP1 POP JUMP JUMPDEST PUSH1 0x0 ADDRESS PUSH20 0xFFFFFFFFFFFFFFFFFFFFFFFFFFFFFFFFFFFFFFFF AND BALANCE SWAP1 POP SWAP1 JUMP JUMPDEST ADDRESS PUSH20 0xFFFFFFFFFFFFFFFFFFFFFFFFFFFFFFFFFFFFFFFF AND BALANCE DUP2 GT ISZERO ISZERO ISZERO PUSH2 0x4B5 JUMPI PUSH1 0x40 MLOAD PUSH32 0x8C379A000000000000000000000000000000000000000000000000000000000 DUP2 MSTORE PUSH1 0x4 ADD DUP1 DUP1 PUSH1 0x20 ADD DUP3 DUP2 SUB DUP3 MSTORE PUSH1 0x1B DUP2 MSTORE PUSH1 0x20 ADD DUP1 PUSH32 0x4E6F7420656E6F756768206D6F6E657920696E20506179726F6C6C0000000000 DUP2 MSTORE POP PUSH1 0x20 ADD SWAP2 POP POP PUSH1 0x40 MLOAD DUP1 SWAP2 SUB SWAP1 REVERT JUMPDEST PUSH1 0x0 DUP2 GT ISZERO ISZERO PUSH2 0x553 JUMPI PUSH1 0x40 MLOAD PUSH32 0x8C379A000000000000000000000000000000000000000000000000000000000 DUP2 MSTORE PUSH1 0x4 ADD DUP1 DUP1 PUSH1 0x20 ADD DUP3 DUP2 SUB DUP3 MSTORE PUSH1 0x21 DUP2 MSTORE PUSH1 0x20 ADD DUP1 PUSH32 0x5769746864726177696E6720302077696C6C2068617665206E6F206566666563 DUP2 MSTORE PUSH1 0x20 ADD PUSH32 0x7400000000000000000000000000000000000000000000000000000000000000 DUP2 MSTORE POP PUSH1 0x40 ADD SWAP2 POP POP PUSH1 0x40 MLOAD DUP1 SWAP2 SUB SWAP1 REVERT JUMPDEST CALLER PUSH20 0xFFFFFFFFFFFFFFFFFFFFFFFFFFFFFFFFFFFFFFFF AND PUSH2 0x8FC DUP3 SWAP1 DUP2 ISZERO MUL SWAP1 PUSH1 0x40 MLOAD PUSH1 0x0 PUSH1 0x40 MLOAD DUP1 DUP4 SUB DUP2 DUP6 DUP9 DUP9 CALL SWAP4 POP POP POP POP ISZERO DUP1 ISZERO PUSH2 0x599 JUMPI RETURNDATASIZE PUSH1 0x0 DUP1 RETURNDATACOPY RETURNDATASIZE PUSH1 0x0 REVERT JUMPDEST POP POP JUMP JUMPDEST DUP2 PUSH1 0x1 ISZERO ISZERO PUSH1 0x1 PUSH1 0x0 DUP4 PUSH20 0xFFFFFFFFFFFFFFFFFFFFFFFFFFFFFFFFFFFFFFFF AND PUSH20 0xFFFFFFFFFFFFFFFFFFFFFFFFFFFFFFFFFFFFFFFF AND DUP2 MSTORE PUSH1 0x20 ADD SWAP1 DUP2 MSTORE PUSH1 0x20 ADD PUSH1 0x0 KECCAK256 PUSH1 0x0 ADD PUSH1 0x0 SWAP1 SLOAD SWAP1 PUSH2 0x100 EXP SWAP1 DIV PUSH1 0xFF AND ISZERO ISZERO EQ ISZERO ISZERO PUSH2 0x669 JUMPI PUSH1 0x40 MLOAD PUSH32 0x8C379A000000000000000000000000000000000000000000000000000000000 DUP2 MSTORE PUSH1 0x4 ADD DUP1 DUP1 PUSH1 0x20 ADD DUP3 DUP2 SUB DUP3 MSTORE PUSH1 0x17 DUP2 MSTORE PUSH1 0x20 ADD DUP1 PUSH32 0x456D706C6F79656520646F6573206E6F74206578697374000000000000000000 DUP2 MSTORE POP PUSH1 0x20 ADD SWAP2 POP POP PUSH1 0x40 MLOAD DUP1 SWAP2 SUB SWAP1 REVERT JUMPDEST DUP2 PUSH1 0x1 PUSH1 0x0 DUP6 PUSH20 0xFFFFFFFFFFFFFFFFFFFFFFFFFFFFFFFFFFFFFFFF AND PUSH20 0xFFFFFFFFFFFFFFFFFFFFFFFFFFFFFFFFFFFFFFFF AND DUP2 MSTORE PUSH1 0x20 ADD SWAP1 DUP2 MSTORE PUSH1 0x20 ADD PUSH1 0x0 KECCAK256 PUSH1 0x1 ADD DUP2 SWAP1 SSTORE POP POP POP POP JUMP JUMPDEST PUSH1 0x0 DUP1 SLOAD SWAP1 POP SWAP1 JUMP JUMPDEST PUSH1 0x0 DUP4 PUSH1 0x0 ISZERO ISZERO PUSH1 0x1 PUSH1 0x0 DUP4 PUSH20 0xFFFFFFFFFFFFFFFFFFFFFFFFFFFFFFFFFFFFFFFF AND PUSH20 0xFFFFFFFFFFFFFFFFFFFFFFFFFFFFFFFFFFFFFFFF AND DUP2 MSTORE PUSH1 0x20 ADD SWAP1 DUP2 MSTORE PUSH1 0x20 ADD PUSH1 0x0 KECCAK256 PUSH1 0x0 ADD PUSH1 0x0 SWAP1 SLOAD SWAP1 PUSH2 0x100 EXP SWAP1 DIV PUSH1 0xFF AND ISZERO ISZERO EQ ISZERO ISZERO PUSH2 0x78C JUMPI PUSH1 0x40 MLOAD PUSH32 0x8C379A000000000000000000000000000000000000000000000000000000000 DUP2 MSTORE PUSH1 0x4 ADD DUP1 DUP1 PUSH1 0x20 ADD DUP3 DUP2 SUB DUP3 MSTORE PUSH1 0x17 DUP2 MSTORE PUSH1 0x20 ADD DUP1 PUSH32 0x456D706C6F79656520616C726561647920657869737473000000000000000000 DUP2 MSTORE POP PUSH1 0x20 ADD SWAP2 POP POP PUSH1 0x40 MLOAD DUP1 SWAP2 SUB SWAP1 REVERT JUMPDEST PUSH1 0x1 DUP1 PUSH1 0x0 DUP8 PUSH20 0xFFFFFFFFFFFFFFFFFFFFFFFFFFFFFFFFFFFFFFFF AND PUSH20 0xFFFFFFFFFFFFFFFFFFFFFFFFFFFFFFFFFFFFFFFF AND DUP2 MSTORE PUSH1 0x20 ADD SWAP1 DUP2 MSTORE PUSH1 0x20 ADD PUSH1 0x0 KECCAK256 PUSH1 0x0 ADD PUSH1 0x0 PUSH2 0x100 EXP DUP2 SLOAD DUP2 PUSH1 0xFF MUL NOT AND SWAP1 DUP4 ISZERO ISZERO MUL OR SWAP1 SSTORE POP DUP4 PUSH1 0x1 PUSH1 0x0 DUP8 PUSH20 0xFFFFFFFFFFFFFFFFFFFFFFFFFFFFFFFFFFFFFFFF AND PUSH20 0xFFFFFFFFFFFFFFFFFFFFFFFFFFFFFFFFFFFFFFFF AND DUP2 MSTORE PUSH1 0x20 ADD SWAP1 DUP2 MSTORE PUSH1 0x20 ADD PUSH1 0x0 KECCAK256 PUSH1 0x1 ADD DUP2 SWAP1 SSTORE POP DUP3 PUSH1 0x1 PUSH1 0x0 DUP8 PUSH20 0xFFFFFFFFFFFFFFFFFFFFFFFFFFFFFFFFFFFFFFFF AND PUSH20 0xFFFFFFFFFFFFFFFFFFFFFFFFFFFFFFFFFFFFFFFF AND DUP2 MSTORE PUSH1 0x20 ADD SWAP1 DUP2 MSTORE PUSH1 0x20 ADD PUSH1 0x0 KECCAK256 PUSH1 0x2 ADD DUP2 SWAP1 SSTORE POP PUSH1 0x2 DUP6 SWAP1 DUP1 PUSH1 0x1 DUP2 SLOAD ADD DUP1 DUP3 SSTORE DUP1 SWAP2 POP POP SWAP1 PUSH1 0x1 DUP3 SUB SWAP1 PUSH1 0x0 MSTORE PUSH1 0x20 PUSH1 0x0 KECCAK256 ADD PUSH1 0x0 SWAP1 SWAP2 SWAP3 SWAP1 SWAP2 SWAP1 SWAP2 PUSH2 0x100 EXP DUP2 SLOAD DUP2 PUSH20 0xFFFFFFFFFFFFFFFFFFFFFFFFFFFFFFFFFFFFFFFF MUL NOT AND SWAP1 DUP4 PUSH20 0xFFFFFFFFFFFFFFFFFFFFFFFFFFFFFFFFFFFFFFFF AND MUL OR SWAP1 SSTORE POP POP CALLER PUSH20 0xFFFFFFFFFFFFFFFFFFFFFFFFFFFFFFFFFFFFFFFF AND PUSH32 0xE95B7C8271F4033DE7FC533C968828C5EFB3099164A73078A102939C9DB7B9FD DUP7 PUSH1 0x1 PUSH1 0x0 DUP10 PUSH20 0xFFFFFFFFFFFFFFFFFFFFFFFFFFFFFFFFFFFFFFFF AND PUSH20 0xFFFFFFFFFFFFFFFFFFFFFFFFFFFFFFFFFFFFFFFF AND DUP2 MSTORE PUSH1 0x20 ADD SWAP1 DUP2 MSTORE PUSH1 0x20 ADD PUSH1 0x0 KECCAK256 PUSH1 0x1 ADD SLOAD PUSH1 0x1 PUSH1 0x0 DUP11 PUSH20 0xFFFFFFFFFFFFFFFFFFFFFFFFFFFFFFFFFFFFFFFF AND PUSH20 0xFFFFFFFFFFFFFFFFFFFFFFFFFFFFFFFFFFFFFFFF AND DUP2 MSTORE PUSH1 0x20 ADD SWAP1 DUP2 MSTORE PUSH1 0x20 ADD PUSH1 0x0 KECCAK256 PUSH1 0x2 ADD SLOAD PUSH1 0x40 MLOAD DUP1 DUP5 PUSH20 0xFFFFFFFFFFFFFFFFFFFFFFFFFFFFFFFFFFFFFFFF AND PUSH20 0xFFFFFFFFFFFFFFFFFFFFFFFFFFFFFFFFFFFFFFFF AND DUP2 MSTORE PUSH1 0x20 ADD DUP4 DUP2 MSTORE PUSH1 0x20 ADD DUP3 DUP2 MSTORE PUSH1 0x20 ADD SWAP4 POP POP POP POP PUSH1 0x40 MLOAD DUP1 SWAP2 SUB SWAP1 LOG2 PUSH1 0x0 DUP1 DUP2 SLOAD DUP1 SWAP3 SWAP2 SWAP1 PUSH1 0x1 ADD SWAP2 SWAP1 POP SSTORE POP PUSH1 0x1 PUSH1 0x0 SLOAD SUB SWAP2 POP POP SWAP4 SWAP3 POP POP POP JUMP JUMPDEST PUSH1 0x0 PUSH1 0x2 DUP3 DUP2 SLOAD DUP2 LT ISZERO ISZERO PUSH2 0xA1A JUMPI INVALID JUMPDEST SWAP1 PUSH1 0x0 MSTORE PUSH1 0x20 PUSH1 0x0 KECCAK256 ADD PUSH1 0x0 SWAP1 SLOAD SWAP1 PUSH2 0x100 EXP SWAP1 DIV PUSH20 0xFFFFFFFFFFFFFFFFFFFFFFFFFFFFFFFFFFFFFFFF AND SWAP1 POP SWAP2 SWAP1 POP JUMP JUMPDEST DUP2 PUSH1 0x1 ISZERO ISZERO PUSH1 0x1 PUSH1 0x0 DUP4 PUSH20 0xFFFFFFFFFFFFFFFFFFFFFFFFFFFFFFFFFFFFFFFF AND PUSH20 0xFFFFFFFFFFFFFFFFFFFFFFFFFFFFFFFFFFFFFFFF AND DUP2 MSTORE PUSH1 0x20 ADD SWAP1 DUP2 MSTORE PUSH1 0x20 ADD PUSH1 0x0 KECCAK256 PUSH1 0x0 ADD PUSH1 0x0 SWAP1 SLOAD SWAP1 PUSH2 0x100 EXP SWAP1 DIV PUSH1 0xFF AND ISZERO ISZERO EQ ISZERO ISZERO PUSH2 0xB18 JUMPI PUSH1 0x40 MLOAD PUSH32 0x8C379A000000000000000000000000000000000000000000000000000000000 DUP2 MSTORE PUSH1 0x4 ADD DUP1 DUP1 PUSH1 0x20 ADD DUP3 DUP2 SUB DUP3 MSTORE PUSH1 0x17 DUP2 MSTORE PUSH1 0x20 ADD DUP1 PUSH32 0x456D706C6F79656520646F6573206E6F74206578697374000000000000000000 DUP2 MSTORE POP PUSH1 0x20 ADD SWAP2 POP POP PUSH1 0x40 MLOAD DUP1 SWAP2 SUB SWAP1 REVERT JUMPDEST DUP2 PUSH1 0x1 PUSH1 0x0 DUP6 PUSH20 0xFFFFFFFFFFFFFFFFFFFFFFFFFFFFFFFFFFFFFFFF AND PUSH20 0xFFFFFFFFFFFFFFFFFFFFFFFFFFFFFFFFFFFFFFFF AND DUP2 MSTORE PUSH1 0x20 ADD SWAP1 DUP2 MSTORE PUSH1 0x20 ADD PUSH1 0x0 KECCAK256 PUSH1 0x2 ADD DUP2 SWAP1 SSTORE POP POP POP POP JUMP JUMPDEST PUSH1 0x0 DUP2 PUSH1 0x1 ISZERO ISZERO PUSH1 0x1 PUSH1 0x0 DUP4 PUSH20 0xFFFFFFFFFFFFFFFFFFFFFFFFFFFFFFFFFFFFFFFF AND PUSH20 0xFFFFFFFFFFFFFFFFFFFFFFFFFFFFFFFFFFFFFFFF AND DUP2 MSTORE PUSH1 0x20 ADD SWAP1 DUP2 MSTORE PUSH1 0x20 ADD PUSH1 0x0 KECCAK256 PUSH1 0x0 ADD PUSH1 0x0 SWAP1 SLOAD SWAP1 PUSH2 0x100 EXP SWAP1 DIV PUSH1 0xFF AND ISZERO ISZERO EQ ISZERO ISZERO PUSH2 0xC32 JUMPI PUSH1 0x40 MLOAD PUSH32 0x8C379A000000000000000000000000000000000000000000000000000000000 DUP2 MSTORE PUSH1 0x4 ADD DUP1 DUP1 PUSH1 0x20 ADD DUP3 DUP2 SUB DUP3 MSTORE PUSH1 0x17 DUP2 MSTORE PUSH1 0x20 ADD DUP1 PUSH32 0x456D706C6F79656520646F6573206E6F74206578697374000000000000000000 DUP2 MSTORE POP PUSH1 0x20 ADD SWAP2 POP POP PUSH1 0x40 MLOAD DUP1 SWAP2 SUB SWAP1 REVERT JUMPDEST PUSH1 0x1 PUSH1 0x0 DUP5 PUSH20 0xFFFFFFFFFFFFFFFFFFFFFFFFFFFFFFFFFFFFFFFF AND PUSH20 0xFFFFFFFFFFFFFFFFFFFFFFFFFFFFFFFFFFFFFFFF AND DUP2 MSTORE PUSH1 0x20 ADD SWAP1 DUP2 MSTORE PUSH1 0x20 ADD PUSH1 0x0 KECCAK256 PUSH1 0x1 ADD SLOAD SWAP2 POP POP SWAP2 SWAP1 POP JUMP JUMPDEST PUSH1 0x0 DUP2 PUSH1 0x1 ISZERO ISZERO PUSH1 0x1 PUSH1 0x0 DUP4 PUSH20 0xFFFFFFFFFFFFFFFFFFFFFFFFFFFFFFFFFFFFFFFF AND PUSH20 0xFFFFFFFFFFFFFFFFFFFFFFFFFFFFFFFFFFFFFFFF AND DUP2 MSTORE PUSH1 0x20 ADD SWAP1 DUP2 MSTORE PUSH1 0x20 ADD PUSH1 0x0 KECCAK256 PUSH1 0x0 ADD PUSH1 0x0 SWAP1 SLOAD SWAP1 PUSH2 0x100 EXP SWAP1 DIV PUSH1 0xFF AND ISZERO ISZERO EQ ISZERO ISZERO PUSH2 0xD4B JUMPI PUSH1 0x40 MLOAD PUSH32 0x8C379A000000000000000000000000000000000000000000000000000000000 DUP2 MSTORE PUSH1 0x4 ADD DUP1 DUP1 PUSH1 0x20 ADD DUP3 DUP2 SUB DUP3 MSTORE PUSH1 0x17 DUP2 MSTORE PUSH1 0x20 ADD DUP1 PUSH32 0x456D706C6F79656520646F6573206E6F74206578697374000000000000000000 DUP2 MSTORE POP PUSH1 0x20 ADD SWAP2 POP POP PUSH1 0x40 MLOAD DUP1 SWAP2 SUB SWAP1 REVERT JUMPDEST PUSH1 0x1 PUSH1 0x0 DUP5 PUSH20 0xFFFFFFFFFFFFFFFFFFFFFFFFFFFFFFFFFFFFFFFF AND PUSH20 0xFFFFFFFFFFFFFFFFFFFFFFFFFFFFFFFFFFFFFFFF AND DUP2 MSTORE PUSH1 0x20 ADD SWAP1 DUP2 MSTORE PUSH1 0x20 ADD PUSH1 0x0 KECCAK256 PUSH1 0x2 ADD SLOAD SWAP2 POP POP SWAP2 SWAP1 POP JUMP STOP LOG1 PUSH6 0x627A7A723058 KECCAK256 SWAP7 0x4d 0xb6 DUP10 0xbd 0xd2 0xc7 0x5f 0xd3 CALLDATACOPY 0xdc PUSH12 0x35DE3CA06F6984A4376876A8 DELEGATECALL SWAP10 PUSH1 0x1A SWAP9 MOD 0xaa CALL STOP 0x29 "
				},
				"gasEstimates": {
					"creation": {
						"codeDepositCost": "704400",
						"executionCost": "5755",
						"totalCost": "710155"
					},
					"external": {
						"createEmployeeContract(address,uint256,uint256)": "125034",
						"employeeExists(address)": "631",
						"getAddressByIndex(uint256)": "929",
						"getBalance()": "629",
						"getNumberOfEmployees()": "490",
						"readMaximumSecondsPerSession(address)": "1141",
						"readSalaryPerSecond(address)": "1119",
						"updateMaximumSecondsPerSession(address,uint256)": "20868",
						"updateSalaryPerSecond(address,uint256)": "20780",
						"withdrawFunds(uint256)": "infinite"
					}
				},
				"methodIdentifiers": {
					"createEmployeeContract(address,uint256,uint256)": "9e757f98",
					"employeeExists(address)": "1024f223",
					"getAddressByIndex(uint256)": "ce10cf88",
					"getBalance()": "12065fe0",
					"getNumberOfEmployees()": "888e1d05",
					"readMaximumSecondsPerSession(address)": "fd2b8257",
					"readSalaryPerSecond(address)": "f5e369e8",
					"updateMaximumSecondsPerSession(address,uint256)": "dbbf65b7",
					"updateSalaryPerSecond(address,uint256)": "5da74955",
					"withdrawFunds(uint256)": "155dd5ee"
				}
			},
			"userdoc": {
				"methods": {}
			}
		}
	}
}