{
	"blockchain/OneTimeChannel.sol": {
		"OneTimeChannel": {
			"abi": [
				{
					"constant": false,
					"inputs": [
						{
							"name": "_hash",
							"type": "bytes32"
						},
						{
							"name": "_sig",
							"type": "bytes"
						},
						{
							"name": "value",
							"type": "uint256"
						}
					],
					"name": "closeChannel",
					"outputs": [],
					"payable": false,
					"stateMutability": "nonpayable",
					"type": "function"
				},
				{
					"constant": false,
					"inputs": [],
					"name": "timeOutChannel",
					"outputs": [],
					"payable": false,
					"stateMutability": "nonpayable",
					"type": "function"
				},
				{
					"constant": true,
					"inputs": [
						{
							"name": "_hash",
							"type": "bytes32"
						},
						{
							"name": "_sig",
							"type": "bytes"
						}
					],
					"name": "getChannelParties",
					"outputs": [
						{
							"name": "",
							"type": "address"
						},
						{
							"name": "",
							"type": "address"
						},
						{
							"name": "",
							"type": "address"
						},
						{
							"name": "",
							"type": "address"
						}
					],
					"payable": false,
					"stateMutability": "view",
					"type": "function"
				},
				{
					"inputs": [
						{
							"name": "_opener",
							"type": "address"
						},
						{
							"name": "_remainingBalanceWallet",
							"type": "address"
						},
						{
							"name": "_paymentReceiverWallet",
							"type": "address"
						},
						{
							"name": "_timeout",
							"type": "uint256"
						}
					],
					"payable": true,
					"stateMutability": "payable",
					"type": "constructor"
				}
			],
			"devdoc": {
				"methods": {}
			},
			"evm": {
				"assembly": "    /* \"blockchain/OneTimeChannel.sol\":65:2517  contract OneTimeChannel {\r... */\n  mstore(0x40, 0x80)\n    /* \"blockchain/OneTimeChannel.sol\":297:673  constructor (address _opener, address _remainingBalanceWallet, address _paymentReceiverWallet, \r... */\n  mload(0x40)\n  0x80\n  dup1\n  bytecodeSize\n  dup4\n  codecopy\n  dup2\n  add\n  dup1\n  0x40\n  mstore\n  dup2\n  add\n  swap1\n  dup1\n  dup1\n  mload\n  swap1\n  0x20\n  add\n  swap1\n  swap3\n  swap2\n  swap1\n  dup1\n  mload\n  swap1\n  0x20\n  add\n  swap1\n  swap3\n  swap2\n  swap1\n  dup1\n  mload\n  swap1\n  0x20\n  add\n  swap1\n  swap3\n  swap2\n  swap1\n  dup1\n  mload\n  swap1\n  0x20\n  add\n  swap1\n  swap3\n  swap2\n  swap1\n  pop\n  pop\n  pop\n    /* \"blockchain/OneTimeChannel.sol\":473:480  _opener */\n  dup4\n    /* \"blockchain/OneTimeChannel.sol\":457:470  channelOpener */\n  0x0\n  dup1\n    /* \"blockchain/OneTimeChannel.sol\":457:480  channelOpener = _opener */\n  0x100\n  exp\n  dup2\n  sload\n  dup2\n  0xffffffffffffffffffffffffffffffffffffffff\n  mul\n  not\n  and\n  swap1\n  dup4\n  0xffffffffffffffffffffffffffffffffffffffff\n  and\n  mul\n  or\n  swap1\n  sstore\n  pop\n    /* \"blockchain/OneTimeChannel.sol\":516:539  _remainingBalanceWallet */\n  dup3\n    /* \"blockchain/OneTimeChannel.sol\":491:513  remainingBalanceWallet */\n  0x1\n  0x0\n    /* \"blockchain/OneTimeChannel.sol\":491:539  remainingBalanceWallet = _remainingBalanceWallet */\n  0x100\n  exp\n  dup2\n  sload\n  dup2\n  0xffffffffffffffffffffffffffffffffffffffff\n  mul\n  not\n  and\n  swap1\n  dup4\n  0xffffffffffffffffffffffffffffffffffffffff\n  and\n  mul\n  or\n  swap1\n  sstore\n  pop\n    /* \"blockchain/OneTimeChannel.sol\":574:596  _paymentReceiverWallet */\n  dup2\n    /* \"blockchain/OneTimeChannel.sol\":550:571  paymentReceiverWallet */\n  0x2\n  0x0\n    /* \"blockchain/OneTimeChannel.sol\":550:596  paymentReceiverWallet = _paymentReceiverWallet */\n  0x100\n  exp\n  dup2\n  sload\n  dup2\n  0xffffffffffffffffffffffffffffffffffffffff\n  mul\n  not\n  and\n  swap1\n  dup4\n  0xffffffffffffffffffffffffffffffffffffffff\n  and\n  mul\n  or\n  swap1\n  sstore\n  pop\n    /* \"blockchain/OneTimeChannel.sol\":630:638  _timeout */\n  dup1\n    /* \"blockchain/OneTimeChannel.sol\":624:627  now */\n  timestamp\n    /* \"blockchain/OneTimeChannel.sol\":624:638  now + _timeout */\n  add\n    /* \"blockchain/OneTimeChannel.sol\":607:621  expirationDate */\n  0x3\n    /* \"blockchain/OneTimeChannel.sol\":607:638  expirationDate = now + _timeout */\n  dup2\n  swap1\n  sstore\n  pop\n    /* \"blockchain/OneTimeChannel.sol\":660:665  false */\n  0x0\n    /* \"blockchain/OneTimeChannel.sol\":649:657  isClosed */\n  0x5\n  0x0\n    /* \"blockchain/OneTimeChannel.sol\":649:665  isClosed = false */\n  0x100\n  exp\n  dup2\n  sload\n  dup2\n  0xff\n  mul\n  not\n  and\n  swap1\n  dup4\n  iszero\n  iszero\n  mul\n  or\n  swap1\n  sstore\n  pop\n    /* \"blockchain/OneTimeChannel.sol\":297:673  constructor (address _opener, address _remainingBalanceWallet, address _paymentReceiverWallet, \r... */\n  pop\n  pop\n  pop\n  pop\n    /* \"blockchain/OneTimeChannel.sol\":65:2517  contract OneTimeChannel {\r... */\n  dataSize(sub_0)\n  dup1\n  dataOffset(sub_0)\n  0x0\n  codecopy\n  0x0\n  return\nstop\n\nsub_0: assembly {\n        /* \"blockchain/OneTimeChannel.sol\":65:2517  contract OneTimeChannel {\r... */\n      mstore(0x40, 0x80)\n      jumpi(tag_1, lt(calldatasize, 0x4))\n      calldataload(0x0)\n      0x100000000000000000000000000000000000000000000000000000000\n      swap1\n      div\n      0xffffffff\n      and\n      dup1\n      0x5b73a86d\n      eq\n      tag_2\n      jumpi\n      dup1\n      0x71a97d13\n      eq\n      tag_3\n      jumpi\n      dup1\n      0xbb3ee2fb\n      eq\n      tag_4\n      jumpi\n    tag_1:\n      0x0\n      dup1\n      revert\n        /* \"blockchain/OneTimeChannel.sol\":910:1902  function closeChannel(bytes32 _hash, bytes _sig, uint value) \r... */\n    tag_2:\n      callvalue\n        /* \"--CODEGEN--\":8:17   */\n      dup1\n        /* \"--CODEGEN--\":5:7   */\n      iszero\n      tag_5\n      jumpi\n        /* \"--CODEGEN--\":30:31   */\n      0x0\n        /* \"--CODEGEN--\":27:28   */\n      dup1\n        /* \"--CODEGEN--\":20:32   */\n      revert\n        /* \"--CODEGEN--\":5:7   */\n    tag_5:\n        /* \"blockchain/OneTimeChannel.sol\":910:1902  function closeChannel(bytes32 _hash, bytes _sig, uint value) \r... */\n      pop\n      tag_6\n      0x4\n      dup1\n      calldatasize\n      sub\n      dup2\n      add\n      swap1\n      dup1\n      dup1\n      calldataload\n      not(0x0)\n      and\n      swap1\n      0x20\n      add\n      swap1\n      swap3\n      swap2\n      swap1\n      dup1\n      calldataload\n      swap1\n      0x20\n      add\n      swap1\n      dup3\n      add\n      dup1\n      calldataload\n      swap1\n      0x20\n      add\n      swap1\n      dup1\n      dup1\n      0x1f\n      add\n      0x20\n      dup1\n      swap2\n      div\n      mul\n      0x20\n      add\n      mload(0x40)\n      swap1\n      dup2\n      add\n      0x40\n      mstore\n      dup1\n      swap4\n      swap3\n      swap2\n      swap1\n      dup2\n      dup2\n      mstore\n      0x20\n      add\n      dup4\n      dup4\n      dup1\n      dup3\n      dup5\n      calldatacopy\n      dup3\n      add\n      swap2\n      pop\n      pop\n      pop\n      pop\n      pop\n      pop\n      swap2\n      swap3\n      swap2\n      swap3\n      swap1\n      dup1\n      calldataload\n      swap1\n      0x20\n      add\n      swap1\n      swap3\n      swap2\n      swap1\n      pop\n      pop\n      pop\n      jump(tag_7)\n    tag_6:\n      stop\n        /* \"blockchain/OneTimeChannel.sol\":1914:2095  function timeOutChannel() \r... */\n    tag_3:\n      callvalue\n        /* \"--CODEGEN--\":8:17   */\n      dup1\n        /* \"--CODEGEN--\":5:7   */\n      iszero\n      tag_8\n      jumpi\n        /* \"--CODEGEN--\":30:31   */\n      0x0\n        /* \"--CODEGEN--\":27:28   */\n      dup1\n        /* \"--CODEGEN--\":20:32   */\n      revert\n        /* \"--CODEGEN--\":5:7   */\n    tag_8:\n        /* \"blockchain/OneTimeChannel.sol\":1914:2095  function timeOutChannel() \r... */\n      pop\n      tag_9\n      jump(tag_10)\n    tag_9:\n      stop\n        /* \"blockchain/OneTimeChannel.sol\":2103:2344  function getChannelParties(bytes32 _hash, bytes _sig) \r... */\n    tag_4:\n      callvalue\n        /* \"--CODEGEN--\":8:17   */\n      dup1\n        /* \"--CODEGEN--\":5:7   */\n      iszero\n      tag_11\n      jumpi\n        /* \"--CODEGEN--\":30:31   */\n      0x0\n        /* \"--CODEGEN--\":27:28   */\n      dup1\n        /* \"--CODEGEN--\":20:32   */\n      revert\n        /* \"--CODEGEN--\":5:7   */\n    tag_11:\n        /* \"blockchain/OneTimeChannel.sol\":2103:2344  function getChannelParties(bytes32 _hash, bytes _sig) \r... */\n      pop\n      tag_12\n      0x4\n      dup1\n      calldatasize\n      sub\n      dup2\n      add\n      swap1\n      dup1\n      dup1\n      calldataload\n      not(0x0)\n      and\n      swap1\n      0x20\n      add\n      swap1\n      swap3\n      swap2\n      swap1\n      dup1\n      calldataload\n      swap1\n      0x20\n      add\n      swap1\n      dup3\n      add\n      dup1\n      calldataload\n      swap1\n      0x20\n      add\n      swap1\n      dup1\n      dup1\n      0x1f\n      add\n      0x20\n      dup1\n      swap2\n      div\n      mul\n      0x20\n      add\n      mload(0x40)\n      swap1\n      dup2\n      add\n      0x40\n      mstore\n      dup1\n      swap4\n      swap3\n      swap2\n      swap1\n      dup2\n      dup2\n      mstore\n      0x20\n      add\n      dup4\n      dup4\n      dup1\n      dup3\n      dup5\n      calldatacopy\n      dup3\n      add\n      swap2\n      pop\n      pop\n      pop\n      pop\n      pop\n      pop\n      swap2\n      swap3\n      swap2\n      swap3\n      swap1\n      pop\n      pop\n      pop\n      jump(tag_13)\n    tag_12:\n      mload(0x40)\n      dup1\n      dup6\n      0xffffffffffffffffffffffffffffffffffffffff\n      and\n      0xffffffffffffffffffffffffffffffffffffffff\n      and\n      dup2\n      mstore\n      0x20\n      add\n      dup5\n      0xffffffffffffffffffffffffffffffffffffffff\n      and\n      0xffffffffffffffffffffffffffffffffffffffff\n      and\n      dup2\n      mstore\n      0x20\n      add\n      dup4\n      0xffffffffffffffffffffffffffffffffffffffff\n      and\n      0xffffffffffffffffffffffffffffffffffffffff\n      and\n      dup2\n      mstore\n      0x20\n      add\n      dup3\n      0xffffffffffffffffffffffffffffffffffffffff\n      and\n      0xffffffffffffffffffffffffffffffffffffffff\n      and\n      dup2\n      mstore\n      0x20\n      add\n      swap5\n      pop\n      pop\n      pop\n      pop\n      pop\n      mload(0x40)\n      dup1\n      swap2\n      sub\n      swap1\n      return\n        /* \"blockchain/OneTimeChannel.sol\":910:1902  function closeChannel(bytes32 _hash, bytes _sig, uint value) \r... */\n    tag_7:\n        /* \"blockchain/OneTimeChannel.sol\":1033:1047  address signer */\n      0x0\n        /* \"blockchain/OneTimeChannel.sol\":1290:1303  bytes32 proof */\n      dup1\n        /* \"blockchain/OneTimeChannel.sol\":1050:1086  getSignerFromHashAndSig(_hash, _sig) */\n      tag_15\n        /* \"blockchain/OneTimeChannel.sol\":1074:1079  _hash */\n      dup6\n        /* \"blockchain/OneTimeChannel.sol\":1081:1085  _sig */\n      dup6\n        /* \"blockchain/OneTimeChannel.sol\":1050:1073  getSignerFromHashAndSig */\n      tag_16\n        /* \"blockchain/OneTimeChannel.sol\":1050:1086  getSignerFromHashAndSig(_hash, _sig) */\n      jump\t// in\n    tag_15:\n        /* \"blockchain/OneTimeChannel.sol\":1033:1086  address signer = getSignerFromHashAndSig(_hash, _sig) */\n      swap2\n      pop\n        /* \"blockchain/OneTimeChannel.sol\":1165:1178  channelOpener */\n      0x0\n      dup1\n      swap1\n      sload\n      swap1\n      0x100\n      exp\n      swap1\n      div\n      0xffffffffffffffffffffffffffffffffffffffff\n      and\n        /* \"blockchain/OneTimeChannel.sol\":1155:1178  signer == channelOpener */\n      0xffffffffffffffffffffffffffffffffffffffff\n      and\n        /* \"blockchain/OneTimeChannel.sol\":1155:1161  signer */\n      dup3\n        /* \"blockchain/OneTimeChannel.sol\":1155:1178  signer == channelOpener */\n      0xffffffffffffffffffffffffffffffffffffffff\n      and\n      eq\n        /* \"blockchain/OneTimeChannel.sol\":1147:1232  require(signer == channelOpener, \"Message can only be signer by the channel opener.\") */\n      iszero\n      iszero\n      tag_17\n      jumpi\n      mload(0x40)\n      0x8c379a000000000000000000000000000000000000000000000000000000000\n      dup2\n      mstore\n      0x4\n      add\n      dup1\n      dup1\n      0x20\n      add\n      dup3\n      dup2\n      sub\n      dup3\n      mstore\n      0x31\n      dup2\n      mstore\n      0x20\n      add\n      dup1\n      0x4d6573736167652063616e206f6e6c79206265207369676e6572206279207468\n      dup2\n      mstore\n      0x20\n      add\n      0x65206368616e6e656c206f70656e65722e000000000000000000000000000000\n      dup2\n      mstore\n      pop\n      0x40\n      add\n      swap2\n      pop\n      pop\n      mload(0x40)\n      dup1\n      swap2\n      sub\n      swap1\n      revert\n    tag_17:\n        /* \"blockchain/OneTimeChannel.sol\":1333:1337  this */\n      address\n        /* \"blockchain/OneTimeChannel.sol\":1339:1344  value */\n      dup4\n        /* \"blockchain/OneTimeChannel.sol\":1316:1345  abi.encodePacked(this, value) */\n      add(0x20, mload(0x40))\n      dup1\n      dup4\n      0xffffffffffffffffffffffffffffffffffffffff\n      and\n      0xffffffffffffffffffffffffffffffffffffffff\n      and\n      0x1000000000000000000000000\n      mul\n      dup2\n      mstore\n      0x14\n      add\n      dup3\n      dup2\n      mstore\n      0x20\n      add\n      swap3\n      pop\n      pop\n      pop\n      mload(0x40)\n        /* \"--CODEGEN--\":49:53   */\n      0x20\n        /* \"--CODEGEN--\":39:46   */\n      dup2\n        /* \"--CODEGEN--\":30:37   */\n      dup4\n        /* \"--CODEGEN--\":26:47   */\n      sub\n        /* \"--CODEGEN--\":22:54   */\n      sub\n        /* \"--CODEGEN--\":13:20   */\n      dup2\n        /* \"--CODEGEN--\":6:55   */\n      mstore\n        /* \"blockchain/OneTimeChannel.sol\":1316:1345  abi.encodePacked(this, value) */\n      swap1\n      0x40\n      mstore\n        /* \"blockchain/OneTimeChannel.sol\":1306:1346  keccak256(abi.encodePacked(this, value)) */\n      mload(0x40)\n      dup1\n      dup3\n      dup1\n      mload\n      swap1\n      0x20\n      add\n      swap1\n      dup1\n      dup4\n      dup4\n        /* \"--CODEGEN--\":36:189   */\n    tag_18:\n        /* \"--CODEGEN--\":66:68   */\n      0x20\n        /* \"--CODEGEN--\":61:64   */\n      dup4\n        /* \"--CODEGEN--\":58:69   */\n      lt\n        /* \"--CODEGEN--\":51:70   */\n      iszero\n        /* \"--CODEGEN--\":36:189   */\n      iszero\n      tag_19\n      jumpi\n        /* \"--CODEGEN--\":182:185   */\n      dup1\n        /* \"--CODEGEN--\":176:186   */\n      mload\n        /* \"--CODEGEN--\":171:174   */\n      dup3\n        /* \"--CODEGEN--\":164:187   */\n      mstore\n        /* \"--CODEGEN--\":98:100   */\n      0x20\n        /* \"--CODEGEN--\":93:96   */\n      dup3\n        /* \"--CODEGEN--\":89:101   */\n      add\n        /* \"--CODEGEN--\":82:101   */\n      swap2\n      pop\n        /* \"--CODEGEN--\":123:125   */\n      0x20\n        /* \"--CODEGEN--\":118:121   */\n      dup2\n        /* \"--CODEGEN--\":114:126   */\n      add\n        /* \"--CODEGEN--\":107:126   */\n      swap1\n      pop\n        /* \"--CODEGEN--\":148:150   */\n      0x20\n        /* \"--CODEGEN--\":143:146   */\n      dup4\n        /* \"--CODEGEN--\":139:151   */\n      sub\n        /* \"--CODEGEN--\":132:151   */\n      swap3\n      pop\n        /* \"--CODEGEN--\":36:189   */\n      jump(tag_18)\n    tag_19:\n        /* \"--CODEGEN--\":274:275   */\n      0x1\n        /* \"--CODEGEN--\":267:270   */\n      dup4\n        /* \"--CODEGEN--\":263:265   */\n      0x20\n        /* \"--CODEGEN--\":259:271   */\n      sub\n        /* \"--CODEGEN--\":254:257   */\n      0x100\n        /* \"--CODEGEN--\":250:272   */\n      exp\n        /* \"--CODEGEN--\":246:276   */\n      sub\n        /* \"--CODEGEN--\":315:319   */\n      dup1\n        /* \"--CODEGEN--\":311:320   */\n      not\n        /* \"--CODEGEN--\":305:308   */\n      dup3\n        /* \"--CODEGEN--\":299:309   */\n      mload\n        /* \"--CODEGEN--\":295:321   */\n      and\n        /* \"--CODEGEN--\":356:360   */\n      dup2\n        /* \"--CODEGEN--\":350:353   */\n      dup5\n        /* \"--CODEGEN--\":344:354   */\n      mload\n        /* \"--CODEGEN--\":340:361   */\n      and\n        /* \"--CODEGEN--\":389:396   */\n      dup1\n        /* \"--CODEGEN--\":380:387   */\n      dup3\n        /* \"--CODEGEN--\":377:397   */\n      or\n        /* \"--CODEGEN--\":372:375   */\n      dup6\n        /* \"--CODEGEN--\":365:398   */\n      mstore\n        /* \"--CODEGEN--\":3:402   */\n      pop\n      pop\n      pop\n        /* \"blockchain/OneTimeChannel.sol\":1306:1346  keccak256(abi.encodePacked(this, value)) */\n      pop\n      pop\n      pop\n      swap1\n      pop\n      add\n      swap2\n      pop\n      pop\n      mload(0x40)\n      dup1\n      swap2\n      sub\n      swap1\n      keccak256\n        /* \"blockchain/OneTimeChannel.sol\":1290:1346  bytes32 proof = keccak256(abi.encodePacked(this, value)) */\n      swap1\n      pop\n        /* \"blockchain/OneTimeChannel.sol\":1443:1448  _hash */\n      dup5\n        /* \"blockchain/OneTimeChannel.sol\":1434:1448  proof == _hash */\n      not(0x0)\n      and\n        /* \"blockchain/OneTimeChannel.sol\":1434:1439  proof */\n      dup2\n        /* \"blockchain/OneTimeChannel.sol\":1434:1448  proof == _hash */\n      not(0x0)\n      and\n      eq\n        /* \"blockchain/OneTimeChannel.sol\":1426:1548  require(proof == _hash, \"Signature was correct but the value being withdraw does not match that specified by the signer.\") */\n      iszero\n      iszero\n      tag_21\n      jumpi\n      mload(0x40)\n      0x8c379a000000000000000000000000000000000000000000000000000000000\n      dup2\n      mstore\n      0x4\n      add\n      dup1\n      dup1\n      0x20\n      add\n      dup3\n      dup2\n      sub\n      dup3\n      mstore\n      0x5f\n      dup2\n      mstore\n      0x20\n      add\n      dup1\n      0x5369676e61747572652077617320636f72726563742062757420746865207661\n      dup2\n      mstore\n      0x20\n      add\n      0x6c7565206265696e6720776974686472617720646f6573206e6f74206d617463\n      dup2\n      mstore\n      0x20\n      add\n      0x6820746861742073706563696669656420627920746865207369676e65722e00\n      dup2\n      mstore\n      pop\n      0x60\n      add\n      swap2\n      pop\n      pop\n      mload(0x40)\n      dup1\n      swap2\n      sub\n      swap1\n      revert\n    tag_21:\n        /* \"blockchain/OneTimeChannel.sol\":1594:1598  this */\n      address\n        /* \"blockchain/OneTimeChannel.sol\":1586:1607  address(this).balance */\n      0xffffffffffffffffffffffffffffffffffffffff\n      and\n      balance\n        /* \"blockchain/OneTimeChannel.sol\":1577:1582  value */\n      dup4\n        /* \"blockchain/OneTimeChannel.sol\":1577:1607  value <= address(this).balance */\n      gt\n      iszero\n        /* \"blockchain/OneTimeChannel.sol\":1569:1666  require(value <= address(this).balance, \"Requested value is greater than this channel's balance\") */\n      iszero\n      iszero\n      tag_22\n      jumpi\n      mload(0x40)\n      0x8c379a000000000000000000000000000000000000000000000000000000000\n      dup2\n      mstore\n      0x4\n      add\n      dup1\n      dup1\n      0x20\n      add\n      dup3\n      dup2\n      sub\n      dup3\n      mstore\n      0x36\n      dup2\n      mstore\n      0x20\n      add\n      dup1\n      0x5265717565737465642076616c75652069732067726561746572207468616e20\n      dup2\n      mstore\n      0x20\n      add\n      0x74686973206368616e6e656c27732062616c616e636500000000000000000000\n      dup2\n      mstore\n      pop\n      0x40\n      add\n      swap2\n      pop\n      pop\n      mload(0x40)\n      dup1\n      swap2\n      sub\n      swap1\n      revert\n    tag_22:\n        /* \"blockchain/OneTimeChannel.sol\":1736:1741  false */\n      0x0\n        /* \"blockchain/OneTimeChannel.sol\":1724:1741  isClosed == false */\n      iszero\n      iszero\n        /* \"blockchain/OneTimeChannel.sol\":1724:1732  isClosed */\n      0x5\n      0x0\n      swap1\n      sload\n      swap1\n      0x100\n      exp\n      swap1\n      div\n      0xff\n      and\n        /* \"blockchain/OneTimeChannel.sol\":1724:1741  isClosed == false */\n      iszero\n      iszero\n      eq\n        /* \"blockchain/OneTimeChannel.sol\":1716:1771  require(isClosed == false, \"Channel is already closed\") */\n      iszero\n      iszero\n      tag_23\n      jumpi\n      mload(0x40)\n      0x8c379a000000000000000000000000000000000000000000000000000000000\n      dup2\n      mstore\n      0x4\n      add\n      dup1\n      dup1\n      0x20\n      add\n      dup3\n      dup2\n      sub\n      dup3\n      mstore\n      0x19\n      dup2\n      mstore\n      0x20\n      add\n      dup1\n      0x4368616e6e656c20697320616c726561647920636c6f73656400000000000000\n      dup2\n      mstore\n      pop\n      0x20\n      add\n      swap2\n      pop\n      pop\n      mload(0x40)\n      dup1\n      swap2\n      sub\n      swap1\n      revert\n    tag_23:\n        /* \"blockchain/OneTimeChannel.sol\":1793:1797  true */\n      0x1\n        /* \"blockchain/OneTimeChannel.sol\":1782:1790  isClosed */\n      0x5\n      0x0\n        /* \"blockchain/OneTimeChannel.sol\":1782:1797  isClosed = true */\n      0x100\n      exp\n      dup2\n      sload\n      dup2\n      0xff\n      mul\n      not\n      and\n      swap1\n      dup4\n      iszero\n      iszero\n      mul\n      or\n      swap1\n      sstore\n      pop\n        /* \"blockchain/OneTimeChannel.sol\":1810:1831  paymentReceiverWallet */\n      0x2\n      0x0\n      swap1\n      sload\n      swap1\n      0x100\n      exp\n      swap1\n      div\n      0xffffffffffffffffffffffffffffffffffffffff\n      and\n        /* \"blockchain/OneTimeChannel.sol\":1810:1840  paymentReceiverWallet.transfer */\n      0xffffffffffffffffffffffffffffffffffffffff\n      and\n        /* \"blockchain/OneTimeChannel.sol\":1810:1847  paymentReceiverWallet.transfer(value) */\n      0x8fc\n        /* \"blockchain/OneTimeChannel.sol\":1841:1846  value */\n      dup5\n        /* \"blockchain/OneTimeChannel.sol\":1810:1847  paymentReceiverWallet.transfer(value) */\n      swap1\n      dup2\n      iszero\n      mul\n      swap1\n      mload(0x40)\n      0x0\n      mload(0x40)\n      dup1\n      dup4\n      sub\n      dup2\n      dup6\n      dup9\n      dup9\n      call\n      swap4\n      pop\n      pop\n      pop\n      pop\n      iszero\n        /* \"--CODEGEN--\":8:17   */\n      dup1\n        /* \"--CODEGEN--\":5:7   */\n      iszero\n      tag_24\n      jumpi\n        /* \"--CODEGEN--\":45:61   */\n      returndatasize\n        /* \"--CODEGEN--\":42:43   */\n      0x0\n        /* \"--CODEGEN--\":39:40   */\n      dup1\n        /* \"--CODEGEN--\":24:62   */\n      returndatacopy\n        /* \"--CODEGEN--\":77:93   */\n      returndatasize\n        /* \"--CODEGEN--\":74:75   */\n      0x0\n        /* \"--CODEGEN--\":67:94   */\n      revert\n        /* \"--CODEGEN--\":5:7   */\n    tag_24:\n        /* \"blockchain/OneTimeChannel.sol\":1810:1847  paymentReceiverWallet.transfer(value) */\n      pop\n        /* \"blockchain/OneTimeChannel.sol\":1871:1893  remainingBalanceWallet */\n      0x1\n      0x0\n      swap1\n      sload\n      swap1\n      0x100\n      exp\n      swap1\n      div\n      0xffffffffffffffffffffffffffffffffffffffff\n      and\n        /* \"blockchain/OneTimeChannel.sol\":1858:1894  selfdestruct(remainingBalanceWallet) */\n      0xffffffffffffffffffffffffffffffffffffffff\n      and\n      selfdestruct\n        /* \"blockchain/OneTimeChannel.sol\":1914:2095  function timeOutChannel() \r... */\n    tag_10:\n        /* \"blockchain/OneTimeChannel.sol\":1991:1994  now */\n      timestamp\n        /* \"blockchain/OneTimeChannel.sol\":1973:1987  expirationDate */\n      sload(0x3)\n        /* \"blockchain/OneTimeChannel.sol\":1973:1994  expirationDate <= now */\n      gt\n      iszero\n        /* \"blockchain/OneTimeChannel.sol\":1964:2030  require (expirationDate <= now, \"Channel timeout not yet elapsed\") */\n      iszero\n      iszero\n      tag_26\n      jumpi\n      mload(0x40)\n      0x8c379a000000000000000000000000000000000000000000000000000000000\n      dup2\n      mstore\n      0x4\n      add\n      dup1\n      dup1\n      0x20\n      add\n      dup3\n      dup2\n      sub\n      dup3\n      mstore\n      0x1f\n      dup2\n      mstore\n      0x20\n      add\n      dup1\n      0x4368616e6e656c2074696d656f7574206e6f742079657420656c617073656400\n      dup2\n      mstore\n      pop\n      0x20\n      add\n      swap2\n      pop\n      pop\n      mload(0x40)\n      dup1\n      swap2\n      sub\n      swap1\n      revert\n    tag_26:\n        /* \"blockchain/OneTimeChannel.sol\":2064:2086  remainingBalanceWallet */\n      0x1\n      0x0\n      swap1\n      sload\n      swap1\n      0x100\n      exp\n      swap1\n      div\n      0xffffffffffffffffffffffffffffffffffffffff\n      and\n        /* \"blockchain/OneTimeChannel.sol\":2051:2087  selfdestruct(remainingBalanceWallet) */\n      0xffffffffffffffffffffffffffffffffffffffff\n      and\n      selfdestruct\n        /* \"blockchain/OneTimeChannel.sol\":2103:2344  function getChannelParties(bytes32 _hash, bytes _sig) \r... */\n    tag_13:\n        /* \"blockchain/OneTimeChannel.sol\":2189:2196  address */\n      0x0\n        /* \"blockchain/OneTimeChannel.sol\":2197:2204  address */\n      dup1\n        /* \"blockchain/OneTimeChannel.sol\":2205:2212  address */\n      0x0\n        /* \"blockchain/OneTimeChannel.sol\":2213:2220  address */\n      dup1\n        /* \"blockchain/OneTimeChannel.sol\":2241:2276  getSignerFromHashAndSig(_hash,_sig) */\n      tag_28\n        /* \"blockchain/OneTimeChannel.sol\":2265:2270  _hash */\n      dup7\n        /* \"blockchain/OneTimeChannel.sol\":2271:2275  _sig */\n      dup7\n        /* \"blockchain/OneTimeChannel.sol\":2241:2264  getSignerFromHashAndSig */\n      tag_16\n        /* \"blockchain/OneTimeChannel.sol\":2241:2276  getSignerFromHashAndSig(_hash,_sig) */\n      jump\t// in\n    tag_28:\n        /* \"blockchain/OneTimeChannel.sol\":2277:2290  channelOpener */\n      0x0\n      dup1\n      swap1\n      sload\n      swap1\n      0x100\n      exp\n      swap1\n      div\n      0xffffffffffffffffffffffffffffffffffffffff\n      and\n        /* \"blockchain/OneTimeChannel.sol\":2291:2312  paymentReceiverWallet */\n      0x2\n      0x0\n      swap1\n      sload\n      swap1\n      0x100\n      exp\n      swap1\n      div\n      0xffffffffffffffffffffffffffffffffffffffff\n      and\n        /* \"blockchain/OneTimeChannel.sol\":2313:2335  remainingBalanceWallet */\n      0x1\n      0x0\n      swap1\n      sload\n      swap1\n      0x100\n      exp\n      swap1\n      div\n      0xffffffffffffffffffffffffffffffffffffffff\n      and\n        /* \"blockchain/OneTimeChannel.sol\":2233:2336  return (getSignerFromHashAndSig(_hash,_sig),channelOpener,paymentReceiverWallet,remainingBalanceWallet) */\n      swap4\n      pop\n      swap4\n      pop\n      swap4\n      pop\n      swap4\n      pop\n        /* \"blockchain/OneTimeChannel.sol\":2103:2344  function getChannelParties(bytes32 _hash, bytes _sig) \r... */\n      swap3\n      swap6\n      swap2\n      swap5\n      pop\n      swap3\n      pop\n      jump\t// out\n        /* \"blockchain/OneTimeChannel.sol\":2356:2514  function getSignerFromHashAndSig(bytes32 _hash, bytes _sig) \r... */\n    tag_16:\n        /* \"blockchain/OneTimeChannel.sol\":2449:2456  address */\n      0x0\n        /* \"blockchain/OneTimeChannel.sol\":2476:2506  ECRecovery.recover(_hash,_sig) */\n      tag_30\n        /* \"blockchain/OneTimeChannel.sol\":2495:2500  _hash */\n      dup4\n        /* \"blockchain/OneTimeChannel.sol\":2501:2505  _sig */\n      dup4\n        /* \"blockchain/OneTimeChannel.sol\":2476:2494  ECRecovery.recover */\n      tag_31\n        /* \"blockchain/OneTimeChannel.sol\":2476:2506  ECRecovery.recover(_hash,_sig) */\n      jump\t// in\n    tag_30:\n        /* \"blockchain/OneTimeChannel.sol\":2469:2506  return ECRecovery.recover(_hash,_sig) */\n      swap1\n      pop\n        /* \"blockchain/OneTimeChannel.sol\":2356:2514  function getSignerFromHashAndSig(bytes32 _hash, bytes _sig) \r... */\n      swap3\n      swap2\n      pop\n      pop\n      jump\t// out\n        /* \"blockchain/ECRecovery.sol\":627:1595  function recover(bytes32 hash, bytes sig)\r... */\n    tag_31:\n        /* \"blockchain/ECRecovery.sol\":707:714  address */\n      0x0\n        /* \"blockchain/ECRecovery.sol\":726:735  bytes32 r */\n      dup1\n        /* \"blockchain/ECRecovery.sol\":742:751  bytes32 s */\n      0x0\n        /* \"blockchain/ECRecovery.sol\":758:765  uint8 v */\n      dup1\n        /* \"blockchain/ECRecovery.sol\":827:829  65 */\n      0x41\n        /* \"blockchain/ECRecovery.sol\":813:816  sig */\n      dup6\n        /* \"blockchain/ECRecovery.sol\":813:823  sig.length */\n      mload\n        /* \"blockchain/ECRecovery.sol\":813:829  sig.length != 65 */\n      eq\n      iszero\n        /* \"blockchain/ECRecovery.sol\":809:867  if (sig.length != 65) {\r... */\n      iszero\n      tag_33\n      jumpi\n        /* \"blockchain/ECRecovery.sol\":856:857  0 */\n      0x0\n        /* \"blockchain/ECRecovery.sol\":840:859  return (address(0)) */\n      swap4\n      pop\n      jump(tag_32)\n        /* \"blockchain/ECRecovery.sol\":809:867  if (sig.length != 65) {\r... */\n    tag_33:\n        /* \"blockchain/ECRecovery.sol\":1144:1146  32 */\n      0x20\n        /* \"blockchain/ECRecovery.sol\":1139:1142  sig */\n      dup6\n        /* \"blockchain/ECRecovery.sol\":1135:1147  add(sig, 32) */\n      add\n        /* \"blockchain/ECRecovery.sol\":1129:1148  mload(add(sig, 32)) */\n      mload\n        /* \"blockchain/ECRecovery.sol\":1124:1148  r := mload(add(sig, 32)) */\n      swap3\n      pop\n        /* \"blockchain/ECRecovery.sol\":1176:1178  64 */\n      0x40\n        /* \"blockchain/ECRecovery.sol\":1171:1174  sig */\n      dup6\n        /* \"blockchain/ECRecovery.sol\":1167:1179  add(sig, 64) */\n      add\n        /* \"blockchain/ECRecovery.sol\":1161:1180  mload(add(sig, 64)) */\n      mload\n        /* \"blockchain/ECRecovery.sol\":1156:1180  s := mload(add(sig, 64)) */\n      swap2\n      pop\n        /* \"blockchain/ECRecovery.sol\":1216:1218  96 */\n      0x60\n        /* \"blockchain/ECRecovery.sol\":1211:1214  sig */\n      dup6\n        /* \"blockchain/ECRecovery.sol\":1207:1219  add(sig, 96) */\n      add\n        /* \"blockchain/ECRecovery.sol\":1201:1220  mload(add(sig, 96)) */\n      mload\n        /* \"blockchain/ECRecovery.sol\":1198:1199  0 */\n      0x0\n        /* \"blockchain/ECRecovery.sol\":1193:1221  byte(0, mload(add(sig, 96))) */\n      byte\n        /* \"blockchain/ECRecovery.sol\":1188:1221  v := byte(0, mload(add(sig, 96))) */\n      swap1\n      pop\n        /* \"blockchain/ECRecovery.sol\":1332:1334  27 */\n      0x1b\n        /* \"blockchain/ECRecovery.sol\":1328:1329  v */\n      dup2\n        /* \"blockchain/ECRecovery.sol\":1328:1334  v < 27 */\n      0xff\n      and\n      lt\n        /* \"blockchain/ECRecovery.sol\":1324:1360  if (v < 27) {\r... */\n      iszero\n      tag_34\n      jumpi\n        /* \"blockchain/ECRecovery.sol\":1350:1352  27 */\n      0x1b\n        /* \"blockchain/ECRecovery.sol\":1345:1352  v += 27 */\n      dup2\n      add\n      swap1\n      pop\n        /* \"blockchain/ECRecovery.sol\":1324:1360  if (v < 27) {\r... */\n    tag_34:\n        /* \"blockchain/ECRecovery.sol\":1437:1439  27 */\n      0x1b\n        /* \"blockchain/ECRecovery.sol\":1432:1433  v */\n      dup2\n        /* \"blockchain/ECRecovery.sol\":1432:1439  v != 27 */\n      0xff\n      and\n      eq\n      iszero\n        /* \"blockchain/ECRecovery.sol\":1432:1450  v != 27 && v != 28 */\n      dup1\n      iszero\n      tag_35\n      jumpi\n      pop\n        /* \"blockchain/ECRecovery.sol\":1448:1450  28 */\n      0x1c\n        /* \"blockchain/ECRecovery.sol\":1443:1444  v */\n      dup2\n        /* \"blockchain/ECRecovery.sol\":1443:1450  v != 28 */\n      0xff\n      and\n      eq\n      iszero\n        /* \"blockchain/ECRecovery.sol\":1432:1450  v != 27 && v != 28 */\n    tag_35:\n        /* \"blockchain/ECRecovery.sol\":1428:1590  if (v != 27 && v != 28) {\r... */\n      iszero\n      tag_36\n      jumpi\n        /* \"blockchain/ECRecovery.sol\":1477:1478  0 */\n      0x0\n        /* \"blockchain/ECRecovery.sol\":1461:1480  return (address(0)) */\n      swap4\n      pop\n      jump(tag_32)\n        /* \"blockchain/ECRecovery.sol\":1428:1590  if (v != 27 && v != 28) {\r... */\n    tag_36:\n        /* \"blockchain/ECRecovery.sol\":1558:1582  ecrecover(hash, v, r, s) */\n      0x1\n        /* \"blockchain/ECRecovery.sol\":1568:1572  hash */\n      dup7\n        /* \"blockchain/ECRecovery.sol\":1574:1575  v */\n      dup3\n        /* \"blockchain/ECRecovery.sol\":1577:1578  r */\n      dup6\n        /* \"blockchain/ECRecovery.sol\":1580:1581  s */\n      dup6\n        /* \"blockchain/ECRecovery.sol\":1558:1582  ecrecover(hash, v, r, s) */\n      mload(0x40)\n      0x0\n      dup2\n      mstore\n      0x20\n      add\n      0x40\n      mstore\n      mload(0x40)\n      dup1\n      dup6\n      not(0x0)\n      and\n      not(0x0)\n      and\n      dup2\n      mstore\n      0x20\n      add\n      dup5\n      0xff\n      and\n      0xff\n      and\n      dup2\n      mstore\n      0x20\n      add\n      dup4\n      not(0x0)\n      and\n      not(0x0)\n      and\n      dup2\n      mstore\n      0x20\n      add\n      dup3\n      not(0x0)\n      and\n      not(0x0)\n      and\n      dup2\n      mstore\n      0x20\n      add\n      swap5\n      pop\n      pop\n      pop\n      pop\n      pop\n      0x20\n      mload(0x40)\n      0x20\n      dup2\n      sub\n      swap1\n      dup1\n      dup5\n      sub\n      swap1\n      0x0\n      dup7\n      gas\n      call\n      iszero\n        /* \"--CODEGEN--\":8:17   */\n      dup1\n        /* \"--CODEGEN--\":5:7   */\n      iszero\n      tag_38\n      jumpi\n        /* \"--CODEGEN--\":45:61   */\n      returndatasize\n        /* \"--CODEGEN--\":42:43   */\n      0x0\n        /* \"--CODEGEN--\":39:40   */\n      dup1\n        /* \"--CODEGEN--\":24:62   */\n      returndatacopy\n        /* \"--CODEGEN--\":77:93   */\n      returndatasize\n        /* \"--CODEGEN--\":74:75   */\n      0x0\n        /* \"--CODEGEN--\":67:94   */\n      revert\n        /* \"--CODEGEN--\":5:7   */\n    tag_38:\n        /* \"blockchain/ECRecovery.sol\":1558:1582  ecrecover(hash, v, r, s) */\n      pop\n      pop\n      pop\n      mload(sub(mload(0x40), 0x20))\n        /* \"blockchain/ECRecovery.sol\":1551:1582  return ecrecover(hash, v, r, s) */\n      swap4\n      pop\n        /* \"blockchain/ECRecovery.sol\":627:1595  function recover(bytes32 hash, bytes sig)\r... */\n    tag_32:\n      pop\n      pop\n      pop\n      swap3\n      swap2\n      pop\n      pop\n      jump\t// out\n\n    auxdata: 0xa165627a7a7230582042f7ae1e8bf41879b3c68f10e5b19c014a2d5f111e270b037c7c15a9b417a55e0029\n}\n",
				"bytecode": {
					"linkReferences": {},
					"object": "6080604052604051608080610a8183398101806040528101908080519060200190929190805190602001909291908051906020019092919080519060200190929190505050836000806101000a81548173ffffffffffffffffffffffffffffffffffffffff021916908373ffffffffffffffffffffffffffffffffffffffff16021790555082600160006101000a81548173ffffffffffffffffffffffffffffffffffffffff021916908373ffffffffffffffffffffffffffffffffffffffff16021790555081600260006101000a81548173ffffffffffffffffffffffffffffffffffffffff021916908373ffffffffffffffffffffffffffffffffffffffff1602179055508042016003819055506000600560006101000a81548160ff021916908315150217905550505050506109448061013d6000396000f300608060405260043610610057576000357c0100000000000000000000000000000000000000000000000000000000900463ffffffff1680635b73a86d1461005c57806371a97d13146100dd578063bb3ee2fb146100f4575b600080fd5b34801561006857600080fd5b506100db6004803603810190808035600019169060200190929190803590602001908201803590602001908080601f016020809104026020016040519081016040528093929190818152602001838380828437820191505050505050919291929080359060200190929190505050610244565b005b3480156100e957600080fd5b506100f26106ce565b005b34801561010057600080fd5b506101696004803603810190808035600019169060200190929190803590602001908201803590602001908080601f0160208091040260200160405190810160405280939291908181526020018383808284378201915050505050509192919290505050610783565b604051808573ffffffffffffffffffffffffffffffffffffffff1673ffffffffffffffffffffffffffffffffffffffff1681526020018473ffffffffffffffffffffffffffffffffffffffff1673ffffffffffffffffffffffffffffffffffffffff1681526020018373ffffffffffffffffffffffffffffffffffffffff1673ffffffffffffffffffffffffffffffffffffffff1681526020018273ffffffffffffffffffffffffffffffffffffffff1673ffffffffffffffffffffffffffffffffffffffff16815260200194505050505060405180910390f35b600080610251858561080c565b91506000809054906101000a900473ffffffffffffffffffffffffffffffffffffffff1673ffffffffffffffffffffffffffffffffffffffff168273ffffffffffffffffffffffffffffffffffffffff1614151561033d576040517f08c379a00000000000000000000000000000000000000000000000000000000081526004018080602001828103825260318152602001807f4d6573736167652063616e206f6e6c79206265207369676e657220627920746881526020017f65206368616e6e656c206f70656e65722e00000000000000000000000000000081525060400191505060405180910390fd5b3083604051602001808373ffffffffffffffffffffffffffffffffffffffff1673ffffffffffffffffffffffffffffffffffffffff166c01000000000000000000000000028152601401828152602001925050506040516020818303038152906040526040518082805190602001908083835b6020831015156103d557805182526020820191506020810190506020830392506103b0565b6001836020036101000a03801982511681845116808217855250505050505090500191505060405180910390209050846000191681600019161415156104cf576040517f08c379a000000000000000000000000000000000000000000000000000000000815260040180806020018281038252605f8152602001807f5369676e61747572652077617320636f7272656374206275742074686520766181526020017f6c7565206265696e6720776974686472617720646f6573206e6f74206d61746381526020017f6820746861742073706563696669656420627920746865207369676e65722e0081525060600191505060405180910390fd5b3073ffffffffffffffffffffffffffffffffffffffff16318311151515610584576040517f08c379a00000000000000000000000000000000000000000000000000000000081526004018080602001828103825260368152602001807f5265717565737465642076616c75652069732067726561746572207468616e2081526020017f74686973206368616e6e656c27732062616c616e63650000000000000000000081525060400191505060405180910390fd5b60001515600560009054906101000a900460ff16151514151561060f576040517f08c379a00000000000000000000000000000000000000000000000000000000081526004018080602001828103825260198152602001807f4368616e6e656c20697320616c726561647920636c6f7365640000000000000081525060200191505060405180910390fd5b6001600560006101000a81548160ff021916908315150217905550600260009054906101000a900473ffffffffffffffffffffffffffffffffffffffff1673ffffffffffffffffffffffffffffffffffffffff166108fc849081150290604051600060405180830381858888f19350505050158015610692573d6000803e3d6000fd5b50600160009054906101000a900473ffffffffffffffffffffffffffffffffffffffff1673ffffffffffffffffffffffffffffffffffffffff16ff5b4260035411151515610748576040517f08c379a000000000000000000000000000000000000000000000000000000000815260040180806020018281038252601f8152602001807f4368616e6e656c2074696d656f7574206e6f742079657420656c61707365640081525060200191505060405180910390fd5b600160009054906101000a900473ffffffffffffffffffffffffffffffffffffffff1673ffffffffffffffffffffffffffffffffffffffff16ff5b600080600080610793868661080c565b6000809054906101000a900473ffffffffffffffffffffffffffffffffffffffff16600260009054906101000a900473ffffffffffffffffffffffffffffffffffffffff16600160009054906101000a900473ffffffffffffffffffffffffffffffffffffffff16935093509350935092959194509250565b60006108188383610820565b905092915050565b6000806000806041855114151561083a576000935061090f565b6020850151925060408501519150606085015160001a9050601b8160ff16101561086557601b810190505b601b8160ff161415801561087d5750601c8160ff1614155b1561088b576000935061090f565b600186828585604051600081526020016040526040518085600019166000191681526020018460ff1660ff1681526020018360001916600019168152602001826000191660001916815260200194505050505060206040516020810390808403906000865af1158015610902573d6000803e3d6000fd5b5050506020604051035193505b505050929150505600a165627a7a7230582042f7ae1e8bf41879b3c68f10e5b19c014a2d5f111e270b037c7c15a9b417a55e0029",
					"opcodes": "PUSH1 0x80 PUSH1 0x40 MSTORE PUSH1 0x40 MLOAD PUSH1 0x80 DUP1 PUSH2 0xA81 DUP4 CODECOPY DUP2 ADD DUP1 PUSH1 0x40 MSTORE DUP2 ADD SWAP1 DUP1 DUP1 MLOAD SWAP1 PUSH1 0x20 ADD SWAP1 SWAP3 SWAP2 SWAP1 DUP1 MLOAD SWAP1 PUSH1 0x20 ADD SWAP1 SWAP3 SWAP2 SWAP1 DUP1 MLOAD SWAP1 PUSH1 0x20 ADD SWAP1 SWAP3 SWAP2 SWAP1 DUP1 MLOAD SWAP1 PUSH1 0x20 ADD SWAP1 SWAP3 SWAP2 SWAP1 POP POP POP DUP4 PUSH1 0x0 DUP1 PUSH2 0x100 EXP DUP2 SLOAD DUP2 PUSH20 0xFFFFFFFFFFFFFFFFFFFFFFFFFFFFFFFFFFFFFFFF MUL NOT AND SWAP1 DUP4 PUSH20 0xFFFFFFFFFFFFFFFFFFFFFFFFFFFFFFFFFFFFFFFF AND MUL OR SWAP1 SSTORE POP DUP3 PUSH1 0x1 PUSH1 0x0 PUSH2 0x100 EXP DUP2 SLOAD DUP2 PUSH20 0xFFFFFFFFFFFFFFFFFFFFFFFFFFFFFFFFFFFFFFFF MUL NOT AND SWAP1 DUP4 PUSH20 0xFFFFFFFFFFFFFFFFFFFFFFFFFFFFFFFFFFFFFFFF AND MUL OR SWAP1 SSTORE POP DUP2 PUSH1 0x2 PUSH1 0x0 PUSH2 0x100 EXP DUP2 SLOAD DUP2 PUSH20 0xFFFFFFFFFFFFFFFFFFFFFFFFFFFFFFFFFFFFFFFF MUL NOT AND SWAP1 DUP4 PUSH20 0xFFFFFFFFFFFFFFFFFFFFFFFFFFFFFFFFFFFFFFFF AND MUL OR SWAP1 SSTORE POP DUP1 TIMESTAMP ADD PUSH1 0x3 DUP2 SWAP1 SSTORE POP PUSH1 0x0 PUSH1 0x5 PUSH1 0x0 PUSH2 0x100 EXP DUP2 SLOAD DUP2 PUSH1 0xFF MUL NOT AND SWAP1 DUP4 ISZERO ISZERO MUL OR SWAP1 SSTORE POP POP POP POP POP PUSH2 0x944 DUP1 PUSH2 0x13D PUSH1 0x0 CODECOPY PUSH1 0x0 RETURN STOP PUSH1 0x80 PUSH1 0x40 MSTORE PUSH1 0x4 CALLDATASIZE LT PUSH2 0x57 JUMPI PUSH1 0x0 CALLDATALOAD PUSH29 0x100000000000000000000000000000000000000000000000000000000 SWAP1 DIV PUSH4 0xFFFFFFFF AND DUP1 PUSH4 0x5B73A86D EQ PUSH2 0x5C JUMPI DUP1 PUSH4 0x71A97D13 EQ PUSH2 0xDD JUMPI DUP1 PUSH4 0xBB3EE2FB EQ PUSH2 0xF4 JUMPI JUMPDEST PUSH1 0x0 DUP1 REVERT JUMPDEST CALLVALUE DUP1 ISZERO PUSH2 0x68 JUMPI PUSH1 0x0 DUP1 REVERT JUMPDEST POP PUSH2 0xDB PUSH1 0x4 DUP1 CALLDATASIZE SUB DUP2 ADD SWAP1 DUP1 DUP1 CALLDATALOAD PUSH1 0x0 NOT AND SWAP1 PUSH1 0x20 ADD SWAP1 SWAP3 SWAP2 SWAP1 DUP1 CALLDATALOAD SWAP1 PUSH1 0x20 ADD SWAP1 DUP3 ADD DUP1 CALLDATALOAD SWAP1 PUSH1 0x20 ADD SWAP1 DUP1 DUP1 PUSH1 0x1F ADD PUSH1 0x20 DUP1 SWAP2 DIV MUL PUSH1 0x20 ADD PUSH1 0x40 MLOAD SWAP1 DUP2 ADD PUSH1 0x40 MSTORE DUP1 SWAP4 SWAP3 SWAP2 SWAP1 DUP2 DUP2 MSTORE PUSH1 0x20 ADD DUP4 DUP4 DUP1 DUP3 DUP5 CALLDATACOPY DUP3 ADD SWAP2 POP POP POP POP POP POP SWAP2 SWAP3 SWAP2 SWAP3 SWAP1 DUP1 CALLDATALOAD SWAP1 PUSH1 0x20 ADD SWAP1 SWAP3 SWAP2 SWAP1 POP POP POP PUSH2 0x244 JUMP JUMPDEST STOP JUMPDEST CALLVALUE DUP1 ISZERO PUSH2 0xE9 JUMPI PUSH1 0x0 DUP1 REVERT JUMPDEST POP PUSH2 0xF2 PUSH2 0x6CE JUMP JUMPDEST STOP JUMPDEST CALLVALUE DUP1 ISZERO PUSH2 0x100 JUMPI PUSH1 0x0 DUP1 REVERT JUMPDEST POP PUSH2 0x169 PUSH1 0x4 DUP1 CALLDATASIZE SUB DUP2 ADD SWAP1 DUP1 DUP1 CALLDATALOAD PUSH1 0x0 NOT AND SWAP1 PUSH1 0x20 ADD SWAP1 SWAP3 SWAP2 SWAP1 DUP1 CALLDATALOAD SWAP1 PUSH1 0x20 ADD SWAP1 DUP3 ADD DUP1 CALLDATALOAD SWAP1 PUSH1 0x20 ADD SWAP1 DUP1 DUP1 PUSH1 0x1F ADD PUSH1 0x20 DUP1 SWAP2 DIV MUL PUSH1 0x20 ADD PUSH1 0x40 MLOAD SWAP1 DUP2 ADD PUSH1 0x40 MSTORE DUP1 SWAP4 SWAP3 SWAP2 SWAP1 DUP2 DUP2 MSTORE PUSH1 0x20 ADD DUP4 DUP4 DUP1 DUP3 DUP5 CALLDATACOPY DUP3 ADD SWAP2 POP POP POP POP POP POP SWAP2 SWAP3 SWAP2 SWAP3 SWAP1 POP POP POP PUSH2 0x783 JUMP JUMPDEST PUSH1 0x40 MLOAD DUP1 DUP6 PUSH20 0xFFFFFFFFFFFFFFFFFFFFFFFFFFFFFFFFFFFFFFFF AND PUSH20 0xFFFFFFFFFFFFFFFFFFFFFFFFFFFFFFFFFFFFFFFF AND DUP2 MSTORE PUSH1 0x20 ADD DUP5 PUSH20 0xFFFFFFFFFFFFFFFFFFFFFFFFFFFFFFFFFFFFFFFF AND PUSH20 0xFFFFFFFFFFFFFFFFFFFFFFFFFFFFFFFFFFFFFFFF AND DUP2 MSTORE PUSH1 0x20 ADD DUP4 PUSH20 0xFFFFFFFFFFFFFFFFFFFFFFFFFFFFFFFFFFFFFFFF AND PUSH20 0xFFFFFFFFFFFFFFFFFFFFFFFFFFFFFFFFFFFFFFFF AND DUP2 MSTORE PUSH1 0x20 ADD DUP3 PUSH20 0xFFFFFFFFFFFFFFFFFFFFFFFFFFFFFFFFFFFFFFFF AND PUSH20 0xFFFFFFFFFFFFFFFFFFFFFFFFFFFFFFFFFFFFFFFF AND DUP2 MSTORE PUSH1 0x20 ADD SWAP5 POP POP POP POP POP PUSH1 0x40 MLOAD DUP1 SWAP2 SUB SWAP1 RETURN JUMPDEST PUSH1 0x0 DUP1 PUSH2 0x251 DUP6 DUP6 PUSH2 0x80C JUMP JUMPDEST SWAP2 POP PUSH1 0x0 DUP1 SWAP1 SLOAD SWAP1 PUSH2 0x100 EXP SWAP1 DIV PUSH20 0xFFFFFFFFFFFFFFFFFFFFFFFFFFFFFFFFFFFFFFFF AND PUSH20 0xFFFFFFFFFFFFFFFFFFFFFFFFFFFFFFFFFFFFFFFF AND DUP3 PUSH20 0xFFFFFFFFFFFFFFFFFFFFFFFFFFFFFFFFFFFFFFFF AND EQ ISZERO ISZERO PUSH2 0x33D JUMPI PUSH1 0x40 MLOAD PUSH32 0x8C379A000000000000000000000000000000000000000000000000000000000 DUP2 MSTORE PUSH1 0x4 ADD DUP1 DUP1 PUSH1 0x20 ADD DUP3 DUP2 SUB DUP3 MSTORE PUSH1 0x31 DUP2 MSTORE PUSH1 0x20 ADD DUP1 PUSH32 0x4D6573736167652063616E206F6E6C79206265207369676E6572206279207468 DUP2 MSTORE PUSH1 0x20 ADD PUSH32 0x65206368616E6E656C206F70656E65722E000000000000000000000000000000 DUP2 MSTORE POP PUSH1 0x40 ADD SWAP2 POP POP PUSH1 0x40 MLOAD DUP1 SWAP2 SUB SWAP1 REVERT JUMPDEST ADDRESS DUP4 PUSH1 0x40 MLOAD PUSH1 0x20 ADD DUP1 DUP4 PUSH20 0xFFFFFFFFFFFFFFFFFFFFFFFFFFFFFFFFFFFFFFFF AND PUSH20 0xFFFFFFFFFFFFFFFFFFFFFFFFFFFFFFFFFFFFFFFF AND PUSH13 0x1000000000000000000000000 MUL DUP2 MSTORE PUSH1 0x14 ADD DUP3 DUP2 MSTORE PUSH1 0x20 ADD SWAP3 POP POP POP PUSH1 0x40 MLOAD PUSH1 0x20 DUP2 DUP4 SUB SUB DUP2 MSTORE SWAP1 PUSH1 0x40 MSTORE PUSH1 0x40 MLOAD DUP1 DUP3 DUP1 MLOAD SWAP1 PUSH1 0x20 ADD SWAP1 DUP1 DUP4 DUP4 JUMPDEST PUSH1 0x20 DUP4 LT ISZERO ISZERO PUSH2 0x3D5 JUMPI DUP1 MLOAD DUP3 MSTORE PUSH1 0x20 DUP3 ADD SWAP2 POP PUSH1 0x20 DUP2 ADD SWAP1 POP PUSH1 0x20 DUP4 SUB SWAP3 POP PUSH2 0x3B0 JUMP JUMPDEST PUSH1 0x1 DUP4 PUSH1 0x20 SUB PUSH2 0x100 EXP SUB DUP1 NOT DUP3 MLOAD AND DUP2 DUP5 MLOAD AND DUP1 DUP3 OR DUP6 MSTORE POP POP POP POP POP POP SWAP1 POP ADD SWAP2 POP POP PUSH1 0x40 MLOAD DUP1 SWAP2 SUB SWAP1 KECCAK256 SWAP1 POP DUP5 PUSH1 0x0 NOT AND DUP2 PUSH1 0x0 NOT AND EQ ISZERO ISZERO PUSH2 0x4CF JUMPI PUSH1 0x40 MLOAD PUSH32 0x8C379A000000000000000000000000000000000000000000000000000000000 DUP2 MSTORE PUSH1 0x4 ADD DUP1 DUP1 PUSH1 0x20 ADD DUP3 DUP2 SUB DUP3 MSTORE PUSH1 0x5F DUP2 MSTORE PUSH1 0x20 ADD DUP1 PUSH32 0x5369676E61747572652077617320636F72726563742062757420746865207661 DUP2 MSTORE PUSH1 0x20 ADD PUSH32 0x6C7565206265696E6720776974686472617720646F6573206E6F74206D617463 DUP2 MSTORE PUSH1 0x20 ADD PUSH32 0x6820746861742073706563696669656420627920746865207369676E65722E00 DUP2 MSTORE POP PUSH1 0x60 ADD SWAP2 POP POP PUSH1 0x40 MLOAD DUP1 SWAP2 SUB SWAP1 REVERT JUMPDEST ADDRESS PUSH20 0xFFFFFFFFFFFFFFFFFFFFFFFFFFFFFFFFFFFFFFFF AND BALANCE DUP4 GT ISZERO ISZERO ISZERO PUSH2 0x584 JUMPI PUSH1 0x40 MLOAD PUSH32 0x8C379A000000000000000000000000000000000000000000000000000000000 DUP2 MSTORE PUSH1 0x4 ADD DUP1 DUP1 PUSH1 0x20 ADD DUP3 DUP2 SUB DUP3 MSTORE PUSH1 0x36 DUP2 MSTORE PUSH1 0x20 ADD DUP1 PUSH32 0x5265717565737465642076616C75652069732067726561746572207468616E20 DUP2 MSTORE PUSH1 0x20 ADD PUSH32 0x74686973206368616E6E656C27732062616C616E636500000000000000000000 DUP2 MSTORE POP PUSH1 0x40 ADD SWAP2 POP POP PUSH1 0x40 MLOAD DUP1 SWAP2 SUB SWAP1 REVERT JUMPDEST PUSH1 0x0 ISZERO ISZERO PUSH1 0x5 PUSH1 0x0 SWAP1 SLOAD SWAP1 PUSH2 0x100 EXP SWAP1 DIV PUSH1 0xFF AND ISZERO ISZERO EQ ISZERO ISZERO PUSH2 0x60F JUMPI PUSH1 0x40 MLOAD PUSH32 0x8C379A000000000000000000000000000000000000000000000000000000000 DUP2 MSTORE PUSH1 0x4 ADD DUP1 DUP1 PUSH1 0x20 ADD DUP3 DUP2 SUB DUP3 MSTORE PUSH1 0x19 DUP2 MSTORE PUSH1 0x20 ADD DUP1 PUSH32 0x4368616E6E656C20697320616C726561647920636C6F73656400000000000000 DUP2 MSTORE POP PUSH1 0x20 ADD SWAP2 POP POP PUSH1 0x40 MLOAD DUP1 SWAP2 SUB SWAP1 REVERT JUMPDEST PUSH1 0x1 PUSH1 0x5 PUSH1 0x0 PUSH2 0x100 EXP DUP2 SLOAD DUP2 PUSH1 0xFF MUL NOT AND SWAP1 DUP4 ISZERO ISZERO MUL OR SWAP1 SSTORE POP PUSH1 0x2 PUSH1 0x0 SWAP1 SLOAD SWAP1 PUSH2 0x100 EXP SWAP1 DIV PUSH20 0xFFFFFFFFFFFFFFFFFFFFFFFFFFFFFFFFFFFFFFFF AND PUSH20 0xFFFFFFFFFFFFFFFFFFFFFFFFFFFFFFFFFFFFFFFF AND PUSH2 0x8FC DUP5 SWAP1 DUP2 ISZERO MUL SWAP1 PUSH1 0x40 MLOAD PUSH1 0x0 PUSH1 0x40 MLOAD DUP1 DUP4 SUB DUP2 DUP6 DUP9 DUP9 CALL SWAP4 POP POP POP POP ISZERO DUP1 ISZERO PUSH2 0x692 JUMPI RETURNDATASIZE PUSH1 0x0 DUP1 RETURNDATACOPY RETURNDATASIZE PUSH1 0x0 REVERT JUMPDEST POP PUSH1 0x1 PUSH1 0x0 SWAP1 SLOAD SWAP1 PUSH2 0x100 EXP SWAP1 DIV PUSH20 0xFFFFFFFFFFFFFFFFFFFFFFFFFFFFFFFFFFFFFFFF AND PUSH20 0xFFFFFFFFFFFFFFFFFFFFFFFFFFFFFFFFFFFFFFFF AND SELFDESTRUCT JUMPDEST TIMESTAMP PUSH1 0x3 SLOAD GT ISZERO ISZERO ISZERO PUSH2 0x748 JUMPI PUSH1 0x40 MLOAD PUSH32 0x8C379A000000000000000000000000000000000000000000000000000000000 DUP2 MSTORE PUSH1 0x4 ADD DUP1 DUP1 PUSH1 0x20 ADD DUP3 DUP2 SUB DUP3 MSTORE PUSH1 0x1F DUP2 MSTORE PUSH1 0x20 ADD DUP1 PUSH32 0x4368616E6E656C2074696D656F7574206E6F742079657420656C617073656400 DUP2 MSTORE POP PUSH1 0x20 ADD SWAP2 POP POP PUSH1 0x40 MLOAD DUP1 SWAP2 SUB SWAP1 REVERT JUMPDEST PUSH1 0x1 PUSH1 0x0 SWAP1 SLOAD SWAP1 PUSH2 0x100 EXP SWAP1 DIV PUSH20 0xFFFFFFFFFFFFFFFFFFFFFFFFFFFFFFFFFFFFFFFF AND PUSH20 0xFFFFFFFFFFFFFFFFFFFFFFFFFFFFFFFFFFFFFFFF AND SELFDESTRUCT JUMPDEST PUSH1 0x0 DUP1 PUSH1 0x0 DUP1 PUSH2 0x793 DUP7 DUP7 PUSH2 0x80C JUMP JUMPDEST PUSH1 0x0 DUP1 SWAP1 SLOAD SWAP1 PUSH2 0x100 EXP SWAP1 DIV PUSH20 0xFFFFFFFFFFFFFFFFFFFFFFFFFFFFFFFFFFFFFFFF AND PUSH1 0x2 PUSH1 0x0 SWAP1 SLOAD SWAP1 PUSH2 0x100 EXP SWAP1 DIV PUSH20 0xFFFFFFFFFFFFFFFFFFFFFFFFFFFFFFFFFFFFFFFF AND PUSH1 0x1 PUSH1 0x0 SWAP1 SLOAD SWAP1 PUSH2 0x100 EXP SWAP1 DIV PUSH20 0xFFFFFFFFFFFFFFFFFFFFFFFFFFFFFFFFFFFFFFFF AND SWAP4 POP SWAP4 POP SWAP4 POP SWAP4 POP SWAP3 SWAP6 SWAP2 SWAP5 POP SWAP3 POP JUMP JUMPDEST PUSH1 0x0 PUSH2 0x818 DUP4 DUP4 PUSH2 0x820 JUMP JUMPDEST SWAP1 POP SWAP3 SWAP2 POP POP JUMP JUMPDEST PUSH1 0x0 DUP1 PUSH1 0x0 DUP1 PUSH1 0x41 DUP6 MLOAD EQ ISZERO ISZERO PUSH2 0x83A JUMPI PUSH1 0x0 SWAP4 POP PUSH2 0x90F JUMP JUMPDEST PUSH1 0x20 DUP6 ADD MLOAD SWAP3 POP PUSH1 0x40 DUP6 ADD MLOAD SWAP2 POP PUSH1 0x60 DUP6 ADD MLOAD PUSH1 0x0 BYTE SWAP1 POP PUSH1 0x1B DUP2 PUSH1 0xFF AND LT ISZERO PUSH2 0x865 JUMPI PUSH1 0x1B DUP2 ADD SWAP1 POP JUMPDEST PUSH1 0x1B DUP2 PUSH1 0xFF AND EQ ISZERO DUP1 ISZERO PUSH2 0x87D JUMPI POP PUSH1 0x1C DUP2 PUSH1 0xFF AND EQ ISZERO JUMPDEST ISZERO PUSH2 0x88B JUMPI PUSH1 0x0 SWAP4 POP PUSH2 0x90F JUMP JUMPDEST PUSH1 0x1 DUP7 DUP3 DUP6 DUP6 PUSH1 0x40 MLOAD PUSH1 0x0 DUP2 MSTORE PUSH1 0x20 ADD PUSH1 0x40 MSTORE PUSH1 0x40 MLOAD DUP1 DUP6 PUSH1 0x0 NOT AND PUSH1 0x0 NOT AND DUP2 MSTORE PUSH1 0x20 ADD DUP5 PUSH1 0xFF AND PUSH1 0xFF AND DUP2 MSTORE PUSH1 0x20 ADD DUP4 PUSH1 0x0 NOT AND PUSH1 0x0 NOT AND DUP2 MSTORE PUSH1 0x20 ADD DUP3 PUSH1 0x0 NOT AND PUSH1 0x0 NOT AND DUP2 MSTORE PUSH1 0x20 ADD SWAP5 POP POP POP POP POP PUSH1 0x20 PUSH1 0x40 MLOAD PUSH1 0x20 DUP2 SUB SWAP1 DUP1 DUP5 SUB SWAP1 PUSH1 0x0 DUP7 GAS CALL ISZERO DUP1 ISZERO PUSH2 0x902 JUMPI RETURNDATASIZE PUSH1 0x0 DUP1 RETURNDATACOPY RETURNDATASIZE PUSH1 0x0 REVERT JUMPDEST POP POP POP PUSH1 0x20 PUSH1 0x40 MLOAD SUB MLOAD SWAP4 POP JUMPDEST POP POP POP SWAP3 SWAP2 POP POP JUMP STOP LOG1 PUSH6 0x627A7A723058 KECCAK256 TIMESTAMP 0xf7 0xae 0x1e DUP12 DELEGATECALL XOR PUSH26 0xB3C68F10E5B19C014A2D5F111E270B037C7C15A9B417A55E0029 "
				},
				"gasEstimates": {
					"creation": {
						"codeDepositCost": "474400",
						"executionCost": "101756",
						"totalCost": "576156"
					},
					"external": {
						"closeChannel(bytes32,bytes,uint256)": "infinite",
						"getChannelParties(bytes32,bytes)": "infinite",
						"timeOutChannel()": "30622"
					},
					"internal": {
						"getSignerFromHashAndSig(bytes32,bytes memory)": "infinite"
					}
				},
				"methodIdentifiers": {
					"closeChannel(bytes32,bytes,uint256)": "5b73a86d",
					"getChannelParties(bytes32,bytes)": "bb3ee2fb",
					"timeOutChannel()": "71a97d13"
				}
			},
			"userdoc": {
				"methods": {}
			}
		}
	}
}