{
	"blockchain/EmployeeContractStorage.sol": {
		"EmployeeContractStorage": {
			"abi": [
				{
					"constant": true,
					"inputs": [
						{
							"name": "_employeeAddress",
							"type": "address"
						}
					],
					"name": "employeeExists",
					"outputs": [
						{
							"name": "",
							"type": "bool"
						}
					],
					"payable": false,
					"stateMutability": "view",
					"type": "function"
				},
				{
					"constant": true,
					"inputs": [],
					"name": "getBalance",
					"outputs": [
						{
							"name": "",
							"type": "uint256"
						}
					],
					"payable": false,
					"stateMutability": "view",
					"type": "function"
				},
				{
					"constant": false,
					"inputs": [
						{
							"name": "amount",
							"type": "uint256"
						}
					],
					"name": "withdrawFunds",
					"outputs": [],
					"payable": false,
					"stateMutability": "nonpayable",
					"type": "function"
				},
				{
					"constant": false,
					"inputs": [
						{
							"name": "_employeeAddress",
							"type": "address"
						},
						{
							"name": "_salaryPerSecond",
							"type": "uint256"
						}
					],
					"name": "updateSalaryPerSecond",
					"outputs": [],
					"payable": false,
					"stateMutability": "nonpayable",
					"type": "function"
				},
				{
					"constant": true,
					"inputs": [],
					"name": "getNumberOfEmployees",
					"outputs": [
						{
							"name": "",
							"type": "uint256"
						}
					],
					"payable": false,
					"stateMutability": "view",
					"type": "function"
				},
				{
					"constant": true,
					"inputs": [],
					"name": "countEmployees",
					"outputs": [
						{
							"name": "",
							"type": "uint256"
						}
					],
					"payable": false,
					"stateMutability": "view",
					"type": "function"
				},
				{
					"constant": false,
					"inputs": [
						{
							"name": "_incomeAccount",
							"type": "address"
						},
						{
							"name": "_salaryPerSecond",
							"type": "uint256"
						},
						{
							"name": "_maximumSecondsPerSession",
							"type": "uint256"
						}
					],
					"name": "createEmployeeContract",
					"outputs": [
						{
							"name": "",
							"type": "uint256"
						}
					],
					"payable": false,
					"stateMutability": "nonpayable",
					"type": "function"
				},
				{
					"constant": true,
					"inputs": [
						{
							"name": "_index",
							"type": "uint256"
						}
					],
					"name": "getAddressByIndex",
					"outputs": [
						{
							"name": "",
							"type": "address"
						}
					],
					"payable": false,
					"stateMutability": "view",
					"type": "function"
				},
				{
					"constant": false,
					"inputs": [
						{
							"name": "_employeeAddress",
							"type": "address"
						},
						{
							"name": "_maximumSecondsPerSession",
							"type": "uint256"
						}
					],
					"name": "updateMaximumSecondsPerSession",
					"outputs": [],
					"payable": false,
					"stateMutability": "nonpayable",
					"type": "function"
				},
				{
					"constant": true,
					"inputs": [],
					"name": "employeeContractStorage",
					"outputs": [
						{
							"name": "",
							"type": "address"
						}
					],
					"payable": false,
					"stateMutability": "view",
					"type": "function"
				},
				{
					"constant": true,
					"inputs": [
						{
							"name": "_employeeAddress",
							"type": "address"
						}
					],
					"name": "readSalaryPerSecond",
					"outputs": [
						{
							"name": "",
							"type": "uint256"
						}
					],
					"payable": false,
					"stateMutability": "view",
					"type": "function"
				},
				{
					"constant": true,
					"inputs": [
						{
							"name": "_employeeAddress",
							"type": "address"
						}
					],
					"name": "readMaximumSecondsPerSession",
					"outputs": [
						{
							"name": "",
							"type": "uint256"
						}
					],
					"payable": false,
					"stateMutability": "view",
					"type": "function"
				},
				{
					"inputs": [],
					"payable": false,
					"stateMutability": "nonpayable",
					"type": "constructor"
				},
				{
					"anonymous": false,
					"inputs": [
						{
							"indexed": true,
							"name": "_from",
							"type": "address"
						},
						{
							"indexed": false,
							"name": "incomeAccount",
							"type": "address"
						},
						{
							"indexed": false,
							"name": "salaryPerSecond",
							"type": "uint256"
						},
						{
							"indexed": false,
							"name": "maximumSecondsPerSession",
							"type": "uint256"
						}
					],
					"name": "EmployeeContractCreation",
					"type": "event"
				}
			],
			"devdoc": {
				"methods": {}
			},
			"evm": {
				"assembly": "    /* \"blockchain/EmployeeContractStorage.sol\":28:4580  contract EmployeeContractStorage  {\r... */\n  mstore(0x40, 0x80)\n    /* \"blockchain/EmployeeContractStorage.sol\":1274:1334  constructor() public {\r... */\n  callvalue\n    /* \"--CODEGEN--\":8:17   */\n  dup1\n    /* \"--CODEGEN--\":5:7   */\n  iszero\n  tag_1\n  jumpi\n    /* \"--CODEGEN--\":30:31   */\n  0x0\n    /* \"--CODEGEN--\":27:28   */\n  dup1\n    /* \"--CODEGEN--\":20:32   */\n  revert\n    /* \"--CODEGEN--\":5:7   */\ntag_1:\n    /* \"blockchain/EmployeeContractStorage.sol\":1274:1334  constructor() public {\r... */\n  pop\n    /* \"blockchain/EmployeeContractStorage.sol\":1324:1325  0 */\n  0x0\n    /* \"blockchain/EmployeeContractStorage.sol\":1306:1321  employeeCounter */\n  0x1\n    /* \"blockchain/EmployeeContractStorage.sol\":1306:1325  employeeCounter = 0 */\n  dup2\n  swap1\n  sstore\n  pop\n    /* \"blockchain/EmployeeContractStorage.sol\":28:4580  contract EmployeeContractStorage  {\r... */\n  dataSize(sub_0)\n  dup1\n  dataOffset(sub_0)\n  0x0\n  codecopy\n  0x0\n  return\nstop\n\nsub_0: assembly {\n        /* \"blockchain/EmployeeContractStorage.sol\":28:4580  contract EmployeeContractStorage  {\r... */\n      mstore(0x40, 0x80)\n      jumpi(tag_1, lt(calldatasize, 0x4))\n      calldataload(0x0)\n      0x100000000000000000000000000000000000000000000000000000000\n      swap1\n      div\n      0xffffffff\n      and\n      dup1\n      0x1024f223\n      eq\n      tag_2\n      jumpi\n      dup1\n      0x12065fe0\n      eq\n      tag_3\n      jumpi\n      dup1\n      0x155dd5ee\n      eq\n      tag_4\n      jumpi\n      dup1\n      0x5da74955\n      eq\n      tag_5\n      jumpi\n      dup1\n      0x888e1d05\n      eq\n      tag_6\n      jumpi\n      dup1\n      0x988c0bce\n      eq\n      tag_7\n      jumpi\n      dup1\n      0x9e757f98\n      eq\n      tag_8\n      jumpi\n      dup1\n      0xce10cf88\n      eq\n      tag_9\n      jumpi\n      dup1\n      0xdbbf65b7\n      eq\n      tag_10\n      jumpi\n      dup1\n      0xee3b8d43\n      eq\n      tag_11\n      jumpi\n      dup1\n      0xf5e369e8\n      eq\n      tag_12\n      jumpi\n      dup1\n      0xfd2b8257\n      eq\n      tag_13\n      jumpi\n    tag_1:\n      0x0\n      dup1\n      revert\n        /* \"blockchain/EmployeeContractStorage.sol\":4373:4575  function employeeExists(address _employeeAddress) \r... */\n    tag_2:\n      callvalue\n        /* \"--CODEGEN--\":8:17   */\n      dup1\n        /* \"--CODEGEN--\":5:7   */\n      iszero\n      tag_14\n      jumpi\n        /* \"--CODEGEN--\":30:31   */\n      0x0\n        /* \"--CODEGEN--\":27:28   */\n      dup1\n        /* \"--CODEGEN--\":20:32   */\n      revert\n        /* \"--CODEGEN--\":5:7   */\n    tag_14:\n        /* \"blockchain/EmployeeContractStorage.sol\":4373:4575  function employeeExists(address _employeeAddress) \r... */\n      pop\n      tag_15\n      0x4\n      dup1\n      calldatasize\n      sub\n      dup2\n      add\n      swap1\n      dup1\n      dup1\n      calldataload\n      0xffffffffffffffffffffffffffffffffffffffff\n      and\n      swap1\n      0x20\n      add\n      swap1\n      swap3\n      swap2\n      swap1\n      pop\n      pop\n      pop\n      jump(tag_16)\n    tag_15:\n      mload(0x40)\n      dup1\n      dup3\n      iszero\n      iszero\n      iszero\n      iszero\n      dup2\n      mstore\n      0x20\n      add\n      swap2\n      pop\n      pop\n      mload(0x40)\n      dup1\n      swap2\n      sub\n      swap1\n      return\n        /* \"blockchain/EmployeeContractStorage.sol\":1674:1782  function getBalance() \r... */\n    tag_3:\n      callvalue\n        /* \"--CODEGEN--\":8:17   */\n      dup1\n        /* \"--CODEGEN--\":5:7   */\n      iszero\n      tag_17\n      jumpi\n        /* \"--CODEGEN--\":30:31   */\n      0x0\n        /* \"--CODEGEN--\":27:28   */\n      dup1\n        /* \"--CODEGEN--\":20:32   */\n      revert\n        /* \"--CODEGEN--\":5:7   */\n    tag_17:\n        /* \"blockchain/EmployeeContractStorage.sol\":1674:1782  function getBalance() \r... */\n      pop\n      tag_18\n      jump(tag_19)\n    tag_18:\n      mload(0x40)\n      dup1\n      dup3\n      dup2\n      mstore\n      0x20\n      add\n      swap2\n      pop\n      pop\n      mload(0x40)\n      dup1\n      swap2\n      sub\n      swap1\n      return\n        /* \"blockchain/EmployeeContractStorage.sol\":1363:1668  function withdrawFunds(uint amount) \r... */\n    tag_4:\n      callvalue\n        /* \"--CODEGEN--\":8:17   */\n      dup1\n        /* \"--CODEGEN--\":5:7   */\n      iszero\n      tag_20\n      jumpi\n        /* \"--CODEGEN--\":30:31   */\n      0x0\n        /* \"--CODEGEN--\":27:28   */\n      dup1\n        /* \"--CODEGEN--\":20:32   */\n      revert\n        /* \"--CODEGEN--\":5:7   */\n    tag_20:\n        /* \"blockchain/EmployeeContractStorage.sol\":1363:1668  function withdrawFunds(uint amount) \r... */\n      pop\n      tag_21\n      0x4\n      dup1\n      calldatasize\n      sub\n      dup2\n      add\n      swap1\n      dup1\n      dup1\n      calldataload\n      swap1\n      0x20\n      add\n      swap1\n      swap3\n      swap2\n      swap1\n      pop\n      pop\n      pop\n      jump(tag_22)\n    tag_21:\n      stop\n        /* \"blockchain/EmployeeContractStorage.sol\":3023:3248  function updateSalaryPerSecond(address _employeeAddress, uint _salaryPerSecond)\r... */\n    tag_5:\n      callvalue\n        /* \"--CODEGEN--\":8:17   */\n      dup1\n        /* \"--CODEGEN--\":5:7   */\n      iszero\n      tag_23\n      jumpi\n        /* \"--CODEGEN--\":30:31   */\n      0x0\n        /* \"--CODEGEN--\":27:28   */\n      dup1\n        /* \"--CODEGEN--\":20:32   */\n      revert\n        /* \"--CODEGEN--\":5:7   */\n    tag_23:\n        /* \"blockchain/EmployeeContractStorage.sol\":3023:3248  function updateSalaryPerSecond(address _employeeAddress, uint _salaryPerSecond)\r... */\n      pop\n      tag_24\n      0x4\n      dup1\n      calldatasize\n      sub\n      dup2\n      add\n      swap1\n      dup1\n      dup1\n      calldataload\n      0xffffffffffffffffffffffffffffffffffffffff\n      and\n      swap1\n      0x20\n      add\n      swap1\n      swap3\n      swap2\n      swap1\n      dup1\n      calldataload\n      swap1\n      0x20\n      add\n      swap1\n      swap3\n      swap2\n      swap1\n      pop\n      pop\n      pop\n      jump(tag_25)\n    tag_24:\n      stop\n        /* \"blockchain/EmployeeContractStorage.sol\":4253:4365  function getNumberOfEmployees() \r... */\n    tag_6:\n      callvalue\n        /* \"--CODEGEN--\":8:17   */\n      dup1\n        /* \"--CODEGEN--\":5:7   */\n      iszero\n      tag_26\n      jumpi\n        /* \"--CODEGEN--\":30:31   */\n      0x0\n        /* \"--CODEGEN--\":27:28   */\n      dup1\n        /* \"--CODEGEN--\":20:32   */\n      revert\n        /* \"--CODEGEN--\":5:7   */\n    tag_26:\n        /* \"blockchain/EmployeeContractStorage.sol\":4253:4365  function getNumberOfEmployees() \r... */\n      pop\n      tag_27\n      jump(tag_28)\n    tag_27:\n      mload(0x40)\n      dup1\n      dup3\n      dup2\n      mstore\n      0x20\n      add\n      swap2\n      pop\n      pop\n      mload(0x40)\n      dup1\n      swap2\n      sub\n      swap1\n      return\n        /* \"blockchain/EmployeeContractStorage.sol\":1789:1930  function countEmployees()\r... */\n    tag_7:\n      callvalue\n        /* \"--CODEGEN--\":8:17   */\n      dup1\n        /* \"--CODEGEN--\":5:7   */\n      iszero\n      tag_29\n      jumpi\n        /* \"--CODEGEN--\":30:31   */\n      0x0\n        /* \"--CODEGEN--\":27:28   */\n      dup1\n        /* \"--CODEGEN--\":20:32   */\n      revert\n        /* \"--CODEGEN--\":5:7   */\n    tag_29:\n        /* \"blockchain/EmployeeContractStorage.sol\":1789:1930  function countEmployees()\r... */\n      pop\n      tag_30\n      jump(tag_31)\n    tag_30:\n      mload(0x40)\n      dup1\n      dup3\n      dup2\n      mstore\n      0x20\n      add\n      swap2\n      pop\n      pop\n      mload(0x40)\n      dup1\n      swap2\n      sub\n      swap1\n      return\n        /* \"blockchain/EmployeeContractStorage.sol\":2104:2978  function createEmployeeContract(address _incomeAccount, uint _salaryPerSecond, uint _maximumSecondsPerSession) \r... */\n    tag_8:\n      callvalue\n        /* \"--CODEGEN--\":8:17   */\n      dup1\n        /* \"--CODEGEN--\":5:7   */\n      iszero\n      tag_32\n      jumpi\n        /* \"--CODEGEN--\":30:31   */\n      0x0\n        /* \"--CODEGEN--\":27:28   */\n      dup1\n        /* \"--CODEGEN--\":20:32   */\n      revert\n        /* \"--CODEGEN--\":5:7   */\n    tag_32:\n        /* \"blockchain/EmployeeContractStorage.sol\":2104:2978  function createEmployeeContract(address _incomeAccount, uint _salaryPerSecond, uint _maximumSecondsPerSession) \r... */\n      pop\n      tag_33\n      0x4\n      dup1\n      calldatasize\n      sub\n      dup2\n      add\n      swap1\n      dup1\n      dup1\n      calldataload\n      0xffffffffffffffffffffffffffffffffffffffff\n      and\n      swap1\n      0x20\n      add\n      swap1\n      swap3\n      swap2\n      swap1\n      dup1\n      calldataload\n      swap1\n      0x20\n      add\n      swap1\n      swap3\n      swap2\n      swap1\n      dup1\n      calldataload\n      swap1\n      0x20\n      add\n      swap1\n      swap3\n      swap2\n      swap1\n      pop\n      pop\n      pop\n      jump(tag_34)\n    tag_33:\n      mload(0x40)\n      dup1\n      dup3\n      dup2\n      mstore\n      0x20\n      add\n      swap2\n      pop\n      pop\n      mload(0x40)\n      dup1\n      swap2\n      sub\n      swap1\n      return\n        /* \"blockchain/EmployeeContractStorage.sol\":4126:4245  function getAddressByIndex(uint _index) \r... */\n    tag_9:\n      callvalue\n        /* \"--CODEGEN--\":8:17   */\n      dup1\n        /* \"--CODEGEN--\":5:7   */\n      iszero\n      tag_35\n      jumpi\n        /* \"--CODEGEN--\":30:31   */\n      0x0\n        /* \"--CODEGEN--\":27:28   */\n      dup1\n        /* \"--CODEGEN--\":20:32   */\n      revert\n        /* \"--CODEGEN--\":5:7   */\n    tag_35:\n        /* \"blockchain/EmployeeContractStorage.sol\":4126:4245  function getAddressByIndex(uint _index) \r... */\n      pop\n      tag_36\n      0x4\n      dup1\n      calldatasize\n      sub\n      dup2\n      add\n      swap1\n      dup1\n      dup1\n      calldataload\n      swap1\n      0x20\n      add\n      swap1\n      swap3\n      swap2\n      swap1\n      pop\n      pop\n      pop\n      jump(tag_37)\n    tag_36:\n      mload(0x40)\n      dup1\n      dup3\n      0xffffffffffffffffffffffffffffffffffffffff\n      and\n      0xffffffffffffffffffffffffffffffffffffffff\n      and\n      dup2\n      mstore\n      0x20\n      add\n      swap2\n      pop\n      pop\n      mload(0x40)\n      dup1\n      swap2\n      sub\n      swap1\n      return\n        /* \"blockchain/EmployeeContractStorage.sol\":3298:3566  function updateMaximumSecondsPerSession(address _employeeAddress, uint _maximumSecondsPerSession)\r... */\n    tag_10:\n      callvalue\n        /* \"--CODEGEN--\":8:17   */\n      dup1\n        /* \"--CODEGEN--\":5:7   */\n      iszero\n      tag_38\n      jumpi\n        /* \"--CODEGEN--\":30:31   */\n      0x0\n        /* \"--CODEGEN--\":27:28   */\n      dup1\n        /* \"--CODEGEN--\":20:32   */\n      revert\n        /* \"--CODEGEN--\":5:7   */\n    tag_38:\n        /* \"blockchain/EmployeeContractStorage.sol\":3298:3566  function updateMaximumSecondsPerSession(address _employeeAddress, uint _maximumSecondsPerSession)\r... */\n      pop\n      tag_39\n      0x4\n      dup1\n      calldatasize\n      sub\n      dup2\n      add\n      swap1\n      dup1\n      dup1\n      calldataload\n      0xffffffffffffffffffffffffffffffffffffffff\n      and\n      swap1\n      0x20\n      add\n      swap1\n      swap3\n      swap2\n      swap1\n      dup1\n      calldataload\n      swap1\n      0x20\n      add\n      swap1\n      swap3\n      swap2\n      swap1\n      pop\n      pop\n      pop\n      jump(tag_40)\n    tag_39:\n      stop\n        /* \"blockchain/EmployeeContractStorage.sol\":97:151  EmployeeContractStorage public employeeContractStorage */\n    tag_11:\n      callvalue\n        /* \"--CODEGEN--\":8:17   */\n      dup1\n        /* \"--CODEGEN--\":5:7   */\n      iszero\n      tag_41\n      jumpi\n        /* \"--CODEGEN--\":30:31   */\n      0x0\n        /* \"--CODEGEN--\":27:28   */\n      dup1\n        /* \"--CODEGEN--\":20:32   */\n      revert\n        /* \"--CODEGEN--\":5:7   */\n    tag_41:\n        /* \"blockchain/EmployeeContractStorage.sol\":97:151  EmployeeContractStorage public employeeContractStorage */\n      pop\n      tag_42\n      jump(tag_43)\n    tag_42:\n      mload(0x40)\n      dup1\n      dup3\n      0xffffffffffffffffffffffffffffffffffffffff\n      and\n      0xffffffffffffffffffffffffffffffffffffffff\n      and\n      dup2\n      mstore\n      0x20\n      add\n      swap2\n      pop\n      pop\n      mload(0x40)\n      dup1\n      swap2\n      sub\n      swap1\n      return\n        /* \"blockchain/EmployeeContractStorage.sol\":3611:3830  function readSalaryPerSecond(address _employeeAddress) \r... */\n    tag_12:\n      callvalue\n        /* \"--CODEGEN--\":8:17   */\n      dup1\n        /* \"--CODEGEN--\":5:7   */\n      iszero\n      tag_44\n      jumpi\n        /* \"--CODEGEN--\":30:31   */\n      0x0\n        /* \"--CODEGEN--\":27:28   */\n      dup1\n        /* \"--CODEGEN--\":20:32   */\n      revert\n        /* \"--CODEGEN--\":5:7   */\n    tag_44:\n        /* \"blockchain/EmployeeContractStorage.sol\":3611:3830  function readSalaryPerSecond(address _employeeAddress) \r... */\n      pop\n      tag_45\n      0x4\n      dup1\n      calldatasize\n      sub\n      dup2\n      add\n      swap1\n      dup1\n      dup1\n      calldataload\n      0xffffffffffffffffffffffffffffffffffffffff\n      and\n      swap1\n      0x20\n      add\n      swap1\n      swap3\n      swap2\n      swap1\n      pop\n      pop\n      pop\n      jump(tag_46)\n    tag_45:\n      mload(0x40)\n      dup1\n      dup3\n      dup2\n      mstore\n      0x20\n      add\n      swap2\n      pop\n      pop\n      mload(0x40)\n      dup1\n      swap2\n      sub\n      swap1\n      return\n        /* \"blockchain/EmployeeContractStorage.sol\":3881:4118  function readMaximumSecondsPerSession(address _employeeAddress) \r... */\n    tag_13:\n      callvalue\n        /* \"--CODEGEN--\":8:17   */\n      dup1\n        /* \"--CODEGEN--\":5:7   */\n      iszero\n      tag_47\n      jumpi\n        /* \"--CODEGEN--\":30:31   */\n      0x0\n        /* \"--CODEGEN--\":27:28   */\n      dup1\n        /* \"--CODEGEN--\":20:32   */\n      revert\n        /* \"--CODEGEN--\":5:7   */\n    tag_47:\n        /* \"blockchain/EmployeeContractStorage.sol\":3881:4118  function readMaximumSecondsPerSession(address _employeeAddress) \r... */\n      pop\n      tag_48\n      0x4\n      dup1\n      calldatasize\n      sub\n      dup2\n      add\n      swap1\n      dup1\n      dup1\n      calldataload\n      0xffffffffffffffffffffffffffffffffffffffff\n      and\n      swap1\n      0x20\n      add\n      swap1\n      swap3\n      swap2\n      swap1\n      pop\n      pop\n      pop\n      jump(tag_49)\n    tag_48:\n      mload(0x40)\n      dup1\n      dup3\n      dup2\n      mstore\n      0x20\n      add\n      swap2\n      pop\n      pop\n      mload(0x40)\n      dup1\n      swap2\n      sub\n      swap1\n      return\n        /* \"blockchain/EmployeeContractStorage.sol\":4373:4575  function employeeExists(address _employeeAddress) \r... */\n    tag_16:\n        /* \"blockchain/EmployeeContractStorage.sol\":4456:4460  bool */\n      0x0\n        /* \"blockchain/EmployeeContractStorage.sol\":4529:4533  true */\n      0x1\n        /* \"blockchain/EmployeeContractStorage.sol\":4480:4533  employeeContractsMap[_employeeAddress].exists == true */\n      iszero\n      iszero\n        /* \"blockchain/EmployeeContractStorage.sol\":4480:4500  employeeContractsMap */\n      0x2\n        /* \"blockchain/EmployeeContractStorage.sol\":4480:4518  employeeContractsMap[_employeeAddress] */\n      0x0\n        /* \"blockchain/EmployeeContractStorage.sol\":4501:4517  _employeeAddress */\n      dup5\n        /* \"blockchain/EmployeeContractStorage.sol\":4480:4518  employeeContractsMap[_employeeAddress] */\n      0xffffffffffffffffffffffffffffffffffffffff\n      and\n      0xffffffffffffffffffffffffffffffffffffffff\n      and\n      dup2\n      mstore\n      0x20\n      add\n      swap1\n      dup2\n      mstore\n      0x20\n      add\n      0x0\n      keccak256\n        /* \"blockchain/EmployeeContractStorage.sol\":4480:4525  employeeContractsMap[_employeeAddress].exists */\n      0x0\n      add\n      0x0\n      swap1\n      sload\n      swap1\n      0x100\n      exp\n      swap1\n      div\n      0xff\n      and\n        /* \"blockchain/EmployeeContractStorage.sol\":4480:4533  employeeContractsMap[_employeeAddress].exists == true */\n      iszero\n      iszero\n      eq\n        /* \"blockchain/EmployeeContractStorage.sol\":4473:4533  return employeeContractsMap[_employeeAddress].exists == true */\n      swap1\n      pop\n        /* \"blockchain/EmployeeContractStorage.sol\":4373:4575  function employeeExists(address _employeeAddress) \r... */\n      swap2\n      swap1\n      pop\n      jump\t// out\n        /* \"blockchain/EmployeeContractStorage.sol\":1674:1782  function getBalance() \r... */\n    tag_19:\n        /* \"blockchain/EmployeeContractStorage.sol\":1729:1733  uint */\n      0x0\n        /* \"blockchain/EmployeeContractStorage.sol\":1761:1765  this */\n      address\n        /* \"blockchain/EmployeeContractStorage.sol\":1753:1774  address(this).balance */\n      0xffffffffffffffffffffffffffffffffffffffff\n      and\n      balance\n        /* \"blockchain/EmployeeContractStorage.sol\":1746:1774  return address(this).balance */\n      swap1\n      pop\n        /* \"blockchain/EmployeeContractStorage.sol\":1674:1782  function getBalance() \r... */\n      swap1\n      jump\t// out\n        /* \"blockchain/EmployeeContractStorage.sol\":1363:1668  function withdrawFunds(uint amount) \r... */\n    tag_22:\n        /* \"blockchain/EmployeeContractStorage.sol\":1510:1514  this */\n      address\n        /* \"blockchain/EmployeeContractStorage.sol\":1502:1523  address(this).balance */\n      0xffffffffffffffffffffffffffffffffffffffff\n      and\n      balance\n        /* \"blockchain/EmployeeContractStorage.sol\":1492:1498  amount */\n      dup2\n        /* \"blockchain/EmployeeContractStorage.sol\":1492:1523  amount <= address(this).balance */\n      gt\n      iszero\n        /* \"blockchain/EmployeeContractStorage.sol\":1484:1555  require(amount <= address(this).balance, \"Not enough money in Payroll\") */\n      iszero\n      iszero\n      tag_53\n      jumpi\n      mload(0x40)\n      0x8c379a000000000000000000000000000000000000000000000000000000000\n      dup2\n      mstore\n      0x4\n      add\n      dup1\n      dup1\n      0x20\n      add\n      dup3\n      dup2\n      sub\n      dup3\n      mstore\n      0x1b\n      dup2\n      mstore\n      0x20\n      add\n      dup1\n      0x4e6f7420656e6f756768206d6f6e657920696e20506179726f6c6c0000000000\n      dup2\n      mstore\n      pop\n      0x20\n      add\n      swap2\n      pop\n      pop\n      mload(0x40)\n      dup1\n      swap2\n      sub\n      swap1\n      revert\n    tag_53:\n        /* \"blockchain/EmployeeContractStorage.sol\":1583:1584  0 */\n      0x0\n        /* \"blockchain/EmployeeContractStorage.sol\":1574:1580  amount */\n      dup2\n        /* \"blockchain/EmployeeContractStorage.sol\":1574:1584  amount > 0 */\n      gt\n        /* \"blockchain/EmployeeContractStorage.sol\":1566:1622  require(amount > 0, \"Withdrawing 0 will have no effect\") */\n      iszero\n      iszero\n      tag_54\n      jumpi\n      mload(0x40)\n      0x8c379a000000000000000000000000000000000000000000000000000000000\n      dup2\n      mstore\n      0x4\n      add\n      dup1\n      dup1\n      0x20\n      add\n      dup3\n      dup2\n      sub\n      dup3\n      mstore\n      0x21\n      dup2\n      mstore\n      0x20\n      add\n      dup1\n      0x5769746864726177696e6720302077696c6c2068617665206e6f206566666563\n      dup2\n      mstore\n      0x20\n      add\n      0x7400000000000000000000000000000000000000000000000000000000000000\n      dup2\n      mstore\n      pop\n      0x40\n      add\n      swap2\n      pop\n      pop\n      mload(0x40)\n      dup1\n      swap2\n      sub\n      swap1\n      revert\n    tag_54:\n        /* \"blockchain/EmployeeContractStorage.sol\":1633:1643  msg.sender */\n      caller\n        /* \"blockchain/EmployeeContractStorage.sol\":1633:1652  msg.sender.transfer */\n      0xffffffffffffffffffffffffffffffffffffffff\n      and\n        /* \"blockchain/EmployeeContractStorage.sol\":1633:1660  msg.sender.transfer(amount) */\n      0x8fc\n        /* \"blockchain/EmployeeContractStorage.sol\":1653:1659  amount */\n      dup3\n        /* \"blockchain/EmployeeContractStorage.sol\":1633:1660  msg.sender.transfer(amount) */\n      swap1\n      dup2\n      iszero\n      mul\n      swap1\n      mload(0x40)\n      0x0\n      mload(0x40)\n      dup1\n      dup4\n      sub\n      dup2\n      dup6\n      dup9\n      dup9\n      call\n      swap4\n      pop\n      pop\n      pop\n      pop\n      iszero\n        /* \"--CODEGEN--\":8:17   */\n      dup1\n        /* \"--CODEGEN--\":5:7   */\n      iszero\n      tag_55\n      jumpi\n        /* \"--CODEGEN--\":45:61   */\n      returndatasize\n        /* \"--CODEGEN--\":42:43   */\n      0x0\n        /* \"--CODEGEN--\":39:40   */\n      dup1\n        /* \"--CODEGEN--\":24:62   */\n      returndatacopy\n        /* \"--CODEGEN--\":77:93   */\n      returndatasize\n        /* \"--CODEGEN--\":74:75   */\n      0x0\n        /* \"--CODEGEN--\":67:94   */\n      revert\n        /* \"--CODEGEN--\":5:7   */\n    tag_55:\n        /* \"blockchain/EmployeeContractStorage.sol\":1633:1660  msg.sender.transfer(amount) */\n      pop\n        /* \"blockchain/EmployeeContractStorage.sol\":1363:1668  function withdrawFunds(uint amount) \r... */\n      pop\n      jump\t// out\n        /* \"blockchain/EmployeeContractStorage.sol\":3023:3248  function updateSalaryPerSecond(address _employeeAddress, uint _salaryPerSecond)\r... */\n    tag_25:\n        /* \"blockchain/EmployeeContractStorage.sol\":3138:3154  _employeeAddress */\n      dup2\n        /* \"blockchain/EmployeeContractStorage.sol\":806:810  true */\n      0x1\n        /* \"blockchain/EmployeeContractStorage.sol\":765:810  employeeContractsMap[_address].exists == true */\n      iszero\n      iszero\n        /* \"blockchain/EmployeeContractStorage.sol\":765:785  employeeContractsMap */\n      0x2\n        /* \"blockchain/EmployeeContractStorage.sol\":765:795  employeeContractsMap[_address] */\n      0x0\n        /* \"blockchain/EmployeeContractStorage.sol\":786:794  _address */\n      dup4\n        /* \"blockchain/EmployeeContractStorage.sol\":765:795  employeeContractsMap[_address] */\n      0xffffffffffffffffffffffffffffffffffffffff\n      and\n      0xffffffffffffffffffffffffffffffffffffffff\n      and\n      dup2\n      mstore\n      0x20\n      add\n      swap1\n      dup2\n      mstore\n      0x20\n      add\n      0x0\n      keccak256\n        /* \"blockchain/EmployeeContractStorage.sol\":765:802  employeeContractsMap[_address].exists */\n      0x0\n      add\n      0x0\n      swap1\n      sload\n      swap1\n      0x100\n      exp\n      swap1\n      div\n      0xff\n      and\n        /* \"blockchain/EmployeeContractStorage.sol\":765:810  employeeContractsMap[_address].exists == true */\n      iszero\n      iszero\n      eq\n        /* \"blockchain/EmployeeContractStorage.sol\":757:838  require(employeeContractsMap[_address].exists == true, \"Employee does not exist\") */\n      iszero\n      iszero\n      tag_57\n      jumpi\n      mload(0x40)\n      0x8c379a000000000000000000000000000000000000000000000000000000000\n      dup2\n      mstore\n      0x4\n      add\n      dup1\n      dup1\n      0x20\n      add\n      dup3\n      dup2\n      sub\n      dup3\n      mstore\n      0x17\n      dup2\n      mstore\n      0x20\n      add\n      dup1\n      0x456d706c6f79656520646f6573206e6f74206578697374000000000000000000\n      dup2\n      mstore\n      pop\n      0x20\n      add\n      swap2\n      pop\n      pop\n      mload(0x40)\n      dup1\n      swap2\n      sub\n      swap1\n      revert\n    tag_57:\n        /* \"blockchain/EmployeeContractStorage.sol\":3224:3240  _salaryPerSecond */\n      dup2\n        /* \"blockchain/EmployeeContractStorage.sol\":3167:3187  employeeContractsMap */\n      0x2\n        /* \"blockchain/EmployeeContractStorage.sol\":3167:3205  employeeContractsMap[_employeeAddress] */\n      0x0\n        /* \"blockchain/EmployeeContractStorage.sol\":3188:3204  _employeeAddress */\n      dup6\n        /* \"blockchain/EmployeeContractStorage.sol\":3167:3205  employeeContractsMap[_employeeAddress] */\n      0xffffffffffffffffffffffffffffffffffffffff\n      and\n      0xffffffffffffffffffffffffffffffffffffffff\n      and\n      dup2\n      mstore\n      0x20\n      add\n      swap1\n      dup2\n      mstore\n      0x20\n      add\n      0x0\n      keccak256\n        /* \"blockchain/EmployeeContractStorage.sol\":3167:3221  employeeContractsMap[_employeeAddress].salaryPerSecond */\n      0x1\n      add\n        /* \"blockchain/EmployeeContractStorage.sol\":3167:3240  employeeContractsMap[_employeeAddress].salaryPerSecond = _salaryPerSecond */\n      dup2\n      swap1\n      sstore\n      pop\n        /* \"blockchain/EmployeeContractStorage.sol\":3023:3248  function updateSalaryPerSecond(address _employeeAddress, uint _salaryPerSecond)\r... */\n      pop\n      pop\n      pop\n      jump\t// out\n        /* \"blockchain/EmployeeContractStorage.sol\":4253:4365  function getNumberOfEmployees() \r... */\n    tag_28:\n        /* \"blockchain/EmployeeContractStorage.sol\":4318:4322  uint */\n      0x0\n        /* \"blockchain/EmployeeContractStorage.sol\":4342:4357  employeeCounter */\n      sload(0x1)\n        /* \"blockchain/EmployeeContractStorage.sol\":4335:4357  return employeeCounter */\n      swap1\n      pop\n        /* \"blockchain/EmployeeContractStorage.sol\":4253:4365  function getNumberOfEmployees() \r... */\n      swap1\n      jump\t// out\n        /* \"blockchain/EmployeeContractStorage.sol\":1789:1930  function countEmployees()\r... */\n    tag_31:\n        /* \"blockchain/EmployeeContractStorage.sol\":1847:1851  uint */\n      0x0\n        /* \"blockchain/EmployeeContractStorage.sol\":1871:1899  getEmployeeContractStorage() */\n      tag_61\n        /* \"blockchain/EmployeeContractStorage.sol\":1871:1897  getEmployeeContractStorage */\n      tag_62\n        /* \"blockchain/EmployeeContractStorage.sol\":1871:1899  getEmployeeContractStorage() */\n      jump\t// in\n    tag_61:\n        /* \"blockchain/EmployeeContractStorage.sol\":1871:1920  getEmployeeContractStorage().getNumberOfEmployees */\n      0xffffffffffffffffffffffffffffffffffffffff\n      and\n      0x888e1d05\n        /* \"blockchain/EmployeeContractStorage.sol\":1871:1922  getEmployeeContractStorage().getNumberOfEmployees() */\n      mload(0x40)\n      dup2\n      0xffffffff\n      and\n      0x100000000000000000000000000000000000000000000000000000000\n      mul\n      dup2\n      mstore\n      0x4\n      add\n      0x20\n      mload(0x40)\n      dup1\n      dup4\n      sub\n      dup2\n      0x0\n      dup8\n      dup1\n      extcodesize\n      iszero\n        /* \"--CODEGEN--\":8:17   */\n      dup1\n        /* \"--CODEGEN--\":5:7   */\n      iszero\n      tag_63\n      jumpi\n        /* \"--CODEGEN--\":30:31   */\n      0x0\n        /* \"--CODEGEN--\":27:28   */\n      dup1\n        /* \"--CODEGEN--\":20:32   */\n      revert\n        /* \"--CODEGEN--\":5:7   */\n    tag_63:\n        /* \"blockchain/EmployeeContractStorage.sol\":1871:1922  getEmployeeContractStorage().getNumberOfEmployees() */\n      pop\n      gas\n      call\n      iszero\n        /* \"--CODEGEN--\":8:17   */\n      dup1\n        /* \"--CODEGEN--\":5:7   */\n      iszero\n      tag_64\n      jumpi\n        /* \"--CODEGEN--\":45:61   */\n      returndatasize\n        /* \"--CODEGEN--\":42:43   */\n      0x0\n        /* \"--CODEGEN--\":39:40   */\n      dup1\n        /* \"--CODEGEN--\":24:62   */\n      returndatacopy\n        /* \"--CODEGEN--\":77:93   */\n      returndatasize\n        /* \"--CODEGEN--\":74:75   */\n      0x0\n        /* \"--CODEGEN--\":67:94   */\n      revert\n        /* \"--CODEGEN--\":5:7   */\n    tag_64:\n        /* \"blockchain/EmployeeContractStorage.sol\":1871:1922  getEmployeeContractStorage().getNumberOfEmployees() */\n      pop\n      pop\n      pop\n      pop\n      mload(0x40)\n      returndatasize\n        /* \"--CODEGEN--\":13:15   */\n      0x20\n        /* \"--CODEGEN--\":8:11   */\n      dup2\n        /* \"--CODEGEN--\":5:16   */\n      lt\n        /* \"--CODEGEN--\":2:4   */\n      iszero\n      tag_65\n      jumpi\n        /* \"--CODEGEN--\":29:30   */\n      0x0\n        /* \"--CODEGEN--\":26:27   */\n      dup1\n        /* \"--CODEGEN--\":19:31   */\n      revert\n        /* \"--CODEGEN--\":2:4   */\n    tag_65:\n        /* \"blockchain/EmployeeContractStorage.sol\":1871:1922  getEmployeeContractStorage().getNumberOfEmployees() */\n      dup2\n      add\n      swap1\n      dup1\n      dup1\n      mload\n      swap1\n      0x20\n      add\n      swap1\n      swap3\n      swap2\n      swap1\n      pop\n      pop\n      pop\n        /* \"blockchain/EmployeeContractStorage.sol\":1864:1922  return getEmployeeContractStorage().getNumberOfEmployees() */\n      swap1\n      pop\n        /* \"blockchain/EmployeeContractStorage.sol\":1789:1930  function countEmployees()\r... */\n      swap1\n      jump\t// out\n        /* \"blockchain/EmployeeContractStorage.sol\":2104:2978  function createEmployeeContract(address _incomeAccount, uint _salaryPerSecond, uint _maximumSecondsPerSession) \r... */\n    tag_34:\n        /* \"blockchain/EmployeeContractStorage.sol\":2286:2290  uint */\n      0x0\n        /* \"blockchain/EmployeeContractStorage.sol\":2256:2270  _incomeAccount */\n      dup4\n        /* \"blockchain/EmployeeContractStorage.sol\":981:986  false */\n      0x0\n        /* \"blockchain/EmployeeContractStorage.sol\":940:986  employeeContractsMap[_address].exists == false */\n      iszero\n      iszero\n        /* \"blockchain/EmployeeContractStorage.sol\":940:960  employeeContractsMap */\n      0x2\n        /* \"blockchain/EmployeeContractStorage.sol\":940:970  employeeContractsMap[_address] */\n      0x0\n        /* \"blockchain/EmployeeContractStorage.sol\":961:969  _address */\n      dup4\n        /* \"blockchain/EmployeeContractStorage.sol\":940:970  employeeContractsMap[_address] */\n      0xffffffffffffffffffffffffffffffffffffffff\n      and\n      0xffffffffffffffffffffffffffffffffffffffff\n      and\n      dup2\n      mstore\n      0x20\n      add\n      swap1\n      dup2\n      mstore\n      0x20\n      add\n      0x0\n      keccak256\n        /* \"blockchain/EmployeeContractStorage.sol\":940:977  employeeContractsMap[_address].exists */\n      0x0\n      add\n      0x0\n      swap1\n      sload\n      swap1\n      0x100\n      exp\n      swap1\n      div\n      0xff\n      and\n        /* \"blockchain/EmployeeContractStorage.sol\":940:986  employeeContractsMap[_address].exists == false */\n      iszero\n      iszero\n      eq\n        /* \"blockchain/EmployeeContractStorage.sol\":932:1014  require(employeeContractsMap[_address].exists == false, \"Employee already exists\") */\n      iszero\n      iszero\n      tag_67\n      jumpi\n      mload(0x40)\n      0x8c379a000000000000000000000000000000000000000000000000000000000\n      dup2\n      mstore\n      0x4\n      add\n      dup1\n      dup1\n      0x20\n      add\n      dup3\n      dup2\n      sub\n      dup3\n      mstore\n      0x17\n      dup2\n      mstore\n      0x20\n      add\n      dup1\n      0x456d706c6f79656520616c726561647920657869737473000000000000000000\n      dup2\n      mstore\n      pop\n      0x20\n      add\n      swap2\n      pop\n      pop\n      mload(0x40)\n      dup1\n      swap2\n      sub\n      swap1\n      revert\n    tag_67:\n        /* \"blockchain/EmployeeContractStorage.sol\":2405:2409  true */\n      0x1\n        /* \"blockchain/EmployeeContractStorage.sol\":2359:2379  employeeContractsMap */\n      0x2\n        /* \"blockchain/EmployeeContractStorage.sol\":2359:2395  employeeContractsMap[_incomeAccount] */\n      0x0\n        /* \"blockchain/EmployeeContractStorage.sol\":2380:2394  _incomeAccount */\n      dup8\n        /* \"blockchain/EmployeeContractStorage.sol\":2359:2395  employeeContractsMap[_incomeAccount] */\n      0xffffffffffffffffffffffffffffffffffffffff\n      and\n      0xffffffffffffffffffffffffffffffffffffffff\n      and\n      dup2\n      mstore\n      0x20\n      add\n      swap1\n      dup2\n      mstore\n      0x20\n      add\n      0x0\n      keccak256\n        /* \"blockchain/EmployeeContractStorage.sol\":2359:2402  employeeContractsMap[_incomeAccount].exists */\n      0x0\n      add\n      0x0\n        /* \"blockchain/EmployeeContractStorage.sol\":2359:2409  employeeContractsMap[_incomeAccount].exists = true */\n      0x100\n      exp\n      dup2\n      sload\n      dup2\n      0xff\n      mul\n      not\n      and\n      swap1\n      dup4\n      iszero\n      iszero\n      mul\n      or\n      swap1\n      sstore\n      pop\n        /* \"blockchain/EmployeeContractStorage.sol\":2475:2491  _salaryPerSecond */\n      dup4\n        /* \"blockchain/EmployeeContractStorage.sol\":2420:2440  employeeContractsMap */\n      0x2\n        /* \"blockchain/EmployeeContractStorage.sol\":2420:2456  employeeContractsMap[_incomeAccount] */\n      0x0\n        /* \"blockchain/EmployeeContractStorage.sol\":2441:2455  _incomeAccount */\n      dup8\n        /* \"blockchain/EmployeeContractStorage.sol\":2420:2456  employeeContractsMap[_incomeAccount] */\n      0xffffffffffffffffffffffffffffffffffffffff\n      and\n      0xffffffffffffffffffffffffffffffffffffffff\n      and\n      dup2\n      mstore\n      0x20\n      add\n      swap1\n      dup2\n      mstore\n      0x20\n      add\n      0x0\n      keccak256\n        /* \"blockchain/EmployeeContractStorage.sol\":2420:2472  employeeContractsMap[_incomeAccount].salaryPerSecond */\n      0x1\n      add\n        /* \"blockchain/EmployeeContractStorage.sol\":2420:2491  employeeContractsMap[_incomeAccount].salaryPerSecond = _salaryPerSecond */\n      dup2\n      swap1\n      sstore\n      pop\n        /* \"blockchain/EmployeeContractStorage.sol\":2566:2591  _maximumSecondsPerSession */\n      dup3\n        /* \"blockchain/EmployeeContractStorage.sol\":2502:2522  employeeContractsMap */\n      0x2\n        /* \"blockchain/EmployeeContractStorage.sol\":2502:2538  employeeContractsMap[_incomeAccount] */\n      0x0\n        /* \"blockchain/EmployeeContractStorage.sol\":2523:2537  _incomeAccount */\n      dup8\n        /* \"blockchain/EmployeeContractStorage.sol\":2502:2538  employeeContractsMap[_incomeAccount] */\n      0xffffffffffffffffffffffffffffffffffffffff\n      and\n      0xffffffffffffffffffffffffffffffffffffffff\n      and\n      dup2\n      mstore\n      0x20\n      add\n      swap1\n      dup2\n      mstore\n      0x20\n      add\n      0x0\n      keccak256\n        /* \"blockchain/EmployeeContractStorage.sol\":2502:2563  employeeContractsMap[_incomeAccount].maximumSecondsPerSession */\n      0x2\n      add\n        /* \"blockchain/EmployeeContractStorage.sol\":2502:2591  employeeContractsMap[_incomeAccount].maximumSecondsPerSession = _maximumSecondsPerSession */\n      dup2\n      swap1\n      sstore\n      pop\n        /* \"blockchain/EmployeeContractStorage.sol\":2627:2631  keys */\n      0x3\n        /* \"blockchain/EmployeeContractStorage.sol\":2637:2651  _incomeAccount */\n      dup6\n        /* \"blockchain/EmployeeContractStorage.sol\":2627:2652  keys.push(_incomeAccount) */\n      swap1\n      dup1\n        /* \"--CODEGEN--\":39:40   */\n      0x1\n        /* \"--CODEGEN--\":33:36   */\n      dup2\n        /* \"--CODEGEN--\":27:37   */\n      sload\n        /* \"--CODEGEN--\":23:41   */\n      add\n        /* \"--CODEGEN--\":57:67   */\n      dup1\n        /* \"--CODEGEN--\":52:55   */\n      dup3\n        /* \"--CODEGEN--\":45:68   */\n      sstore\n        /* \"--CODEGEN--\":79:89   */\n      dup1\n        /* \"--CODEGEN--\":72:89   */\n      swap2\n      pop\n        /* \"--CODEGEN--\":0:93   */\n      pop\n        /* \"blockchain/EmployeeContractStorage.sol\":2627:2652  keys.push(_incomeAccount) */\n      swap1\n      0x1\n      dup3\n      sub\n      swap1\n      0x0\n      mstore\n      keccak256(0x0, 0x20)\n      add\n      0x0\n      swap1\n      swap2\n      swap3\n      swap1\n      swap2\n      swap1\n      swap2\n      0x100\n      exp\n      dup2\n      sload\n      dup2\n      0xffffffffffffffffffffffffffffffffffffffff\n      mul\n      not\n      and\n      swap1\n      dup4\n      0xffffffffffffffffffffffffffffffffffffffff\n      and\n      mul\n      or\n      swap1\n      sstore\n      pop\n      pop\n        /* \"blockchain/EmployeeContractStorage.sol\":2718:2728  msg.sender */\n      caller\n        /* \"blockchain/EmployeeContractStorage.sol\":2693:2862  EmployeeContractCreation(msg.sender, _incomeAccount, employeeContractsMap[_incomeAccount].salaryPerSecond, employeeContractsMap[_incomeAccount].maximumSecondsPerSession) */\n      0xffffffffffffffffffffffffffffffffffffffff\n      and\n      0xe95b7c8271f4033de7fc533c968828c5efb3099164a73078a102939c9db7b9fd\n        /* \"blockchain/EmployeeContractStorage.sol\":2730:2744  _incomeAccount */\n      dup7\n        /* \"blockchain/EmployeeContractStorage.sol\":2746:2766  employeeContractsMap */\n      0x2\n        /* \"blockchain/EmployeeContractStorage.sol\":2746:2782  employeeContractsMap[_incomeAccount] */\n      0x0\n        /* \"blockchain/EmployeeContractStorage.sol\":2767:2781  _incomeAccount */\n      dup10\n        /* \"blockchain/EmployeeContractStorage.sol\":2746:2782  employeeContractsMap[_incomeAccount] */\n      0xffffffffffffffffffffffffffffffffffffffff\n      and\n      0xffffffffffffffffffffffffffffffffffffffff\n      and\n      dup2\n      mstore\n      0x20\n      add\n      swap1\n      dup2\n      mstore\n      0x20\n      add\n      0x0\n      keccak256\n        /* \"blockchain/EmployeeContractStorage.sol\":2746:2798  employeeContractsMap[_incomeAccount].salaryPerSecond */\n      0x1\n      add\n      sload\n        /* \"blockchain/EmployeeContractStorage.sol\":2800:2820  employeeContractsMap */\n      0x2\n        /* \"blockchain/EmployeeContractStorage.sol\":2800:2836  employeeContractsMap[_incomeAccount] */\n      0x0\n        /* \"blockchain/EmployeeContractStorage.sol\":2821:2835  _incomeAccount */\n      dup11\n        /* \"blockchain/EmployeeContractStorage.sol\":2800:2836  employeeContractsMap[_incomeAccount] */\n      0xffffffffffffffffffffffffffffffffffffffff\n      and\n      0xffffffffffffffffffffffffffffffffffffffff\n      and\n      dup2\n      mstore\n      0x20\n      add\n      swap1\n      dup2\n      mstore\n      0x20\n      add\n      0x0\n      keccak256\n        /* \"blockchain/EmployeeContractStorage.sol\":2800:2861  employeeContractsMap[_incomeAccount].maximumSecondsPerSession */\n      0x2\n      add\n      sload\n        /* \"blockchain/EmployeeContractStorage.sol\":2693:2862  EmployeeContractCreation(msg.sender, _incomeAccount, employeeContractsMap[_incomeAccount].salaryPerSecond, employeeContractsMap[_incomeAccount].maximumSecondsPerSession) */\n      mload(0x40)\n      dup1\n      dup5\n      0xffffffffffffffffffffffffffffffffffffffff\n      and\n      0xffffffffffffffffffffffffffffffffffffffff\n      and\n      dup2\n      mstore\n      0x20\n      add\n      dup4\n      dup2\n      mstore\n      0x20\n      add\n      dup3\n      dup2\n      mstore\n      0x20\n      add\n      swap4\n      pop\n      pop\n      pop\n      pop\n      mload(0x40)\n      dup1\n      swap2\n      sub\n      swap1\n      log2\n        /* \"blockchain/EmployeeContractStorage.sol\":2914:2929  employeeCounter */\n      0x1\n      0x0\n        /* \"blockchain/EmployeeContractStorage.sol\":2914:2931  employeeCounter++ */\n      dup2\n      sload\n      dup1\n      swap3\n      swap2\n      swap1\n      0x1\n      add\n      swap2\n      swap1\n      pop\n      sstore\n      pop\n        /* \"blockchain/EmployeeContractStorage.sol\":2969:2970  1 */\n      0x1\n        /* \"blockchain/EmployeeContractStorage.sol\":2951:2966  employeeCounter */\n      dup1\n      sload\n        /* \"blockchain/EmployeeContractStorage.sol\":2951:2970  employeeCounter - 1 */\n      sub\n        /* \"blockchain/EmployeeContractStorage.sol\":2944:2970  return employeeCounter - 1 */\n      swap2\n      pop\n        /* \"blockchain/EmployeeContractStorage.sol\":2104:2978  function createEmployeeContract(address _incomeAccount, uint _salaryPerSecond, uint _maximumSecondsPerSession) \r... */\n      pop\n      swap4\n      swap3\n      pop\n      pop\n      pop\n      jump\t// out\n        /* \"blockchain/EmployeeContractStorage.sol\":4126:4245  function getAddressByIndex(uint _index) \r... */\n    tag_37:\n        /* \"blockchain/EmployeeContractStorage.sol\":4198:4205  address */\n      0x0\n        /* \"blockchain/EmployeeContractStorage.sol\":4225:4229  keys */\n      0x3\n        /* \"blockchain/EmployeeContractStorage.sol\":4230:4236  _index */\n      dup3\n        /* \"blockchain/EmployeeContractStorage.sol\":4225:4237  keys[_index] */\n      dup2\n      sload\n      dup2\n      lt\n      iszero\n      iszero\n      tag_71\n      jumpi\n      invalid\n    tag_71:\n      swap1\n      0x0\n      mstore\n      keccak256(0x0, 0x20)\n      add\n      0x0\n      swap1\n      sload\n      swap1\n      0x100\n      exp\n      swap1\n      div\n      0xffffffffffffffffffffffffffffffffffffffff\n      and\n        /* \"blockchain/EmployeeContractStorage.sol\":4218:4237  return keys[_index] */\n      swap1\n      pop\n        /* \"blockchain/EmployeeContractStorage.sol\":4126:4245  function getAddressByIndex(uint _index) \r... */\n      swap2\n      swap1\n      pop\n      jump\t// out\n        /* \"blockchain/EmployeeContractStorage.sol\":3298:3566  function updateMaximumSecondsPerSession(address _employeeAddress, uint _maximumSecondsPerSession)\r... */\n    tag_40:\n        /* \"blockchain/EmployeeContractStorage.sol\":3431:3447  _employeeAddress */\n      dup2\n        /* \"blockchain/EmployeeContractStorage.sol\":806:810  true */\n      0x1\n        /* \"blockchain/EmployeeContractStorage.sol\":765:810  employeeContractsMap[_address].exists == true */\n      iszero\n      iszero\n        /* \"blockchain/EmployeeContractStorage.sol\":765:785  employeeContractsMap */\n      0x2\n        /* \"blockchain/EmployeeContractStorage.sol\":765:795  employeeContractsMap[_address] */\n      0x0\n        /* \"blockchain/EmployeeContractStorage.sol\":786:794  _address */\n      dup4\n        /* \"blockchain/EmployeeContractStorage.sol\":765:795  employeeContractsMap[_address] */\n      0xffffffffffffffffffffffffffffffffffffffff\n      and\n      0xffffffffffffffffffffffffffffffffffffffff\n      and\n      dup2\n      mstore\n      0x20\n      add\n      swap1\n      dup2\n      mstore\n      0x20\n      add\n      0x0\n      keccak256\n        /* \"blockchain/EmployeeContractStorage.sol\":765:802  employeeContractsMap[_address].exists */\n      0x0\n      add\n      0x0\n      swap1\n      sload\n      swap1\n      0x100\n      exp\n      swap1\n      div\n      0xff\n      and\n        /* \"blockchain/EmployeeContractStorage.sol\":765:810  employeeContractsMap[_address].exists == true */\n      iszero\n      iszero\n      eq\n        /* \"blockchain/EmployeeContractStorage.sol\":757:838  require(employeeContractsMap[_address].exists == true, \"Employee does not exist\") */\n      iszero\n      iszero\n      tag_74\n      jumpi\n      mload(0x40)\n      0x8c379a000000000000000000000000000000000000000000000000000000000\n      dup2\n      mstore\n      0x4\n      add\n      dup1\n      dup1\n      0x20\n      add\n      dup3\n      dup2\n      sub\n      dup3\n      mstore\n      0x17\n      dup2\n      mstore\n      0x20\n      add\n      dup1\n      0x456d706c6f79656520646f6573206e6f74206578697374000000000000000000\n      dup2\n      mstore\n      pop\n      0x20\n      add\n      swap2\n      pop\n      pop\n      mload(0x40)\n      dup1\n      swap2\n      sub\n      swap1\n      revert\n    tag_74:\n        /* \"blockchain/EmployeeContractStorage.sol\":3526:3551  _maximumSecondsPerSession */\n      dup2\n        /* \"blockchain/EmployeeContractStorage.sol\":3460:3480  employeeContractsMap */\n      0x2\n        /* \"blockchain/EmployeeContractStorage.sol\":3460:3498  employeeContractsMap[_employeeAddress] */\n      0x0\n        /* \"blockchain/EmployeeContractStorage.sol\":3481:3497  _employeeAddress */\n      dup6\n        /* \"blockchain/EmployeeContractStorage.sol\":3460:3498  employeeContractsMap[_employeeAddress] */\n      0xffffffffffffffffffffffffffffffffffffffff\n      and\n      0xffffffffffffffffffffffffffffffffffffffff\n      and\n      dup2\n      mstore\n      0x20\n      add\n      swap1\n      dup2\n      mstore\n      0x20\n      add\n      0x0\n      keccak256\n        /* \"blockchain/EmployeeContractStorage.sol\":3460:3523  employeeContractsMap[_employeeAddress].maximumSecondsPerSession */\n      0x2\n      add\n        /* \"blockchain/EmployeeContractStorage.sol\":3460:3551  employeeContractsMap[_employeeAddress].maximumSecondsPerSession = _maximumSecondsPerSession */\n      dup2\n      swap1\n      sstore\n      pop\n        /* \"blockchain/EmployeeContractStorage.sol\":3298:3566  function updateMaximumSecondsPerSession(address _employeeAddress, uint _maximumSecondsPerSession)\r... */\n      pop\n      pop\n      pop\n      jump\t// out\n        /* \"blockchain/EmployeeContractStorage.sol\":97:151  EmployeeContractStorage public employeeContractStorage */\n    tag_43:\n      0x0\n      dup1\n      swap1\n      sload\n      swap1\n      0x100\n      exp\n      swap1\n      div\n      0xffffffffffffffffffffffffffffffffffffffff\n      and\n      dup2\n      jump\t// out\n        /* \"blockchain/EmployeeContractStorage.sol\":3611:3830  function readSalaryPerSecond(address _employeeAddress) \r... */\n    tag_46:\n        /* \"blockchain/EmployeeContractStorage.sol\":3744:3748  uint */\n      0x0\n        /* \"blockchain/EmployeeContractStorage.sol\":3702:3718  _employeeAddress */\n      dup2\n        /* \"blockchain/EmployeeContractStorage.sol\":806:810  true */\n      0x1\n        /* \"blockchain/EmployeeContractStorage.sol\":765:810  employeeContractsMap[_address].exists == true */\n      iszero\n      iszero\n        /* \"blockchain/EmployeeContractStorage.sol\":765:785  employeeContractsMap */\n      0x2\n        /* \"blockchain/EmployeeContractStorage.sol\":765:795  employeeContractsMap[_address] */\n      0x0\n        /* \"blockchain/EmployeeContractStorage.sol\":786:794  _address */\n      dup4\n        /* \"blockchain/EmployeeContractStorage.sol\":765:795  employeeContractsMap[_address] */\n      0xffffffffffffffffffffffffffffffffffffffff\n      and\n      0xffffffffffffffffffffffffffffffffffffffff\n      and\n      dup2\n      mstore\n      0x20\n      add\n      swap1\n      dup2\n      mstore\n      0x20\n      add\n      0x0\n      keccak256\n        /* \"blockchain/EmployeeContractStorage.sol\":765:802  employeeContractsMap[_address].exists */\n      0x0\n      add\n      0x0\n      swap1\n      sload\n      swap1\n      0x100\n      exp\n      swap1\n      div\n      0xff\n      and\n        /* \"blockchain/EmployeeContractStorage.sol\":765:810  employeeContractsMap[_address].exists == true */\n      iszero\n      iszero\n      eq\n        /* \"blockchain/EmployeeContractStorage.sol\":757:838  require(employeeContractsMap[_address].exists == true, \"Employee does not exist\") */\n      iszero\n      iszero\n      tag_77\n      jumpi\n      mload(0x40)\n      0x8c379a000000000000000000000000000000000000000000000000000000000\n      dup2\n      mstore\n      0x4\n      add\n      dup1\n      dup1\n      0x20\n      add\n      dup3\n      dup2\n      sub\n      dup3\n      mstore\n      0x17\n      dup2\n      mstore\n      0x20\n      add\n      dup1\n      0x456d706c6f79656520646f6573206e6f74206578697374000000000000000000\n      dup2\n      mstore\n      pop\n      0x20\n      add\n      swap2\n      pop\n      pop\n      mload(0x40)\n      dup1\n      swap2\n      sub\n      swap1\n      revert\n    tag_77:\n        /* \"blockchain/EmployeeContractStorage.sol\":3768:3788  employeeContractsMap */\n      0x2\n        /* \"blockchain/EmployeeContractStorage.sol\":3768:3806  employeeContractsMap[_employeeAddress] */\n      0x0\n        /* \"blockchain/EmployeeContractStorage.sol\":3789:3805  _employeeAddress */\n      dup5\n        /* \"blockchain/EmployeeContractStorage.sol\":3768:3806  employeeContractsMap[_employeeAddress] */\n      0xffffffffffffffffffffffffffffffffffffffff\n      and\n      0xffffffffffffffffffffffffffffffffffffffff\n      and\n      dup2\n      mstore\n      0x20\n      add\n      swap1\n      dup2\n      mstore\n      0x20\n      add\n      0x0\n      keccak256\n        /* \"blockchain/EmployeeContractStorage.sol\":3768:3822  employeeContractsMap[_employeeAddress].salaryPerSecond */\n      0x1\n      add\n      sload\n        /* \"blockchain/EmployeeContractStorage.sol\":3761:3822  return employeeContractsMap[_employeeAddress].salaryPerSecond */\n      swap2\n      pop\n        /* \"blockchain/EmployeeContractStorage.sol\":3611:3830  function readSalaryPerSecond(address _employeeAddress) \r... */\n      pop\n      swap2\n      swap1\n      pop\n      jump\t// out\n        /* \"blockchain/EmployeeContractStorage.sol\":3881:4118  function readMaximumSecondsPerSession(address _employeeAddress) \r... */\n    tag_49:\n        /* \"blockchain/EmployeeContractStorage.sol\":4023:4027  uint */\n      0x0\n        /* \"blockchain/EmployeeContractStorage.sol\":3981:3997  _employeeAddress */\n      dup2\n        /* \"blockchain/EmployeeContractStorage.sol\":806:810  true */\n      0x1\n        /* \"blockchain/EmployeeContractStorage.sol\":765:810  employeeContractsMap[_address].exists == true */\n      iszero\n      iszero\n        /* \"blockchain/EmployeeContractStorage.sol\":765:785  employeeContractsMap */\n      0x2\n        /* \"blockchain/EmployeeContractStorage.sol\":765:795  employeeContractsMap[_address] */\n      0x0\n        /* \"blockchain/EmployeeContractStorage.sol\":786:794  _address */\n      dup4\n        /* \"blockchain/EmployeeContractStorage.sol\":765:795  employeeContractsMap[_address] */\n      0xffffffffffffffffffffffffffffffffffffffff\n      and\n      0xffffffffffffffffffffffffffffffffffffffff\n      and\n      dup2\n      mstore\n      0x20\n      add\n      swap1\n      dup2\n      mstore\n      0x20\n      add\n      0x0\n      keccak256\n        /* \"blockchain/EmployeeContractStorage.sol\":765:802  employeeContractsMap[_address].exists */\n      0x0\n      add\n      0x0\n      swap1\n      sload\n      swap1\n      0x100\n      exp\n      swap1\n      div\n      0xff\n      and\n        /* \"blockchain/EmployeeContractStorage.sol\":765:810  employeeContractsMap[_address].exists == true */\n      iszero\n      iszero\n      eq\n        /* \"blockchain/EmployeeContractStorage.sol\":757:838  require(employeeContractsMap[_address].exists == true, \"Employee does not exist\") */\n      iszero\n      iszero\n      tag_80\n      jumpi\n      mload(0x40)\n      0x8c379a000000000000000000000000000000000000000000000000000000000\n      dup2\n      mstore\n      0x4\n      add\n      dup1\n      dup1\n      0x20\n      add\n      dup3\n      dup2\n      sub\n      dup3\n      mstore\n      0x17\n      dup2\n      mstore\n      0x20\n      add\n      dup1\n      0x456d706c6f79656520646f6573206e6f74206578697374000000000000000000\n      dup2\n      mstore\n      pop\n      0x20\n      add\n      swap2\n      pop\n      pop\n      mload(0x40)\n      dup1\n      swap2\n      sub\n      swap1\n      revert\n    tag_80:\n        /* \"blockchain/EmployeeContractStorage.sol\":4047:4067  employeeContractsMap */\n      0x2\n        /* \"blockchain/EmployeeContractStorage.sol\":4047:4085  employeeContractsMap[_employeeAddress] */\n      0x0\n        /* \"blockchain/EmployeeContractStorage.sol\":4068:4084  _employeeAddress */\n      dup5\n        /* \"blockchain/EmployeeContractStorage.sol\":4047:4085  employeeContractsMap[_employeeAddress] */\n      0xffffffffffffffffffffffffffffffffffffffff\n      and\n      0xffffffffffffffffffffffffffffffffffffffff\n      and\n      dup2\n      mstore\n      0x20\n      add\n      swap1\n      dup2\n      mstore\n      0x20\n      add\n      0x0\n      keccak256\n        /* \"blockchain/EmployeeContractStorage.sol\":4047:4110  employeeContractsMap[_employeeAddress].maximumSecondsPerSession */\n      0x2\n      add\n      sload\n        /* \"blockchain/EmployeeContractStorage.sol\":4040:4110  return employeeContractsMap[_employeeAddress].maximumSecondsPerSession */\n      swap2\n      pop\n        /* \"blockchain/EmployeeContractStorage.sol\":3881:4118  function readMaximumSecondsPerSession(address _employeeAddress) \r... */\n      pop\n      swap2\n      swap1\n      pop\n      jump\t// out\n        /* \"blockchain/EmployeeContractStorage.sol\":1932:2096  function getEmployeeContractStorage() \r... */\n    tag_62:\n        /* \"blockchain/EmployeeContractStorage.sol\":2022:2045  EmployeeContractStorage */\n      0x0\n        /* \"blockchain/EmployeeContractStorage.sol\":470:471  0 */\n      dup1\n        /* \"blockchain/EmployeeContractStorage.sol\":426:472  address(employeeContractStorage) != address(0) */\n      0xffffffffffffffffffffffffffffffffffffffff\n      and\n        /* \"blockchain/EmployeeContractStorage.sol\":434:457  employeeContractStorage */\n      0x0\n      dup1\n      swap1\n      sload\n      swap1\n      0x100\n      exp\n      swap1\n      div\n      0xffffffffffffffffffffffffffffffffffffffff\n      and\n        /* \"blockchain/EmployeeContractStorage.sol\":426:472  address(employeeContractStorage) != address(0) */\n      0xffffffffffffffffffffffffffffffffffffffff\n      and\n      eq\n      iszero\n        /* \"blockchain/EmployeeContractStorage.sol\":418:537  require(address(employeeContractStorage) != address(0), \"Initialize the employee storage before calling this function\") */\n      iszero\n      iszero\n      tag_83\n      jumpi\n      mload(0x40)\n      0x8c379a000000000000000000000000000000000000000000000000000000000\n      dup2\n      mstore\n      0x4\n      add\n      dup1\n      dup1\n      0x20\n      add\n      dup3\n      dup2\n      sub\n      dup3\n      mstore\n      0x3c\n      dup2\n      mstore\n      0x20\n      add\n      dup1\n      0x496e697469616c697a652074686520656d706c6f7965652073746f7261676520\n      dup2\n      mstore\n      0x20\n      add\n      0x6265666f72652063616c6c696e6720746869732066756e6374696f6e00000000\n      dup2\n      mstore\n      pop\n      0x40\n      add\n      swap2\n      pop\n      pop\n      mload(0x40)\n      dup1\n      swap2\n      sub\n      swap1\n      revert\n    tag_83:\n        /* \"blockchain/EmployeeContractStorage.sol\":2065:2088  employeeContractStorage */\n      0x0\n      dup1\n      swap1\n      sload\n      swap1\n      0x100\n      exp\n      swap1\n      div\n      0xffffffffffffffffffffffffffffffffffffffff\n      and\n        /* \"blockchain/EmployeeContractStorage.sol\":2058:2088  return employeeContractStorage */\n      swap1\n      pop\n        /* \"blockchain/EmployeeContractStorage.sol\":1932:2096  function getEmployeeContractStorage() \r... */\n      swap1\n      jump\t// out\n\n    auxdata: 0xa165627a7a72305820569960f630c79a238c1d0a9f1a767e09d08d9c1a4b5fcc343959e1f1198c72510029\n}\n",
				"bytecode": {
					"linkReferences": {},
					"object": "608060405234801561001057600080fd5b506000600181905550611042806100286000396000f3006080604052600436106100ba576000357c0100000000000000000000000000000000000000000000000000000000900463ffffffff1680631024f223146100bf57806312065fe01461011a578063155dd5ee146101455780635da7495514610172578063888e1d05146101bf578063988c0bce146101ea5780639e757f9814610215578063ce10cf8814610280578063dbbf65b7146102ed578063ee3b8d431461033a578063f5e369e814610391578063fd2b8257146103e8575b600080fd5b3480156100cb57600080fd5b50610100600480360381019080803573ffffffffffffffffffffffffffffffffffffffff16906020019092919050505061043f565b604051808215151515815260200191505060405180910390f35b34801561012657600080fd5b5061012f61049f565b6040518082815260200191505060405180910390f35b34801561015157600080fd5b50610170600480360381019080803590602001909291905050506104be565b005b34801561017e57600080fd5b506101bd600480360381019080803573ffffffffffffffffffffffffffffffffffffffff16906020019092919080359060200190929190505050610635565b005b3480156101cb57600080fd5b506101d461074d565b6040518082815260200191505060405180910390f35b3480156101f657600080fd5b506101ff610757565b6040518082815260200191505060405180910390f35b34801561022157600080fd5b5061026a600480360381019080803573ffffffffffffffffffffffffffffffffffffffff1690602001909291908035906020019092919080359060200190929190505050610804565b6040518082815260200191505060405180910390f35b34801561028c57600080fd5b506102ab60048036038101908080359060200190929190505050610b50565b604051808273ffffffffffffffffffffffffffffffffffffffff1673ffffffffffffffffffffffffffffffffffffffff16815260200191505060405180910390f35b3480156102f957600080fd5b50610338600480360381019080803573ffffffffffffffffffffffffffffffffffffffff16906020019092919080359060200190929190505050610b93565b005b34801561034657600080fd5b5061034f610cab565b604051808273ffffffffffffffffffffffffffffffffffffffff1673ffffffffffffffffffffffffffffffffffffffff16815260200191505060405180910390f35b34801561039d57600080fd5b506103d2600480360381019080803573ffffffffffffffffffffffffffffffffffffffff169060200190929190505050610cd0565b6040518082815260200191505060405180910390f35b3480156103f457600080fd5b50610429600480360381019080803573ffffffffffffffffffffffffffffffffffffffff169060200190929190505050610de9565b6040518082815260200191505060405180910390f35b600060011515600260008473ffffffffffffffffffffffffffffffffffffffff1673ffffffffffffffffffffffffffffffffffffffff16815260200190815260200160002060000160009054906101000a900460ff161515149050919050565b60003073ffffffffffffffffffffffffffffffffffffffff1631905090565b3073ffffffffffffffffffffffffffffffffffffffff1631811115151561054d576040517f08c379a000000000000000000000000000000000000000000000000000000000815260040180806020018281038252601b8152602001807f4e6f7420656e6f756768206d6f6e657920696e20506179726f6c6c000000000081525060200191505060405180910390fd5b6000811115156105eb576040517f08c379a00000000000000000000000000000000000000000000000000000000081526004018080602001828103825260218152602001807f5769746864726177696e6720302077696c6c2068617665206e6f20656666656381526020017f740000000000000000000000000000000000000000000000000000000000000081525060400191505060405180910390fd5b3373ffffffffffffffffffffffffffffffffffffffff166108fc829081150290604051600060405180830381858888f19350505050158015610631573d6000803e3d6000fd5b5050565b8160011515600260008373ffffffffffffffffffffffffffffffffffffffff1673ffffffffffffffffffffffffffffffffffffffff16815260200190815260200160002060000160009054906101000a900460ff161515141515610701576040517f08c379a00000000000000000000000000000000000000000000000000000000081526004018080602001828103825260178152602001807f456d706c6f79656520646f6573206e6f7420657869737400000000000000000081525060200191505060405180910390fd5b81600260008573ffffffffffffffffffffffffffffffffffffffff1673ffffffffffffffffffffffffffffffffffffffff16815260200190815260200160002060010181905550505050565b6000600154905090565b6000610761610f02565b73ffffffffffffffffffffffffffffffffffffffff1663888e1d056040518163ffffffff167c0100000000000000000000000000000000000000000000000000000000028152600401602060405180830381600087803b1580156107c457600080fd5b505af11580156107d8573d6000803e3d6000fd5b505050506040513d60208110156107ee57600080fd5b8101908080519060200190929190505050905090565b60008360001515600260008373ffffffffffffffffffffffffffffffffffffffff1673ffffffffffffffffffffffffffffffffffffffff16815260200190815260200160002060000160009054906101000a900460ff1615151415156108d2576040517f08c379a00000000000000000000000000000000000000000000000000000000081526004018080602001828103825260178152602001807f456d706c6f79656520616c72656164792065786973747300000000000000000081525060200191505060405180910390fd5b6001600260008773ffffffffffffffffffffffffffffffffffffffff1673ffffffffffffffffffffffffffffffffffffffff16815260200190815260200160002060000160006101000a81548160ff02191690831515021790555083600260008773ffffffffffffffffffffffffffffffffffffffff1673ffffffffffffffffffffffffffffffffffffffff1681526020019081526020016000206001018190555082600260008773ffffffffffffffffffffffffffffffffffffffff1673ffffffffffffffffffffffffffffffffffffffff1681526020019081526020016000206002018190555060038590806001815401808255809150509060018203906000526020600020016000909192909190916101000a81548173ffffffffffffffffffffffffffffffffffffffff021916908373ffffffffffffffffffffffffffffffffffffffff160217905550503373ffffffffffffffffffffffffffffffffffffffff167fe95b7c8271f4033de7fc533c968828c5efb3099164a73078a102939c9db7b9fd86600260008973ffffffffffffffffffffffffffffffffffffffff1673ffffffffffffffffffffffffffffffffffffffff16815260200190815260200160002060010154600260008a73ffffffffffffffffffffffffffffffffffffffff1673ffffffffffffffffffffffffffffffffffffffff16815260200190815260200160002060020154604051808473ffffffffffffffffffffffffffffffffffffffff1673ffffffffffffffffffffffffffffffffffffffff168152602001838152602001828152602001935050505060405180910390a260016000815480929190600101919050555060018054039150509392505050565b6000600382815481101515610b6157fe5b9060005260206000200160009054906101000a900473ffffffffffffffffffffffffffffffffffffffff169050919050565b8160011515600260008373ffffffffffffffffffffffffffffffffffffffff1673ffffffffffffffffffffffffffffffffffffffff16815260200190815260200160002060000160009054906101000a900460ff161515141515610c5f576040517f08c379a00000000000000000000000000000000000000000000000000000000081526004018080602001828103825260178152602001807f456d706c6f79656520646f6573206e6f7420657869737400000000000000000081525060200191505060405180910390fd5b81600260008573ffffffffffffffffffffffffffffffffffffffff1673ffffffffffffffffffffffffffffffffffffffff16815260200190815260200160002060020181905550505050565b6000809054906101000a900473ffffffffffffffffffffffffffffffffffffffff1681565b60008160011515600260008373ffffffffffffffffffffffffffffffffffffffff1673ffffffffffffffffffffffffffffffffffffffff16815260200190815260200160002060000160009054906101000a900460ff161515141515610d9e576040517f08c379a00000000000000000000000000000000000000000000000000000000081526004018080602001828103825260178152602001807f456d706c6f79656520646f6573206e6f7420657869737400000000000000000081525060200191505060405180910390fd5b600260008473ffffffffffffffffffffffffffffffffffffffff1673ffffffffffffffffffffffffffffffffffffffff16815260200190815260200160002060010154915050919050565b60008160011515600260008373ffffffffffffffffffffffffffffffffffffffff1673ffffffffffffffffffffffffffffffffffffffff16815260200190815260200160002060000160009054906101000a900460ff161515141515610eb7576040517f08c379a00000000000000000000000000000000000000000000000000000000081526004018080602001828103825260178152602001807f456d706c6f79656520646f6573206e6f7420657869737400000000000000000081525060200191505060405180910390fd5b600260008473ffffffffffffffffffffffffffffffffffffffff1673ffffffffffffffffffffffffffffffffffffffff16815260200190815260200160002060020154915050919050565b60008073ffffffffffffffffffffffffffffffffffffffff166000809054906101000a900473ffffffffffffffffffffffffffffffffffffffff1673ffffffffffffffffffffffffffffffffffffffff1614151515610fef576040517f08c379a000000000000000000000000000000000000000000000000000000000815260040180806020018281038252603c8152602001807f496e697469616c697a652074686520656d706c6f7965652073746f726167652081526020017f6265666f72652063616c6c696e6720746869732066756e6374696f6e0000000081525060400191505060405180910390fd5b6000809054906101000a900473ffffffffffffffffffffffffffffffffffffffff169050905600a165627a7a72305820569960f630c79a238c1d0a9f1a767e09d08d9c1a4b5fcc343959e1f1198c72510029",
					"opcodes": "PUSH1 0x80 PUSH1 0x40 MSTORE CALLVALUE DUP1 ISZERO PUSH2 0x10 JUMPI PUSH1 0x0 DUP1 REVERT JUMPDEST POP PUSH1 0x0 PUSH1 0x1 DUP2 SWAP1 SSTORE POP PUSH2 0x1042 DUP1 PUSH2 0x28 PUSH1 0x0 CODECOPY PUSH1 0x0 RETURN STOP PUSH1 0x80 PUSH1 0x40 MSTORE PUSH1 0x4 CALLDATASIZE LT PUSH2 0xBA JUMPI PUSH1 0x0 CALLDATALOAD PUSH29 0x100000000000000000000000000000000000000000000000000000000 SWAP1 DIV PUSH4 0xFFFFFFFF AND DUP1 PUSH4 0x1024F223 EQ PUSH2 0xBF JUMPI DUP1 PUSH4 0x12065FE0 EQ PUSH2 0x11A JUMPI DUP1 PUSH4 0x155DD5EE EQ PUSH2 0x145 JUMPI DUP1 PUSH4 0x5DA74955 EQ PUSH2 0x172 JUMPI DUP1 PUSH4 0x888E1D05 EQ PUSH2 0x1BF JUMPI DUP1 PUSH4 0x988C0BCE EQ PUSH2 0x1EA JUMPI DUP1 PUSH4 0x9E757F98 EQ PUSH2 0x215 JUMPI DUP1 PUSH4 0xCE10CF88 EQ PUSH2 0x280 JUMPI DUP1 PUSH4 0xDBBF65B7 EQ PUSH2 0x2ED JUMPI DUP1 PUSH4 0xEE3B8D43 EQ PUSH2 0x33A JUMPI DUP1 PUSH4 0xF5E369E8 EQ PUSH2 0x391 JUMPI DUP1 PUSH4 0xFD2B8257 EQ PUSH2 0x3E8 JUMPI JUMPDEST PUSH1 0x0 DUP1 REVERT JUMPDEST CALLVALUE DUP1 ISZERO PUSH2 0xCB JUMPI PUSH1 0x0 DUP1 REVERT JUMPDEST POP PUSH2 0x100 PUSH1 0x4 DUP1 CALLDATASIZE SUB DUP2 ADD SWAP1 DUP1 DUP1 CALLDATALOAD PUSH20 0xFFFFFFFFFFFFFFFFFFFFFFFFFFFFFFFFFFFFFFFF AND SWAP1 PUSH1 0x20 ADD SWAP1 SWAP3 SWAP2 SWAP1 POP POP POP PUSH2 0x43F JUMP JUMPDEST PUSH1 0x40 MLOAD DUP1 DUP3 ISZERO ISZERO ISZERO ISZERO DUP2 MSTORE PUSH1 0x20 ADD SWAP2 POP POP PUSH1 0x40 MLOAD DUP1 SWAP2 SUB SWAP1 RETURN JUMPDEST CALLVALUE DUP1 ISZERO PUSH2 0x126 JUMPI PUSH1 0x0 DUP1 REVERT JUMPDEST POP PUSH2 0x12F PUSH2 0x49F JUMP JUMPDEST PUSH1 0x40 MLOAD DUP1 DUP3 DUP2 MSTORE PUSH1 0x20 ADD SWAP2 POP POP PUSH1 0x40 MLOAD DUP1 SWAP2 SUB SWAP1 RETURN JUMPDEST CALLVALUE DUP1 ISZERO PUSH2 0x151 JUMPI PUSH1 0x0 DUP1 REVERT JUMPDEST POP PUSH2 0x170 PUSH1 0x4 DUP1 CALLDATASIZE SUB DUP2 ADD SWAP1 DUP1 DUP1 CALLDATALOAD SWAP1 PUSH1 0x20 ADD SWAP1 SWAP3 SWAP2 SWAP1 POP POP POP PUSH2 0x4BE JUMP JUMPDEST STOP JUMPDEST CALLVALUE DUP1 ISZERO PUSH2 0x17E JUMPI PUSH1 0x0 DUP1 REVERT JUMPDEST POP PUSH2 0x1BD PUSH1 0x4 DUP1 CALLDATASIZE SUB DUP2 ADD SWAP1 DUP1 DUP1 CALLDATALOAD PUSH20 0xFFFFFFFFFFFFFFFFFFFFFFFFFFFFFFFFFFFFFFFF AND SWAP1 PUSH1 0x20 ADD SWAP1 SWAP3 SWAP2 SWAP1 DUP1 CALLDATALOAD SWAP1 PUSH1 0x20 ADD SWAP1 SWAP3 SWAP2 SWAP1 POP POP POP PUSH2 0x635 JUMP JUMPDEST STOP JUMPDEST CALLVALUE DUP1 ISZERO PUSH2 0x1CB JUMPI PUSH1 0x0 DUP1 REVERT JUMPDEST POP PUSH2 0x1D4 PUSH2 0x74D JUMP JUMPDEST PUSH1 0x40 MLOAD DUP1 DUP3 DUP2 MSTORE PUSH1 0x20 ADD SWAP2 POP POP PUSH1 0x40 MLOAD DUP1 SWAP2 SUB SWAP1 RETURN JUMPDEST CALLVALUE DUP1 ISZERO PUSH2 0x1F6 JUMPI PUSH1 0x0 DUP1 REVERT JUMPDEST POP PUSH2 0x1FF PUSH2 0x757 JUMP JUMPDEST PUSH1 0x40 MLOAD DUP1 DUP3 DUP2 MSTORE PUSH1 0x20 ADD SWAP2 POP POP PUSH1 0x40 MLOAD DUP1 SWAP2 SUB SWAP1 RETURN JUMPDEST CALLVALUE DUP1 ISZERO PUSH2 0x221 JUMPI PUSH1 0x0 DUP1 REVERT JUMPDEST POP PUSH2 0x26A PUSH1 0x4 DUP1 CALLDATASIZE SUB DUP2 ADD SWAP1 DUP1 DUP1 CALLDATALOAD PUSH20 0xFFFFFFFFFFFFFFFFFFFFFFFFFFFFFFFFFFFFFFFF AND SWAP1 PUSH1 0x20 ADD SWAP1 SWAP3 SWAP2 SWAP1 DUP1 CALLDATALOAD SWAP1 PUSH1 0x20 ADD SWAP1 SWAP3 SWAP2 SWAP1 DUP1 CALLDATALOAD SWAP1 PUSH1 0x20 ADD SWAP1 SWAP3 SWAP2 SWAP1 POP POP POP PUSH2 0x804 JUMP JUMPDEST PUSH1 0x40 MLOAD DUP1 DUP3 DUP2 MSTORE PUSH1 0x20 ADD SWAP2 POP POP PUSH1 0x40 MLOAD DUP1 SWAP2 SUB SWAP1 RETURN JUMPDEST CALLVALUE DUP1 ISZERO PUSH2 0x28C JUMPI PUSH1 0x0 DUP1 REVERT JUMPDEST POP PUSH2 0x2AB PUSH1 0x4 DUP1 CALLDATASIZE SUB DUP2 ADD SWAP1 DUP1 DUP1 CALLDATALOAD SWAP1 PUSH1 0x20 ADD SWAP1 SWAP3 SWAP2 SWAP1 POP POP POP PUSH2 0xB50 JUMP JUMPDEST PUSH1 0x40 MLOAD DUP1 DUP3 PUSH20 0xFFFFFFFFFFFFFFFFFFFFFFFFFFFFFFFFFFFFFFFF AND PUSH20 0xFFFFFFFFFFFFFFFFFFFFFFFFFFFFFFFFFFFFFFFF AND DUP2 MSTORE PUSH1 0x20 ADD SWAP2 POP POP PUSH1 0x40 MLOAD DUP1 SWAP2 SUB SWAP1 RETURN JUMPDEST CALLVALUE DUP1 ISZERO PUSH2 0x2F9 JUMPI PUSH1 0x0 DUP1 REVERT JUMPDEST POP PUSH2 0x338 PUSH1 0x4 DUP1 CALLDATASIZE SUB DUP2 ADD SWAP1 DUP1 DUP1 CALLDATALOAD PUSH20 0xFFFFFFFFFFFFFFFFFFFFFFFFFFFFFFFFFFFFFFFF AND SWAP1 PUSH1 0x20 ADD SWAP1 SWAP3 SWAP2 SWAP1 DUP1 CALLDATALOAD SWAP1 PUSH1 0x20 ADD SWAP1 SWAP3 SWAP2 SWAP1 POP POP POP PUSH2 0xB93 JUMP JUMPDEST STOP JUMPDEST CALLVALUE DUP1 ISZERO PUSH2 0x346 JUMPI PUSH1 0x0 DUP1 REVERT JUMPDEST POP PUSH2 0x34F PUSH2 0xCAB JUMP JUMPDEST PUSH1 0x40 MLOAD DUP1 DUP3 PUSH20 0xFFFFFFFFFFFFFFFFFFFFFFFFFFFFFFFFFFFFFFFF AND PUSH20 0xFFFFFFFFFFFFFFFFFFFFFFFFFFFFFFFFFFFFFFFF AND DUP2 MSTORE PUSH1 0x20 ADD SWAP2 POP POP PUSH1 0x40 MLOAD DUP1 SWAP2 SUB SWAP1 RETURN JUMPDEST CALLVALUE DUP1 ISZERO PUSH2 0x39D JUMPI PUSH1 0x0 DUP1 REVERT JUMPDEST POP PUSH2 0x3D2 PUSH1 0x4 DUP1 CALLDATASIZE SUB DUP2 ADD SWAP1 DUP1 DUP1 CALLDATALOAD PUSH20 0xFFFFFFFFFFFFFFFFFFFFFFFFFFFFFFFFFFFFFFFF AND SWAP1 PUSH1 0x20 ADD SWAP1 SWAP3 SWAP2 SWAP1 POP POP POP PUSH2 0xCD0 JUMP JUMPDEST PUSH1 0x40 MLOAD DUP1 DUP3 DUP2 MSTORE PUSH1 0x20 ADD SWAP2 POP POP PUSH1 0x40 MLOAD DUP1 SWAP2 SUB SWAP1 RETURN JUMPDEST CALLVALUE DUP1 ISZERO PUSH2 0x3F4 JUMPI PUSH1 0x0 DUP1 REVERT JUMPDEST POP PUSH2 0x429 PUSH1 0x4 DUP1 CALLDATASIZE SUB DUP2 ADD SWAP1 DUP1 DUP1 CALLDATALOAD PUSH20 0xFFFFFFFFFFFFFFFFFFFFFFFFFFFFFFFFFFFFFFFF AND SWAP1 PUSH1 0x20 ADD SWAP1 SWAP3 SWAP2 SWAP1 POP POP POP PUSH2 0xDE9 JUMP JUMPDEST PUSH1 0x40 MLOAD DUP1 DUP3 DUP2 MSTORE PUSH1 0x20 ADD SWAP2 POP POP PUSH1 0x40 MLOAD DUP1 SWAP2 SUB SWAP1 RETURN JUMPDEST PUSH1 0x0 PUSH1 0x1 ISZERO ISZERO PUSH1 0x2 PUSH1 0x0 DUP5 PUSH20 0xFFFFFFFFFFFFFFFFFFFFFFFFFFFFFFFFFFFFFFFF AND PUSH20 0xFFFFFFFFFFFFFFFFFFFFFFFFFFFFFFFFFFFFFFFF AND DUP2 MSTORE PUSH1 0x20 ADD SWAP1 DUP2 MSTORE PUSH1 0x20 ADD PUSH1 0x0 KECCAK256 PUSH1 0x0 ADD PUSH1 0x0 SWAP1 SLOAD SWAP1 PUSH2 0x100 EXP SWAP1 DIV PUSH1 0xFF AND ISZERO ISZERO EQ SWAP1 POP SWAP2 SWAP1 POP JUMP JUMPDEST PUSH1 0x0 ADDRESS PUSH20 0xFFFFFFFFFFFFFFFFFFFFFFFFFFFFFFFFFFFFFFFF AND BALANCE SWAP1 POP SWAP1 JUMP JUMPDEST ADDRESS PUSH20 0xFFFFFFFFFFFFFFFFFFFFFFFFFFFFFFFFFFFFFFFF AND BALANCE DUP2 GT ISZERO ISZERO ISZERO PUSH2 0x54D JUMPI PUSH1 0x40 MLOAD PUSH32 0x8C379A000000000000000000000000000000000000000000000000000000000 DUP2 MSTORE PUSH1 0x4 ADD DUP1 DUP1 PUSH1 0x20 ADD DUP3 DUP2 SUB DUP3 MSTORE PUSH1 0x1B DUP2 MSTORE PUSH1 0x20 ADD DUP1 PUSH32 0x4E6F7420656E6F756768206D6F6E657920696E20506179726F6C6C0000000000 DUP2 MSTORE POP PUSH1 0x20 ADD SWAP2 POP POP PUSH1 0x40 MLOAD DUP1 SWAP2 SUB SWAP1 REVERT JUMPDEST PUSH1 0x0 DUP2 GT ISZERO ISZERO PUSH2 0x5EB JUMPI PUSH1 0x40 MLOAD PUSH32 0x8C379A000000000000000000000000000000000000000000000000000000000 DUP2 MSTORE PUSH1 0x4 ADD DUP1 DUP1 PUSH1 0x20 ADD DUP3 DUP2 SUB DUP3 MSTORE PUSH1 0x21 DUP2 MSTORE PUSH1 0x20 ADD DUP1 PUSH32 0x5769746864726177696E6720302077696C6C2068617665206E6F206566666563 DUP2 MSTORE PUSH1 0x20 ADD PUSH32 0x7400000000000000000000000000000000000000000000000000000000000000 DUP2 MSTORE POP PUSH1 0x40 ADD SWAP2 POP POP PUSH1 0x40 MLOAD DUP1 SWAP2 SUB SWAP1 REVERT JUMPDEST CALLER PUSH20 0xFFFFFFFFFFFFFFFFFFFFFFFFFFFFFFFFFFFFFFFF AND PUSH2 0x8FC DUP3 SWAP1 DUP2 ISZERO MUL SWAP1 PUSH1 0x40 MLOAD PUSH1 0x0 PUSH1 0x40 MLOAD DUP1 DUP4 SUB DUP2 DUP6 DUP9 DUP9 CALL SWAP4 POP POP POP POP ISZERO DUP1 ISZERO PUSH2 0x631 JUMPI RETURNDATASIZE PUSH1 0x0 DUP1 RETURNDATACOPY RETURNDATASIZE PUSH1 0x0 REVERT JUMPDEST POP POP JUMP JUMPDEST DUP2 PUSH1 0x1 ISZERO ISZERO PUSH1 0x2 PUSH1 0x0 DUP4 PUSH20 0xFFFFFFFFFFFFFFFFFFFFFFFFFFFFFFFFFFFFFFFF AND PUSH20 0xFFFFFFFFFFFFFFFFFFFFFFFFFFFFFFFFFFFFFFFF AND DUP2 MSTORE PUSH1 0x20 ADD SWAP1 DUP2 MSTORE PUSH1 0x20 ADD PUSH1 0x0 KECCAK256 PUSH1 0x0 ADD PUSH1 0x0 SWAP1 SLOAD SWAP1 PUSH2 0x100 EXP SWAP1 DIV PUSH1 0xFF AND ISZERO ISZERO EQ ISZERO ISZERO PUSH2 0x701 JUMPI PUSH1 0x40 MLOAD PUSH32 0x8C379A000000000000000000000000000000000000000000000000000000000 DUP2 MSTORE PUSH1 0x4 ADD DUP1 DUP1 PUSH1 0x20 ADD DUP3 DUP2 SUB DUP3 MSTORE PUSH1 0x17 DUP2 MSTORE PUSH1 0x20 ADD DUP1 PUSH32 0x456D706C6F79656520646F6573206E6F74206578697374000000000000000000 DUP2 MSTORE POP PUSH1 0x20 ADD SWAP2 POP POP PUSH1 0x40 MLOAD DUP1 SWAP2 SUB SWAP1 REVERT JUMPDEST DUP2 PUSH1 0x2 PUSH1 0x0 DUP6 PUSH20 0xFFFFFFFFFFFFFFFFFFFFFFFFFFFFFFFFFFFFFFFF AND PUSH20 0xFFFFFFFFFFFFFFFFFFFFFFFFFFFFFFFFFFFFFFFF AND DUP2 MSTORE PUSH1 0x20 ADD SWAP1 DUP2 MSTORE PUSH1 0x20 ADD PUSH1 0x0 KECCAK256 PUSH1 0x1 ADD DUP2 SWAP1 SSTORE POP POP POP POP JUMP JUMPDEST PUSH1 0x0 PUSH1 0x1 SLOAD SWAP1 POP SWAP1 JUMP JUMPDEST PUSH1 0x0 PUSH2 0x761 PUSH2 0xF02 JUMP JUMPDEST PUSH20 0xFFFFFFFFFFFFFFFFFFFFFFFFFFFFFFFFFFFFFFFF AND PUSH4 0x888E1D05 PUSH1 0x40 MLOAD DUP2 PUSH4 0xFFFFFFFF AND PUSH29 0x100000000000000000000000000000000000000000000000000000000 MUL DUP2 MSTORE PUSH1 0x4 ADD PUSH1 0x20 PUSH1 0x40 MLOAD DUP1 DUP4 SUB DUP2 PUSH1 0x0 DUP8 DUP1 EXTCODESIZE ISZERO DUP1 ISZERO PUSH2 0x7C4 JUMPI PUSH1 0x0 DUP1 REVERT JUMPDEST POP GAS CALL ISZERO DUP1 ISZERO PUSH2 0x7D8 JUMPI RETURNDATASIZE PUSH1 0x0 DUP1 RETURNDATACOPY RETURNDATASIZE PUSH1 0x0 REVERT JUMPDEST POP POP POP POP PUSH1 0x40 MLOAD RETURNDATASIZE PUSH1 0x20 DUP2 LT ISZERO PUSH2 0x7EE JUMPI PUSH1 0x0 DUP1 REVERT JUMPDEST DUP2 ADD SWAP1 DUP1 DUP1 MLOAD SWAP1 PUSH1 0x20 ADD SWAP1 SWAP3 SWAP2 SWAP1 POP POP POP SWAP1 POP SWAP1 JUMP JUMPDEST PUSH1 0x0 DUP4 PUSH1 0x0 ISZERO ISZERO PUSH1 0x2 PUSH1 0x0 DUP4 PUSH20 0xFFFFFFFFFFFFFFFFFFFFFFFFFFFFFFFFFFFFFFFF AND PUSH20 0xFFFFFFFFFFFFFFFFFFFFFFFFFFFFFFFFFFFFFFFF AND DUP2 MSTORE PUSH1 0x20 ADD SWAP1 DUP2 MSTORE PUSH1 0x20 ADD PUSH1 0x0 KECCAK256 PUSH1 0x0 ADD PUSH1 0x0 SWAP1 SLOAD SWAP1 PUSH2 0x100 EXP SWAP1 DIV PUSH1 0xFF AND ISZERO ISZERO EQ ISZERO ISZERO PUSH2 0x8D2 JUMPI PUSH1 0x40 MLOAD PUSH32 0x8C379A000000000000000000000000000000000000000000000000000000000 DUP2 MSTORE PUSH1 0x4 ADD DUP1 DUP1 PUSH1 0x20 ADD DUP3 DUP2 SUB DUP3 MSTORE PUSH1 0x17 DUP2 MSTORE PUSH1 0x20 ADD DUP1 PUSH32 0x456D706C6F79656520616C726561647920657869737473000000000000000000 DUP2 MSTORE POP PUSH1 0x20 ADD SWAP2 POP POP PUSH1 0x40 MLOAD DUP1 SWAP2 SUB SWAP1 REVERT JUMPDEST PUSH1 0x1 PUSH1 0x2 PUSH1 0x0 DUP8 PUSH20 0xFFFFFFFFFFFFFFFFFFFFFFFFFFFFFFFFFFFFFFFF AND PUSH20 0xFFFFFFFFFFFFFFFFFFFFFFFFFFFFFFFFFFFFFFFF AND DUP2 MSTORE PUSH1 0x20 ADD SWAP1 DUP2 MSTORE PUSH1 0x20 ADD PUSH1 0x0 KECCAK256 PUSH1 0x0 ADD PUSH1 0x0 PUSH2 0x100 EXP DUP2 SLOAD DUP2 PUSH1 0xFF MUL NOT AND SWAP1 DUP4 ISZERO ISZERO MUL OR SWAP1 SSTORE POP DUP4 PUSH1 0x2 PUSH1 0x0 DUP8 PUSH20 0xFFFFFFFFFFFFFFFFFFFFFFFFFFFFFFFFFFFFFFFF AND PUSH20 0xFFFFFFFFFFFFFFFFFFFFFFFFFFFFFFFFFFFFFFFF AND DUP2 MSTORE PUSH1 0x20 ADD SWAP1 DUP2 MSTORE PUSH1 0x20 ADD PUSH1 0x0 KECCAK256 PUSH1 0x1 ADD DUP2 SWAP1 SSTORE POP DUP3 PUSH1 0x2 PUSH1 0x0 DUP8 PUSH20 0xFFFFFFFFFFFFFFFFFFFFFFFFFFFFFFFFFFFFFFFF AND PUSH20 0xFFFFFFFFFFFFFFFFFFFFFFFFFFFFFFFFFFFFFFFF AND DUP2 MSTORE PUSH1 0x20 ADD SWAP1 DUP2 MSTORE PUSH1 0x20 ADD PUSH1 0x0 KECCAK256 PUSH1 0x2 ADD DUP2 SWAP1 SSTORE POP PUSH1 0x3 DUP6 SWAP1 DUP1 PUSH1 0x1 DUP2 SLOAD ADD DUP1 DUP3 SSTORE DUP1 SWAP2 POP POP SWAP1 PUSH1 0x1 DUP3 SUB SWAP1 PUSH1 0x0 MSTORE PUSH1 0x20 PUSH1 0x0 KECCAK256 ADD PUSH1 0x0 SWAP1 SWAP2 SWAP3 SWAP1 SWAP2 SWAP1 SWAP2 PUSH2 0x100 EXP DUP2 SLOAD DUP2 PUSH20 0xFFFFFFFFFFFFFFFFFFFFFFFFFFFFFFFFFFFFFFFF MUL NOT AND SWAP1 DUP4 PUSH20 0xFFFFFFFFFFFFFFFFFFFFFFFFFFFFFFFFFFFFFFFF AND MUL OR SWAP1 SSTORE POP POP CALLER PUSH20 0xFFFFFFFFFFFFFFFFFFFFFFFFFFFFFFFFFFFFFFFF AND PUSH32 0xE95B7C8271F4033DE7FC533C968828C5EFB3099164A73078A102939C9DB7B9FD DUP7 PUSH1 0x2 PUSH1 0x0 DUP10 PUSH20 0xFFFFFFFFFFFFFFFFFFFFFFFFFFFFFFFFFFFFFFFF AND PUSH20 0xFFFFFFFFFFFFFFFFFFFFFFFFFFFFFFFFFFFFFFFF AND DUP2 MSTORE PUSH1 0x20 ADD SWAP1 DUP2 MSTORE PUSH1 0x20 ADD PUSH1 0x0 KECCAK256 PUSH1 0x1 ADD SLOAD PUSH1 0x2 PUSH1 0x0 DUP11 PUSH20 0xFFFFFFFFFFFFFFFFFFFFFFFFFFFFFFFFFFFFFFFF AND PUSH20 0xFFFFFFFFFFFFFFFFFFFFFFFFFFFFFFFFFFFFFFFF AND DUP2 MSTORE PUSH1 0x20 ADD SWAP1 DUP2 MSTORE PUSH1 0x20 ADD PUSH1 0x0 KECCAK256 PUSH1 0x2 ADD SLOAD PUSH1 0x40 MLOAD DUP1 DUP5 PUSH20 0xFFFFFFFFFFFFFFFFFFFFFFFFFFFFFFFFFFFFFFFF AND PUSH20 0xFFFFFFFFFFFFFFFFFFFFFFFFFFFFFFFFFFFFFFFF AND DUP2 MSTORE PUSH1 0x20 ADD DUP4 DUP2 MSTORE PUSH1 0x20 ADD DUP3 DUP2 MSTORE PUSH1 0x20 ADD SWAP4 POP POP POP POP PUSH1 0x40 MLOAD DUP1 SWAP2 SUB SWAP1 LOG2 PUSH1 0x1 PUSH1 0x0 DUP2 SLOAD DUP1 SWAP3 SWAP2 SWAP1 PUSH1 0x1 ADD SWAP2 SWAP1 POP SSTORE POP PUSH1 0x1 DUP1 SLOAD SUB SWAP2 POP POP SWAP4 SWAP3 POP POP POP JUMP JUMPDEST PUSH1 0x0 PUSH1 0x3 DUP3 DUP2 SLOAD DUP2 LT ISZERO ISZERO PUSH2 0xB61 JUMPI INVALID JUMPDEST SWAP1 PUSH1 0x0 MSTORE PUSH1 0x20 PUSH1 0x0 KECCAK256 ADD PUSH1 0x0 SWAP1 SLOAD SWAP1 PUSH2 0x100 EXP SWAP1 DIV PUSH20 0xFFFFFFFFFFFFFFFFFFFFFFFFFFFFFFFFFFFFFFFF AND SWAP1 POP SWAP2 SWAP1 POP JUMP JUMPDEST DUP2 PUSH1 0x1 ISZERO ISZERO PUSH1 0x2 PUSH1 0x0 DUP4 PUSH20 0xFFFFFFFFFFFFFFFFFFFFFFFFFFFFFFFFFFFFFFFF AND PUSH20 0xFFFFFFFFFFFFFFFFFFFFFFFFFFFFFFFFFFFFFFFF AND DUP2 MSTORE PUSH1 0x20 ADD SWAP1 DUP2 MSTORE PUSH1 0x20 ADD PUSH1 0x0 KECCAK256 PUSH1 0x0 ADD PUSH1 0x0 SWAP1 SLOAD SWAP1 PUSH2 0x100 EXP SWAP1 DIV PUSH1 0xFF AND ISZERO ISZERO EQ ISZERO ISZERO PUSH2 0xC5F JUMPI PUSH1 0x40 MLOAD PUSH32 0x8C379A000000000000000000000000000000000000000000000000000000000 DUP2 MSTORE PUSH1 0x4 ADD DUP1 DUP1 PUSH1 0x20 ADD DUP3 DUP2 SUB DUP3 MSTORE PUSH1 0x17 DUP2 MSTORE PUSH1 0x20 ADD DUP1 PUSH32 0x456D706C6F79656520646F6573206E6F74206578697374000000000000000000 DUP2 MSTORE POP PUSH1 0x20 ADD SWAP2 POP POP PUSH1 0x40 MLOAD DUP1 SWAP2 SUB SWAP1 REVERT JUMPDEST DUP2 PUSH1 0x2 PUSH1 0x0 DUP6 PUSH20 0xFFFFFFFFFFFFFFFFFFFFFFFFFFFFFFFFFFFFFFFF AND PUSH20 0xFFFFFFFFFFFFFFFFFFFFFFFFFFFFFFFFFFFFFFFF AND DUP2 MSTORE PUSH1 0x20 ADD SWAP1 DUP2 MSTORE PUSH1 0x20 ADD PUSH1 0x0 KECCAK256 PUSH1 0x2 ADD DUP2 SWAP1 SSTORE POP POP POP POP JUMP JUMPDEST PUSH1 0x0 DUP1 SWAP1 SLOAD SWAP1 PUSH2 0x100 EXP SWAP1 DIV PUSH20 0xFFFFFFFFFFFFFFFFFFFFFFFFFFFFFFFFFFFFFFFF AND DUP2 JUMP JUMPDEST PUSH1 0x0 DUP2 PUSH1 0x1 ISZERO ISZERO PUSH1 0x2 PUSH1 0x0 DUP4 PUSH20 0xFFFFFFFFFFFFFFFFFFFFFFFFFFFFFFFFFFFFFFFF AND PUSH20 0xFFFFFFFFFFFFFFFFFFFFFFFFFFFFFFFFFFFFFFFF AND DUP2 MSTORE PUSH1 0x20 ADD SWAP1 DUP2 MSTORE PUSH1 0x20 ADD PUSH1 0x0 KECCAK256 PUSH1 0x0 ADD PUSH1 0x0 SWAP1 SLOAD SWAP1 PUSH2 0x100 EXP SWAP1 DIV PUSH1 0xFF AND ISZERO ISZERO EQ ISZERO ISZERO PUSH2 0xD9E JUMPI PUSH1 0x40 MLOAD PUSH32 0x8C379A000000000000000000000000000000000000000000000000000000000 DUP2 MSTORE PUSH1 0x4 ADD DUP1 DUP1 PUSH1 0x20 ADD DUP3 DUP2 SUB DUP3 MSTORE PUSH1 0x17 DUP2 MSTORE PUSH1 0x20 ADD DUP1 PUSH32 0x456D706C6F79656520646F6573206E6F74206578697374000000000000000000 DUP2 MSTORE POP PUSH1 0x20 ADD SWAP2 POP POP PUSH1 0x40 MLOAD DUP1 SWAP2 SUB SWAP1 REVERT JUMPDEST PUSH1 0x2 PUSH1 0x0 DUP5 PUSH20 0xFFFFFFFFFFFFFFFFFFFFFFFFFFFFFFFFFFFFFFFF AND PUSH20 0xFFFFFFFFFFFFFFFFFFFFFFFFFFFFFFFFFFFFFFFF AND DUP2 MSTORE PUSH1 0x20 ADD SWAP1 DUP2 MSTORE PUSH1 0x20 ADD PUSH1 0x0 KECCAK256 PUSH1 0x1 ADD SLOAD SWAP2 POP POP SWAP2 SWAP1 POP JUMP JUMPDEST PUSH1 0x0 DUP2 PUSH1 0x1 ISZERO ISZERO PUSH1 0x2 PUSH1 0x0 DUP4 PUSH20 0xFFFFFFFFFFFFFFFFFFFFFFFFFFFFFFFFFFFFFFFF AND PUSH20 0xFFFFFFFFFFFFFFFFFFFFFFFFFFFFFFFFFFFFFFFF AND DUP2 MSTORE PUSH1 0x20 ADD SWAP1 DUP2 MSTORE PUSH1 0x20 ADD PUSH1 0x0 KECCAK256 PUSH1 0x0 ADD PUSH1 0x0 SWAP1 SLOAD SWAP1 PUSH2 0x100 EXP SWAP1 DIV PUSH1 0xFF AND ISZERO ISZERO EQ ISZERO ISZERO PUSH2 0xEB7 JUMPI PUSH1 0x40 MLOAD PUSH32 0x8C379A000000000000000000000000000000000000000000000000000000000 DUP2 MSTORE PUSH1 0x4 ADD DUP1 DUP1 PUSH1 0x20 ADD DUP3 DUP2 SUB DUP3 MSTORE PUSH1 0x17 DUP2 MSTORE PUSH1 0x20 ADD DUP1 PUSH32 0x456D706C6F79656520646F6573206E6F74206578697374000000000000000000 DUP2 MSTORE POP PUSH1 0x20 ADD SWAP2 POP POP PUSH1 0x40 MLOAD DUP1 SWAP2 SUB SWAP1 REVERT JUMPDEST PUSH1 0x2 PUSH1 0x0 DUP5 PUSH20 0xFFFFFFFFFFFFFFFFFFFFFFFFFFFFFFFFFFFFFFFF AND PUSH20 0xFFFFFFFFFFFFFFFFFFFFFFFFFFFFFFFFFFFFFFFF AND DUP2 MSTORE PUSH1 0x20 ADD SWAP1 DUP2 MSTORE PUSH1 0x20 ADD PUSH1 0x0 KECCAK256 PUSH1 0x2 ADD SLOAD SWAP2 POP POP SWAP2 SWAP1 POP JUMP JUMPDEST PUSH1 0x0 DUP1 PUSH20 0xFFFFFFFFFFFFFFFFFFFFFFFFFFFFFFFFFFFFFFFF AND PUSH1 0x0 DUP1 SWAP1 SLOAD SWAP1 PUSH2 0x100 EXP SWAP1 DIV PUSH20 0xFFFFFFFFFFFFFFFFFFFFFFFFFFFFFFFFFFFFFFFF AND PUSH20 0xFFFFFFFFFFFFFFFFFFFFFFFFFFFFFFFFFFFFFFFF AND EQ ISZERO ISZERO ISZERO PUSH2 0xFEF JUMPI PUSH1 0x40 MLOAD PUSH32 0x8C379A000000000000000000000000000000000000000000000000000000000 DUP2 MSTORE PUSH1 0x4 ADD DUP1 DUP1 PUSH1 0x20 ADD DUP3 DUP2 SUB DUP3 MSTORE PUSH1 0x3C DUP2 MSTORE PUSH1 0x20 ADD DUP1 PUSH32 0x496E697469616C697A652074686520656D706C6F7965652073746F7261676520 DUP2 MSTORE PUSH1 0x20 ADD PUSH32 0x6265666F72652063616C6C696E6720746869732066756E6374696F6E00000000 DUP2 MSTORE POP PUSH1 0x40 ADD SWAP2 POP POP PUSH1 0x40 MLOAD DUP1 SWAP2 SUB SWAP1 REVERT JUMPDEST PUSH1 0x0 DUP1 SWAP1 SLOAD SWAP1 PUSH2 0x100 EXP SWAP1 DIV PUSH20 0xFFFFFFFFFFFFFFFFFFFFFFFFFFFFFFFFFFFFFFFF AND SWAP1 POP SWAP1 JUMP STOP LOG1 PUSH6 0x627A7A723058 KECCAK256 JUMP SWAP10 PUSH1 0xF6 ADDRESS 0xc7 SWAP11 0x23 DUP13 SAR EXP SWAP16 BYTE PUSH23 0x7E09D08D9C1A4B5FCC343959E1F1198C72510029000000 "
				},
				"gasEstimates": {
					"creation": {
						"codeDepositCost": "832400",
						"executionCost": "5884",
						"totalCost": "838284"
					},
					"external": {
						"countEmployees()": "infinite",
						"createEmployeeContract(address,uint256,uint256)": "125056",
						"employeeContractStorage()": "640",
						"employeeExists(address)": "631",
						"getAddressByIndex(uint256)": "951",
						"getBalance()": "629",
						"getNumberOfEmployees()": "490",
						"readMaximumSecondsPerSession(address)": "1185",
						"readSalaryPerSecond(address)": "1163",
						"updateMaximumSecondsPerSession(address,uint256)": "20890",
						"updateSalaryPerSecond(address,uint256)": "20780",
						"withdrawFunds(uint256)": "infinite"
					},
					"internal": {
						"getEmployeeContractStorage()": "infinite"
					}
				},
				"methodIdentifiers": {
					"countEmployees()": "988c0bce",
					"createEmployeeContract(address,uint256,uint256)": "9e757f98",
					"employeeContractStorage()": "ee3b8d43",
					"employeeExists(address)": "1024f223",
					"getAddressByIndex(uint256)": "ce10cf88",
					"getBalance()": "12065fe0",
					"getNumberOfEmployees()": "888e1d05",
					"readMaximumSecondsPerSession(address)": "fd2b8257",
					"readSalaryPerSecond(address)": "f5e369e8",
					"updateMaximumSecondsPerSession(address,uint256)": "dbbf65b7",
					"updateSalaryPerSecond(address,uint256)": "5da74955",
					"withdrawFunds(uint256)": "155dd5ee"
				}
			},
			"userdoc": {
				"methods": {}
			}
		}
	}
}