{
	"blockchain/payrollSystem.sol": {
		"payrollSystem": {
			"abi": [
				{
					"constant": true,
					"inputs": [],
					"name": "getBalance",
					"outputs": [
						{
							"name": "",
							"type": "uint256"
						}
					],
					"payable": false,
					"stateMutability": "view",
					"type": "function"
				},
				{
					"constant": false,
					"inputs": [
						{
							"name": "amount",
							"type": "uint256"
						}
					],
					"name": "withdrawFunds",
					"outputs": [],
					"payable": false,
					"stateMutability": "nonpayable",
					"type": "function"
				},
				{
					"constant": true,
					"inputs": [],
					"name": "totalSupply",
					"outputs": [
						{
							"name": "",
							"type": "uint256"
						}
					],
					"payable": false,
					"stateMutability": "view",
					"type": "function"
				},
				{
					"constant": false,
					"inputs": [
						{
							"name": "_address",
							"type": "address"
						},
						{
							"name": "newSalary",
							"type": "uint256"
						}
					],
					"name": "updateSalary",
					"outputs": [],
					"payable": false,
					"stateMutability": "nonpayable",
					"type": "function"
				},
				{
					"constant": false,
					"inputs": [
						{
							"name": "sendTo",
							"type": "address"
						}
					],
					"name": "sendSalary",
					"outputs": [],
					"payable": false,
					"stateMutability": "nonpayable",
					"type": "function"
				},
				{
					"constant": false,
					"inputs": [],
					"name": "depositInvestment",
					"outputs": [],
					"payable": true,
					"stateMutability": "payable",
					"type": "function"
				},
				{
					"constant": true,
					"inputs": [
						{
							"name": "empAd",
							"type": "address"
						}
					],
					"name": "balanceOf",
					"outputs": [
						{
							"name": "",
							"type": "uint256"
						}
					],
					"payable": false,
					"stateMutability": "view",
					"type": "function"
				},
				{
					"constant": true,
					"inputs": [
						{
							"name": "check",
							"type": "address"
						}
					],
					"name": "isActive",
					"outputs": [
						{
							"name": "",
							"type": "bool"
						}
					],
					"payable": false,
					"stateMutability": "view",
					"type": "function"
				},
				{
					"constant": false,
					"inputs": [],
					"name": "addFunds",
					"outputs": [],
					"payable": true,
					"stateMutability": "payable",
					"type": "function"
				},
				{
					"constant": false,
					"inputs": [
						{
							"name": "_address",
							"type": "address"
						}
					],
					"name": "removeEmployee",
					"outputs": [],
					"payable": false,
					"stateMutability": "nonpayable",
					"type": "function"
				},
				{
					"constant": true,
					"inputs": [],
					"name": "listOutEmployees",
					"outputs": [
						{
							"name": "",
							"type": "address[]"
						}
					],
					"payable": false,
					"stateMutability": "view",
					"type": "function"
				},
				{
					"constant": false,
					"inputs": [
						{
							"name": "newEmployee",
							"type": "address"
						},
						{
							"name": "salary",
							"type": "uint256"
						}
					],
					"name": "addEmployee",
					"outputs": [],
					"payable": false,
					"stateMutability": "nonpayable",
					"type": "function"
				},
				{
					"inputs": [],
					"payable": false,
					"stateMutability": "nonpayable",
					"type": "constructor"
				},
				{
					"anonymous": false,
					"inputs": [
						{
							"indexed": true,
							"name": "from",
							"type": "address"
						},
						{
							"indexed": true,
							"name": "to",
							"type": "address"
						},
						{
							"indexed": false,
							"name": "amount",
							"type": "uint256"
						}
					],
					"name": "Transfer",
					"type": "event"
				}
			],
			"devdoc": {
				"methods": {}
			},
			"evm": {
				"assembly": "    /* \"blockchain/payrollSystem.sol\":27:3722  contract payrollSystem{\r... */\n  mstore(0x40, 0x80)\n    /* \"blockchain/payrollSystem.sol\":1120:1183  function payrollSystem(){\r... */\n  callvalue\n    /* \"--CODEGEN--\":8:17   */\n  dup1\n    /* \"--CODEGEN--\":5:7   */\n  iszero\n  tag_1\n  jumpi\n    /* \"--CODEGEN--\":30:31   */\n  0x0\n    /* \"--CODEGEN--\":27:28   */\n  dup1\n    /* \"--CODEGEN--\":20:32   */\n  revert\n    /* \"--CODEGEN--\":5:7   */\ntag_1:\n    /* \"blockchain/payrollSystem.sol\":1120:1183  function payrollSystem(){\r... */\n  pop\n    /* \"blockchain/payrollSystem.sol\":1165:1175  msg.sender */\n  caller\n    /* \"blockchain/payrollSystem.sol\":1155:1162  company */\n  0x0\n  dup1\n    /* \"blockchain/payrollSystem.sol\":1155:1175  company = msg.sender */\n  0x100\n  exp\n  dup2\n  sload\n  dup2\n  0xffffffffffffffffffffffffffffffffffffffff\n  mul\n  not\n  and\n  swap1\n  dup4\n  0xffffffffffffffffffffffffffffffffffffffff\n  and\n  mul\n  or\n  swap1\n  sstore\n  pop\n    /* \"blockchain/payrollSystem.sol\":27:3722  contract payrollSystem{\r... */\n  dataSize(sub_0)\n  dup1\n  dataOffset(sub_0)\n  0x0\n  codecopy\n  0x0\n  return\nstop\n\nsub_0: assembly {\n        /* \"blockchain/payrollSystem.sol\":27:3722  contract payrollSystem{\r... */\n      mstore(0x40, 0x80)\n      jumpi(tag_1, lt(calldatasize, 0x4))\n      calldataload(0x0)\n      0x100000000000000000000000000000000000000000000000000000000\n      swap1\n      div\n      0xffffffff\n      and\n      dup1\n      0x12065fe0\n      eq\n      tag_2\n      jumpi\n      dup1\n      0x155dd5ee\n      eq\n      tag_3\n      jumpi\n      dup1\n      0x18160ddd\n      eq\n      tag_4\n      jumpi\n      dup1\n      0x22003f10\n      eq\n      tag_5\n      jumpi\n      dup1\n      0x3c9266e0\n      eq\n      tag_6\n      jumpi\n      dup1\n      0x661956fb\n      eq\n      tag_7\n      jumpi\n      dup1\n      0x70a08231\n      eq\n      tag_8\n      jumpi\n      dup1\n      0x9f8a13d7\n      eq\n      tag_9\n      jumpi\n      dup1\n      0xa26759cb\n      eq\n      tag_10\n      jumpi\n      dup1\n      0xd108177a\n      eq\n      tag_11\n      jumpi\n      dup1\n      0xe53cacba\n      eq\n      tag_12\n      jumpi\n      dup1\n      0xe7fd9a13\n      eq\n      tag_13\n      jumpi\n    tag_1:\n      0x0\n      dup1\n      revert\n        /* \"blockchain/payrollSystem.sol\":964:1072  function getBalance() \r... */\n    tag_2:\n      callvalue\n        /* \"--CODEGEN--\":8:17   */\n      dup1\n        /* \"--CODEGEN--\":5:7   */\n      iszero\n      tag_14\n      jumpi\n        /* \"--CODEGEN--\":30:31   */\n      0x0\n        /* \"--CODEGEN--\":27:28   */\n      dup1\n        /* \"--CODEGEN--\":20:32   */\n      revert\n        /* \"--CODEGEN--\":5:7   */\n    tag_14:\n        /* \"blockchain/payrollSystem.sol\":964:1072  function getBalance() \r... */\n      pop\n      tag_15\n      jump(tag_16)\n    tag_15:\n      mload(0x40)\n      dup1\n      dup3\n      dup2\n      mstore\n      0x20\n      add\n      swap2\n      pop\n      pop\n      mload(0x40)\n      dup1\n      swap2\n      sub\n      swap1\n      return\n        /* \"blockchain/payrollSystem.sol\":651:956  function withdrawFunds(uint amount) \r... */\n    tag_3:\n      callvalue\n        /* \"--CODEGEN--\":8:17   */\n      dup1\n        /* \"--CODEGEN--\":5:7   */\n      iszero\n      tag_17\n      jumpi\n        /* \"--CODEGEN--\":30:31   */\n      0x0\n        /* \"--CODEGEN--\":27:28   */\n      dup1\n        /* \"--CODEGEN--\":20:32   */\n      revert\n        /* \"--CODEGEN--\":5:7   */\n    tag_17:\n        /* \"blockchain/payrollSystem.sol\":651:956  function withdrawFunds(uint amount) \r... */\n      pop\n      tag_18\n      0x4\n      dup1\n      calldatasize\n      sub\n      dup2\n      add\n      swap1\n      dup1\n      dup1\n      calldataload\n      swap1\n      0x20\n      add\n      swap1\n      swap3\n      swap2\n      swap1\n      pop\n      pop\n      pop\n      jump(tag_19)\n    tag_18:\n      stop\n        /* \"blockchain/payrollSystem.sol\":2456:2550  function totalSupply() onlyCompany constant returns(uint){\r... */\n    tag_4:\n      callvalue\n        /* \"--CODEGEN--\":8:17   */\n      dup1\n        /* \"--CODEGEN--\":5:7   */\n      iszero\n      tag_20\n      jumpi\n        /* \"--CODEGEN--\":30:31   */\n      0x0\n        /* \"--CODEGEN--\":27:28   */\n      dup1\n        /* \"--CODEGEN--\":20:32   */\n      revert\n        /* \"--CODEGEN--\":5:7   */\n    tag_20:\n        /* \"blockchain/payrollSystem.sol\":2456:2550  function totalSupply() onlyCompany constant returns(uint){\r... */\n      pop\n      tag_21\n      jump(tag_22)\n    tag_21:\n      mload(0x40)\n      dup1\n      dup3\n      dup2\n      mstore\n      0x20\n      add\n      swap2\n      pop\n      pop\n      mload(0x40)\n      dup1\n      swap2\n      sub\n      swap1\n      return\n        /* \"blockchain/payrollSystem.sol\":2019:2148  function updateSalary(address _address, uint newSalary) onlyCompany{\r... */\n    tag_5:\n      callvalue\n        /* \"--CODEGEN--\":8:17   */\n      dup1\n        /* \"--CODEGEN--\":5:7   */\n      iszero\n      tag_23\n      jumpi\n        /* \"--CODEGEN--\":30:31   */\n      0x0\n        /* \"--CODEGEN--\":27:28   */\n      dup1\n        /* \"--CODEGEN--\":20:32   */\n      revert\n        /* \"--CODEGEN--\":5:7   */\n    tag_23:\n        /* \"blockchain/payrollSystem.sol\":2019:2148  function updateSalary(address _address, uint newSalary) onlyCompany{\r... */\n      pop\n      tag_24\n      0x4\n      dup1\n      calldatasize\n      sub\n      dup2\n      add\n      swap1\n      dup1\n      dup1\n      calldataload\n      0xffffffffffffffffffffffffffffffffffffffff\n      and\n      swap1\n      0x20\n      add\n      swap1\n      swap3\n      swap2\n      swap1\n      dup1\n      calldataload\n      swap1\n      0x20\n      add\n      swap1\n      swap3\n      swap2\n      swap1\n      pop\n      pop\n      pop\n      jump(tag_25)\n    tag_24:\n      stop\n        /* \"blockchain/payrollSystem.sol\":3428:3576  function sendSalary(address sendTo){\r... */\n    tag_6:\n      callvalue\n        /* \"--CODEGEN--\":8:17   */\n      dup1\n        /* \"--CODEGEN--\":5:7   */\n      iszero\n      tag_26\n      jumpi\n        /* \"--CODEGEN--\":30:31   */\n      0x0\n        /* \"--CODEGEN--\":27:28   */\n      dup1\n        /* \"--CODEGEN--\":20:32   */\n      revert\n        /* \"--CODEGEN--\":5:7   */\n    tag_26:\n        /* \"blockchain/payrollSystem.sol\":3428:3576  function sendSalary(address sendTo){\r... */\n      pop\n      tag_27\n      0x4\n      dup1\n      calldatasize\n      sub\n      dup2\n      add\n      swap1\n      dup1\n      dup1\n      calldataload\n      0xffffffffffffffffffffffffffffffffffffffff\n      and\n      swap1\n      0x20\n      add\n      swap1\n      swap3\n      swap2\n      swap1\n      pop\n      pop\n      pop\n      jump(tag_28)\n    tag_27:\n      stop\n        /* \"blockchain/payrollSystem.sol\":2381:2444  function depositInvestment() onlyCompany payable{\r... */\n    tag_7:\n      tag_29\n      jump(tag_30)\n    tag_29:\n      stop\n        /* \"blockchain/payrollSystem.sol\":3595:3713  function balanceOf(address empAd) public constant returns(uint){\r... */\n    tag_8:\n      callvalue\n        /* \"--CODEGEN--\":8:17   */\n      dup1\n        /* \"--CODEGEN--\":5:7   */\n      iszero\n      tag_31\n      jumpi\n        /* \"--CODEGEN--\":30:31   */\n      0x0\n        /* \"--CODEGEN--\":27:28   */\n      dup1\n        /* \"--CODEGEN--\":20:32   */\n      revert\n        /* \"--CODEGEN--\":5:7   */\n    tag_31:\n        /* \"blockchain/payrollSystem.sol\":3595:3713  function balanceOf(address empAd) public constant returns(uint){\r... */\n      pop\n      tag_32\n      0x4\n      dup1\n      calldatasize\n      sub\n      dup2\n      add\n      swap1\n      dup1\n      dup1\n      calldataload\n      0xffffffffffffffffffffffffffffffffffffffff\n      and\n      swap1\n      0x20\n      add\n      swap1\n      swap3\n      swap2\n      swap1\n      pop\n      pop\n      pop\n      jump(tag_33)\n    tag_32:\n      mload(0x40)\n      dup1\n      dup3\n      dup2\n      mstore\n      0x20\n      add\n      swap2\n      pop\n      pop\n      mload(0x40)\n      dup1\n      swap2\n      sub\n      swap1\n      return\n        /* \"blockchain/payrollSystem.sol\":2631:2740  function isActive(address check) constant returns(bool){\r... */\n    tag_9:\n      callvalue\n        /* \"--CODEGEN--\":8:17   */\n      dup1\n        /* \"--CODEGEN--\":5:7   */\n      iszero\n      tag_34\n      jumpi\n        /* \"--CODEGEN--\":30:31   */\n      0x0\n        /* \"--CODEGEN--\":27:28   */\n      dup1\n        /* \"--CODEGEN--\":20:32   */\n      revert\n        /* \"--CODEGEN--\":5:7   */\n    tag_34:\n        /* \"blockchain/payrollSystem.sol\":2631:2740  function isActive(address check) constant returns(bool){\r... */\n      pop\n      tag_35\n      0x4\n      dup1\n      calldatasize\n      sub\n      dup2\n      add\n      swap1\n      dup1\n      dup1\n      calldataload\n      0xffffffffffffffffffffffffffffffffffffffff\n      and\n      swap1\n      0x20\n      add\n      swap1\n      swap3\n      swap2\n      swap1\n      pop\n      pop\n      pop\n      jump(tag_36)\n    tag_35:\n      mload(0x40)\n      dup1\n      dup3\n      iszero\n      iszero\n      iszero\n      iszero\n      dup2\n      mstore\n      0x20\n      add\n      swap2\n      pop\n      pop\n      mload(0x40)\n      dup1\n      swap2\n      sub\n      swap1\n      return\n        /* \"blockchain/payrollSystem.sol\":374:643  function addFunds() \r... */\n    tag_10:\n      tag_37\n      jump(tag_38)\n    tag_37:\n      stop\n        /* \"blockchain/payrollSystem.sol\":1818:1929  function removeEmployee(address _address) onlyCompany{\r... */\n    tag_11:\n      callvalue\n        /* \"--CODEGEN--\":8:17   */\n      dup1\n        /* \"--CODEGEN--\":5:7   */\n      iszero\n      tag_39\n      jumpi\n        /* \"--CODEGEN--\":30:31   */\n      0x0\n        /* \"--CODEGEN--\":27:28   */\n      dup1\n        /* \"--CODEGEN--\":20:32   */\n      revert\n        /* \"--CODEGEN--\":5:7   */\n    tag_39:\n        /* \"blockchain/payrollSystem.sol\":1818:1929  function removeEmployee(address _address) onlyCompany{\r... */\n      pop\n      tag_40\n      0x4\n      dup1\n      calldatasize\n      sub\n      dup2\n      add\n      swap1\n      dup1\n      dup1\n      calldataload\n      0xffffffffffffffffffffffffffffffffffffffff\n      and\n      swap1\n      0x20\n      add\n      swap1\n      swap3\n      swap2\n      swap1\n      pop\n      pop\n      pop\n      jump(tag_41)\n    tag_40:\n      stop\n        /* \"blockchain/payrollSystem.sol\":2160:2265  function listOutEmployees() onlyCompany constant returns(address[]){\r... */\n    tag_12:\n      callvalue\n        /* \"--CODEGEN--\":8:17   */\n      dup1\n        /* \"--CODEGEN--\":5:7   */\n      iszero\n      tag_42\n      jumpi\n        /* \"--CODEGEN--\":30:31   */\n      0x0\n        /* \"--CODEGEN--\":27:28   */\n      dup1\n        /* \"--CODEGEN--\":20:32   */\n      revert\n        /* \"--CODEGEN--\":5:7   */\n    tag_42:\n        /* \"blockchain/payrollSystem.sol\":2160:2265  function listOutEmployees() onlyCompany constant returns(address[]){\r... */\n      pop\n      tag_43\n      jump(tag_44)\n    tag_43:\n      mload(0x40)\n      dup1\n      dup1\n      0x20\n      add\n      dup3\n      dup2\n      sub\n      dup3\n      mstore\n      dup4\n      dup2\n      dup2\n      mload\n      dup2\n      mstore\n      0x20\n      add\n      swap2\n      pop\n      dup1\n      mload\n      swap1\n      0x20\n      add\n      swap1\n      0x20\n      mul\n      dup1\n      dup4\n      dup4\n        /* \"--CODEGEN--\":23:24   */\n      0x0\n        /* \"--CODEGEN--\":8:108   */\n    tag_45:\n        /* \"--CODEGEN--\":33:36   */\n      dup4\n        /* \"--CODEGEN--\":30:31   */\n      dup2\n        /* \"--CODEGEN--\":27:37   */\n      lt\n        /* \"--CODEGEN--\":8:108   */\n      iszero\n      tag_46\n      jumpi\n        /* \"--CODEGEN--\":99:100   */\n      dup1\n        /* \"--CODEGEN--\":94:97   */\n      dup3\n        /* \"--CODEGEN--\":90:101   */\n      add\n        /* \"--CODEGEN--\":84:102   */\n      mload\n        /* \"--CODEGEN--\":80:81   */\n      dup2\n        /* \"--CODEGEN--\":75:78   */\n      dup5\n        /* \"--CODEGEN--\":71:82   */\n      add\n        /* \"--CODEGEN--\":64:103   */\n      mstore\n        /* \"--CODEGEN--\":52:54   */\n      0x20\n        /* \"--CODEGEN--\":49:50   */\n      dup2\n        /* \"--CODEGEN--\":45:55   */\n      add\n        /* \"--CODEGEN--\":40:55   */\n      swap1\n      pop\n        /* \"--CODEGEN--\":8:108   */\n      jump(tag_45)\n    tag_46:\n        /* \"--CODEGEN--\":12:26   */\n      pop\n        /* \"blockchain/payrollSystem.sol\":2160:2265  function listOutEmployees() onlyCompany constant returns(address[]){\r... */\n      pop\n      pop\n      pop\n      swap1\n      pop\n      add\n      swap3\n      pop\n      pop\n      pop\n      mload(0x40)\n      dup1\n      swap2\n      sub\n      swap1\n      return\n        /* \"blockchain/payrollSystem.sol\":1439:1710  function addEmployee(address newEmployee, uint salary) onlyCompany{\r... */\n    tag_13:\n      callvalue\n        /* \"--CODEGEN--\":8:17   */\n      dup1\n        /* \"--CODEGEN--\":5:7   */\n      iszero\n      tag_48\n      jumpi\n        /* \"--CODEGEN--\":30:31   */\n      0x0\n        /* \"--CODEGEN--\":27:28   */\n      dup1\n        /* \"--CODEGEN--\":20:32   */\n      revert\n        /* \"--CODEGEN--\":5:7   */\n    tag_48:\n        /* \"blockchain/payrollSystem.sol\":1439:1710  function addEmployee(address newEmployee, uint salary) onlyCompany{\r... */\n      pop\n      tag_49\n      0x4\n      dup1\n      calldatasize\n      sub\n      dup2\n      add\n      swap1\n      dup1\n      dup1\n      calldataload\n      0xffffffffffffffffffffffffffffffffffffffff\n      and\n      swap1\n      0x20\n      add\n      swap1\n      swap3\n      swap2\n      swap1\n      dup1\n      calldataload\n      swap1\n      0x20\n      add\n      swap1\n      swap3\n      swap2\n      swap1\n      pop\n      pop\n      pop\n      jump(tag_50)\n    tag_49:\n      stop\n        /* \"blockchain/payrollSystem.sol\":964:1072  function getBalance() \r... */\n    tag_16:\n        /* \"blockchain/payrollSystem.sol\":1019:1023  uint */\n      0x0\n        /* \"blockchain/payrollSystem.sol\":1051:1055  this */\n      address\n        /* \"blockchain/payrollSystem.sol\":1043:1064  address(this).balance */\n      0xffffffffffffffffffffffffffffffffffffffff\n      and\n      balance\n        /* \"blockchain/payrollSystem.sol\":1036:1064  return address(this).balance */\n      swap1\n      pop\n        /* \"blockchain/payrollSystem.sol\":964:1072  function getBalance() \r... */\n      swap1\n      jump\t// out\n        /* \"blockchain/payrollSystem.sol\":651:956  function withdrawFunds(uint amount) \r... */\n    tag_19:\n        /* \"blockchain/payrollSystem.sol\":798:802  this */\n      address\n        /* \"blockchain/payrollSystem.sol\":790:811  address(this).balance */\n      0xffffffffffffffffffffffffffffffffffffffff\n      and\n      balance\n        /* \"blockchain/payrollSystem.sol\":780:786  amount */\n      dup2\n        /* \"blockchain/payrollSystem.sol\":780:811  amount <= address(this).balance */\n      gt\n      iszero\n        /* \"blockchain/payrollSystem.sol\":772:843  require(amount <= address(this).balance, \"Not enough money in Payroll\") */\n      iszero\n      iszero\n      tag_53\n      jumpi\n      mload(0x40)\n      0x8c379a000000000000000000000000000000000000000000000000000000000\n      dup2\n      mstore\n      0x4\n      add\n      dup1\n      dup1\n      0x20\n      add\n      dup3\n      dup2\n      sub\n      dup3\n      mstore\n      0x1b\n      dup2\n      mstore\n      0x20\n      add\n      dup1\n      0x4e6f7420656e6f756768206d6f6e657920696e20506179726f6c6c0000000000\n      dup2\n      mstore\n      pop\n      0x20\n      add\n      swap2\n      pop\n      pop\n      mload(0x40)\n      dup1\n      swap2\n      sub\n      swap1\n      revert\n    tag_53:\n        /* \"blockchain/payrollSystem.sol\":871:872  0 */\n      0x0\n        /* \"blockchain/payrollSystem.sol\":862:868  amount */\n      dup2\n        /* \"blockchain/payrollSystem.sol\":862:872  amount > 0 */\n      gt\n        /* \"blockchain/payrollSystem.sol\":854:910  require(amount > 0, \"Withdrawing 0 will have no effect\") */\n      iszero\n      iszero\n      tag_54\n      jumpi\n      mload(0x40)\n      0x8c379a000000000000000000000000000000000000000000000000000000000\n      dup2\n      mstore\n      0x4\n      add\n      dup1\n      dup1\n      0x20\n      add\n      dup3\n      dup2\n      sub\n      dup3\n      mstore\n      0x21\n      dup2\n      mstore\n      0x20\n      add\n      dup1\n      0x5769746864726177696e6720302077696c6c2068617665206e6f206566666563\n      dup2\n      mstore\n      0x20\n      add\n      0x7400000000000000000000000000000000000000000000000000000000000000\n      dup2\n      mstore\n      pop\n      0x40\n      add\n      swap2\n      pop\n      pop\n      mload(0x40)\n      dup1\n      swap2\n      sub\n      swap1\n      revert\n    tag_54:\n        /* \"blockchain/payrollSystem.sol\":921:931  msg.sender */\n      caller\n        /* \"blockchain/payrollSystem.sol\":921:940  msg.sender.transfer */\n      0xffffffffffffffffffffffffffffffffffffffff\n      and\n        /* \"blockchain/payrollSystem.sol\":921:948  msg.sender.transfer(amount) */\n      0x8fc\n        /* \"blockchain/payrollSystem.sol\":941:947  amount */\n      dup3\n        /* \"blockchain/payrollSystem.sol\":921:948  msg.sender.transfer(amount) */\n      swap1\n      dup2\n      iszero\n      mul\n      swap1\n      mload(0x40)\n      0x0\n      mload(0x40)\n      dup1\n      dup4\n      sub\n      dup2\n      dup6\n      dup9\n      dup9\n      call\n      swap4\n      pop\n      pop\n      pop\n      pop\n      iszero\n        /* \"--CODEGEN--\":8:17   */\n      dup1\n        /* \"--CODEGEN--\":5:7   */\n      iszero\n      tag_55\n      jumpi\n        /* \"--CODEGEN--\":45:61   */\n      returndatasize\n        /* \"--CODEGEN--\":42:43   */\n      0x0\n        /* \"--CODEGEN--\":39:40   */\n      dup1\n        /* \"--CODEGEN--\":24:62   */\n      returndatacopy\n        /* \"--CODEGEN--\":77:93   */\n      returndatasize\n        /* \"--CODEGEN--\":74:75   */\n      0x0\n        /* \"--CODEGEN--\":67:94   */\n      revert\n        /* \"--CODEGEN--\":5:7   */\n    tag_55:\n        /* \"blockchain/payrollSystem.sol\":921:948  msg.sender.transfer(amount) */\n      pop\n        /* \"blockchain/payrollSystem.sol\":651:956  function withdrawFunds(uint amount) \r... */\n      pop\n      jump\t// out\n        /* \"blockchain/payrollSystem.sol\":2456:2550  function totalSupply() onlyCompany constant returns(uint){\r... */\n    tag_22:\n        /* \"blockchain/payrollSystem.sol\":2508:2512  uint */\n      0x0\n        /* \"blockchain/payrollSystem.sol\":1306:1313  company */\n      dup1\n      0x0\n      swap1\n      sload\n      swap1\n      0x100\n      exp\n      swap1\n      div\n      0xffffffffffffffffffffffffffffffffffffffff\n      and\n        /* \"blockchain/payrollSystem.sol\":1292:1313  msg.sender != company */\n      0xffffffffffffffffffffffffffffffffffffffff\n      and\n        /* \"blockchain/payrollSystem.sol\":1292:1302  msg.sender */\n      caller\n        /* \"blockchain/payrollSystem.sol\":1292:1313  msg.sender != company */\n      0xffffffffffffffffffffffffffffffffffffffff\n      and\n      eq\n      iszero\n        /* \"blockchain/payrollSystem.sol\":1289:1347  if(msg.sender != company){\r... */\n      iszero\n      tag_57\n      jumpi\n        /* \"blockchain/payrollSystem.sol\":1328:1336  revert() */\n      0x0\n      dup1\n      revert\n        /* \"blockchain/payrollSystem.sol\":1289:1347  if(msg.sender != company){\r... */\n    tag_57:\n        /* \"blockchain/payrollSystem.sol\":2530:2534  this */\n      address\n        /* \"blockchain/payrollSystem.sol\":2530:2542  this.balance */\n      0xffffffffffffffffffffffffffffffffffffffff\n      and\n      balance\n        /* \"blockchain/payrollSystem.sol\":2523:2542  return this.balance */\n      swap1\n      pop\n        /* \"blockchain/payrollSystem.sol\":2456:2550  function totalSupply() onlyCompany constant returns(uint){\r... */\n      swap1\n      jump\t// out\n        /* \"blockchain/payrollSystem.sol\":2019:2148  function updateSalary(address _address, uint newSalary) onlyCompany{\r... */\n    tag_25:\n        /* \"blockchain/payrollSystem.sol\":1306:1313  company */\n      0x0\n      dup1\n      swap1\n      sload\n      swap1\n      0x100\n      exp\n      swap1\n      div\n      0xffffffffffffffffffffffffffffffffffffffff\n      and\n        /* \"blockchain/payrollSystem.sol\":1292:1313  msg.sender != company */\n      0xffffffffffffffffffffffffffffffffffffffff\n      and\n        /* \"blockchain/payrollSystem.sol\":1292:1302  msg.sender */\n      caller\n        /* \"blockchain/payrollSystem.sol\":1292:1313  msg.sender != company */\n      0xffffffffffffffffffffffffffffffffffffffff\n      and\n      eq\n      iszero\n        /* \"blockchain/payrollSystem.sol\":1289:1347  if(msg.sender != company){\r... */\n      iszero\n      tag_60\n      jumpi\n        /* \"blockchain/payrollSystem.sol\":1328:1336  revert() */\n      0x0\n      dup1\n      revert\n        /* \"blockchain/payrollSystem.sol\":1289:1347  if(msg.sender != company){\r... */\n    tag_60:\n        /* \"blockchain/payrollSystem.sol\":2131:2140  newSalary */\n      dup1\n        /* \"blockchain/payrollSystem.sol\":2097:2111  employeeMapper */\n      0x1\n        /* \"blockchain/payrollSystem.sol\":2097:2121  employeeMapper[_address] */\n      0x0\n        /* \"blockchain/payrollSystem.sol\":2112:2120  _address */\n      dup5\n        /* \"blockchain/payrollSystem.sol\":2097:2121  employeeMapper[_address] */\n      0xffffffffffffffffffffffffffffffffffffffff\n      and\n      0xffffffffffffffffffffffffffffffffffffffff\n      and\n      dup2\n      mstore\n      0x20\n      add\n      swap1\n      dup2\n      mstore\n      0x20\n      add\n      0x0\n      keccak256\n        /* \"blockchain/payrollSystem.sol\":2097:2128  employeeMapper[_address].salary */\n      0x1\n      add\n        /* \"blockchain/payrollSystem.sol\":2097:2140  employeeMapper[_address].salary = newSalary */\n      dup2\n      swap1\n      sstore\n      pop\n        /* \"blockchain/payrollSystem.sol\":2019:2148  function updateSalary(address _address, uint newSalary) onlyCompany{\r... */\n      pop\n      pop\n      jump\t// out\n        /* \"blockchain/payrollSystem.sol\":3428:3576  function sendSalary(address sendTo){\r... */\n    tag_28:\n        /* \"blockchain/payrollSystem.sol\":3477:3493  isActive(sendTo) */\n      tag_63\n        /* \"blockchain/payrollSystem.sol\":3486:3492  sendTo */\n      dup2\n        /* \"blockchain/payrollSystem.sol\":3477:3485  isActive */\n      tag_36\n        /* \"blockchain/payrollSystem.sol\":3477:3493  isActive(sendTo) */\n      jump\t// in\n    tag_63:\n        /* \"blockchain/payrollSystem.sol\":3477:3525  isActive(sendTo) && !employeeMapper[sendTo].paid */\n      dup1\n      iszero\n      tag_64\n      jumpi\n      pop\n        /* \"blockchain/payrollSystem.sol\":3498:3512  employeeMapper */\n      0x1\n        /* \"blockchain/payrollSystem.sol\":3498:3520  employeeMapper[sendTo] */\n      0x0\n        /* \"blockchain/payrollSystem.sol\":3513:3519  sendTo */\n      dup3\n        /* \"blockchain/payrollSystem.sol\":3498:3520  employeeMapper[sendTo] */\n      0xffffffffffffffffffffffffffffffffffffffff\n      and\n      0xffffffffffffffffffffffffffffffffffffffff\n      and\n      dup2\n      mstore\n      0x20\n      add\n      swap1\n      dup2\n      mstore\n      0x20\n      add\n      0x0\n      keccak256\n        /* \"blockchain/payrollSystem.sol\":3498:3525  employeeMapper[sendTo].paid */\n      0x0\n      add\n      0x1\n      swap1\n      sload\n      swap1\n      0x100\n      exp\n      swap1\n      div\n      0xff\n      and\n        /* \"blockchain/payrollSystem.sol\":3497:3525  !employeeMapper[sendTo].paid */\n      iszero\n        /* \"blockchain/payrollSystem.sol\":3477:3525  isActive(sendTo) && !employeeMapper[sendTo].paid */\n    tag_64:\n        /* \"blockchain/payrollSystem.sol\":3474:3569  if(isActive(sendTo) && !employeeMapper[sendTo].paid){\r... */\n      iszero\n      tag_65\n      jumpi\n        /* \"blockchain/payrollSystem.sol\":3541:3557  transfer(sendTo) */\n      tag_66\n        /* \"blockchain/payrollSystem.sol\":3550:3556  sendTo */\n      dup2\n        /* \"blockchain/payrollSystem.sol\":3541:3549  transfer */\n      tag_67\n        /* \"blockchain/payrollSystem.sol\":3541:3557  transfer(sendTo) */\n      jump\t// in\n    tag_66:\n        /* \"blockchain/payrollSystem.sol\":3474:3569  if(isActive(sendTo) && !employeeMapper[sendTo].paid){\r... */\n    tag_65:\n        /* \"blockchain/payrollSystem.sol\":3428:3576  function sendSalary(address sendTo){\r... */\n      pop\n      jump\t// out\n        /* \"blockchain/payrollSystem.sol\":2381:2444  function depositInvestment() onlyCompany payable{\r... */\n    tag_30:\n        /* \"blockchain/payrollSystem.sol\":1306:1313  company */\n      0x0\n      dup1\n      swap1\n      sload\n      swap1\n      0x100\n      exp\n      swap1\n      div\n      0xffffffffffffffffffffffffffffffffffffffff\n      and\n        /* \"blockchain/payrollSystem.sol\":1292:1313  msg.sender != company */\n      0xffffffffffffffffffffffffffffffffffffffff\n      and\n        /* \"blockchain/payrollSystem.sol\":1292:1302  msg.sender */\n      caller\n        /* \"blockchain/payrollSystem.sol\":1292:1313  msg.sender != company */\n      0xffffffffffffffffffffffffffffffffffffffff\n      and\n      eq\n      iszero\n        /* \"blockchain/payrollSystem.sol\":1289:1347  if(msg.sender != company){\r... */\n      iszero\n      tag_69\n      jumpi\n        /* \"blockchain/payrollSystem.sol\":1328:1336  revert() */\n      0x0\n      dup1\n      revert\n        /* \"blockchain/payrollSystem.sol\":1289:1347  if(msg.sender != company){\r... */\n    tag_69:\n        /* \"blockchain/payrollSystem.sol\":2381:2444  function depositInvestment() onlyCompany payable{\r... */\n      jump\t// out\n        /* \"blockchain/payrollSystem.sol\":3595:3713  function balanceOf(address empAd) public constant returns(uint){\r... */\n    tag_33:\n        /* \"blockchain/payrollSystem.sol\":3653:3657  uint */\n      0x0\n        /* \"blockchain/payrollSystem.sol\":3676:3690  employeeMapper */\n      0x1\n        /* \"blockchain/payrollSystem.sol\":3676:3697  employeeMapper[empAd] */\n      0x0\n        /* \"blockchain/payrollSystem.sol\":3691:3696  empAd */\n      dup4\n        /* \"blockchain/payrollSystem.sol\":3676:3697  employeeMapper[empAd] */\n      0xffffffffffffffffffffffffffffffffffffffff\n      and\n      0xffffffffffffffffffffffffffffffffffffffff\n      and\n      dup2\n      mstore\n      0x20\n      add\n      swap1\n      dup2\n      mstore\n      0x20\n      add\n      0x0\n      keccak256\n        /* \"blockchain/payrollSystem.sol\":3676:3705  employeeMapper[empAd].balance */\n      0x2\n      add\n      sload\n        /* \"blockchain/payrollSystem.sol\":3669:3705  return employeeMapper[empAd].balance */\n      swap1\n      pop\n        /* \"blockchain/payrollSystem.sol\":3595:3713  function balanceOf(address empAd) public constant returns(uint){\r... */\n      swap2\n      swap1\n      pop\n      jump\t// out\n        /* \"blockchain/payrollSystem.sol\":2631:2740  function isActive(address check) constant returns(bool){\r... */\n    tag_36:\n        /* \"blockchain/payrollSystem.sol\":2681:2685  bool */\n      0x0\n        /* \"blockchain/payrollSystem.sol\":2704:2718  employeeMapper */\n      0x1\n        /* \"blockchain/payrollSystem.sol\":2704:2725  employeeMapper[check] */\n      0x0\n        /* \"blockchain/payrollSystem.sol\":2719:2724  check */\n      dup4\n        /* \"blockchain/payrollSystem.sol\":2704:2725  employeeMapper[check] */\n      0xffffffffffffffffffffffffffffffffffffffff\n      and\n      0xffffffffffffffffffffffffffffffffffffffff\n      and\n      dup2\n      mstore\n      0x20\n      add\n      swap1\n      dup2\n      mstore\n      0x20\n      add\n      0x0\n      keccak256\n        /* \"blockchain/payrollSystem.sol\":2704:2732  employeeMapper[check].active */\n      0x0\n      add\n      0x0\n      swap1\n      sload\n      swap1\n      0x100\n      exp\n      swap1\n      div\n      0xff\n      and\n        /* \"blockchain/payrollSystem.sol\":2697:2732  return employeeMapper[check].active */\n      swap1\n      pop\n        /* \"blockchain/payrollSystem.sol\":2631:2740  function isActive(address check) constant returns(bool){\r... */\n      swap2\n      swap1\n      pop\n      jump\t// out\n        /* \"blockchain/payrollSystem.sol\":374:643  function addFunds() \r... */\n    tag_38:\n        /* \"blockchain/payrollSystem.sol\":596:597  0 */\n      0x0\n        /* \"blockchain/payrollSystem.sol\":584:593  msg.value */\n      callvalue\n        /* \"blockchain/payrollSystem.sol\":584:597  msg.value > 0 */\n      gt\n        /* \"blockchain/payrollSystem.sol\":576:635  require(msg.value > 0, \"Withdrawing 0 will have no effect\") */\n      iszero\n      iszero\n      tag_74\n      jumpi\n      mload(0x40)\n      0x8c379a000000000000000000000000000000000000000000000000000000000\n      dup2\n      mstore\n      0x4\n      add\n      dup1\n      dup1\n      0x20\n      add\n      dup3\n      dup2\n      sub\n      dup3\n      mstore\n      0x21\n      dup2\n      mstore\n      0x20\n      add\n      dup1\n      0x5769746864726177696e6720302077696c6c2068617665206e6f206566666563\n      dup2\n      mstore\n      0x20\n      add\n      0x7400000000000000000000000000000000000000000000000000000000000000\n      dup2\n      mstore\n      pop\n      0x40\n      add\n      swap2\n      pop\n      pop\n      mload(0x40)\n      dup1\n      swap2\n      sub\n      swap1\n      revert\n    tag_74:\n        /* \"blockchain/payrollSystem.sol\":374:643  function addFunds() \r... */\n      jump\t// out\n        /* \"blockchain/payrollSystem.sol\":1818:1929  function removeEmployee(address _address) onlyCompany{\r... */\n    tag_41:\n        /* \"blockchain/payrollSystem.sol\":1306:1313  company */\n      0x0\n      dup1\n      swap1\n      sload\n      swap1\n      0x100\n      exp\n      swap1\n      div\n      0xffffffffffffffffffffffffffffffffffffffff\n      and\n        /* \"blockchain/payrollSystem.sol\":1292:1313  msg.sender != company */\n      0xffffffffffffffffffffffffffffffffffffffff\n      and\n        /* \"blockchain/payrollSystem.sol\":1292:1302  msg.sender */\n      caller\n        /* \"blockchain/payrollSystem.sol\":1292:1313  msg.sender != company */\n      0xffffffffffffffffffffffffffffffffffffffff\n      and\n      eq\n      iszero\n        /* \"blockchain/payrollSystem.sol\":1289:1347  if(msg.sender != company){\r... */\n      iszero\n      tag_76\n      jumpi\n        /* \"blockchain/payrollSystem.sol\":1328:1336  revert() */\n      0x0\n      dup1\n      revert\n        /* \"blockchain/payrollSystem.sol\":1289:1347  if(msg.sender != company){\r... */\n    tag_76:\n        /* \"blockchain/payrollSystem.sol\":1916:1921  false */\n      0x0\n        /* \"blockchain/payrollSystem.sol\":1882:1896  employeeMapper */\n      0x1\n        /* \"blockchain/payrollSystem.sol\":1882:1906  employeeMapper[_address] */\n      0x0\n        /* \"blockchain/payrollSystem.sol\":1897:1905  _address */\n      dup4\n        /* \"blockchain/payrollSystem.sol\":1882:1906  employeeMapper[_address] */\n      0xffffffffffffffffffffffffffffffffffffffff\n      and\n      0xffffffffffffffffffffffffffffffffffffffff\n      and\n      dup2\n      mstore\n      0x20\n      add\n      swap1\n      dup2\n      mstore\n      0x20\n      add\n      0x0\n      keccak256\n        /* \"blockchain/payrollSystem.sol\":1882:1913  employeeMapper[_address].active */\n      0x0\n      add\n      0x0\n        /* \"blockchain/payrollSystem.sol\":1882:1921  employeeMapper[_address].active = false */\n      0x100\n      exp\n      dup2\n      sload\n      dup2\n      0xff\n      mul\n      not\n      and\n      swap1\n      dup4\n      iszero\n      iszero\n      mul\n      or\n      swap1\n      sstore\n      pop\n        /* \"blockchain/payrollSystem.sol\":1818:1929  function removeEmployee(address _address) onlyCompany{\r... */\n      pop\n      jump\t// out\n        /* \"blockchain/payrollSystem.sol\":2160:2265  function listOutEmployees() onlyCompany constant returns(address[]){\r... */\n    tag_44:\n        /* \"blockchain/payrollSystem.sol\":2217:2226  address[] */\n      0x60\n        /* \"blockchain/payrollSystem.sol\":1306:1313  company */\n      0x0\n      dup1\n      swap1\n      sload\n      swap1\n      0x100\n      exp\n      swap1\n      div\n      0xffffffffffffffffffffffffffffffffffffffff\n      and\n        /* \"blockchain/payrollSystem.sol\":1292:1313  msg.sender != company */\n      0xffffffffffffffffffffffffffffffffffffffff\n      and\n        /* \"blockchain/payrollSystem.sol\":1292:1302  msg.sender */\n      caller\n        /* \"blockchain/payrollSystem.sol\":1292:1313  msg.sender != company */\n      0xffffffffffffffffffffffffffffffffffffffff\n      and\n      eq\n      iszero\n        /* \"blockchain/payrollSystem.sol\":1289:1347  if(msg.sender != company){\r... */\n      iszero\n      tag_79\n      jumpi\n        /* \"blockchain/payrollSystem.sol\":1328:1336  revert() */\n      0x0\n      dup1\n      revert\n        /* \"blockchain/payrollSystem.sol\":1289:1347  if(msg.sender != company){\r... */\n    tag_79:\n        /* \"blockchain/payrollSystem.sol\":2245:2257  employeeList */\n      0x2\n        /* \"blockchain/payrollSystem.sol\":2238:2257  return employeeList */\n      dup1\n      sload\n      dup1\n      0x20\n      mul\n      0x20\n      add\n      mload(0x40)\n      swap1\n      dup2\n      add\n      0x40\n      mstore\n      dup1\n      swap3\n      swap2\n      swap1\n      dup2\n      dup2\n      mstore\n      0x20\n      add\n      dup3\n      dup1\n      sload\n      dup1\n      iszero\n      tag_81\n      jumpi\n      0x20\n      mul\n      dup3\n      add\n      swap2\n      swap1\n      0x0\n      mstore\n      keccak256(0x0, 0x20)\n      swap1\n    tag_82:\n      dup2\n      0x0\n      swap1\n      sload\n      swap1\n      0x100\n      exp\n      swap1\n      div\n      0xffffffffffffffffffffffffffffffffffffffff\n      and\n      0xffffffffffffffffffffffffffffffffffffffff\n      and\n      dup2\n      mstore\n      0x20\n      add\n      swap1\n      0x1\n      add\n      swap1\n      dup1\n      dup4\n      gt\n      tag_82\n      jumpi\n    tag_81:\n      pop\n      pop\n      pop\n      pop\n      pop\n      swap1\n      pop\n        /* \"blockchain/payrollSystem.sol\":2160:2265  function listOutEmployees() onlyCompany constant returns(address[]){\r... */\n      swap1\n      jump\t// out\n        /* \"blockchain/payrollSystem.sol\":1439:1710  function addEmployee(address newEmployee, uint salary) onlyCompany{\r... */\n    tag_50:\n        /* \"blockchain/payrollSystem.sol\":1516:1529  var _employee */\n      0x0\n        /* \"blockchain/payrollSystem.sol\":1306:1313  company */\n      dup1\n      0x0\n      swap1\n      sload\n      swap1\n      0x100\n      exp\n      swap1\n      div\n      0xffffffffffffffffffffffffffffffffffffffff\n      and\n        /* \"blockchain/payrollSystem.sol\":1292:1313  msg.sender != company */\n      0xffffffffffffffffffffffffffffffffffffffff\n      and\n        /* \"blockchain/payrollSystem.sol\":1292:1302  msg.sender */\n      caller\n        /* \"blockchain/payrollSystem.sol\":1292:1313  msg.sender != company */\n      0xffffffffffffffffffffffffffffffffffffffff\n      and\n      eq\n      iszero\n        /* \"blockchain/payrollSystem.sol\":1289:1347  if(msg.sender != company){\r... */\n      iszero\n      tag_84\n      jumpi\n        /* \"blockchain/payrollSystem.sol\":1328:1336  revert() */\n      0x0\n      dup1\n      revert\n        /* \"blockchain/payrollSystem.sol\":1289:1347  if(msg.sender != company){\r... */\n    tag_84:\n        /* \"blockchain/payrollSystem.sol\":1532:1546  employeeMapper */\n      0x1\n        /* \"blockchain/payrollSystem.sol\":1532:1559  employeeMapper[newEmployee] */\n      0x0\n        /* \"blockchain/payrollSystem.sol\":1547:1558  newEmployee */\n      dup5\n        /* \"blockchain/payrollSystem.sol\":1532:1559  employeeMapper[newEmployee] */\n      0xffffffffffffffffffffffffffffffffffffffff\n      and\n      0xffffffffffffffffffffffffffffffffffffffff\n      and\n      dup2\n      mstore\n      0x20\n      add\n      swap1\n      dup2\n      mstore\n      0x20\n      add\n      0x0\n      keccak256\n        /* \"blockchain/payrollSystem.sol\":1516:1559  var _employee = employeeMapper[newEmployee] */\n      swap1\n      pop\n        /* \"blockchain/payrollSystem.sol\":1589:1593  true */\n      0x1\n        /* \"blockchain/payrollSystem.sol\":1570:1579  _employee */\n      dup2\n        /* \"blockchain/payrollSystem.sol\":1570:1586  _employee.active */\n      0x0\n      add\n      0x0\n        /* \"blockchain/payrollSystem.sol\":1570:1593  _employee.active = true */\n      0x100\n      exp\n      dup2\n      sload\n      dup2\n      0xff\n      mul\n      not\n      and\n      swap1\n      dup4\n      iszero\n      iszero\n      mul\n      or\n      swap1\n      sstore\n      pop\n        /* \"blockchain/payrollSystem.sol\":1623:1629  salary */\n      dup2\n        /* \"blockchain/payrollSystem.sol\":1604:1613  _employee */\n      dup2\n        /* \"blockchain/payrollSystem.sol\":1604:1620  _employee.salary */\n      0x1\n      add\n        /* \"blockchain/payrollSystem.sol\":1604:1629  _employee.salary = salary */\n      dup2\n      swap1\n      sstore\n      pop\n        /* \"blockchain/payrollSystem.sol\":1660:1661  0 */\n      0x0\n        /* \"blockchain/payrollSystem.sol\":1640:1649  _employee */\n      dup2\n        /* \"blockchain/payrollSystem.sol\":1640:1657  _employee.balance */\n      0x2\n      add\n        /* \"blockchain/payrollSystem.sol\":1640:1661  _employee.balance = 0 */\n      dup2\n      swap1\n      sstore\n      pop\n        /* \"blockchain/payrollSystem.sol\":1672:1684  employeeList */\n      0x2\n        /* \"blockchain/payrollSystem.sol\":1690:1701  newEmployee */\n      dup4\n        /* \"blockchain/payrollSystem.sol\":1672:1702  employeeList.push(newEmployee) */\n      swap1\n      dup1\n        /* \"--CODEGEN--\":39:40   */\n      0x1\n        /* \"--CODEGEN--\":33:36   */\n      dup2\n        /* \"--CODEGEN--\":27:37   */\n      sload\n        /* \"--CODEGEN--\":23:41   */\n      add\n        /* \"--CODEGEN--\":57:67   */\n      dup1\n        /* \"--CODEGEN--\":52:55   */\n      dup3\n        /* \"--CODEGEN--\":45:68   */\n      sstore\n        /* \"--CODEGEN--\":79:89   */\n      dup1\n        /* \"--CODEGEN--\":72:89   */\n      swap2\n      pop\n        /* \"--CODEGEN--\":0:93   */\n      pop\n        /* \"blockchain/payrollSystem.sol\":1672:1702  employeeList.push(newEmployee) */\n      swap1\n      0x1\n      dup3\n      sub\n      swap1\n      0x0\n      mstore\n      keccak256(0x0, 0x20)\n      add\n      0x0\n      swap1\n      swap2\n      swap3\n      swap1\n      swap2\n      swap1\n      swap2\n      0x100\n      exp\n      dup2\n      sload\n      dup2\n      0xffffffffffffffffffffffffffffffffffffffff\n      mul\n      not\n      and\n      swap1\n      dup4\n      0xffffffffffffffffffffffffffffffffffffffff\n      and\n      mul\n      or\n      swap1\n      sstore\n      pop\n      pop\n        /* \"blockchain/payrollSystem.sol\":1439:1710  function addEmployee(address newEmployee, uint salary) onlyCompany{\r... */\n      pop\n      pop\n      pop\n      jump\t// out\n        /* \"blockchain/payrollSystem.sol\":2811:3177  function transfer(address _address) private{\r... */\n    tag_67:\n        /* \"blockchain/payrollSystem.sol\":2901:2905  this */\n      address\n        /* \"blockchain/payrollSystem.sol\":2901:2913  this.balance */\n      0xffffffffffffffffffffffffffffffffffffffff\n      and\n      balance\n        /* \"blockchain/payrollSystem.sol\":2867:2881  employeeMapper */\n      0x1\n        /* \"blockchain/payrollSystem.sol\":2867:2891  employeeMapper[_address] */\n      0x0\n        /* \"blockchain/payrollSystem.sol\":2882:2890  _address */\n      dup4\n        /* \"blockchain/payrollSystem.sol\":2867:2891  employeeMapper[_address] */\n      0xffffffffffffffffffffffffffffffffffffffff\n      and\n      0xffffffffffffffffffffffffffffffffffffffff\n      and\n      dup2\n      mstore\n      0x20\n      add\n      swap1\n      dup2\n      mstore\n      0x20\n      add\n      0x0\n      keccak256\n        /* \"blockchain/payrollSystem.sol\":2867:2898  employeeMapper[_address].salary */\n      0x1\n      add\n      sload\n        /* \"blockchain/payrollSystem.sol\":2867:2913  employeeMapper[_address].salary < this.balance */\n      lt\n        /* \"blockchain/payrollSystem.sol\":2864:3170  if(employeeMapper[_address].salary < this.balance){\r... */\n      iszero\n      tag_88\n      jumpi\n        /* \"blockchain/payrollSystem.sol\":2941:2962  transferLog(_address) */\n      tag_89\n        /* \"blockchain/payrollSystem.sol\":2953:2961  _address */\n      dup2\n        /* \"blockchain/payrollSystem.sol\":2941:2952  transferLog */\n      tag_90\n        /* \"blockchain/payrollSystem.sol\":2941:2962  transferLog(_address) */\n      jump\t// in\n    tag_89:\n        /* \"blockchain/payrollSystem.sol\":3008:3012  true */\n      0x1\n        /* \"blockchain/payrollSystem.sol\":2976:2990  employeeMapper */\n      dup1\n        /* \"blockchain/payrollSystem.sol\":2976:3000  employeeMapper[_address] */\n      0x0\n        /* \"blockchain/payrollSystem.sol\":2991:2999  _address */\n      dup4\n        /* \"blockchain/payrollSystem.sol\":2976:3000  employeeMapper[_address] */\n      0xffffffffffffffffffffffffffffffffffffffff\n      and\n      0xffffffffffffffffffffffffffffffffffffffff\n      and\n      dup2\n      mstore\n      0x20\n      add\n      swap1\n      dup2\n      mstore\n      0x20\n      add\n      0x0\n      keccak256\n        /* \"blockchain/payrollSystem.sol\":2976:3005  employeeMapper[_address].paid */\n      0x0\n      add\n      0x1\n        /* \"blockchain/payrollSystem.sol\":2976:3012  employeeMapper[_address].paid = true */\n      0x100\n      exp\n      dup2\n      sload\n      dup2\n      0xff\n      mul\n      not\n      and\n      swap1\n      dup4\n      iszero\n      iszero\n      mul\n      or\n      swap1\n      sstore\n      pop\n        /* \"blockchain/payrollSystem.sol\":3062:3076  employeeMapper */\n      0x1\n        /* \"blockchain/payrollSystem.sol\":3062:3086  employeeMapper[_address] */\n      0x0\n        /* \"blockchain/payrollSystem.sol\":3077:3085  _address */\n      dup3\n        /* \"blockchain/payrollSystem.sol\":3062:3086  employeeMapper[_address] */\n      0xffffffffffffffffffffffffffffffffffffffff\n      and\n      0xffffffffffffffffffffffffffffffffffffffff\n      and\n      dup2\n      mstore\n      0x20\n      add\n      swap1\n      dup2\n      mstore\n      0x20\n      add\n      0x0\n      keccak256\n        /* \"blockchain/payrollSystem.sol\":3062:3093  employeeMapper[_address].salary */\n      0x1\n      add\n      sload\n        /* \"blockchain/payrollSystem.sol\":3026:3040  employeeMapper */\n      0x1\n        /* \"blockchain/payrollSystem.sol\":3026:3050  employeeMapper[_address] */\n      0x0\n        /* \"blockchain/payrollSystem.sol\":3041:3049  _address */\n      dup4\n        /* \"blockchain/payrollSystem.sol\":3026:3050  employeeMapper[_address] */\n      0xffffffffffffffffffffffffffffffffffffffff\n      and\n      0xffffffffffffffffffffffffffffffffffffffff\n      and\n      dup2\n      mstore\n      0x20\n      add\n      swap1\n      dup2\n      mstore\n      0x20\n      add\n      0x0\n      keccak256\n        /* \"blockchain/payrollSystem.sol\":3026:3058  employeeMapper[_address].balance */\n      0x2\n      add\n      0x0\n        /* \"blockchain/payrollSystem.sol\":3026:3093  employeeMapper[_address].balance += employeeMapper[_address].salary */\n      dup3\n      dup3\n      sload\n      add\n      swap3\n      pop\n      pop\n      dup2\n      swap1\n      sstore\n      pop\n        /* \"blockchain/payrollSystem.sol\":2864:3170  if(employeeMapper[_address].salary < this.balance){\r... */\n      jump(tag_91)\n    tag_88:\n        /* \"blockchain/payrollSystem.sol\":3154:3159  false */\n      0x0\n        /* \"blockchain/payrollSystem.sol\":3122:3136  employeeMapper */\n      0x1\n        /* \"blockchain/payrollSystem.sol\":3122:3146  employeeMapper[_address] */\n      0x0\n        /* \"blockchain/payrollSystem.sol\":3137:3145  _address */\n      dup4\n        /* \"blockchain/payrollSystem.sol\":3122:3146  employeeMapper[_address] */\n      0xffffffffffffffffffffffffffffffffffffffff\n      and\n      0xffffffffffffffffffffffffffffffffffffffff\n      and\n      dup2\n      mstore\n      0x20\n      add\n      swap1\n      dup2\n      mstore\n      0x20\n      add\n      0x0\n      keccak256\n        /* \"blockchain/payrollSystem.sol\":3122:3151  employeeMapper[_address].paid */\n      0x0\n      add\n      0x1\n        /* \"blockchain/payrollSystem.sol\":3122:3159  employeeMapper[_address].paid = false */\n      0x100\n      exp\n      dup2\n      sload\n      dup2\n      0xff\n      mul\n      not\n      and\n      swap1\n      dup4\n      iszero\n      iszero\n      mul\n      or\n      swap1\n      sstore\n      pop\n        /* \"blockchain/payrollSystem.sol\":2864:3170  if(employeeMapper[_address].salary < this.balance){\r... */\n    tag_91:\n        /* \"blockchain/payrollSystem.sol\":2811:3177  function transfer(address _address) private{\r... */\n      pop\n      jump\t// out\n        /* \"blockchain/payrollSystem.sol\":3189:3315  function transferLog(address _address) private{\r... */\n    tag_90:\n        /* \"blockchain/payrollSystem.sol\":3266:3274  _address */\n      dup1\n        /* \"blockchain/payrollSystem.sol\":3246:3307  Transfer(msg.sender,_address,employeeMapper[_address].salary) */\n      0xffffffffffffffffffffffffffffffffffffffff\n      and\n        /* \"blockchain/payrollSystem.sol\":3255:3265  msg.sender */\n      caller\n        /* \"blockchain/payrollSystem.sol\":3246:3307  Transfer(msg.sender,_address,employeeMapper[_address].salary) */\n      0xffffffffffffffffffffffffffffffffffffffff\n      and\n      0xddf252ad1be2c89b69c2b068fc378daa952ba7f163c4a11628f55a4df523b3ef\n        /* \"blockchain/payrollSystem.sol\":3275:3289  employeeMapper */\n      0x1\n        /* \"blockchain/payrollSystem.sol\":3275:3299  employeeMapper[_address] */\n      0x0\n        /* \"blockchain/payrollSystem.sol\":3290:3298  _address */\n      dup6\n        /* \"blockchain/payrollSystem.sol\":3275:3299  employeeMapper[_address] */\n      0xffffffffffffffffffffffffffffffffffffffff\n      and\n      0xffffffffffffffffffffffffffffffffffffffff\n      and\n      dup2\n      mstore\n      0x20\n      add\n      swap1\n      dup2\n      mstore\n      0x20\n      add\n      0x0\n      keccak256\n        /* \"blockchain/payrollSystem.sol\":3275:3306  employeeMapper[_address].salary */\n      0x1\n      add\n      sload\n        /* \"blockchain/payrollSystem.sol\":3246:3307  Transfer(msg.sender,_address,employeeMapper[_address].salary) */\n      mload(0x40)\n      dup1\n      dup3\n      dup2\n      mstore\n      0x20\n      add\n      swap2\n      pop\n      pop\n      mload(0x40)\n      dup1\n      swap2\n      sub\n      swap1\n      log3\n        /* \"blockchain/payrollSystem.sol\":3189:3315  function transferLog(address _address) private{\r... */\n      pop\n      jump\t// out\n\n    auxdata: 0xa165627a7a72305820cb38771aab889065fd82dc88e412b51b30b7161cf231f72509455db18ab450600029\n}\n",
				"bytecode": {
					"linkReferences": {},
					"object": "608060405234801561001057600080fd5b50336000806101000a81548173ffffffffffffffffffffffffffffffffffffffff021916908373ffffffffffffffffffffffffffffffffffffffff160217905550610dcb806100606000396000f3006080604052600436106100ba576000357c0100000000000000000000000000000000000000000000000000000000900463ffffffff16806312065fe0146100bf578063155dd5ee146100ea57806318160ddd1461011757806322003f10146101425780633c9266e01461018f578063661956fb146101d257806370a08231146101dc5780639f8a13d714610233578063a26759cb1461028e578063d108177a14610298578063e53cacba146102db578063e7fd9a1314610347575b600080fd5b3480156100cb57600080fd5b506100d4610394565b6040518082815260200191505060405180910390f35b3480156100f657600080fd5b50610115600480360381019080803590602001909291905050506103b3565b005b34801561012357600080fd5b5061012c61052a565b6040518082815260200191505060405180910390f35b34801561014e57600080fd5b5061018d600480360381019080803573ffffffffffffffffffffffffffffffffffffffff169060200190929190803590602001909291905050506105a4565b005b34801561019b57600080fd5b506101d0600480360381019080803573ffffffffffffffffffffffffffffffffffffffff16906020019092919050505061064a565b005b6101da6106be565b005b3480156101e857600080fd5b5061021d600480360381019080803573ffffffffffffffffffffffffffffffffffffffff16906020019092919050505061071b565b6040518082815260200191505060405180910390f35b34801561023f57600080fd5b50610274600480360381019080803573ffffffffffffffffffffffffffffffffffffffff169060200190929190505050610767565b604051808215151515815260200191505060405180910390f35b6102966107c0565b005b3480156102a457600080fd5b506102d9600480360381019080803573ffffffffffffffffffffffffffffffffffffffff169060200190929190505050610860565b005b3480156102e757600080fd5b506102f0610919565b6040518080602001828103825283818151815260200191508051906020019060200280838360005b83811015610333578082015181840152602081019050610318565b505050509050019250505060405180910390f35b34801561035357600080fd5b50610392600480360381019080803573ffffffffffffffffffffffffffffffffffffffff16906020019092919080359060200190929190505050610a02565b005b60003073ffffffffffffffffffffffffffffffffffffffff1631905090565b3073ffffffffffffffffffffffffffffffffffffffff16318111151515610442576040517f08c379a000000000000000000000000000000000000000000000000000000000815260040180806020018281038252601b8152602001807f4e6f7420656e6f756768206d6f6e657920696e20506179726f6c6c000000000081525060200191505060405180910390fd5b6000811115156104e0576040517f08c379a00000000000000000000000000000000000000000000000000000000081526004018080602001828103825260218152602001807f5769746864726177696e6720302077696c6c2068617665206e6f20656666656381526020017f740000000000000000000000000000000000000000000000000000000000000081525060400191505060405180910390fd5b3373ffffffffffffffffffffffffffffffffffffffff166108fc829081150290604051600060405180830381858888f19350505050158015610526573d6000803e3d6000fd5b5050565b60008060009054906101000a900473ffffffffffffffffffffffffffffffffffffffff1673ffffffffffffffffffffffffffffffffffffffff163373ffffffffffffffffffffffffffffffffffffffff1614151561058757600080fd5b3073ffffffffffffffffffffffffffffffffffffffff1631905090565b6000809054906101000a900473ffffffffffffffffffffffffffffffffffffffff1673ffffffffffffffffffffffffffffffffffffffff163373ffffffffffffffffffffffffffffffffffffffff161415156105ff57600080fd5b80600160008473ffffffffffffffffffffffffffffffffffffffff1673ffffffffffffffffffffffffffffffffffffffff168152602001908152602001600020600101819055505050565b61065381610767565b80156106ac5750600160008273ffffffffffffffffffffffffffffffffffffffff1673ffffffffffffffffffffffffffffffffffffffff16815260200190815260200160002060000160019054906101000a900460ff16155b156106bb576106ba81610b3b565b5b50565b6000809054906101000a900473ffffffffffffffffffffffffffffffffffffffff1673ffffffffffffffffffffffffffffffffffffffff163373ffffffffffffffffffffffffffffffffffffffff1614151561071957600080fd5b565b6000600160008373ffffffffffffffffffffffffffffffffffffffff1673ffffffffffffffffffffffffffffffffffffffff168152602001908152602001600020600201549050919050565b6000600160008373ffffffffffffffffffffffffffffffffffffffff1673ffffffffffffffffffffffffffffffffffffffff16815260200190815260200160002060000160009054906101000a900460ff169050919050565b60003411151561085e576040517f08c379a00000000000000000000000000000000000000000000000000000000081526004018080602001828103825260218152602001807f5769746864726177696e6720302077696c6c2068617665206e6f20656666656381526020017f740000000000000000000000000000000000000000000000000000000000000081525060400191505060405180910390fd5b565b6000809054906101000a900473ffffffffffffffffffffffffffffffffffffffff1673ffffffffffffffffffffffffffffffffffffffff163373ffffffffffffffffffffffffffffffffffffffff161415156108bb57600080fd5b6000600160008373ffffffffffffffffffffffffffffffffffffffff1673ffffffffffffffffffffffffffffffffffffffff16815260200190815260200160002060000160006101000a81548160ff02191690831515021790555050565b60606000809054906101000a900473ffffffffffffffffffffffffffffffffffffffff1673ffffffffffffffffffffffffffffffffffffffff163373ffffffffffffffffffffffffffffffffffffffff1614151561097657600080fd5b60028054806020026020016040519081016040528092919081815260200182805480156109f857602002820191906000526020600020905b8160009054906101000a900473ffffffffffffffffffffffffffffffffffffffff1673ffffffffffffffffffffffffffffffffffffffff16815260200190600101908083116109ae575b5050505050905090565b60008060009054906101000a900473ffffffffffffffffffffffffffffffffffffffff1673ffffffffffffffffffffffffffffffffffffffff163373ffffffffffffffffffffffffffffffffffffffff16141515610a5f57600080fd5b600160008473ffffffffffffffffffffffffffffffffffffffff1673ffffffffffffffffffffffffffffffffffffffff168152602001908152602001600020905060018160000160006101000a81548160ff0219169083151502179055508181600101819055506000816002018190555060028390806001815401808255809150509060018203906000526020600020016000909192909190916101000a81548173ffffffffffffffffffffffffffffffffffffffff021916908373ffffffffffffffffffffffffffffffffffffffff16021790555050505050565b3073ffffffffffffffffffffffffffffffffffffffff1631600160008373ffffffffffffffffffffffffffffffffffffffff1673ffffffffffffffffffffffffffffffffffffffff168152602001908152602001600020600101541015610c9657610ba581610cf5565b60018060008373ffffffffffffffffffffffffffffffffffffffff1673ffffffffffffffffffffffffffffffffffffffff16815260200190815260200160002060000160016101000a81548160ff021916908315150217905550600160008273ffffffffffffffffffffffffffffffffffffffff1673ffffffffffffffffffffffffffffffffffffffff16815260200190815260200160002060010154600160008373ffffffffffffffffffffffffffffffffffffffff1673ffffffffffffffffffffffffffffffffffffffff16815260200190815260200160002060020160008282540192505081905550610cf2565b6000600160008373ffffffffffffffffffffffffffffffffffffffff1673ffffffffffffffffffffffffffffffffffffffff16815260200190815260200160002060000160016101000a81548160ff0219169083151502179055505b50565b8073ffffffffffffffffffffffffffffffffffffffff163373ffffffffffffffffffffffffffffffffffffffff167fddf252ad1be2c89b69c2b068fc378daa952ba7f163c4a11628f55a4df523b3ef600160008573ffffffffffffffffffffffffffffffffffffffff1673ffffffffffffffffffffffffffffffffffffffff168152602001908152602001600020600101546040518082815260200191505060405180910390a3505600a165627a7a72305820cb38771aab889065fd82dc88e412b51b30b7161cf231f72509455db18ab450600029",
					"opcodes": "PUSH1 0x80 PUSH1 0x40 MSTORE CALLVALUE DUP1 ISZERO PUSH2 0x10 JUMPI PUSH1 0x0 DUP1 REVERT JUMPDEST POP CALLER PUSH1 0x0 DUP1 PUSH2 0x100 EXP DUP2 SLOAD DUP2 PUSH20 0xFFFFFFFFFFFFFFFFFFFFFFFFFFFFFFFFFFFFFFFF MUL NOT AND SWAP1 DUP4 PUSH20 0xFFFFFFFFFFFFFFFFFFFFFFFFFFFFFFFFFFFFFFFF AND MUL OR SWAP1 SSTORE POP PUSH2 0xDCB DUP1 PUSH2 0x60 PUSH1 0x0 CODECOPY PUSH1 0x0 RETURN STOP PUSH1 0x80 PUSH1 0x40 MSTORE PUSH1 0x4 CALLDATASIZE LT PUSH2 0xBA JUMPI PUSH1 0x0 CALLDATALOAD PUSH29 0x100000000000000000000000000000000000000000000000000000000 SWAP1 DIV PUSH4 0xFFFFFFFF AND DUP1 PUSH4 0x12065FE0 EQ PUSH2 0xBF JUMPI DUP1 PUSH4 0x155DD5EE EQ PUSH2 0xEA JUMPI DUP1 PUSH4 0x18160DDD EQ PUSH2 0x117 JUMPI DUP1 PUSH4 0x22003F10 EQ PUSH2 0x142 JUMPI DUP1 PUSH4 0x3C9266E0 EQ PUSH2 0x18F JUMPI DUP1 PUSH4 0x661956FB EQ PUSH2 0x1D2 JUMPI DUP1 PUSH4 0x70A08231 EQ PUSH2 0x1DC JUMPI DUP1 PUSH4 0x9F8A13D7 EQ PUSH2 0x233 JUMPI DUP1 PUSH4 0xA26759CB EQ PUSH2 0x28E JUMPI DUP1 PUSH4 0xD108177A EQ PUSH2 0x298 JUMPI DUP1 PUSH4 0xE53CACBA EQ PUSH2 0x2DB JUMPI DUP1 PUSH4 0xE7FD9A13 EQ PUSH2 0x347 JUMPI JUMPDEST PUSH1 0x0 DUP1 REVERT JUMPDEST CALLVALUE DUP1 ISZERO PUSH2 0xCB JUMPI PUSH1 0x0 DUP1 REVERT JUMPDEST POP PUSH2 0xD4 PUSH2 0x394 JUMP JUMPDEST PUSH1 0x40 MLOAD DUP1 DUP3 DUP2 MSTORE PUSH1 0x20 ADD SWAP2 POP POP PUSH1 0x40 MLOAD DUP1 SWAP2 SUB SWAP1 RETURN JUMPDEST CALLVALUE DUP1 ISZERO PUSH2 0xF6 JUMPI PUSH1 0x0 DUP1 REVERT JUMPDEST POP PUSH2 0x115 PUSH1 0x4 DUP1 CALLDATASIZE SUB DUP2 ADD SWAP1 DUP1 DUP1 CALLDATALOAD SWAP1 PUSH1 0x20 ADD SWAP1 SWAP3 SWAP2 SWAP1 POP POP POP PUSH2 0x3B3 JUMP JUMPDEST STOP JUMPDEST CALLVALUE DUP1 ISZERO PUSH2 0x123 JUMPI PUSH1 0x0 DUP1 REVERT JUMPDEST POP PUSH2 0x12C PUSH2 0x52A JUMP JUMPDEST PUSH1 0x40 MLOAD DUP1 DUP3 DUP2 MSTORE PUSH1 0x20 ADD SWAP2 POP POP PUSH1 0x40 MLOAD DUP1 SWAP2 SUB SWAP1 RETURN JUMPDEST CALLVALUE DUP1 ISZERO PUSH2 0x14E JUMPI PUSH1 0x0 DUP1 REVERT JUMPDEST POP PUSH2 0x18D PUSH1 0x4 DUP1 CALLDATASIZE SUB DUP2 ADD SWAP1 DUP1 DUP1 CALLDATALOAD PUSH20 0xFFFFFFFFFFFFFFFFFFFFFFFFFFFFFFFFFFFFFFFF AND SWAP1 PUSH1 0x20 ADD SWAP1 SWAP3 SWAP2 SWAP1 DUP1 CALLDATALOAD SWAP1 PUSH1 0x20 ADD SWAP1 SWAP3 SWAP2 SWAP1 POP POP POP PUSH2 0x5A4 JUMP JUMPDEST STOP JUMPDEST CALLVALUE DUP1 ISZERO PUSH2 0x19B JUMPI PUSH1 0x0 DUP1 REVERT JUMPDEST POP PUSH2 0x1D0 PUSH1 0x4 DUP1 CALLDATASIZE SUB DUP2 ADD SWAP1 DUP1 DUP1 CALLDATALOAD PUSH20 0xFFFFFFFFFFFFFFFFFFFFFFFFFFFFFFFFFFFFFFFF AND SWAP1 PUSH1 0x20 ADD SWAP1 SWAP3 SWAP2 SWAP1 POP POP POP PUSH2 0x64A JUMP JUMPDEST STOP JUMPDEST PUSH2 0x1DA PUSH2 0x6BE JUMP JUMPDEST STOP JUMPDEST CALLVALUE DUP1 ISZERO PUSH2 0x1E8 JUMPI PUSH1 0x0 DUP1 REVERT JUMPDEST POP PUSH2 0x21D PUSH1 0x4 DUP1 CALLDATASIZE SUB DUP2 ADD SWAP1 DUP1 DUP1 CALLDATALOAD PUSH20 0xFFFFFFFFFFFFFFFFFFFFFFFFFFFFFFFFFFFFFFFF AND SWAP1 PUSH1 0x20 ADD SWAP1 SWAP3 SWAP2 SWAP1 POP POP POP PUSH2 0x71B JUMP JUMPDEST PUSH1 0x40 MLOAD DUP1 DUP3 DUP2 MSTORE PUSH1 0x20 ADD SWAP2 POP POP PUSH1 0x40 MLOAD DUP1 SWAP2 SUB SWAP1 RETURN JUMPDEST CALLVALUE DUP1 ISZERO PUSH2 0x23F JUMPI PUSH1 0x0 DUP1 REVERT JUMPDEST POP PUSH2 0x274 PUSH1 0x4 DUP1 CALLDATASIZE SUB DUP2 ADD SWAP1 DUP1 DUP1 CALLDATALOAD PUSH20 0xFFFFFFFFFFFFFFFFFFFFFFFFFFFFFFFFFFFFFFFF AND SWAP1 PUSH1 0x20 ADD SWAP1 SWAP3 SWAP2 SWAP1 POP POP POP PUSH2 0x767 JUMP JUMPDEST PUSH1 0x40 MLOAD DUP1 DUP3 ISZERO ISZERO ISZERO ISZERO DUP2 MSTORE PUSH1 0x20 ADD SWAP2 POP POP PUSH1 0x40 MLOAD DUP1 SWAP2 SUB SWAP1 RETURN JUMPDEST PUSH2 0x296 PUSH2 0x7C0 JUMP JUMPDEST STOP JUMPDEST CALLVALUE DUP1 ISZERO PUSH2 0x2A4 JUMPI PUSH1 0x0 DUP1 REVERT JUMPDEST POP PUSH2 0x2D9 PUSH1 0x4 DUP1 CALLDATASIZE SUB DUP2 ADD SWAP1 DUP1 DUP1 CALLDATALOAD PUSH20 0xFFFFFFFFFFFFFFFFFFFFFFFFFFFFFFFFFFFFFFFF AND SWAP1 PUSH1 0x20 ADD SWAP1 SWAP3 SWAP2 SWAP1 POP POP POP PUSH2 0x860 JUMP JUMPDEST STOP JUMPDEST CALLVALUE DUP1 ISZERO PUSH2 0x2E7 JUMPI PUSH1 0x0 DUP1 REVERT JUMPDEST POP PUSH2 0x2F0 PUSH2 0x919 JUMP JUMPDEST PUSH1 0x40 MLOAD DUP1 DUP1 PUSH1 0x20 ADD DUP3 DUP2 SUB DUP3 MSTORE DUP4 DUP2 DUP2 MLOAD DUP2 MSTORE PUSH1 0x20 ADD SWAP2 POP DUP1 MLOAD SWAP1 PUSH1 0x20 ADD SWAP1 PUSH1 0x20 MUL DUP1 DUP4 DUP4 PUSH1 0x0 JUMPDEST DUP4 DUP2 LT ISZERO PUSH2 0x333 JUMPI DUP1 DUP3 ADD MLOAD DUP2 DUP5 ADD MSTORE PUSH1 0x20 DUP2 ADD SWAP1 POP PUSH2 0x318 JUMP JUMPDEST POP POP POP POP SWAP1 POP ADD SWAP3 POP POP POP PUSH1 0x40 MLOAD DUP1 SWAP2 SUB SWAP1 RETURN JUMPDEST CALLVALUE DUP1 ISZERO PUSH2 0x353 JUMPI PUSH1 0x0 DUP1 REVERT JUMPDEST POP PUSH2 0x392 PUSH1 0x4 DUP1 CALLDATASIZE SUB DUP2 ADD SWAP1 DUP1 DUP1 CALLDATALOAD PUSH20 0xFFFFFFFFFFFFFFFFFFFFFFFFFFFFFFFFFFFFFFFF AND SWAP1 PUSH1 0x20 ADD SWAP1 SWAP3 SWAP2 SWAP1 DUP1 CALLDATALOAD SWAP1 PUSH1 0x20 ADD SWAP1 SWAP3 SWAP2 SWAP1 POP POP POP PUSH2 0xA02 JUMP JUMPDEST STOP JUMPDEST PUSH1 0x0 ADDRESS PUSH20 0xFFFFFFFFFFFFFFFFFFFFFFFFFFFFFFFFFFFFFFFF AND BALANCE SWAP1 POP SWAP1 JUMP JUMPDEST ADDRESS PUSH20 0xFFFFFFFFFFFFFFFFFFFFFFFFFFFFFFFFFFFFFFFF AND BALANCE DUP2 GT ISZERO ISZERO ISZERO PUSH2 0x442 JUMPI PUSH1 0x40 MLOAD PUSH32 0x8C379A000000000000000000000000000000000000000000000000000000000 DUP2 MSTORE PUSH1 0x4 ADD DUP1 DUP1 PUSH1 0x20 ADD DUP3 DUP2 SUB DUP3 MSTORE PUSH1 0x1B DUP2 MSTORE PUSH1 0x20 ADD DUP1 PUSH32 0x4E6F7420656E6F756768206D6F6E657920696E20506179726F6C6C0000000000 DUP2 MSTORE POP PUSH1 0x20 ADD SWAP2 POP POP PUSH1 0x40 MLOAD DUP1 SWAP2 SUB SWAP1 REVERT JUMPDEST PUSH1 0x0 DUP2 GT ISZERO ISZERO PUSH2 0x4E0 JUMPI PUSH1 0x40 MLOAD PUSH32 0x8C379A000000000000000000000000000000000000000000000000000000000 DUP2 MSTORE PUSH1 0x4 ADD DUP1 DUP1 PUSH1 0x20 ADD DUP3 DUP2 SUB DUP3 MSTORE PUSH1 0x21 DUP2 MSTORE PUSH1 0x20 ADD DUP1 PUSH32 0x5769746864726177696E6720302077696C6C2068617665206E6F206566666563 DUP2 MSTORE PUSH1 0x20 ADD PUSH32 0x7400000000000000000000000000000000000000000000000000000000000000 DUP2 MSTORE POP PUSH1 0x40 ADD SWAP2 POP POP PUSH1 0x40 MLOAD DUP1 SWAP2 SUB SWAP1 REVERT JUMPDEST CALLER PUSH20 0xFFFFFFFFFFFFFFFFFFFFFFFFFFFFFFFFFFFFFFFF AND PUSH2 0x8FC DUP3 SWAP1 DUP2 ISZERO MUL SWAP1 PUSH1 0x40 MLOAD PUSH1 0x0 PUSH1 0x40 MLOAD DUP1 DUP4 SUB DUP2 DUP6 DUP9 DUP9 CALL SWAP4 POP POP POP POP ISZERO DUP1 ISZERO PUSH2 0x526 JUMPI RETURNDATASIZE PUSH1 0x0 DUP1 RETURNDATACOPY RETURNDATASIZE PUSH1 0x0 REVERT JUMPDEST POP POP JUMP JUMPDEST PUSH1 0x0 DUP1 PUSH1 0x0 SWAP1 SLOAD SWAP1 PUSH2 0x100 EXP SWAP1 DIV PUSH20 0xFFFFFFFFFFFFFFFFFFFFFFFFFFFFFFFFFFFFFFFF AND PUSH20 0xFFFFFFFFFFFFFFFFFFFFFFFFFFFFFFFFFFFFFFFF AND CALLER PUSH20 0xFFFFFFFFFFFFFFFFFFFFFFFFFFFFFFFFFFFFFFFF AND EQ ISZERO ISZERO PUSH2 0x587 JUMPI PUSH1 0x0 DUP1 REVERT JUMPDEST ADDRESS PUSH20 0xFFFFFFFFFFFFFFFFFFFFFFFFFFFFFFFFFFFFFFFF AND BALANCE SWAP1 POP SWAP1 JUMP JUMPDEST PUSH1 0x0 DUP1 SWAP1 SLOAD SWAP1 PUSH2 0x100 EXP SWAP1 DIV PUSH20 0xFFFFFFFFFFFFFFFFFFFFFFFFFFFFFFFFFFFFFFFF AND PUSH20 0xFFFFFFFFFFFFFFFFFFFFFFFFFFFFFFFFFFFFFFFF AND CALLER PUSH20 0xFFFFFFFFFFFFFFFFFFFFFFFFFFFFFFFFFFFFFFFF AND EQ ISZERO ISZERO PUSH2 0x5FF JUMPI PUSH1 0x0 DUP1 REVERT JUMPDEST DUP1 PUSH1 0x1 PUSH1 0x0 DUP5 PUSH20 0xFFFFFFFFFFFFFFFFFFFFFFFFFFFFFFFFFFFFFFFF AND PUSH20 0xFFFFFFFFFFFFFFFFFFFFFFFFFFFFFFFFFFFFFFFF AND DUP2 MSTORE PUSH1 0x20 ADD SWAP1 DUP2 MSTORE PUSH1 0x20 ADD PUSH1 0x0 KECCAK256 PUSH1 0x1 ADD DUP2 SWAP1 SSTORE POP POP POP JUMP JUMPDEST PUSH2 0x653 DUP2 PUSH2 0x767 JUMP JUMPDEST DUP1 ISZERO PUSH2 0x6AC JUMPI POP PUSH1 0x1 PUSH1 0x0 DUP3 PUSH20 0xFFFFFFFFFFFFFFFFFFFFFFFFFFFFFFFFFFFFFFFF AND PUSH20 0xFFFFFFFFFFFFFFFFFFFFFFFFFFFFFFFFFFFFFFFF AND DUP2 MSTORE PUSH1 0x20 ADD SWAP1 DUP2 MSTORE PUSH1 0x20 ADD PUSH1 0x0 KECCAK256 PUSH1 0x0 ADD PUSH1 0x1 SWAP1 SLOAD SWAP1 PUSH2 0x100 EXP SWAP1 DIV PUSH1 0xFF AND ISZERO JUMPDEST ISZERO PUSH2 0x6BB JUMPI PUSH2 0x6BA DUP2 PUSH2 0xB3B JUMP JUMPDEST JUMPDEST POP JUMP JUMPDEST PUSH1 0x0 DUP1 SWAP1 SLOAD SWAP1 PUSH2 0x100 EXP SWAP1 DIV PUSH20 0xFFFFFFFFFFFFFFFFFFFFFFFFFFFFFFFFFFFFFFFF AND PUSH20 0xFFFFFFFFFFFFFFFFFFFFFFFFFFFFFFFFFFFFFFFF AND CALLER PUSH20 0xFFFFFFFFFFFFFFFFFFFFFFFFFFFFFFFFFFFFFFFF AND EQ ISZERO ISZERO PUSH2 0x719 JUMPI PUSH1 0x0 DUP1 REVERT JUMPDEST JUMP JUMPDEST PUSH1 0x0 PUSH1 0x1 PUSH1 0x0 DUP4 PUSH20 0xFFFFFFFFFFFFFFFFFFFFFFFFFFFFFFFFFFFFFFFF AND PUSH20 0xFFFFFFFFFFFFFFFFFFFFFFFFFFFFFFFFFFFFFFFF AND DUP2 MSTORE PUSH1 0x20 ADD SWAP1 DUP2 MSTORE PUSH1 0x20 ADD PUSH1 0x0 KECCAK256 PUSH1 0x2 ADD SLOAD SWAP1 POP SWAP2 SWAP1 POP JUMP JUMPDEST PUSH1 0x0 PUSH1 0x1 PUSH1 0x0 DUP4 PUSH20 0xFFFFFFFFFFFFFFFFFFFFFFFFFFFFFFFFFFFFFFFF AND PUSH20 0xFFFFFFFFFFFFFFFFFFFFFFFFFFFFFFFFFFFFFFFF AND DUP2 MSTORE PUSH1 0x20 ADD SWAP1 DUP2 MSTORE PUSH1 0x20 ADD PUSH1 0x0 KECCAK256 PUSH1 0x0 ADD PUSH1 0x0 SWAP1 SLOAD SWAP1 PUSH2 0x100 EXP SWAP1 DIV PUSH1 0xFF AND SWAP1 POP SWAP2 SWAP1 POP JUMP JUMPDEST PUSH1 0x0 CALLVALUE GT ISZERO ISZERO PUSH2 0x85E JUMPI PUSH1 0x40 MLOAD PUSH32 0x8C379A000000000000000000000000000000000000000000000000000000000 DUP2 MSTORE PUSH1 0x4 ADD DUP1 DUP1 PUSH1 0x20 ADD DUP3 DUP2 SUB DUP3 MSTORE PUSH1 0x21 DUP2 MSTORE PUSH1 0x20 ADD DUP1 PUSH32 0x5769746864726177696E6720302077696C6C2068617665206E6F206566666563 DUP2 MSTORE PUSH1 0x20 ADD PUSH32 0x7400000000000000000000000000000000000000000000000000000000000000 DUP2 MSTORE POP PUSH1 0x40 ADD SWAP2 POP POP PUSH1 0x40 MLOAD DUP1 SWAP2 SUB SWAP1 REVERT JUMPDEST JUMP JUMPDEST PUSH1 0x0 DUP1 SWAP1 SLOAD SWAP1 PUSH2 0x100 EXP SWAP1 DIV PUSH20 0xFFFFFFFFFFFFFFFFFFFFFFFFFFFFFFFFFFFFFFFF AND PUSH20 0xFFFFFFFFFFFFFFFFFFFFFFFFFFFFFFFFFFFFFFFF AND CALLER PUSH20 0xFFFFFFFFFFFFFFFFFFFFFFFFFFFFFFFFFFFFFFFF AND EQ ISZERO ISZERO PUSH2 0x8BB JUMPI PUSH1 0x0 DUP1 REVERT JUMPDEST PUSH1 0x0 PUSH1 0x1 PUSH1 0x0 DUP4 PUSH20 0xFFFFFFFFFFFFFFFFFFFFFFFFFFFFFFFFFFFFFFFF AND PUSH20 0xFFFFFFFFFFFFFFFFFFFFFFFFFFFFFFFFFFFFFFFF AND DUP2 MSTORE PUSH1 0x20 ADD SWAP1 DUP2 MSTORE PUSH1 0x20 ADD PUSH1 0x0 KECCAK256 PUSH1 0x0 ADD PUSH1 0x0 PUSH2 0x100 EXP DUP2 SLOAD DUP2 PUSH1 0xFF MUL NOT AND SWAP1 DUP4 ISZERO ISZERO MUL OR SWAP1 SSTORE POP POP JUMP JUMPDEST PUSH1 0x60 PUSH1 0x0 DUP1 SWAP1 SLOAD SWAP1 PUSH2 0x100 EXP SWAP1 DIV PUSH20 0xFFFFFFFFFFFFFFFFFFFFFFFFFFFFFFFFFFFFFFFF AND PUSH20 0xFFFFFFFFFFFFFFFFFFFFFFFFFFFFFFFFFFFFFFFF AND CALLER PUSH20 0xFFFFFFFFFFFFFFFFFFFFFFFFFFFFFFFFFFFFFFFF AND EQ ISZERO ISZERO PUSH2 0x976 JUMPI PUSH1 0x0 DUP1 REVERT JUMPDEST PUSH1 0x2 DUP1 SLOAD DUP1 PUSH1 0x20 MUL PUSH1 0x20 ADD PUSH1 0x40 MLOAD SWAP1 DUP2 ADD PUSH1 0x40 MSTORE DUP1 SWAP3 SWAP2 SWAP1 DUP2 DUP2 MSTORE PUSH1 0x20 ADD DUP3 DUP1 SLOAD DUP1 ISZERO PUSH2 0x9F8 JUMPI PUSH1 0x20 MUL DUP3 ADD SWAP2 SWAP1 PUSH1 0x0 MSTORE PUSH1 0x20 PUSH1 0x0 KECCAK256 SWAP1 JUMPDEST DUP2 PUSH1 0x0 SWAP1 SLOAD SWAP1 PUSH2 0x100 EXP SWAP1 DIV PUSH20 0xFFFFFFFFFFFFFFFFFFFFFFFFFFFFFFFFFFFFFFFF AND PUSH20 0xFFFFFFFFFFFFFFFFFFFFFFFFFFFFFFFFFFFFFFFF AND DUP2 MSTORE PUSH1 0x20 ADD SWAP1 PUSH1 0x1 ADD SWAP1 DUP1 DUP4 GT PUSH2 0x9AE JUMPI JUMPDEST POP POP POP POP POP SWAP1 POP SWAP1 JUMP JUMPDEST PUSH1 0x0 DUP1 PUSH1 0x0 SWAP1 SLOAD SWAP1 PUSH2 0x100 EXP SWAP1 DIV PUSH20 0xFFFFFFFFFFFFFFFFFFFFFFFFFFFFFFFFFFFFFFFF AND PUSH20 0xFFFFFFFFFFFFFFFFFFFFFFFFFFFFFFFFFFFFFFFF AND CALLER PUSH20 0xFFFFFFFFFFFFFFFFFFFFFFFFFFFFFFFFFFFFFFFF AND EQ ISZERO ISZERO PUSH2 0xA5F JUMPI PUSH1 0x0 DUP1 REVERT JUMPDEST PUSH1 0x1 PUSH1 0x0 DUP5 PUSH20 0xFFFFFFFFFFFFFFFFFFFFFFFFFFFFFFFFFFFFFFFF AND PUSH20 0xFFFFFFFFFFFFFFFFFFFFFFFFFFFFFFFFFFFFFFFF AND DUP2 MSTORE PUSH1 0x20 ADD SWAP1 DUP2 MSTORE PUSH1 0x20 ADD PUSH1 0x0 KECCAK256 SWAP1 POP PUSH1 0x1 DUP2 PUSH1 0x0 ADD PUSH1 0x0 PUSH2 0x100 EXP DUP2 SLOAD DUP2 PUSH1 0xFF MUL NOT AND SWAP1 DUP4 ISZERO ISZERO MUL OR SWAP1 SSTORE POP DUP2 DUP2 PUSH1 0x1 ADD DUP2 SWAP1 SSTORE POP PUSH1 0x0 DUP2 PUSH1 0x2 ADD DUP2 SWAP1 SSTORE POP PUSH1 0x2 DUP4 SWAP1 DUP1 PUSH1 0x1 DUP2 SLOAD ADD DUP1 DUP3 SSTORE DUP1 SWAP2 POP POP SWAP1 PUSH1 0x1 DUP3 SUB SWAP1 PUSH1 0x0 MSTORE PUSH1 0x20 PUSH1 0x0 KECCAK256 ADD PUSH1 0x0 SWAP1 SWAP2 SWAP3 SWAP1 SWAP2 SWAP1 SWAP2 PUSH2 0x100 EXP DUP2 SLOAD DUP2 PUSH20 0xFFFFFFFFFFFFFFFFFFFFFFFFFFFFFFFFFFFFFFFF MUL NOT AND SWAP1 DUP4 PUSH20 0xFFFFFFFFFFFFFFFFFFFFFFFFFFFFFFFFFFFFFFFF AND MUL OR SWAP1 SSTORE POP POP POP POP POP JUMP JUMPDEST ADDRESS PUSH20 0xFFFFFFFFFFFFFFFFFFFFFFFFFFFFFFFFFFFFFFFF AND BALANCE PUSH1 0x1 PUSH1 0x0 DUP4 PUSH20 0xFFFFFFFFFFFFFFFFFFFFFFFFFFFFFFFFFFFFFFFF AND PUSH20 0xFFFFFFFFFFFFFFFFFFFFFFFFFFFFFFFFFFFFFFFF AND DUP2 MSTORE PUSH1 0x20 ADD SWAP1 DUP2 MSTORE PUSH1 0x20 ADD PUSH1 0x0 KECCAK256 PUSH1 0x1 ADD SLOAD LT ISZERO PUSH2 0xC96 JUMPI PUSH2 0xBA5 DUP2 PUSH2 0xCF5 JUMP JUMPDEST PUSH1 0x1 DUP1 PUSH1 0x0 DUP4 PUSH20 0xFFFFFFFFFFFFFFFFFFFFFFFFFFFFFFFFFFFFFFFF AND PUSH20 0xFFFFFFFFFFFFFFFFFFFFFFFFFFFFFFFFFFFFFFFF AND DUP2 MSTORE PUSH1 0x20 ADD SWAP1 DUP2 MSTORE PUSH1 0x20 ADD PUSH1 0x0 KECCAK256 PUSH1 0x0 ADD PUSH1 0x1 PUSH2 0x100 EXP DUP2 SLOAD DUP2 PUSH1 0xFF MUL NOT AND SWAP1 DUP4 ISZERO ISZERO MUL OR SWAP1 SSTORE POP PUSH1 0x1 PUSH1 0x0 DUP3 PUSH20 0xFFFFFFFFFFFFFFFFFFFFFFFFFFFFFFFFFFFFFFFF AND PUSH20 0xFFFFFFFFFFFFFFFFFFFFFFFFFFFFFFFFFFFFFFFF AND DUP2 MSTORE PUSH1 0x20 ADD SWAP1 DUP2 MSTORE PUSH1 0x20 ADD PUSH1 0x0 KECCAK256 PUSH1 0x1 ADD SLOAD PUSH1 0x1 PUSH1 0x0 DUP4 PUSH20 0xFFFFFFFFFFFFFFFFFFFFFFFFFFFFFFFFFFFFFFFF AND PUSH20 0xFFFFFFFFFFFFFFFFFFFFFFFFFFFFFFFFFFFFFFFF AND DUP2 MSTORE PUSH1 0x20 ADD SWAP1 DUP2 MSTORE PUSH1 0x20 ADD PUSH1 0x0 KECCAK256 PUSH1 0x2 ADD PUSH1 0x0 DUP3 DUP3 SLOAD ADD SWAP3 POP POP DUP2 SWAP1 SSTORE POP PUSH2 0xCF2 JUMP JUMPDEST PUSH1 0x0 PUSH1 0x1 PUSH1 0x0 DUP4 PUSH20 0xFFFFFFFFFFFFFFFFFFFFFFFFFFFFFFFFFFFFFFFF AND PUSH20 0xFFFFFFFFFFFFFFFFFFFFFFFFFFFFFFFFFFFFFFFF AND DUP2 MSTORE PUSH1 0x20 ADD SWAP1 DUP2 MSTORE PUSH1 0x20 ADD PUSH1 0x0 KECCAK256 PUSH1 0x0 ADD PUSH1 0x1 PUSH2 0x100 EXP DUP2 SLOAD DUP2 PUSH1 0xFF MUL NOT AND SWAP1 DUP4 ISZERO ISZERO MUL OR SWAP1 SSTORE POP JUMPDEST POP JUMP JUMPDEST DUP1 PUSH20 0xFFFFFFFFFFFFFFFFFFFFFFFFFFFFFFFFFFFFFFFF AND CALLER PUSH20 0xFFFFFFFFFFFFFFFFFFFFFFFFFFFFFFFFFFFFFFFF AND PUSH32 0xDDF252AD1BE2C89B69C2B068FC378DAA952BA7F163C4A11628F55A4DF523B3EF PUSH1 0x1 PUSH1 0x0 DUP6 PUSH20 0xFFFFFFFFFFFFFFFFFFFFFFFFFFFFFFFFFFFFFFFF AND PUSH20 0xFFFFFFFFFFFFFFFFFFFFFFFFFFFFFFFFFFFFFFFF AND DUP2 MSTORE PUSH1 0x20 ADD SWAP1 DUP2 MSTORE PUSH1 0x20 ADD PUSH1 0x0 KECCAK256 PUSH1 0x1 ADD SLOAD PUSH1 0x40 MLOAD DUP1 DUP3 DUP2 MSTORE PUSH1 0x20 ADD SWAP2 POP POP PUSH1 0x40 MLOAD DUP1 SWAP2 SUB SWAP1 LOG3 POP JUMP STOP LOG1 PUSH6 0x627A7A723058 KECCAK256 0xcb CODESIZE PUSH24 0x1AAB889065FD82DC88E412B51B30B7161CF231F72509455D 0xb1 DUP11 0xb4 POP PUSH1 0x0 0x29 "
				},
				"gasEstimates": {
					"creation": {
						"codeDepositCost": "706200",
						"executionCost": "21007",
						"totalCost": "727207"
					},
					"external": {
						"addEmployee(address,uint256)": "86747",
						"addFunds()": "444",
						"balanceOf(address)": "697",
						"depositInvestment()": "495",
						"getBalance()": "607",
						"isActive(address)": "767",
						"listOutEmployees()": "infinite",
						"removeEmployee(address)": "21034",
						"sendSalary(address)": "45054",
						"totalSupply()": "927",
						"updateSalary(address,uint256)": "20678",
						"withdrawFunds(uint256)": "infinite"
					},
					"internal": {
						"transfer(address)": "infinite",
						"transferLog(address)": "infinite"
					}
				},
				"methodIdentifiers": {
					"addEmployee(address,uint256)": "e7fd9a13",
					"addFunds()": "a26759cb",
					"balanceOf(address)": "70a08231",
					"depositInvestment()": "661956fb",
					"getBalance()": "12065fe0",
					"isActive(address)": "9f8a13d7",
					"listOutEmployees()": "e53cacba",
					"removeEmployee(address)": "d108177a",
					"sendSalary(address)": "3c9266e0",
					"totalSupply()": "18160ddd",
					"updateSalary(address,uint256)": "22003f10",
					"withdrawFunds(uint256)": "155dd5ee"
				}
			},
			"userdoc": {
				"methods": {}
			}
		}
	}
}