{
	"blockchain/payrollSystem.sol": {
		"payrollSystem": {
			"abi": [
				{
					"constant": true,
					"inputs": [],
					"name": "totalSupply",
					"outputs": [
						{
							"name": "",
							"type": "uint256"
						}
					],
					"payable": false,
					"stateMutability": "view",
					"type": "function"
				},
				{
					"constant": false,
					"inputs": [
						{
							"name": "_address",
							"type": "address"
						},
						{
							"name": "newSalary",
							"type": "uint256"
						}
					],
					"name": "updateSalary",
					"outputs": [],
					"payable": false,
					"stateMutability": "nonpayable",
					"type": "function"
				},
				{
					"constant": false,
					"inputs": [
						{
							"name": "sendTo",
							"type": "address"
						}
					],
					"name": "sendSalary",
					"outputs": [],
					"payable": false,
					"stateMutability": "nonpayable",
					"type": "function"
				},
				{
					"constant": false,
					"inputs": [],
					"name": "depositInvestment",
					"outputs": [],
					"payable": true,
					"stateMutability": "payable",
					"type": "function"
				},
				{
					"constant": true,
					"inputs": [
						{
							"name": "empAd",
							"type": "address"
						}
					],
					"name": "balanceOf",
					"outputs": [
						{
							"name": "",
							"type": "uint256"
						}
					],
					"payable": false,
					"stateMutability": "view",
					"type": "function"
				},
				{
					"constant": true,
					"inputs": [
						{
							"name": "check",
							"type": "address"
						}
					],
					"name": "isActive",
					"outputs": [
						{
							"name": "",
							"type": "bool"
						}
					],
					"payable": false,
					"stateMutability": "view",
					"type": "function"
				},
				{
					"constant": false,
					"inputs": [
						{
							"name": "_address",
							"type": "address"
						}
					],
					"name": "removeEmployee",
					"outputs": [],
					"payable": false,
					"stateMutability": "nonpayable",
					"type": "function"
				},
				{
					"constant": true,
					"inputs": [],
					"name": "listOutEmployees",
					"outputs": [
						{
							"name": "",
							"type": "address[]"
						}
					],
					"payable": false,
					"stateMutability": "view",
					"type": "function"
				},
				{
					"constant": false,
					"inputs": [
						{
							"name": "newEmployee",
							"type": "address"
						},
						{
							"name": "salary",
							"type": "uint256"
						}
					],
					"name": "addEmployee",
					"outputs": [],
					"payable": false,
					"stateMutability": "nonpayable",
					"type": "function"
				},
				{
					"inputs": [],
					"payable": false,
					"stateMutability": "nonpayable",
					"type": "constructor"
				},
				{
					"anonymous": false,
					"inputs": [
						{
							"indexed": true,
							"name": "from",
							"type": "address"
						},
						{
							"indexed": true,
							"name": "to",
							"type": "address"
						},
						{
							"indexed": false,
							"name": "amount",
							"type": "uint256"
						}
					],
					"name": "Transfer",
					"type": "event"
				}
			],
			"devdoc": {
				"methods": {}
			},
			"evm": {
				"assembly": "    /* \"blockchain/payrollSystem.sol\":27:3004  contract payrollSystem{\r... */\n  mstore(0x40, 0x80)\n    /* \"blockchain/payrollSystem.sol\":415:478  function payrollSystem(){\r... */\n  callvalue\n    /* \"--CODEGEN--\":8:17   */\n  dup1\n    /* \"--CODEGEN--\":5:7   */\n  iszero\n  tag_1\n  jumpi\n    /* \"--CODEGEN--\":30:31   */\n  0x0\n    /* \"--CODEGEN--\":27:28   */\n  dup1\n    /* \"--CODEGEN--\":20:32   */\n  revert\n    /* \"--CODEGEN--\":5:7   */\ntag_1:\n    /* \"blockchain/payrollSystem.sol\":415:478  function payrollSystem(){\r... */\n  pop\n    /* \"blockchain/payrollSystem.sol\":460:470  msg.sender */\n  caller\n    /* \"blockchain/payrollSystem.sol\":450:457  company */\n  0x0\n  dup1\n    /* \"blockchain/payrollSystem.sol\":450:470  company = msg.sender */\n  0x100\n  exp\n  dup2\n  sload\n  dup2\n  0xffffffffffffffffffffffffffffffffffffffff\n  mul\n  not\n  and\n  swap1\n  dup4\n  0xffffffffffffffffffffffffffffffffffffffff\n  and\n  mul\n  or\n  swap1\n  sstore\n  pop\n    /* \"blockchain/payrollSystem.sol\":27:3004  contract payrollSystem{\r... */\n  dataSize(sub_0)\n  dup1\n  dataOffset(sub_0)\n  0x0\n  codecopy\n  0x0\n  return\nstop\n\nsub_0: assembly {\n        /* \"blockchain/payrollSystem.sol\":27:3004  contract payrollSystem{\r... */\n      mstore(0x40, 0x80)\n      jumpi(tag_1, lt(calldatasize, 0x4))\n      calldataload(0x0)\n      0x100000000000000000000000000000000000000000000000000000000\n      swap1\n      div\n      0xffffffff\n      and\n      dup1\n      0x18160ddd\n      eq\n      tag_2\n      jumpi\n      dup1\n      0x22003f10\n      eq\n      tag_3\n      jumpi\n      dup1\n      0x3c9266e0\n      eq\n      tag_4\n      jumpi\n      dup1\n      0x661956fb\n      eq\n      tag_5\n      jumpi\n      dup1\n      0x70a08231\n      eq\n      tag_6\n      jumpi\n      dup1\n      0x9f8a13d7\n      eq\n      tag_7\n      jumpi\n      dup1\n      0xd108177a\n      eq\n      tag_8\n      jumpi\n      dup1\n      0xe53cacba\n      eq\n      tag_9\n      jumpi\n      dup1\n      0xe7fd9a13\n      eq\n      tag_10\n      jumpi\n    tag_1:\n      0x0\n      dup1\n      revert\n        /* \"blockchain/payrollSystem.sol\":1751:1845  function totalSupply() onlyCompany constant returns(uint){\r... */\n    tag_2:\n      callvalue\n        /* \"--CODEGEN--\":8:17   */\n      dup1\n        /* \"--CODEGEN--\":5:7   */\n      iszero\n      tag_11\n      jumpi\n        /* \"--CODEGEN--\":30:31   */\n      0x0\n        /* \"--CODEGEN--\":27:28   */\n      dup1\n        /* \"--CODEGEN--\":20:32   */\n      revert\n        /* \"--CODEGEN--\":5:7   */\n    tag_11:\n        /* \"blockchain/payrollSystem.sol\":1751:1845  function totalSupply() onlyCompany constant returns(uint){\r... */\n      pop\n      tag_12\n      jump(tag_13)\n    tag_12:\n      mload(0x40)\n      dup1\n      dup3\n      dup2\n      mstore\n      0x20\n      add\n      swap2\n      pop\n      pop\n      mload(0x40)\n      dup1\n      swap2\n      sub\n      swap1\n      return\n        /* \"blockchain/payrollSystem.sol\":1314:1443  function updateSalary(address _address, uint newSalary) onlyCompany{\r... */\n    tag_3:\n      callvalue\n        /* \"--CODEGEN--\":8:17   */\n      dup1\n        /* \"--CODEGEN--\":5:7   */\n      iszero\n      tag_14\n      jumpi\n        /* \"--CODEGEN--\":30:31   */\n      0x0\n        /* \"--CODEGEN--\":27:28   */\n      dup1\n        /* \"--CODEGEN--\":20:32   */\n      revert\n        /* \"--CODEGEN--\":5:7   */\n    tag_14:\n        /* \"blockchain/payrollSystem.sol\":1314:1443  function updateSalary(address _address, uint newSalary) onlyCompany{\r... */\n      pop\n      tag_15\n      0x4\n      dup1\n      calldatasize\n      sub\n      dup2\n      add\n      swap1\n      dup1\n      dup1\n      calldataload\n      0xffffffffffffffffffffffffffffffffffffffff\n      and\n      swap1\n      0x20\n      add\n      swap1\n      swap3\n      swap2\n      swap1\n      dup1\n      calldataload\n      swap1\n      0x20\n      add\n      swap1\n      swap3\n      swap2\n      swap1\n      pop\n      pop\n      pop\n      jump(tag_16)\n    tag_15:\n      stop\n        /* \"blockchain/payrollSystem.sol\":2710:2858  function sendSalary(address sendTo){\r... */\n    tag_4:\n      callvalue\n        /* \"--CODEGEN--\":8:17   */\n      dup1\n        /* \"--CODEGEN--\":5:7   */\n      iszero\n      tag_17\n      jumpi\n        /* \"--CODEGEN--\":30:31   */\n      0x0\n        /* \"--CODEGEN--\":27:28   */\n      dup1\n        /* \"--CODEGEN--\":20:32   */\n      revert\n        /* \"--CODEGEN--\":5:7   */\n    tag_17:\n        /* \"blockchain/payrollSystem.sol\":2710:2858  function sendSalary(address sendTo){\r... */\n      pop\n      tag_18\n      0x4\n      dup1\n      calldatasize\n      sub\n      dup2\n      add\n      swap1\n      dup1\n      dup1\n      calldataload\n      0xffffffffffffffffffffffffffffffffffffffff\n      and\n      swap1\n      0x20\n      add\n      swap1\n      swap3\n      swap2\n      swap1\n      pop\n      pop\n      pop\n      jump(tag_19)\n    tag_18:\n      stop\n        /* \"blockchain/payrollSystem.sol\":1676:1739  function depositInvestment() onlyCompany payable{\r... */\n    tag_5:\n      tag_20\n      jump(tag_21)\n    tag_20:\n      stop\n        /* \"blockchain/payrollSystem.sol\":2877:2995  function balanceOf(address empAd) public constant returns(uint){\r... */\n    tag_6:\n      callvalue\n        /* \"--CODEGEN--\":8:17   */\n      dup1\n        /* \"--CODEGEN--\":5:7   */\n      iszero\n      tag_22\n      jumpi\n        /* \"--CODEGEN--\":30:31   */\n      0x0\n        /* \"--CODEGEN--\":27:28   */\n      dup1\n        /* \"--CODEGEN--\":20:32   */\n      revert\n        /* \"--CODEGEN--\":5:7   */\n    tag_22:\n        /* \"blockchain/payrollSystem.sol\":2877:2995  function balanceOf(address empAd) public constant returns(uint){\r... */\n      pop\n      tag_23\n      0x4\n      dup1\n      calldatasize\n      sub\n      dup2\n      add\n      swap1\n      dup1\n      dup1\n      calldataload\n      0xffffffffffffffffffffffffffffffffffffffff\n      and\n      swap1\n      0x20\n      add\n      swap1\n      swap3\n      swap2\n      swap1\n      pop\n      pop\n      pop\n      jump(tag_24)\n    tag_23:\n      mload(0x40)\n      dup1\n      dup3\n      dup2\n      mstore\n      0x20\n      add\n      swap2\n      pop\n      pop\n      mload(0x40)\n      dup1\n      swap2\n      sub\n      swap1\n      return\n        /* \"blockchain/payrollSystem.sol\":1926:2035  function isActive(address check) constant returns(bool){\r... */\n    tag_7:\n      callvalue\n        /* \"--CODEGEN--\":8:17   */\n      dup1\n        /* \"--CODEGEN--\":5:7   */\n      iszero\n      tag_25\n      jumpi\n        /* \"--CODEGEN--\":30:31   */\n      0x0\n        /* \"--CODEGEN--\":27:28   */\n      dup1\n        /* \"--CODEGEN--\":20:32   */\n      revert\n        /* \"--CODEGEN--\":5:7   */\n    tag_25:\n        /* \"blockchain/payrollSystem.sol\":1926:2035  function isActive(address check) constant returns(bool){\r... */\n      pop\n      tag_26\n      0x4\n      dup1\n      calldatasize\n      sub\n      dup2\n      add\n      swap1\n      dup1\n      dup1\n      calldataload\n      0xffffffffffffffffffffffffffffffffffffffff\n      and\n      swap1\n      0x20\n      add\n      swap1\n      swap3\n      swap2\n      swap1\n      pop\n      pop\n      pop\n      jump(tag_27)\n    tag_26:\n      mload(0x40)\n      dup1\n      dup3\n      iszero\n      iszero\n      iszero\n      iszero\n      dup2\n      mstore\n      0x20\n      add\n      swap2\n      pop\n      pop\n      mload(0x40)\n      dup1\n      swap2\n      sub\n      swap1\n      return\n        /* \"blockchain/payrollSystem.sol\":1113:1224  function removeEmployee(address _address) onlyCompany{\r... */\n    tag_8:\n      callvalue\n        /* \"--CODEGEN--\":8:17   */\n      dup1\n        /* \"--CODEGEN--\":5:7   */\n      iszero\n      tag_28\n      jumpi\n        /* \"--CODEGEN--\":30:31   */\n      0x0\n        /* \"--CODEGEN--\":27:28   */\n      dup1\n        /* \"--CODEGEN--\":20:32   */\n      revert\n        /* \"--CODEGEN--\":5:7   */\n    tag_28:\n        /* \"blockchain/payrollSystem.sol\":1113:1224  function removeEmployee(address _address) onlyCompany{\r... */\n      pop\n      tag_29\n      0x4\n      dup1\n      calldatasize\n      sub\n      dup2\n      add\n      swap1\n      dup1\n      dup1\n      calldataload\n      0xffffffffffffffffffffffffffffffffffffffff\n      and\n      swap1\n      0x20\n      add\n      swap1\n      swap3\n      swap2\n      swap1\n      pop\n      pop\n      pop\n      jump(tag_30)\n    tag_29:\n      stop\n        /* \"blockchain/payrollSystem.sol\":1455:1560  function listOutEmployees() onlyCompany constant returns(address[]){\r... */\n    tag_9:\n      callvalue\n        /* \"--CODEGEN--\":8:17   */\n      dup1\n        /* \"--CODEGEN--\":5:7   */\n      iszero\n      tag_31\n      jumpi\n        /* \"--CODEGEN--\":30:31   */\n      0x0\n        /* \"--CODEGEN--\":27:28   */\n      dup1\n        /* \"--CODEGEN--\":20:32   */\n      revert\n        /* \"--CODEGEN--\":5:7   */\n    tag_31:\n        /* \"blockchain/payrollSystem.sol\":1455:1560  function listOutEmployees() onlyCompany constant returns(address[]){\r... */\n      pop\n      tag_32\n      jump(tag_33)\n    tag_32:\n      mload(0x40)\n      dup1\n      dup1\n      0x20\n      add\n      dup3\n      dup2\n      sub\n      dup3\n      mstore\n      dup4\n      dup2\n      dup2\n      mload\n      dup2\n      mstore\n      0x20\n      add\n      swap2\n      pop\n      dup1\n      mload\n      swap1\n      0x20\n      add\n      swap1\n      0x20\n      mul\n      dup1\n      dup4\n      dup4\n        /* \"--CODEGEN--\":23:24   */\n      0x0\n        /* \"--CODEGEN--\":8:108   */\n    tag_34:\n        /* \"--CODEGEN--\":33:36   */\n      dup4\n        /* \"--CODEGEN--\":30:31   */\n      dup2\n        /* \"--CODEGEN--\":27:37   */\n      lt\n        /* \"--CODEGEN--\":8:108   */\n      iszero\n      tag_35\n      jumpi\n        /* \"--CODEGEN--\":99:100   */\n      dup1\n        /* \"--CODEGEN--\":94:97   */\n      dup3\n        /* \"--CODEGEN--\":90:101   */\n      add\n        /* \"--CODEGEN--\":84:102   */\n      mload\n        /* \"--CODEGEN--\":80:81   */\n      dup2\n        /* \"--CODEGEN--\":75:78   */\n      dup5\n        /* \"--CODEGEN--\":71:82   */\n      add\n        /* \"--CODEGEN--\":64:103   */\n      mstore\n        /* \"--CODEGEN--\":52:54   */\n      0x20\n        /* \"--CODEGEN--\":49:50   */\n      dup2\n        /* \"--CODEGEN--\":45:55   */\n      add\n        /* \"--CODEGEN--\":40:55   */\n      swap1\n      pop\n        /* \"--CODEGEN--\":8:108   */\n      jump(tag_34)\n    tag_35:\n        /* \"--CODEGEN--\":12:26   */\n      pop\n        /* \"blockchain/payrollSystem.sol\":1455:1560  function listOutEmployees() onlyCompany constant returns(address[]){\r... */\n      pop\n      pop\n      pop\n      swap1\n      pop\n      add\n      swap3\n      pop\n      pop\n      pop\n      mload(0x40)\n      dup1\n      swap2\n      sub\n      swap1\n      return\n        /* \"blockchain/payrollSystem.sol\":734:1005  function addEmployee(address newEmployee, uint salary) onlyCompany{\r... */\n    tag_10:\n      callvalue\n        /* \"--CODEGEN--\":8:17   */\n      dup1\n        /* \"--CODEGEN--\":5:7   */\n      iszero\n      tag_37\n      jumpi\n        /* \"--CODEGEN--\":30:31   */\n      0x0\n        /* \"--CODEGEN--\":27:28   */\n      dup1\n        /* \"--CODEGEN--\":20:32   */\n      revert\n        /* \"--CODEGEN--\":5:7   */\n    tag_37:\n        /* \"blockchain/payrollSystem.sol\":734:1005  function addEmployee(address newEmployee, uint salary) onlyCompany{\r... */\n      pop\n      tag_38\n      0x4\n      dup1\n      calldatasize\n      sub\n      dup2\n      add\n      swap1\n      dup1\n      dup1\n      calldataload\n      0xffffffffffffffffffffffffffffffffffffffff\n      and\n      swap1\n      0x20\n      add\n      swap1\n      swap3\n      swap2\n      swap1\n      dup1\n      calldataload\n      swap1\n      0x20\n      add\n      swap1\n      swap3\n      swap2\n      swap1\n      pop\n      pop\n      pop\n      jump(tag_39)\n    tag_38:\n      stop\n        /* \"blockchain/payrollSystem.sol\":1751:1845  function totalSupply() onlyCompany constant returns(uint){\r... */\n    tag_13:\n        /* \"blockchain/payrollSystem.sol\":1803:1807  uint */\n      0x0\n        /* \"blockchain/payrollSystem.sol\":601:608  company */\n      dup1\n      0x0\n      swap1\n      sload\n      swap1\n      0x100\n      exp\n      swap1\n      div\n      0xffffffffffffffffffffffffffffffffffffffff\n      and\n        /* \"blockchain/payrollSystem.sol\":587:608  msg.sender != company */\n      0xffffffffffffffffffffffffffffffffffffffff\n      and\n        /* \"blockchain/payrollSystem.sol\":587:597  msg.sender */\n      caller\n        /* \"blockchain/payrollSystem.sol\":587:608  msg.sender != company */\n      0xffffffffffffffffffffffffffffffffffffffff\n      and\n      eq\n      iszero\n        /* \"blockchain/payrollSystem.sol\":584:642  if(msg.sender != company){\r... */\n      iszero\n      tag_41\n      jumpi\n        /* \"blockchain/payrollSystem.sol\":623:631  revert() */\n      0x0\n      dup1\n      revert\n        /* \"blockchain/payrollSystem.sol\":584:642  if(msg.sender != company){\r... */\n    tag_41:\n        /* \"blockchain/payrollSystem.sol\":1825:1829  this */\n      address\n        /* \"blockchain/payrollSystem.sol\":1825:1837  this.balance */\n      0xffffffffffffffffffffffffffffffffffffffff\n      and\n      balance\n        /* \"blockchain/payrollSystem.sol\":1818:1837  return this.balance */\n      swap1\n      pop\n        /* \"blockchain/payrollSystem.sol\":1751:1845  function totalSupply() onlyCompany constant returns(uint){\r... */\n      swap1\n      jump\t// out\n        /* \"blockchain/payrollSystem.sol\":1314:1443  function updateSalary(address _address, uint newSalary) onlyCompany{\r... */\n    tag_16:\n        /* \"blockchain/payrollSystem.sol\":601:608  company */\n      0x0\n      dup1\n      swap1\n      sload\n      swap1\n      0x100\n      exp\n      swap1\n      div\n      0xffffffffffffffffffffffffffffffffffffffff\n      and\n        /* \"blockchain/payrollSystem.sol\":587:608  msg.sender != company */\n      0xffffffffffffffffffffffffffffffffffffffff\n      and\n        /* \"blockchain/payrollSystem.sol\":587:597  msg.sender */\n      caller\n        /* \"blockchain/payrollSystem.sol\":587:608  msg.sender != company */\n      0xffffffffffffffffffffffffffffffffffffffff\n      and\n      eq\n      iszero\n        /* \"blockchain/payrollSystem.sol\":584:642  if(msg.sender != company){\r... */\n      iszero\n      tag_44\n      jumpi\n        /* \"blockchain/payrollSystem.sol\":623:631  revert() */\n      0x0\n      dup1\n      revert\n        /* \"blockchain/payrollSystem.sol\":584:642  if(msg.sender != company){\r... */\n    tag_44:\n        /* \"blockchain/payrollSystem.sol\":1426:1435  newSalary */\n      dup1\n        /* \"blockchain/payrollSystem.sol\":1392:1406  employeeMapper */\n      0x1\n        /* \"blockchain/payrollSystem.sol\":1392:1416  employeeMapper[_address] */\n      0x0\n        /* \"blockchain/payrollSystem.sol\":1407:1415  _address */\n      dup5\n        /* \"blockchain/payrollSystem.sol\":1392:1416  employeeMapper[_address] */\n      0xffffffffffffffffffffffffffffffffffffffff\n      and\n      0xffffffffffffffffffffffffffffffffffffffff\n      and\n      dup2\n      mstore\n      0x20\n      add\n      swap1\n      dup2\n      mstore\n      0x20\n      add\n      0x0\n      keccak256\n        /* \"blockchain/payrollSystem.sol\":1392:1423  employeeMapper[_address].salary */\n      0x1\n      add\n        /* \"blockchain/payrollSystem.sol\":1392:1435  employeeMapper[_address].salary = newSalary */\n      dup2\n      swap1\n      sstore\n      pop\n        /* \"blockchain/payrollSystem.sol\":1314:1443  function updateSalary(address _address, uint newSalary) onlyCompany{\r... */\n      pop\n      pop\n      jump\t// out\n        /* \"blockchain/payrollSystem.sol\":2710:2858  function sendSalary(address sendTo){\r... */\n    tag_19:\n        /* \"blockchain/payrollSystem.sol\":2759:2775  isActive(sendTo) */\n      tag_47\n        /* \"blockchain/payrollSystem.sol\":2768:2774  sendTo */\n      dup2\n        /* \"blockchain/payrollSystem.sol\":2759:2767  isActive */\n      tag_27\n        /* \"blockchain/payrollSystem.sol\":2759:2775  isActive(sendTo) */\n      jump\t// in\n    tag_47:\n        /* \"blockchain/payrollSystem.sol\":2759:2807  isActive(sendTo) && !employeeMapper[sendTo].paid */\n      dup1\n      iszero\n      tag_48\n      jumpi\n      pop\n        /* \"blockchain/payrollSystem.sol\":2780:2794  employeeMapper */\n      0x1\n        /* \"blockchain/payrollSystem.sol\":2780:2802  employeeMapper[sendTo] */\n      0x0\n        /* \"blockchain/payrollSystem.sol\":2795:2801  sendTo */\n      dup3\n        /* \"blockchain/payrollSystem.sol\":2780:2802  employeeMapper[sendTo] */\n      0xffffffffffffffffffffffffffffffffffffffff\n      and\n      0xffffffffffffffffffffffffffffffffffffffff\n      and\n      dup2\n      mstore\n      0x20\n      add\n      swap1\n      dup2\n      mstore\n      0x20\n      add\n      0x0\n      keccak256\n        /* \"blockchain/payrollSystem.sol\":2780:2807  employeeMapper[sendTo].paid */\n      0x0\n      add\n      0x1\n      swap1\n      sload\n      swap1\n      0x100\n      exp\n      swap1\n      div\n      0xff\n      and\n        /* \"blockchain/payrollSystem.sol\":2779:2807  !employeeMapper[sendTo].paid */\n      iszero\n        /* \"blockchain/payrollSystem.sol\":2759:2807  isActive(sendTo) && !employeeMapper[sendTo].paid */\n    tag_48:\n        /* \"blockchain/payrollSystem.sol\":2756:2851  if(isActive(sendTo) && !employeeMapper[sendTo].paid){\r... */\n      iszero\n      tag_49\n      jumpi\n        /* \"blockchain/payrollSystem.sol\":2823:2839  transfer(sendTo) */\n      tag_50\n        /* \"blockchain/payrollSystem.sol\":2832:2838  sendTo */\n      dup2\n        /* \"blockchain/payrollSystem.sol\":2823:2831  transfer */\n      tag_51\n        /* \"blockchain/payrollSystem.sol\":2823:2839  transfer(sendTo) */\n      jump\t// in\n    tag_50:\n        /* \"blockchain/payrollSystem.sol\":2756:2851  if(isActive(sendTo) && !employeeMapper[sendTo].paid){\r... */\n    tag_49:\n        /* \"blockchain/payrollSystem.sol\":2710:2858  function sendSalary(address sendTo){\r... */\n      pop\n      jump\t// out\n        /* \"blockchain/payrollSystem.sol\":1676:1739  function depositInvestment() onlyCompany payable{\r... */\n    tag_21:\n        /* \"blockchain/payrollSystem.sol\":601:608  company */\n      0x0\n      dup1\n      swap1\n      sload\n      swap1\n      0x100\n      exp\n      swap1\n      div\n      0xffffffffffffffffffffffffffffffffffffffff\n      and\n        /* \"blockchain/payrollSystem.sol\":587:608  msg.sender != company */\n      0xffffffffffffffffffffffffffffffffffffffff\n      and\n        /* \"blockchain/payrollSystem.sol\":587:597  msg.sender */\n      caller\n        /* \"blockchain/payrollSystem.sol\":587:608  msg.sender != company */\n      0xffffffffffffffffffffffffffffffffffffffff\n      and\n      eq\n      iszero\n        /* \"blockchain/payrollSystem.sol\":584:642  if(msg.sender != company){\r... */\n      iszero\n      tag_53\n      jumpi\n        /* \"blockchain/payrollSystem.sol\":623:631  revert() */\n      0x0\n      dup1\n      revert\n        /* \"blockchain/payrollSystem.sol\":584:642  if(msg.sender != company){\r... */\n    tag_53:\n        /* \"blockchain/payrollSystem.sol\":1676:1739  function depositInvestment() onlyCompany payable{\r... */\n      jump\t// out\n        /* \"blockchain/payrollSystem.sol\":2877:2995  function balanceOf(address empAd) public constant returns(uint){\r... */\n    tag_24:\n        /* \"blockchain/payrollSystem.sol\":2935:2939  uint */\n      0x0\n        /* \"blockchain/payrollSystem.sol\":2958:2972  employeeMapper */\n      0x1\n        /* \"blockchain/payrollSystem.sol\":2958:2979  employeeMapper[empAd] */\n      0x0\n        /* \"blockchain/payrollSystem.sol\":2973:2978  empAd */\n      dup4\n        /* \"blockchain/payrollSystem.sol\":2958:2979  employeeMapper[empAd] */\n      0xffffffffffffffffffffffffffffffffffffffff\n      and\n      0xffffffffffffffffffffffffffffffffffffffff\n      and\n      dup2\n      mstore\n      0x20\n      add\n      swap1\n      dup2\n      mstore\n      0x20\n      add\n      0x0\n      keccak256\n        /* \"blockchain/payrollSystem.sol\":2958:2987  employeeMapper[empAd].balance */\n      0x2\n      add\n      sload\n        /* \"blockchain/payrollSystem.sol\":2951:2987  return employeeMapper[empAd].balance */\n      swap1\n      pop\n        /* \"blockchain/payrollSystem.sol\":2877:2995  function balanceOf(address empAd) public constant returns(uint){\r... */\n      swap2\n      swap1\n      pop\n      jump\t// out\n        /* \"blockchain/payrollSystem.sol\":1926:2035  function isActive(address check) constant returns(bool){\r... */\n    tag_27:\n        /* \"blockchain/payrollSystem.sol\":1976:1980  bool */\n      0x0\n        /* \"blockchain/payrollSystem.sol\":1999:2013  employeeMapper */\n      0x1\n        /* \"blockchain/payrollSystem.sol\":1999:2020  employeeMapper[check] */\n      0x0\n        /* \"blockchain/payrollSystem.sol\":2014:2019  check */\n      dup4\n        /* \"blockchain/payrollSystem.sol\":1999:2020  employeeMapper[check] */\n      0xffffffffffffffffffffffffffffffffffffffff\n      and\n      0xffffffffffffffffffffffffffffffffffffffff\n      and\n      dup2\n      mstore\n      0x20\n      add\n      swap1\n      dup2\n      mstore\n      0x20\n      add\n      0x0\n      keccak256\n        /* \"blockchain/payrollSystem.sol\":1999:2027  employeeMapper[check].active */\n      0x0\n      add\n      0x0\n      swap1\n      sload\n      swap1\n      0x100\n      exp\n      swap1\n      div\n      0xff\n      and\n        /* \"blockchain/payrollSystem.sol\":1992:2027  return employeeMapper[check].active */\n      swap1\n      pop\n        /* \"blockchain/payrollSystem.sol\":1926:2035  function isActive(address check) constant returns(bool){\r... */\n      swap2\n      swap1\n      pop\n      jump\t// out\n        /* \"blockchain/payrollSystem.sol\":1113:1224  function removeEmployee(address _address) onlyCompany{\r... */\n    tag_30:\n        /* \"blockchain/payrollSystem.sol\":601:608  company */\n      0x0\n      dup1\n      swap1\n      sload\n      swap1\n      0x100\n      exp\n      swap1\n      div\n      0xffffffffffffffffffffffffffffffffffffffff\n      and\n        /* \"blockchain/payrollSystem.sol\":587:608  msg.sender != company */\n      0xffffffffffffffffffffffffffffffffffffffff\n      and\n        /* \"blockchain/payrollSystem.sol\":587:597  msg.sender */\n      caller\n        /* \"blockchain/payrollSystem.sol\":587:608  msg.sender != company */\n      0xffffffffffffffffffffffffffffffffffffffff\n      and\n      eq\n      iszero\n        /* \"blockchain/payrollSystem.sol\":584:642  if(msg.sender != company){\r... */\n      iszero\n      tag_58\n      jumpi\n        /* \"blockchain/payrollSystem.sol\":623:631  revert() */\n      0x0\n      dup1\n      revert\n        /* \"blockchain/payrollSystem.sol\":584:642  if(msg.sender != company){\r... */\n    tag_58:\n        /* \"blockchain/payrollSystem.sol\":1211:1216  false */\n      0x0\n        /* \"blockchain/payrollSystem.sol\":1177:1191  employeeMapper */\n      0x1\n        /* \"blockchain/payrollSystem.sol\":1177:1201  employeeMapper[_address] */\n      0x0\n        /* \"blockchain/payrollSystem.sol\":1192:1200  _address */\n      dup4\n        /* \"blockchain/payrollSystem.sol\":1177:1201  employeeMapper[_address] */\n      0xffffffffffffffffffffffffffffffffffffffff\n      and\n      0xffffffffffffffffffffffffffffffffffffffff\n      and\n      dup2\n      mstore\n      0x20\n      add\n      swap1\n      dup2\n      mstore\n      0x20\n      add\n      0x0\n      keccak256\n        /* \"blockchain/payrollSystem.sol\":1177:1208  employeeMapper[_address].active */\n      0x0\n      add\n      0x0\n        /* \"blockchain/payrollSystem.sol\":1177:1216  employeeMapper[_address].active = false */\n      0x100\n      exp\n      dup2\n      sload\n      dup2\n      0xff\n      mul\n      not\n      and\n      swap1\n      dup4\n      iszero\n      iszero\n      mul\n      or\n      swap1\n      sstore\n      pop\n        /* \"blockchain/payrollSystem.sol\":1113:1224  function removeEmployee(address _address) onlyCompany{\r... */\n      pop\n      jump\t// out\n        /* \"blockchain/payrollSystem.sol\":1455:1560  function listOutEmployees() onlyCompany constant returns(address[]){\r... */\n    tag_33:\n        /* \"blockchain/payrollSystem.sol\":1512:1521  address[] */\n      0x60\n        /* \"blockchain/payrollSystem.sol\":601:608  company */\n      0x0\n      dup1\n      swap1\n      sload\n      swap1\n      0x100\n      exp\n      swap1\n      div\n      0xffffffffffffffffffffffffffffffffffffffff\n      and\n        /* \"blockchain/payrollSystem.sol\":587:608  msg.sender != company */\n      0xffffffffffffffffffffffffffffffffffffffff\n      and\n        /* \"blockchain/payrollSystem.sol\":587:597  msg.sender */\n      caller\n        /* \"blockchain/payrollSystem.sol\":587:608  msg.sender != company */\n      0xffffffffffffffffffffffffffffffffffffffff\n      and\n      eq\n      iszero\n        /* \"blockchain/payrollSystem.sol\":584:642  if(msg.sender != company){\r... */\n      iszero\n      tag_61\n      jumpi\n        /* \"blockchain/payrollSystem.sol\":623:631  revert() */\n      0x0\n      dup1\n      revert\n        /* \"blockchain/payrollSystem.sol\":584:642  if(msg.sender != company){\r... */\n    tag_61:\n        /* \"blockchain/payrollSystem.sol\":1540:1552  employeeList */\n      0x2\n        /* \"blockchain/payrollSystem.sol\":1533:1552  return employeeList */\n      dup1\n      sload\n      dup1\n      0x20\n      mul\n      0x20\n      add\n      mload(0x40)\n      swap1\n      dup2\n      add\n      0x40\n      mstore\n      dup1\n      swap3\n      swap2\n      swap1\n      dup2\n      dup2\n      mstore\n      0x20\n      add\n      dup3\n      dup1\n      sload\n      dup1\n      iszero\n      tag_63\n      jumpi\n      0x20\n      mul\n      dup3\n      add\n      swap2\n      swap1\n      0x0\n      mstore\n      keccak256(0x0, 0x20)\n      swap1\n    tag_64:\n      dup2\n      0x0\n      swap1\n      sload\n      swap1\n      0x100\n      exp\n      swap1\n      div\n      0xffffffffffffffffffffffffffffffffffffffff\n      and\n      0xffffffffffffffffffffffffffffffffffffffff\n      and\n      dup2\n      mstore\n      0x20\n      add\n      swap1\n      0x1\n      add\n      swap1\n      dup1\n      dup4\n      gt\n      tag_64\n      jumpi\n    tag_63:\n      pop\n      pop\n      pop\n      pop\n      pop\n      swap1\n      pop\n        /* \"blockchain/payrollSystem.sol\":1455:1560  function listOutEmployees() onlyCompany constant returns(address[]){\r... */\n      swap1\n      jump\t// out\n        /* \"blockchain/payrollSystem.sol\":734:1005  function addEmployee(address newEmployee, uint salary) onlyCompany{\r... */\n    tag_39:\n        /* \"blockchain/payrollSystem.sol\":811:824  var _employee */\n      0x0\n        /* \"blockchain/payrollSystem.sol\":601:608  company */\n      dup1\n      0x0\n      swap1\n      sload\n      swap1\n      0x100\n      exp\n      swap1\n      div\n      0xffffffffffffffffffffffffffffffffffffffff\n      and\n        /* \"blockchain/payrollSystem.sol\":587:608  msg.sender != company */\n      0xffffffffffffffffffffffffffffffffffffffff\n      and\n        /* \"blockchain/payrollSystem.sol\":587:597  msg.sender */\n      caller\n        /* \"blockchain/payrollSystem.sol\":587:608  msg.sender != company */\n      0xffffffffffffffffffffffffffffffffffffffff\n      and\n      eq\n      iszero\n        /* \"blockchain/payrollSystem.sol\":584:642  if(msg.sender != company){\r... */\n      iszero\n      tag_66\n      jumpi\n        /* \"blockchain/payrollSystem.sol\":623:631  revert() */\n      0x0\n      dup1\n      revert\n        /* \"blockchain/payrollSystem.sol\":584:642  if(msg.sender != company){\r... */\n    tag_66:\n        /* \"blockchain/payrollSystem.sol\":827:841  employeeMapper */\n      0x1\n        /* \"blockchain/payrollSystem.sol\":827:854  employeeMapper[newEmployee] */\n      0x0\n        /* \"blockchain/payrollSystem.sol\":842:853  newEmployee */\n      dup5\n        /* \"blockchain/payrollSystem.sol\":827:854  employeeMapper[newEmployee] */\n      0xffffffffffffffffffffffffffffffffffffffff\n      and\n      0xffffffffffffffffffffffffffffffffffffffff\n      and\n      dup2\n      mstore\n      0x20\n      add\n      swap1\n      dup2\n      mstore\n      0x20\n      add\n      0x0\n      keccak256\n        /* \"blockchain/payrollSystem.sol\":811:854  var _employee = employeeMapper[newEmployee] */\n      swap1\n      pop\n        /* \"blockchain/payrollSystem.sol\":884:888  true */\n      0x1\n        /* \"blockchain/payrollSystem.sol\":865:874  _employee */\n      dup2\n        /* \"blockchain/payrollSystem.sol\":865:881  _employee.active */\n      0x0\n      add\n      0x0\n        /* \"blockchain/payrollSystem.sol\":865:888  _employee.active = true */\n      0x100\n      exp\n      dup2\n      sload\n      dup2\n      0xff\n      mul\n      not\n      and\n      swap1\n      dup4\n      iszero\n      iszero\n      mul\n      or\n      swap1\n      sstore\n      pop\n        /* \"blockchain/payrollSystem.sol\":918:924  salary */\n      dup2\n        /* \"blockchain/payrollSystem.sol\":899:908  _employee */\n      dup2\n        /* \"blockchain/payrollSystem.sol\":899:915  _employee.salary */\n      0x1\n      add\n        /* \"blockchain/payrollSystem.sol\":899:924  _employee.salary = salary */\n      dup2\n      swap1\n      sstore\n      pop\n        /* \"blockchain/payrollSystem.sol\":955:956  0 */\n      0x0\n        /* \"blockchain/payrollSystem.sol\":935:944  _employee */\n      dup2\n        /* \"blockchain/payrollSystem.sol\":935:952  _employee.balance */\n      0x2\n      add\n        /* \"blockchain/payrollSystem.sol\":935:956  _employee.balance = 0 */\n      dup2\n      swap1\n      sstore\n      pop\n        /* \"blockchain/payrollSystem.sol\":967:979  employeeList */\n      0x2\n        /* \"blockchain/payrollSystem.sol\":985:996  newEmployee */\n      dup4\n        /* \"blockchain/payrollSystem.sol\":967:997  employeeList.push(newEmployee) */\n      swap1\n      dup1\n        /* \"--CODEGEN--\":39:40   */\n      0x1\n        /* \"--CODEGEN--\":33:36   */\n      dup2\n        /* \"--CODEGEN--\":27:37   */\n      sload\n        /* \"--CODEGEN--\":23:41   */\n      add\n        /* \"--CODEGEN--\":57:67   */\n      dup1\n        /* \"--CODEGEN--\":52:55   */\n      dup3\n        /* \"--CODEGEN--\":45:68   */\n      sstore\n        /* \"--CODEGEN--\":79:89   */\n      dup1\n        /* \"--CODEGEN--\":72:89   */\n      swap2\n      pop\n        /* \"--CODEGEN--\":0:93   */\n      pop\n        /* \"blockchain/payrollSystem.sol\":967:997  employeeList.push(newEmployee) */\n      swap1\n      0x1\n      dup3\n      sub\n      swap1\n      0x0\n      mstore\n      keccak256(0x0, 0x20)\n      add\n      0x0\n      swap1\n      swap2\n      swap3\n      swap1\n      swap2\n      swap1\n      swap2\n      0x100\n      exp\n      dup2\n      sload\n      dup2\n      0xffffffffffffffffffffffffffffffffffffffff\n      mul\n      not\n      and\n      swap1\n      dup4\n      0xffffffffffffffffffffffffffffffffffffffff\n      and\n      mul\n      or\n      swap1\n      sstore\n      pop\n      pop\n        /* \"blockchain/payrollSystem.sol\":734:1005  function addEmployee(address newEmployee, uint salary) onlyCompany{\r... */\n      pop\n      pop\n      pop\n      jump\t// out\n        /* \"blockchain/payrollSystem.sol\":2106:2459  function transfer(address _address) private{\r... */\n    tag_51:\n        /* \"blockchain/payrollSystem.sol\":2196:2200  this */\n      address\n        /* \"blockchain/payrollSystem.sol\":2196:2208  this.balance */\n      0xffffffffffffffffffffffffffffffffffffffff\n      and\n      balance\n        /* \"blockchain/payrollSystem.sol\":2162:2176  employeeMapper */\n      0x1\n        /* \"blockchain/payrollSystem.sol\":2162:2186  employeeMapper[_address] */\n      0x0\n        /* \"blockchain/payrollSystem.sol\":2177:2185  _address */\n      dup4\n        /* \"blockchain/payrollSystem.sol\":2162:2186  employeeMapper[_address] */\n      0xffffffffffffffffffffffffffffffffffffffff\n      and\n      0xffffffffffffffffffffffffffffffffffffffff\n      and\n      dup2\n      mstore\n      0x20\n      add\n      swap1\n      dup2\n      mstore\n      0x20\n      add\n      0x0\n      keccak256\n        /* \"blockchain/payrollSystem.sol\":2162:2193  employeeMapper[_address].salary */\n      0x1\n      add\n      sload\n        /* \"blockchain/payrollSystem.sol\":2162:2208  employeeMapper[_address].salary < this.balance */\n      lt\n        /* \"blockchain/payrollSystem.sol\":2159:2452  if(employeeMapper[_address].salary < this.balance){\r... */\n      iszero\n      tag_70\n      jumpi\n        /* \"blockchain/payrollSystem.sol\":2223:2244  transferLog(_address) */\n      tag_71\n        /* \"blockchain/payrollSystem.sol\":2235:2243  _address */\n      dup2\n        /* \"blockchain/payrollSystem.sol\":2223:2234  transferLog */\n      tag_72\n        /* \"blockchain/payrollSystem.sol\":2223:2244  transferLog(_address) */\n      jump\t// in\n    tag_71:\n        /* \"blockchain/payrollSystem.sol\":2290:2294  true */\n      0x1\n        /* \"blockchain/payrollSystem.sol\":2258:2272  employeeMapper */\n      dup1\n        /* \"blockchain/payrollSystem.sol\":2258:2282  employeeMapper[_address] */\n      0x0\n        /* \"blockchain/payrollSystem.sol\":2273:2281  _address */\n      dup4\n        /* \"blockchain/payrollSystem.sol\":2258:2282  employeeMapper[_address] */\n      0xffffffffffffffffffffffffffffffffffffffff\n      and\n      0xffffffffffffffffffffffffffffffffffffffff\n      and\n      dup2\n      mstore\n      0x20\n      add\n      swap1\n      dup2\n      mstore\n      0x20\n      add\n      0x0\n      keccak256\n        /* \"blockchain/payrollSystem.sol\":2258:2287  employeeMapper[_address].paid */\n      0x0\n      add\n      0x1\n        /* \"blockchain/payrollSystem.sol\":2258:2294  employeeMapper[_address].paid = true */\n      0x100\n      exp\n      dup2\n      sload\n      dup2\n      0xff\n      mul\n      not\n      and\n      swap1\n      dup4\n      iszero\n      iszero\n      mul\n      or\n      swap1\n      sstore\n      pop\n        /* \"blockchain/payrollSystem.sol\":2344:2358  employeeMapper */\n      0x1\n        /* \"blockchain/payrollSystem.sol\":2344:2368  employeeMapper[_address] */\n      0x0\n        /* \"blockchain/payrollSystem.sol\":2359:2367  _address */\n      dup3\n        /* \"blockchain/payrollSystem.sol\":2344:2368  employeeMapper[_address] */\n      0xffffffffffffffffffffffffffffffffffffffff\n      and\n      0xffffffffffffffffffffffffffffffffffffffff\n      and\n      dup2\n      mstore\n      0x20\n      add\n      swap1\n      dup2\n      mstore\n      0x20\n      add\n      0x0\n      keccak256\n        /* \"blockchain/payrollSystem.sol\":2344:2375  employeeMapper[_address].salary */\n      0x1\n      add\n      sload\n        /* \"blockchain/payrollSystem.sol\":2308:2322  employeeMapper */\n      0x1\n        /* \"blockchain/payrollSystem.sol\":2308:2332  employeeMapper[_address] */\n      0x0\n        /* \"blockchain/payrollSystem.sol\":2323:2331  _address */\n      dup4\n        /* \"blockchain/payrollSystem.sol\":2308:2332  employeeMapper[_address] */\n      0xffffffffffffffffffffffffffffffffffffffff\n      and\n      0xffffffffffffffffffffffffffffffffffffffff\n      and\n      dup2\n      mstore\n      0x20\n      add\n      swap1\n      dup2\n      mstore\n      0x20\n      add\n      0x0\n      keccak256\n        /* \"blockchain/payrollSystem.sol\":2308:2340  employeeMapper[_address].balance */\n      0x2\n      add\n      0x0\n        /* \"blockchain/payrollSystem.sol\":2308:2375  employeeMapper[_address].balance += employeeMapper[_address].salary */\n      dup3\n      dup3\n      sload\n      add\n      swap3\n      pop\n      pop\n      dup2\n      swap1\n      sstore\n      pop\n        /* \"blockchain/payrollSystem.sol\":2159:2452  if(employeeMapper[_address].salary < this.balance){\r... */\n      jump(tag_73)\n    tag_70:\n        /* \"blockchain/payrollSystem.sol\":2436:2441  false */\n      0x0\n        /* \"blockchain/payrollSystem.sol\":2404:2418  employeeMapper */\n      0x1\n        /* \"blockchain/payrollSystem.sol\":2404:2428  employeeMapper[_address] */\n      0x0\n        /* \"blockchain/payrollSystem.sol\":2419:2427  _address */\n      dup4\n        /* \"blockchain/payrollSystem.sol\":2404:2428  employeeMapper[_address] */\n      0xffffffffffffffffffffffffffffffffffffffff\n      and\n      0xffffffffffffffffffffffffffffffffffffffff\n      and\n      dup2\n      mstore\n      0x20\n      add\n      swap1\n      dup2\n      mstore\n      0x20\n      add\n      0x0\n      keccak256\n        /* \"blockchain/payrollSystem.sol\":2404:2433  employeeMapper[_address].paid */\n      0x0\n      add\n      0x1\n        /* \"blockchain/payrollSystem.sol\":2404:2441  employeeMapper[_address].paid = false */\n      0x100\n      exp\n      dup2\n      sload\n      dup2\n      0xff\n      mul\n      not\n      and\n      swap1\n      dup4\n      iszero\n      iszero\n      mul\n      or\n      swap1\n      sstore\n      pop\n        /* \"blockchain/payrollSystem.sol\":2159:2452  if(employeeMapper[_address].salary < this.balance){\r... */\n    tag_73:\n        /* \"blockchain/payrollSystem.sol\":2106:2459  function transfer(address _address) private{\r... */\n      pop\n      jump\t// out\n        /* \"blockchain/payrollSystem.sol\":2471:2597  function transferLog(address _address) private{\r... */\n    tag_72:\n        /* \"blockchain/payrollSystem.sol\":2548:2556  _address */\n      dup1\n        /* \"blockchain/payrollSystem.sol\":2528:2589  Transfer(msg.sender,_address,employeeMapper[_address].salary) */\n      0xffffffffffffffffffffffffffffffffffffffff\n      and\n        /* \"blockchain/payrollSystem.sol\":2537:2547  msg.sender */\n      caller\n        /* \"blockchain/payrollSystem.sol\":2528:2589  Transfer(msg.sender,_address,employeeMapper[_address].salary) */\n      0xffffffffffffffffffffffffffffffffffffffff\n      and\n      0xddf252ad1be2c89b69c2b068fc378daa952ba7f163c4a11628f55a4df523b3ef\n        /* \"blockchain/payrollSystem.sol\":2557:2571  employeeMapper */\n      0x1\n        /* \"blockchain/payrollSystem.sol\":2557:2581  employeeMapper[_address] */\n      0x0\n        /* \"blockchain/payrollSystem.sol\":2572:2580  _address */\n      dup6\n        /* \"blockchain/payrollSystem.sol\":2557:2581  employeeMapper[_address] */\n      0xffffffffffffffffffffffffffffffffffffffff\n      and\n      0xffffffffffffffffffffffffffffffffffffffff\n      and\n      dup2\n      mstore\n      0x20\n      add\n      swap1\n      dup2\n      mstore\n      0x20\n      add\n      0x0\n      keccak256\n        /* \"blockchain/payrollSystem.sol\":2557:2588  employeeMapper[_address].salary */\n      0x1\n      add\n      sload\n        /* \"blockchain/payrollSystem.sol\":2528:2589  Transfer(msg.sender,_address,employeeMapper[_address].salary) */\n      mload(0x40)\n      dup1\n      dup3\n      dup2\n      mstore\n      0x20\n      add\n      swap2\n      pop\n      pop\n      mload(0x40)\n      dup1\n      swap2\n      sub\n      swap1\n      log3\n        /* \"blockchain/payrollSystem.sol\":2471:2597  function transferLog(address _address) private{\r... */\n      pop\n      jump\t// out\n\n    auxdata: 0xa165627a7a72305820de0eb13bb1001a2816eed283d3e1e230fc566c2870da2e2e5f82d77b5a1cf4a50029\n}\n",
				"bytecode": {
					"linkReferences": {},
					"object": "608060405234801561001057600080fd5b50336000806101000a81548173ffffffffffffffffffffffffffffffffffffffff021916908373ffffffffffffffffffffffffffffffffffffffff160217905550610b12806100606000396000f300608060405260043610610099576000357c0100000000000000000000000000000000000000000000000000000000900463ffffffff16806318160ddd1461009e57806322003f10146100c95780633c9266e014610116578063661956fb1461015957806370a08231146101635780639f8a13d7146101ba578063d108177a14610215578063e53cacba14610258578063e7fd9a13146102c4575b600080fd5b3480156100aa57600080fd5b506100b3610311565b6040518082815260200191505060405180910390f35b3480156100d557600080fd5b50610114600480360381019080803573ffffffffffffffffffffffffffffffffffffffff1690602001909291908035906020019092919050505061038b565b005b34801561012257600080fd5b50610157600480360381019080803573ffffffffffffffffffffffffffffffffffffffff169060200190929190505050610431565b005b6101616104a5565b005b34801561016f57600080fd5b506101a4600480360381019080803573ffffffffffffffffffffffffffffffffffffffff169060200190929190505050610502565b6040518082815260200191505060405180910390f35b3480156101c657600080fd5b506101fb600480360381019080803573ffffffffffffffffffffffffffffffffffffffff16906020019092919050505061054e565b604051808215151515815260200191505060405180910390f35b34801561022157600080fd5b50610256600480360381019080803573ffffffffffffffffffffffffffffffffffffffff1690602001909291905050506105a7565b005b34801561026457600080fd5b5061026d610660565b6040518080602001828103825283818151815260200191508051906020019060200280838360005b838110156102b0578082015181840152602081019050610295565b505050509050019250505060405180910390f35b3480156102d057600080fd5b5061030f600480360381019080803573ffffffffffffffffffffffffffffffffffffffff16906020019092919080359060200190929190505050610749565b005b60008060009054906101000a900473ffffffffffffffffffffffffffffffffffffffff1673ffffffffffffffffffffffffffffffffffffffff163373ffffffffffffffffffffffffffffffffffffffff1614151561036e57600080fd5b3073ffffffffffffffffffffffffffffffffffffffff1631905090565b6000809054906101000a900473ffffffffffffffffffffffffffffffffffffffff1673ffffffffffffffffffffffffffffffffffffffff163373ffffffffffffffffffffffffffffffffffffffff161415156103e657600080fd5b80600160008473ffffffffffffffffffffffffffffffffffffffff1673ffffffffffffffffffffffffffffffffffffffff168152602001908152602001600020600101819055505050565b61043a8161054e565b80156104935750600160008273ffffffffffffffffffffffffffffffffffffffff1673ffffffffffffffffffffffffffffffffffffffff16815260200190815260200160002060000160019054906101000a900460ff16155b156104a2576104a181610882565b5b50565b6000809054906101000a900473ffffffffffffffffffffffffffffffffffffffff1673ffffffffffffffffffffffffffffffffffffffff163373ffffffffffffffffffffffffffffffffffffffff1614151561050057600080fd5b565b6000600160008373ffffffffffffffffffffffffffffffffffffffff1673ffffffffffffffffffffffffffffffffffffffff168152602001908152602001600020600201549050919050565b6000600160008373ffffffffffffffffffffffffffffffffffffffff1673ffffffffffffffffffffffffffffffffffffffff16815260200190815260200160002060000160009054906101000a900460ff169050919050565b6000809054906101000a900473ffffffffffffffffffffffffffffffffffffffff1673ffffffffffffffffffffffffffffffffffffffff163373ffffffffffffffffffffffffffffffffffffffff1614151561060257600080fd5b6000600160008373ffffffffffffffffffffffffffffffffffffffff1673ffffffffffffffffffffffffffffffffffffffff16815260200190815260200160002060000160006101000a81548160ff02191690831515021790555050565b60606000809054906101000a900473ffffffffffffffffffffffffffffffffffffffff1673ffffffffffffffffffffffffffffffffffffffff163373ffffffffffffffffffffffffffffffffffffffff161415156106bd57600080fd5b600280548060200260200160405190810160405280929190818152602001828054801561073f57602002820191906000526020600020905b8160009054906101000a900473ffffffffffffffffffffffffffffffffffffffff1673ffffffffffffffffffffffffffffffffffffffff16815260200190600101908083116106f5575b5050505050905090565b60008060009054906101000a900473ffffffffffffffffffffffffffffffffffffffff1673ffffffffffffffffffffffffffffffffffffffff163373ffffffffffffffffffffffffffffffffffffffff161415156107a657600080fd5b600160008473ffffffffffffffffffffffffffffffffffffffff1673ffffffffffffffffffffffffffffffffffffffff168152602001908152602001600020905060018160000160006101000a81548160ff0219169083151502179055508181600101819055506000816002018190555060028390806001815401808255809150509060018203906000526020600020016000909192909190916101000a81548173ffffffffffffffffffffffffffffffffffffffff021916908373ffffffffffffffffffffffffffffffffffffffff16021790555050505050565b3073ffffffffffffffffffffffffffffffffffffffff1631600160008373ffffffffffffffffffffffffffffffffffffffff1673ffffffffffffffffffffffffffffffffffffffff1681526020019081526020016000206001015410156109dd576108ec81610a3c565b60018060008373ffffffffffffffffffffffffffffffffffffffff1673ffffffffffffffffffffffffffffffffffffffff16815260200190815260200160002060000160016101000a81548160ff021916908315150217905550600160008273ffffffffffffffffffffffffffffffffffffffff1673ffffffffffffffffffffffffffffffffffffffff16815260200190815260200160002060010154600160008373ffffffffffffffffffffffffffffffffffffffff1673ffffffffffffffffffffffffffffffffffffffff16815260200190815260200160002060020160008282540192505081905550610a39565b6000600160008373ffffffffffffffffffffffffffffffffffffffff1673ffffffffffffffffffffffffffffffffffffffff16815260200190815260200160002060000160016101000a81548160ff0219169083151502179055505b50565b8073ffffffffffffffffffffffffffffffffffffffff163373ffffffffffffffffffffffffffffffffffffffff167fddf252ad1be2c89b69c2b068fc378daa952ba7f163c4a11628f55a4df523b3ef600160008573ffffffffffffffffffffffffffffffffffffffff1673ffffffffffffffffffffffffffffffffffffffff168152602001908152602001600020600101546040518082815260200191505060405180910390a3505600a165627a7a72305820de0eb13bb1001a2816eed283d3e1e230fc566c2870da2e2e5f82d77b5a1cf4a50029",
					"opcodes": "PUSH1 0x80 PUSH1 0x40 MSTORE CALLVALUE DUP1 ISZERO PUSH2 0x10 JUMPI PUSH1 0x0 DUP1 REVERT JUMPDEST POP CALLER PUSH1 0x0 DUP1 PUSH2 0x100 EXP DUP2 SLOAD DUP2 PUSH20 0xFFFFFFFFFFFFFFFFFFFFFFFFFFFFFFFFFFFFFFFF MUL NOT AND SWAP1 DUP4 PUSH20 0xFFFFFFFFFFFFFFFFFFFFFFFFFFFFFFFFFFFFFFFF AND MUL OR SWAP1 SSTORE POP PUSH2 0xB12 DUP1 PUSH2 0x60 PUSH1 0x0 CODECOPY PUSH1 0x0 RETURN STOP PUSH1 0x80 PUSH1 0x40 MSTORE PUSH1 0x4 CALLDATASIZE LT PUSH2 0x99 JUMPI PUSH1 0x0 CALLDATALOAD PUSH29 0x100000000000000000000000000000000000000000000000000000000 SWAP1 DIV PUSH4 0xFFFFFFFF AND DUP1 PUSH4 0x18160DDD EQ PUSH2 0x9E JUMPI DUP1 PUSH4 0x22003F10 EQ PUSH2 0xC9 JUMPI DUP1 PUSH4 0x3C9266E0 EQ PUSH2 0x116 JUMPI DUP1 PUSH4 0x661956FB EQ PUSH2 0x159 JUMPI DUP1 PUSH4 0x70A08231 EQ PUSH2 0x163 JUMPI DUP1 PUSH4 0x9F8A13D7 EQ PUSH2 0x1BA JUMPI DUP1 PUSH4 0xD108177A EQ PUSH2 0x215 JUMPI DUP1 PUSH4 0xE53CACBA EQ PUSH2 0x258 JUMPI DUP1 PUSH4 0xE7FD9A13 EQ PUSH2 0x2C4 JUMPI JUMPDEST PUSH1 0x0 DUP1 REVERT JUMPDEST CALLVALUE DUP1 ISZERO PUSH2 0xAA JUMPI PUSH1 0x0 DUP1 REVERT JUMPDEST POP PUSH2 0xB3 PUSH2 0x311 JUMP JUMPDEST PUSH1 0x40 MLOAD DUP1 DUP3 DUP2 MSTORE PUSH1 0x20 ADD SWAP2 POP POP PUSH1 0x40 MLOAD DUP1 SWAP2 SUB SWAP1 RETURN JUMPDEST CALLVALUE DUP1 ISZERO PUSH2 0xD5 JUMPI PUSH1 0x0 DUP1 REVERT JUMPDEST POP PUSH2 0x114 PUSH1 0x4 DUP1 CALLDATASIZE SUB DUP2 ADD SWAP1 DUP1 DUP1 CALLDATALOAD PUSH20 0xFFFFFFFFFFFFFFFFFFFFFFFFFFFFFFFFFFFFFFFF AND SWAP1 PUSH1 0x20 ADD SWAP1 SWAP3 SWAP2 SWAP1 DUP1 CALLDATALOAD SWAP1 PUSH1 0x20 ADD SWAP1 SWAP3 SWAP2 SWAP1 POP POP POP PUSH2 0x38B JUMP JUMPDEST STOP JUMPDEST CALLVALUE DUP1 ISZERO PUSH2 0x122 JUMPI PUSH1 0x0 DUP1 REVERT JUMPDEST POP PUSH2 0x157 PUSH1 0x4 DUP1 CALLDATASIZE SUB DUP2 ADD SWAP1 DUP1 DUP1 CALLDATALOAD PUSH20 0xFFFFFFFFFFFFFFFFFFFFFFFFFFFFFFFFFFFFFFFF AND SWAP1 PUSH1 0x20 ADD SWAP1 SWAP3 SWAP2 SWAP1 POP POP POP PUSH2 0x431 JUMP JUMPDEST STOP JUMPDEST PUSH2 0x161 PUSH2 0x4A5 JUMP JUMPDEST STOP JUMPDEST CALLVALUE DUP1 ISZERO PUSH2 0x16F JUMPI PUSH1 0x0 DUP1 REVERT JUMPDEST POP PUSH2 0x1A4 PUSH1 0x4 DUP1 CALLDATASIZE SUB DUP2 ADD SWAP1 DUP1 DUP1 CALLDATALOAD PUSH20 0xFFFFFFFFFFFFFFFFFFFFFFFFFFFFFFFFFFFFFFFF AND SWAP1 PUSH1 0x20 ADD SWAP1 SWAP3 SWAP2 SWAP1 POP POP POP PUSH2 0x502 JUMP JUMPDEST PUSH1 0x40 MLOAD DUP1 DUP3 DUP2 MSTORE PUSH1 0x20 ADD SWAP2 POP POP PUSH1 0x40 MLOAD DUP1 SWAP2 SUB SWAP1 RETURN JUMPDEST CALLVALUE DUP1 ISZERO PUSH2 0x1C6 JUMPI PUSH1 0x0 DUP1 REVERT JUMPDEST POP PUSH2 0x1FB PUSH1 0x4 DUP1 CALLDATASIZE SUB DUP2 ADD SWAP1 DUP1 DUP1 CALLDATALOAD PUSH20 0xFFFFFFFFFFFFFFFFFFFFFFFFFFFFFFFFFFFFFFFF AND SWAP1 PUSH1 0x20 ADD SWAP1 SWAP3 SWAP2 SWAP1 POP POP POP PUSH2 0x54E JUMP JUMPDEST PUSH1 0x40 MLOAD DUP1 DUP3 ISZERO ISZERO ISZERO ISZERO DUP2 MSTORE PUSH1 0x20 ADD SWAP2 POP POP PUSH1 0x40 MLOAD DUP1 SWAP2 SUB SWAP1 RETURN JUMPDEST CALLVALUE DUP1 ISZERO PUSH2 0x221 JUMPI PUSH1 0x0 DUP1 REVERT JUMPDEST POP PUSH2 0x256 PUSH1 0x4 DUP1 CALLDATASIZE SUB DUP2 ADD SWAP1 DUP1 DUP1 CALLDATALOAD PUSH20 0xFFFFFFFFFFFFFFFFFFFFFFFFFFFFFFFFFFFFFFFF AND SWAP1 PUSH1 0x20 ADD SWAP1 SWAP3 SWAP2 SWAP1 POP POP POP PUSH2 0x5A7 JUMP JUMPDEST STOP JUMPDEST CALLVALUE DUP1 ISZERO PUSH2 0x264 JUMPI PUSH1 0x0 DUP1 REVERT JUMPDEST POP PUSH2 0x26D PUSH2 0x660 JUMP JUMPDEST PUSH1 0x40 MLOAD DUP1 DUP1 PUSH1 0x20 ADD DUP3 DUP2 SUB DUP3 MSTORE DUP4 DUP2 DUP2 MLOAD DUP2 MSTORE PUSH1 0x20 ADD SWAP2 POP DUP1 MLOAD SWAP1 PUSH1 0x20 ADD SWAP1 PUSH1 0x20 MUL DUP1 DUP4 DUP4 PUSH1 0x0 JUMPDEST DUP4 DUP2 LT ISZERO PUSH2 0x2B0 JUMPI DUP1 DUP3 ADD MLOAD DUP2 DUP5 ADD MSTORE PUSH1 0x20 DUP2 ADD SWAP1 POP PUSH2 0x295 JUMP JUMPDEST POP POP POP POP SWAP1 POP ADD SWAP3 POP POP POP PUSH1 0x40 MLOAD DUP1 SWAP2 SUB SWAP1 RETURN JUMPDEST CALLVALUE DUP1 ISZERO PUSH2 0x2D0 JUMPI PUSH1 0x0 DUP1 REVERT JUMPDEST POP PUSH2 0x30F PUSH1 0x4 DUP1 CALLDATASIZE SUB DUP2 ADD SWAP1 DUP1 DUP1 CALLDATALOAD PUSH20 0xFFFFFFFFFFFFFFFFFFFFFFFFFFFFFFFFFFFFFFFF AND SWAP1 PUSH1 0x20 ADD SWAP1 SWAP3 SWAP2 SWAP1 DUP1 CALLDATALOAD SWAP1 PUSH1 0x20 ADD SWAP1 SWAP3 SWAP2 SWAP1 POP POP POP PUSH2 0x749 JUMP JUMPDEST STOP JUMPDEST PUSH1 0x0 DUP1 PUSH1 0x0 SWAP1 SLOAD SWAP1 PUSH2 0x100 EXP SWAP1 DIV PUSH20 0xFFFFFFFFFFFFFFFFFFFFFFFFFFFFFFFFFFFFFFFF AND PUSH20 0xFFFFFFFFFFFFFFFFFFFFFFFFFFFFFFFFFFFFFFFF AND CALLER PUSH20 0xFFFFFFFFFFFFFFFFFFFFFFFFFFFFFFFFFFFFFFFF AND EQ ISZERO ISZERO PUSH2 0x36E JUMPI PUSH1 0x0 DUP1 REVERT JUMPDEST ADDRESS PUSH20 0xFFFFFFFFFFFFFFFFFFFFFFFFFFFFFFFFFFFFFFFF AND BALANCE SWAP1 POP SWAP1 JUMP JUMPDEST PUSH1 0x0 DUP1 SWAP1 SLOAD SWAP1 PUSH2 0x100 EXP SWAP1 DIV PUSH20 0xFFFFFFFFFFFFFFFFFFFFFFFFFFFFFFFFFFFFFFFF AND PUSH20 0xFFFFFFFFFFFFFFFFFFFFFFFFFFFFFFFFFFFFFFFF AND CALLER PUSH20 0xFFFFFFFFFFFFFFFFFFFFFFFFFFFFFFFFFFFFFFFF AND EQ ISZERO ISZERO PUSH2 0x3E6 JUMPI PUSH1 0x0 DUP1 REVERT JUMPDEST DUP1 PUSH1 0x1 PUSH1 0x0 DUP5 PUSH20 0xFFFFFFFFFFFFFFFFFFFFFFFFFFFFFFFFFFFFFFFF AND PUSH20 0xFFFFFFFFFFFFFFFFFFFFFFFFFFFFFFFFFFFFFFFF AND DUP2 MSTORE PUSH1 0x20 ADD SWAP1 DUP2 MSTORE PUSH1 0x20 ADD PUSH1 0x0 KECCAK256 PUSH1 0x1 ADD DUP2 SWAP1 SSTORE POP POP POP JUMP JUMPDEST PUSH2 0x43A DUP2 PUSH2 0x54E JUMP JUMPDEST DUP1 ISZERO PUSH2 0x493 JUMPI POP PUSH1 0x1 PUSH1 0x0 DUP3 PUSH20 0xFFFFFFFFFFFFFFFFFFFFFFFFFFFFFFFFFFFFFFFF AND PUSH20 0xFFFFFFFFFFFFFFFFFFFFFFFFFFFFFFFFFFFFFFFF AND DUP2 MSTORE PUSH1 0x20 ADD SWAP1 DUP2 MSTORE PUSH1 0x20 ADD PUSH1 0x0 KECCAK256 PUSH1 0x0 ADD PUSH1 0x1 SWAP1 SLOAD SWAP1 PUSH2 0x100 EXP SWAP1 DIV PUSH1 0xFF AND ISZERO JUMPDEST ISZERO PUSH2 0x4A2 JUMPI PUSH2 0x4A1 DUP2 PUSH2 0x882 JUMP JUMPDEST JUMPDEST POP JUMP JUMPDEST PUSH1 0x0 DUP1 SWAP1 SLOAD SWAP1 PUSH2 0x100 EXP SWAP1 DIV PUSH20 0xFFFFFFFFFFFFFFFFFFFFFFFFFFFFFFFFFFFFFFFF AND PUSH20 0xFFFFFFFFFFFFFFFFFFFFFFFFFFFFFFFFFFFFFFFF AND CALLER PUSH20 0xFFFFFFFFFFFFFFFFFFFFFFFFFFFFFFFFFFFFFFFF AND EQ ISZERO ISZERO PUSH2 0x500 JUMPI PUSH1 0x0 DUP1 REVERT JUMPDEST JUMP JUMPDEST PUSH1 0x0 PUSH1 0x1 PUSH1 0x0 DUP4 PUSH20 0xFFFFFFFFFFFFFFFFFFFFFFFFFFFFFFFFFFFFFFFF AND PUSH20 0xFFFFFFFFFFFFFFFFFFFFFFFFFFFFFFFFFFFFFFFF AND DUP2 MSTORE PUSH1 0x20 ADD SWAP1 DUP2 MSTORE PUSH1 0x20 ADD PUSH1 0x0 KECCAK256 PUSH1 0x2 ADD SLOAD SWAP1 POP SWAP2 SWAP1 POP JUMP JUMPDEST PUSH1 0x0 PUSH1 0x1 PUSH1 0x0 DUP4 PUSH20 0xFFFFFFFFFFFFFFFFFFFFFFFFFFFFFFFFFFFFFFFF AND PUSH20 0xFFFFFFFFFFFFFFFFFFFFFFFFFFFFFFFFFFFFFFFF AND DUP2 MSTORE PUSH1 0x20 ADD SWAP1 DUP2 MSTORE PUSH1 0x20 ADD PUSH1 0x0 KECCAK256 PUSH1 0x0 ADD PUSH1 0x0 SWAP1 SLOAD SWAP1 PUSH2 0x100 EXP SWAP1 DIV PUSH1 0xFF AND SWAP1 POP SWAP2 SWAP1 POP JUMP JUMPDEST PUSH1 0x0 DUP1 SWAP1 SLOAD SWAP1 PUSH2 0x100 EXP SWAP1 DIV PUSH20 0xFFFFFFFFFFFFFFFFFFFFFFFFFFFFFFFFFFFFFFFF AND PUSH20 0xFFFFFFFFFFFFFFFFFFFFFFFFFFFFFFFFFFFFFFFF AND CALLER PUSH20 0xFFFFFFFFFFFFFFFFFFFFFFFFFFFFFFFFFFFFFFFF AND EQ ISZERO ISZERO PUSH2 0x602 JUMPI PUSH1 0x0 DUP1 REVERT JUMPDEST PUSH1 0x0 PUSH1 0x1 PUSH1 0x0 DUP4 PUSH20 0xFFFFFFFFFFFFFFFFFFFFFFFFFFFFFFFFFFFFFFFF AND PUSH20 0xFFFFFFFFFFFFFFFFFFFFFFFFFFFFFFFFFFFFFFFF AND DUP2 MSTORE PUSH1 0x20 ADD SWAP1 DUP2 MSTORE PUSH1 0x20 ADD PUSH1 0x0 KECCAK256 PUSH1 0x0 ADD PUSH1 0x0 PUSH2 0x100 EXP DUP2 SLOAD DUP2 PUSH1 0xFF MUL NOT AND SWAP1 DUP4 ISZERO ISZERO MUL OR SWAP1 SSTORE POP POP JUMP JUMPDEST PUSH1 0x60 PUSH1 0x0 DUP1 SWAP1 SLOAD SWAP1 PUSH2 0x100 EXP SWAP1 DIV PUSH20 0xFFFFFFFFFFFFFFFFFFFFFFFFFFFFFFFFFFFFFFFF AND PUSH20 0xFFFFFFFFFFFFFFFFFFFFFFFFFFFFFFFFFFFFFFFF AND CALLER PUSH20 0xFFFFFFFFFFFFFFFFFFFFFFFFFFFFFFFFFFFFFFFF AND EQ ISZERO ISZERO PUSH2 0x6BD JUMPI PUSH1 0x0 DUP1 REVERT JUMPDEST PUSH1 0x2 DUP1 SLOAD DUP1 PUSH1 0x20 MUL PUSH1 0x20 ADD PUSH1 0x40 MLOAD SWAP1 DUP2 ADD PUSH1 0x40 MSTORE DUP1 SWAP3 SWAP2 SWAP1 DUP2 DUP2 MSTORE PUSH1 0x20 ADD DUP3 DUP1 SLOAD DUP1 ISZERO PUSH2 0x73F JUMPI PUSH1 0x20 MUL DUP3 ADD SWAP2 SWAP1 PUSH1 0x0 MSTORE PUSH1 0x20 PUSH1 0x0 KECCAK256 SWAP1 JUMPDEST DUP2 PUSH1 0x0 SWAP1 SLOAD SWAP1 PUSH2 0x100 EXP SWAP1 DIV PUSH20 0xFFFFFFFFFFFFFFFFFFFFFFFFFFFFFFFFFFFFFFFF AND PUSH20 0xFFFFFFFFFFFFFFFFFFFFFFFFFFFFFFFFFFFFFFFF AND DUP2 MSTORE PUSH1 0x20 ADD SWAP1 PUSH1 0x1 ADD SWAP1 DUP1 DUP4 GT PUSH2 0x6F5 JUMPI JUMPDEST POP POP POP POP POP SWAP1 POP SWAP1 JUMP JUMPDEST PUSH1 0x0 DUP1 PUSH1 0x0 SWAP1 SLOAD SWAP1 PUSH2 0x100 EXP SWAP1 DIV PUSH20 0xFFFFFFFFFFFFFFFFFFFFFFFFFFFFFFFFFFFFFFFF AND PUSH20 0xFFFFFFFFFFFFFFFFFFFFFFFFFFFFFFFFFFFFFFFF AND CALLER PUSH20 0xFFFFFFFFFFFFFFFFFFFFFFFFFFFFFFFFFFFFFFFF AND EQ ISZERO ISZERO PUSH2 0x7A6 JUMPI PUSH1 0x0 DUP1 REVERT JUMPDEST PUSH1 0x1 PUSH1 0x0 DUP5 PUSH20 0xFFFFFFFFFFFFFFFFFFFFFFFFFFFFFFFFFFFFFFFF AND PUSH20 0xFFFFFFFFFFFFFFFFFFFFFFFFFFFFFFFFFFFFFFFF AND DUP2 MSTORE PUSH1 0x20 ADD SWAP1 DUP2 MSTORE PUSH1 0x20 ADD PUSH1 0x0 KECCAK256 SWAP1 POP PUSH1 0x1 DUP2 PUSH1 0x0 ADD PUSH1 0x0 PUSH2 0x100 EXP DUP2 SLOAD DUP2 PUSH1 0xFF MUL NOT AND SWAP1 DUP4 ISZERO ISZERO MUL OR SWAP1 SSTORE POP DUP2 DUP2 PUSH1 0x1 ADD DUP2 SWAP1 SSTORE POP PUSH1 0x0 DUP2 PUSH1 0x2 ADD DUP2 SWAP1 SSTORE POP PUSH1 0x2 DUP4 SWAP1 DUP1 PUSH1 0x1 DUP2 SLOAD ADD DUP1 DUP3 SSTORE DUP1 SWAP2 POP POP SWAP1 PUSH1 0x1 DUP3 SUB SWAP1 PUSH1 0x0 MSTORE PUSH1 0x20 PUSH1 0x0 KECCAK256 ADD PUSH1 0x0 SWAP1 SWAP2 SWAP3 SWAP1 SWAP2 SWAP1 SWAP2 PUSH2 0x100 EXP DUP2 SLOAD DUP2 PUSH20 0xFFFFFFFFFFFFFFFFFFFFFFFFFFFFFFFFFFFFFFFF MUL NOT AND SWAP1 DUP4 PUSH20 0xFFFFFFFFFFFFFFFFFFFFFFFFFFFFFFFFFFFFFFFF AND MUL OR SWAP1 SSTORE POP POP POP POP POP JUMP JUMPDEST ADDRESS PUSH20 0xFFFFFFFFFFFFFFFFFFFFFFFFFFFFFFFFFFFFFFFF AND BALANCE PUSH1 0x1 PUSH1 0x0 DUP4 PUSH20 0xFFFFFFFFFFFFFFFFFFFFFFFFFFFFFFFFFFFFFFFF AND PUSH20 0xFFFFFFFFFFFFFFFFFFFFFFFFFFFFFFFFFFFFFFFF AND DUP2 MSTORE PUSH1 0x20 ADD SWAP1 DUP2 MSTORE PUSH1 0x20 ADD PUSH1 0x0 KECCAK256 PUSH1 0x1 ADD SLOAD LT ISZERO PUSH2 0x9DD JUMPI PUSH2 0x8EC DUP2 PUSH2 0xA3C JUMP JUMPDEST PUSH1 0x1 DUP1 PUSH1 0x0 DUP4 PUSH20 0xFFFFFFFFFFFFFFFFFFFFFFFFFFFFFFFFFFFFFFFF AND PUSH20 0xFFFFFFFFFFFFFFFFFFFFFFFFFFFFFFFFFFFFFFFF AND DUP2 MSTORE PUSH1 0x20 ADD SWAP1 DUP2 MSTORE PUSH1 0x20 ADD PUSH1 0x0 KECCAK256 PUSH1 0x0 ADD PUSH1 0x1 PUSH2 0x100 EXP DUP2 SLOAD DUP2 PUSH1 0xFF MUL NOT AND SWAP1 DUP4 ISZERO ISZERO MUL OR SWAP1 SSTORE POP PUSH1 0x1 PUSH1 0x0 DUP3 PUSH20 0xFFFFFFFFFFFFFFFFFFFFFFFFFFFFFFFFFFFFFFFF AND PUSH20 0xFFFFFFFFFFFFFFFFFFFFFFFFFFFFFFFFFFFFFFFF AND DUP2 MSTORE PUSH1 0x20 ADD SWAP1 DUP2 MSTORE PUSH1 0x20 ADD PUSH1 0x0 KECCAK256 PUSH1 0x1 ADD SLOAD PUSH1 0x1 PUSH1 0x0 DUP4 PUSH20 0xFFFFFFFFFFFFFFFFFFFFFFFFFFFFFFFFFFFFFFFF AND PUSH20 0xFFFFFFFFFFFFFFFFFFFFFFFFFFFFFFFFFFFFFFFF AND DUP2 MSTORE PUSH1 0x20 ADD SWAP1 DUP2 MSTORE PUSH1 0x20 ADD PUSH1 0x0 KECCAK256 PUSH1 0x2 ADD PUSH1 0x0 DUP3 DUP3 SLOAD ADD SWAP3 POP POP DUP2 SWAP1 SSTORE POP PUSH2 0xA39 JUMP JUMPDEST PUSH1 0x0 PUSH1 0x1 PUSH1 0x0 DUP4 PUSH20 0xFFFFFFFFFFFFFFFFFFFFFFFFFFFFFFFFFFFFFFFF AND PUSH20 0xFFFFFFFFFFFFFFFFFFFFFFFFFFFFFFFFFFFFFFFF AND DUP2 MSTORE PUSH1 0x20 ADD SWAP1 DUP2 MSTORE PUSH1 0x20 ADD PUSH1 0x0 KECCAK256 PUSH1 0x0 ADD PUSH1 0x1 PUSH2 0x100 EXP DUP2 SLOAD DUP2 PUSH1 0xFF MUL NOT AND SWAP1 DUP4 ISZERO ISZERO MUL OR SWAP1 SSTORE POP JUMPDEST POP JUMP JUMPDEST DUP1 PUSH20 0xFFFFFFFFFFFFFFFFFFFFFFFFFFFFFFFFFFFFFFFF AND CALLER PUSH20 0xFFFFFFFFFFFFFFFFFFFFFFFFFFFFFFFFFFFFFFFF AND PUSH32 0xDDF252AD1BE2C89B69C2B068FC378DAA952BA7F163C4A11628F55A4DF523B3EF PUSH1 0x1 PUSH1 0x0 DUP6 PUSH20 0xFFFFFFFFFFFFFFFFFFFFFFFFFFFFFFFFFFFFFFFF AND PUSH20 0xFFFFFFFFFFFFFFFFFFFFFFFFFFFFFFFFFFFFFFFF AND DUP2 MSTORE PUSH1 0x20 ADD SWAP1 DUP2 MSTORE PUSH1 0x20 ADD PUSH1 0x0 KECCAK256 PUSH1 0x1 ADD SLOAD PUSH1 0x40 MLOAD DUP1 DUP3 DUP2 MSTORE PUSH1 0x20 ADD SWAP2 POP POP PUSH1 0x40 MLOAD DUP1 SWAP2 SUB SWAP1 LOG3 POP JUMP STOP LOG1 PUSH6 0x627A7A723058 KECCAK256 0xde 0xe 0xb1 EXTCODESIZE 0xb1 STOP BYTE 0x28 AND 0xee 0xd2 DUP4 0xd3 0xe1 0xe2 ADDRESS 0xfc JUMP PUSH13 0x2870DA2E2E5F82D77B5A1CF4A5 STOP 0x29 "
				},
				"gasEstimates": {
					"creation": {
						"codeDepositCost": "566800",
						"executionCost": "20866",
						"totalCost": "587666"
					},
					"external": {
						"addEmployee(address,uint256)": "86681",
						"balanceOf(address)": "653",
						"depositInvestment()": "451",
						"isActive(address)": "723",
						"listOutEmployees()": "infinite",
						"removeEmployee(address)": "20968",
						"sendSalary(address)": "45010",
						"totalSupply()": "883",
						"updateSalary(address,uint256)": "20634"
					},
					"internal": {
						"transfer(address)": "infinite",
						"transferLog(address)": "infinite"
					}
				},
				"methodIdentifiers": {
					"addEmployee(address,uint256)": "e7fd9a13",
					"balanceOf(address)": "70a08231",
					"depositInvestment()": "661956fb",
					"isActive(address)": "9f8a13d7",
					"listOutEmployees()": "e53cacba",
					"removeEmployee(address)": "d108177a",
					"sendSalary(address)": "3c9266e0",
					"totalSupply()": "18160ddd",
					"updateSalary(address,uint256)": "22003f10"
				}
			},
			"userdoc": {
				"methods": {}
			}
		}
	}
}